:020000040800F2
:100000000000032091020008A15D0008AD5D00081A
:10001000B95D0008C55D0008D15D00080000000062
:10002000000000000000000000000000DD5D00088E
:10003000E95D000800000000F55D0008CD5B0008E8
:10004000B9020008B9020008B9020008B9020008A4
:10005000B9020008B9020008B9020008B902000894
:10006000B9020008B9020008F55B0008C15C00088D
:10007000695C0008E15C00087D5C0008B9020008CA
:10008000B9020008D15C0008B9020008B9020008F2
:10009000B9020008B9020008B9020008B902000854
:1000A000B9020008B9020008B9020008B902000844
:1000B000B9020008B9020008B9020008315D000861
:1000C000415D0008B9020008B9020008B902000841
:1000D000B90200080D5C0008B90200081D5C0008A8
:1000E000015C0008B9020008B9020008B902000862
:1000F000B9020008B9020008B9020008F15C000862
:10010000B9020008B9020008B9020008B9020008E3
:10011000B9020008B9020008B9020008215D000810
:10012000015D0008955C00083D5C0008B90200080C
:10013000B9020008B9020008B9020008B9020008B3
:10014000B9020008B9020008B9020008115D0008F0
:10015000B9020008A95C0008515C00082D5C000889
:10016000515D0008B9020008B9020008B902000890
:10017000B9020008B9020008B90200080000000036
:10018000B9020008B9020008B9020008B902000863
:10019000D95B0008B9020008B9020008B9020008DA
:1001A0000000000000000000B902000800B583B0A4
:1001B0002B4B2C4A9A420BD2131D2B4AD21A22F0F7
:1001C00003021A44043B002143F8041B9342FBD171
:1001D000264B274A9A420CD2581E801A20F0030060
:1001E0000430244B184453F8041B42F8041B834288
:1001F000F9D105F015F9694601A805F049F81E4E38
:100200001E4B9E1BB610002E07DD1B4D002455F81B
:10021000043B98470134A642F9D1194E194B9E1B55
:10022000B610002E07DD164D002455F8043B984704
:100230000134A642F9D10099019806F095F90646D5
:10024000114C124B1C1BA410002C06DD1D46013C5A
:1002500055F8043D9847002CF9D1304605F014F8C4
:10026000A077002018030020A377002018030020A7
:100270000000002090BB0008E4020008E40200082F
:10028000E4020008E4020008E4020008E4020008B6
:10029000FFF78CBFFEE700BFFEE700BFFEE700BF31
:1002A000FEE700BFFEE700BFFEE700BFFEE700BFBE
:0C02B000FEE700BFFEE700BFFEE700BF56
:1002BC0090BB0008000000201803002090BB000831
:1002CC00000000100000001018030020A077002090
:0802DC000000001000000010FA
:10030000704700BF10B50446074B1B680748A0FBA9
:100310000330800900F010FB002221464FF0FF302F
:1003200000F0CCFA002010BD18000020D34D621060
:1003300008B50B4B1A6842F400721A601A6842F44E
:1003400080621A601A6842F480721A60032000F01A
:10035000A3FA0F20FFF7D6FFFFF7D2FF002008BD5A
:10036000003C0240024A136801331360704700BF2B
:1003700048080020014B1868704700BF480800205B
:1003800030B583B00190FFF7F5FF0546019CB4F14D
:10039000FF3F18BF0134FFF7EDFF401BA042FAD327
:1003A00003B030BD704700BF002800F0BD8010B51D
:1003B0000446036C23B9436480F83C30FFF7F2FF36
:1003C000236C13F0100F40F0AA80236C23F48853A1
:1003D00023F0020343F002032364544B5A6822F4CF
:1003E00040325A60596862680A435A60226853680A
:1003F00023F48073536022685368216943EA012320
:1004000053602268536823F0407353602268516838
:10041000A3680B4353602268936823F400639360DE
:1004200022689168E3680B439360A26A404B9A424A
:1004300014D02268936823F07063936022689168F7
:10044000A36A0B4393602268936823F04053936040
:1004500022689168E36A0B43936009E0226893681D
:1004600023F0706393602268936823F04053936095
:100470002268936823F00203936022689368A1695D
:1004800043EA41039360236ACBB12268536843F483
:10049000006353602268536823F4604353604FF451
:1004A000604393FAA3F3B3FA83F320684168626A66
:1004B000013ADBB202FA03F30B43436004E0226823
:1004C000536823F4006353602268D36A23F47003F3
:1004D000D3622168CA6AE369013B42EA0353CB62F3
:1004E0002268936823F40073936022689368216BF9
:1004F00043EA412393602268936823F48063936006
:1005000022689368616943EA8123936000206064F4
:10051000236C23F0030343F00103236400E0012074
:10052000002384F83C3010BD0120704700230140B7
:100530000100000F30B583B00023019390F83C30E8
:10054000012B7ED0012380F83C3003689C6814F0B6
:10055000010F14D19C6844F001049C603E4B1C6860
:100560003E4BA3FB0434A40C04EB44040194019B14
:100570002BB1019C013C0194019C002CF9D1036832
:100580009C6814F0010F5ED0046C24F4E06424F045
:10059000010444F4807404645B6813F4806F05D034
:1005A000036C23F4405343F480530364036C13F44B
:1005B000805F1ABF436C23F0060300234364134695
:1005C0000446002280F83C20826B2548D063A26B51
:1005D00024481064A26B2448D06422686FF0220083
:1005E00010602568686840F0806068602568A868C9
:1005F00040F48070A86020680A4600F14C01A06BAE
:1006000000F07CFA194B5B6813F01F0F0AD12368C6
:100610009A6812F0405F18D19A6842F080429A605E
:10062000002017E02268124B9A4210D19B6813F009
:10063000405F0ED10E4A936843F0804393600020E0
:1006400008E0022006E0002004E0002002E0002094
:1006500000E0002003B030BD1800002083DE1B4303
:1006600075060008DD060008ED06000800230140BD
:100670000020014008B5836B1A6C12F0500F26D190
:100680001A6C42F400721A641A68916811F0405FA3
:1006900019D19969B9B9D16A11F4700F03D0916871
:1006A00011F4806F0FD1516821F0200151601A6C54
:1006B00022F480721A641A6C12F4805F03D11A6CEF
:1006C00042F001021A64184604F09AFF08BD9B6BC1
:1006D000DB6C984708BD00BF704700BF08B5806B52
:1006E000FFF7FAFF08BD00BF704700BF08B5806B79
:1006F00040230364436C43F004034364FFF7F4FFB7
:1007000008BD00BF30B482B00023019390F83C30A4
:10071000012B00F0B280012380F83C300B68092BDC
:1007200017D90568EA689BB203EB43031E3B072415
:1007300004FA03F322EA0303EB600568EA680B8816
:1007400003EB43031E3B8C6804FA03F31343EB6093
:1007500014E005682A699BB203EB4303072404FAFB
:1007600003F322EA03032B6105682A690B8803EB74
:1007700043038C6804FA03F313432B614B68062B85
:1007800016D805686A6B03EB8303053B1F2404FA44
:1007900003F322EA03036B6305686A6B0C884B68FA
:1007A00003EB8303053B04FA03F313436B632EE06F
:1007B0000C2B16D805682A6B03EB8303233B1F24FD
:1007C00004FA03F322EA03032B6305682A6B0C88FF
:1007D0004B6803EB8303233B04FA03F313432B63BC
:1007E00015E00568EA6A03EB8303413B1F2404FA22
:1007F00003F322EA0303EB620568EA6A0C884B689C
:1008000003EB8303413B04FA03F31343EB620268F7
:100810001C4B9A422CD10B68122B08D11A4A5368F0
:1008200043F4800353600268164B9A4220D10B6850
:10083000164A934201D0112B1AD1134A536843F43C
:10084000000353600A68114B9A4211D1104B1B6888
:10085000104AA2FB03239B0C03EB83035B00019371
:10086000019B2BB1019B013B0193019B002BF9D113
:10087000002380F83C30184600E0022002B030BC73
:10088000704700BF0020014000230140120000100B
:100890001800002083DE1B43074AD36823F4E0637B
:1008A0001B041B0C43F0BF6343F40033000200F44D
:1008B000E0600343D360704700ED00E030B4164BB6
:1008C000DB68C3F30223C3F10704042C28BF04240C
:1008D0001D1D062D8CBF033B0023012505FA04F4E2
:1008E000013C0C409C4005FA03F3013B1A402243B3
:1008F000002806DA00F00F001201D2B2074B1A549A
:1009000007E01201D2B200F1604000F5614080F8CA
:10091000002330BC704700BF00ED00E014ED00E0A4
:10092000420900F01F00012303FA00F0014B43F8D5
:100930002200704700E100E00138B0F1807F0AD268
:10094000064B5860F021064A82F823100020986078
:1009500007221A6070470120704700BF10E000E0D6
:1009600000ED00E0430900F01F00012202FA00F050
:100970006033024A42F82300704700BF00E100E004
:100980000428044A13680CBF43F0040323F0040353
:100990001360704710E000E0704700BF08B5FFF734
:1009A000FBFF08BD0268D3B2103B0849A1FB03134B
:1009B0001B090749C95CC165032B22F47F7222F031
:1009C000030288BF04328265806D7047ABAAAAAA71
:1009D0001CBA000838B50446FFF7CCFC002C00F028
:1009E00088800546002384F83430022384F83530AB
:1009F0002268136823F0010313600AE0FFF7BAFCD2
:100A0000401B052805D920236365032084F83500A1
:100A100038BD23681A6812F0010FEFD11968364A01
:100A20000A406068A1680843E168084321690843F7
:100A300061690843A1690843E1690843216A0143E8
:100A40000A43616A042903D1E06A216B01430A4326
:100A50001A6021684B6923F00703626A1343042A72
:100A600039D1A06A0343E26A002A34D0A5696DB97E
:100A7000012805D008B1022821D1C2F3006223E089
:100A8000B2F1C07F14BF002201221DE0B5F5005F66
:100A90000ED1032815D8DFE800F018021805C2F3BC
:100AA000006211E0B2F1C07F14BF002201220BE00E
:100AB00002280AD9032806D1C2F3006204E000220A
:100AC00002E0002200E000222AB1402363650120F9
:100AD00084F8350038BD4B612046FFF763FFE26DB7
:100AE0003F239340836000206065012384F8353004
:100AF00038BD012038BD00BF3F8010F070B490F8C1
:100B00003440012C41D0856D012480F8344090F8A8
:100B10003540E4B2012C33D1022480F83540002462
:100B200044650668346824F4802434600468636093
:100B30008368402B04D103689A600368D96003E09E
:100B4000036899600368DA60C26D3F239340AB602D
:100B50000268136843F0160313600268536943F098
:100B600080035361036C23B10268136843F00803E8
:100B700013600268136843F001031360002005E06E
:100B8000002380F83430022000E0022070BC70475F
:100B900090F83530DBB2022B03D08023436501206F
:100BA0007047052380F835300268136823F001038D
:100BB00013600020704700BFF0B583B004460023E7
:100BC0000193714B1E68876D3D68C26D0823934089
:100BD0002B4210D003681A6812F0040F0BD01A6869
:100BE00022F004021A60C26D08239340BB60436D7B
:100BF00043F001034365E26D644B93401D4209D00D
:100C00002268526912F0800F04D0BB60636D43F01C
:100C100002036365E26D5E4B93401D4209D022687A
:100C2000126812F0020F04D0BB60636D43F004033E
:100C30006365E26D102393401D4224D02268126840
:100C400012F0080F1FD0BB6023681A6812F4802FBF
:100C50000DD01B6813F4002F04D1236C9BB12046E8
:100C6000984710E0A36C73B1204698470BE01A68D0
:100C700012F4807F03D11A6822F008021A60236CF4
:100C80000BB120469847E26D202393401D4252D07D
:100C90002268126812F0100F4DD0BB6094F8353006
:100CA000DBB2052B22D12268136823F016031360F0
:100CB0002268536923F080035361236C0BB9A36C42
:100CC00023B12268136823F008031360E26D3F2309
:100CD0009340BB60002384F83430012384F835301E
:100CE000236D002B4DD0204698474AE023681A68B0
:100CF00012F4802F0DD01B6813F4002F04D1636C05
:100D0000CBB12046984716E0E36BA3B12046984745
:100D100011E01A6812F4807F09D11A6822F01002DB
:100D20001A60002384F83430012384F83530E36BF3
:100D30000BB120469847636D1BB3636D13F0010F31
:100D40001BD0052384F835302268136823F0010393
:100D50001360104AA2FB0632920A019B01330193F1
:100D60009A4204D323681B6813F0010FF5D10023C6
:100D700084F83430012384F83530E36C0BB120461D
:100D8000984703B0F0BD00BF1800002001008000AC
:100D900004008000B5814E1B406D704710B40949B6
:100DA0000C6924F440740C610C6944F440740C61C7
:100DB0000C6944F001040C61026043605DF8044B6F
:100DC000704700BF003C0240074B1A6922F4407292
:100DD0001A611A6942F400721A611A6942F001023A
:100DE0001A610160704700BF003C0240074B1A695E
:100DF00022F440721A611A6942F480721A611A6907
:100E000042F001021A610180704700BF003C0240BD
:100E1000274BDB6813F0100F07D0264AD36943F045
:100E20001003D3611022224BDA60214BDB6813F0F0
:100E3000200F07D01F4AD36943F00803D361202253
:100E40001B4BDA601A4BDB6813F0400F07D0194ACE
:100E5000D36943F00403D3614022154BDA60144B8D
:100E6000DB6813F0800F07D0124AD36943F0020306
:100E7000D36180220E4BDA600D4BDB6813F4807F68
:100E800008D00C4AD36943F00103D3614FF4807258
:100E9000074BDA60064BDB6813F0020F07D0054AF8
:100EA000D36943F02003D3610222014BDA6070471B
:100EB000003C02404C080020064B1B69002B07DA5F
:100EC000044B054A5A6002F188325A60002070478C
:100ED00001207047003C02402301674570B504467D
:100EE0000022154BDA61FFF745FA0646134D08E07C
:100EF000B4F1FF3F05D0CCB1FFF73CFA801B844230
:100F000016D3EB6813F4803FF2D10C4BDB6813F07F
:100F1000010F02D00122094BDA60084BDB6813F4A1
:100F2000F97F07D0FFF774FF012070BD032070BD6B
:100F3000032070BD002070BD4C080020003C024022
:100F40002DE9F041224C247E012C3ED098461746D4
:100F50000E46054601221E4B1A764CF25030FFF722
:100F6000BDFF044658BB6DB9FAB21A4B196921F49A
:100F70004071196119691961196941F0010119611B
:100F8000327012E0012D04D1B9B23046FFF72EFFC6
:100F90000BE0022D04D139463046FFF715FF04E07F
:100FA0003A4643463046FFF7F9FE4CF25030FFF721
:100FB00095FF0446074A136923F0010313610022D9
:100FC000034B1A762046BDE8F0810220BDE8F0818F
:100FD0004C080020003C02400F4A136923F4407380
:100FE0001361032906D1136943F4004343F004035A
:100FF000136108E00129084A13690CBF43F0040398
:1010000043F400431361044A136943F4803343EA11
:1010100000201061704700BF003C024010B441B195
:10102000012908D002290CBF4FF400744FF440741A
:1010300003E0002401E04FF480740B2888BF0430E3
:101040000F4B196921F4407119611A6922431A6121
:101050001A6922F0F8021A61F82292FAA2F2B2FAA0
:1010600082F21969D2B2904041F002021043186135
:101070001A6942F480321A615DF8044B704700BF70
:10108000003C0240164B1B6813F4007F10D0144B39
:101090001A6822F400721A601A6842F400621A6038
:1010A0001A6822F400621A601A6842F400721A6028
:1010B0000B4B1B6813F4806F10D0094B1A6822F495
:1010C00080621A601A6842F480521A601A6822F428
:1010D00080521A601A6842F480621A60704700BF3A
:1010E000003C02402DE9F843274B1B7E012B47D0E3
:1010F0000F4604460122244B1A764CF25030FFF77B
:10110000EDFE8146002835D14FF0FF333B60236868
:10111000012B10D16168207CFFF75EFF4CF250304C
:10112000FFF7DCFE8146194A136923F4004323F0DC
:10113000040313611CE0A568E3682B449D4217D2A9
:101140004CF25038114E217C2846FFF767FF40468D
:10115000FFF7C4FE336923F0FA033361814608B117
:101160003D6005E00135E268A3681344AB42EAD86C
:10117000FFF788FF0022044B1A764846BDE8F88343
:101180000220BDE8F88300BF4C080020003C02406C
:101190002DE9F04F85B00024734FDFF8D8E1734E8E
:1011A000DFF8D4C1DFF8D491DFF8D4A14FF0010803
:1011B00008FA04F80B6838EA030340F0CD804B6866
:1011C00023F01003022B11D1E50800EB8505D5F8BB
:1011D00020B004F007039B000F229A402BEA020B79
:1011E0000A6902FA03F343EA0B032B620268650003
:1011F0000323AB40DB4302EA030B4A6802F003021D
:10120000AA4042EA0B0202604A6822F01002013A48
:10121000012A11D8826803EA020BCA68AA4042EA8E
:101220000B028260426822EA080B4A68C2F300128D
:10123000A24042EA0B024260C26813408A6802FA86
:1012400005F52B43C3604B6813F0805F00F084808A
:10125000002303937B6C43F480437B647B6C03F437
:1012600080430393039B24F0030303F1804303F5BE
:101270009C33D3F808B004F00305AD000F22AA4058
:101280002BEA02020192704521D0604522D04845E8
:1012900023D0504524D0364A904224D002F58062B3
:1012A000904223D002F58062904222D0DFF8D4B081
:1012B000584521D00BF5806B584520D00BF5806B3D
:1012C00058450CBF4FF0090B4FF00A0B19E04FF0D7
:1012D000000B16E04FF0010B13E04FF0020B10E093
:1012E0004FF0030B0DE04FF0040B0AE04FF0050B3D
:1012F00007E04FF0060B04E04FF0070B01E04FF062
:10130000080B0BFA05F5019A15439D6033686FEAE7
:1013100008054A6812F4803F0CBF2B4048EA0303DB
:10132000336073684A6812F4003F0CBF2B4048EAF0
:1013300003037360B2684B6813F4801F0CBF2A402C
:1013400048EA0202B260F3684A6812F4001F0CBF58
:101350002B4048EA0303F3600134102C7FF426AFDE
:1013600005B0BDE8F08F00BF00380240003C0140EE
:101370000010024000000240000402400008024049
:10138000000C0240001C02400AB181617047090450
:101390008161704708B5044B5B69034203D0024B7F
:1013A000586104F059F908BD003C014003685A69CE
:1013B00012F4806F0DD06FF480625A6104230364CD
:1013C00000230363202280F83D2080F83C30012078
:1013D00070470020704700BF2DE9F04106460C46DB
:1013E00090461D46C1F3074715E0B5F1FF3F12D007
:1013F0002DB1FEF7BFFF069BC01A85420BD200231A
:101400003363202286F83D2086F83E3086F83C3053
:101410000320BDE8F081012F33680CBF5B699B6935
:10142000DB439BB223420CBF012300234345DCD0A6
:101430000020BDE8F08100BF2DE9F04104460D46D3
:1014400017469846C1F307462CE023685A6912F400
:10145000806F13D01A6842F400721A6023686FF428
:1014600080625A610423236400232363202284F8CA
:101470003D2084F83C300120BDE8F081B7F1FF3F0A
:1014800010D02FB1FEF776FFC8EB0000874209D2DB
:1014900000232363202284F83D2084F83C3003207D
:1014A000BDE8F081012E23680CBF5B699B69DB43BB
:1014B0009BB22B4214BF01230023002BC5D1002077
:1014C000BDE8F08170B504460D46164619E0204689
:1014D000FFF76CFFE0B9B5F1FF3F12D025B1FEF781
:1014E00049FF801B85420CD2236C43F02003236408
:1014F00000232363202284F83D2084F83C3003201D
:1015000070BD23685B6913F0800FE0D0002070BDD0
:10151000012070BD2DE9F04184B00546884616468D
:101520001F460B9C0268136843F480731360009499
:101530000A9B00224FF00111FFF74EFF002847D110
:101540002A6808F0FE03136123460A9A25492846B3
:10155000FFF772FF28B12B6C042B0CBF0123032370
:101560003BE0002303932B685A6903929B69039322
:10157000039B22460A992846FFF7A4FF034648B179
:101580002B6C042B26D12A68136843F40073136074
:10159000012322E0012F03D12A68F6B216611CE074
:1015A0002B68320A1A6122460A992846FFF78AFFF9
:1015B000034648B12B6C042B0ED12A68136843F400
:1015C00000731360012308E02A68F6B2166104E094
:1015D000032302E0032300E00323184604B0BDE820
:1015E000F08100BF020001002DE9F04184B0054602
:1015F0000E46174698460B9C0268136843F48063B6
:1016000013600268136843F48073136000940A9BAC
:1016100000224FF00111FFF7DFFE002876D12B6882
:10162000F6B206F0FE021A6123460A9A3E4928469F
:10163000FFF702FF28B12B6C042B0CBF01230323FF
:101640006DE0002303932B685A6903929B6903930F
:10165000039B22460A992846FFF734FF48B12B6CBA
:10166000042B55D12A68136843F4007313600123D7
:1016700055E0B8F1010F03D12B68FFB21F6115E0EF
:101680002B683A0A1A6122460A992846FFF71AFF80
:1016900048B12B6C042B3DD12A68136843F40073C6
:1016A000136001233BE02B68FFB21F6122460A99B9
:1016B0002846FFF707FF48B12B6C042B2CD12A6872
:1016C000136843F400731360012328E02A68136849
:1016D00043F48073136000940A9B00224FF00111C1
:1016E0002846FFF779FEC8B92B6846F001061E614F
:1016F00023460A9A0C492846FFF79EFE034670B11E
:101700002B6C042B0CBF0123032308E0032306E00A
:10171000032304E0032302E0032300E0032318462D
:1017200004B0BDE8F08100BF0200010070B50446BE
:101730000D46164619E02046FFF738FEE0B9B5F130
:10174000FF3F12D025B1FEF715FE801B85420CD25B
:10175000236C43F02003236400232363202284F8B6
:101760003D2084F83C30032070BD23685B6913F092
:10177000040FE0D0002070BD012070BD002875D09E
:1017800038B5044690F83D3013F0FF0F04D1002324
:1017900080F83C3004F03AFD242384F83D30226880
:1017A000136823F00103136002F0F2F8304BA3FB3F
:1017B00000239B0C22685360216865682D4A95427E
:1017C00001D8013308E04FF4967202FB03F32A4A72
:1017D000A2FB03239B0901330B622268636825493E
:1017E0008B4208D85B00B0FBF3F0C0F30B03032B74
:1017F00098BF04201CE0A16839B903EB4303B0FB98
:10180000F3F0C0F30B0383B109E003EB830303EBB5
:101810008303B0FBF3F0C0F30B0343B102E040F4E9
:10182000004005E040F4404002E0012000E00120DB
:10183000D0612268E169236A0B4313602268216941
:10184000E3680B43936022686169A3690B43D3602B
:101850002268136843F001031360002020642023F2
:1018600084F83D30206384F83E0038BD0120704785
:1018700083DE1B43A0860100D34D621010B483B0F9
:101880000023019390F83D30DBB2202B4FD100298B
:101890004FD0002A4FD02B4B1B68DB082A4CA4FBEF
:1018A00003431B0A03EB830303EB83030193019BB5
:1018B0005C1E01943BB90363202280F83D2080F830
:1018C0003C3003203AE003689C6914F0020FEED12B
:1018D00090F83C40012C30D0012480F83C401C683A
:1018E00014F0010F03D11C6844F001041C6004686B
:1018F000236823F400632360222380F83D302023F3
:1019000080F83E30002303644162028542850F4A1D
:10191000C26201680A6842F480620A6080F83C3062
:1019200001684A6842F4E0624A60184606E0022014
:1019300004E0012002E0012000E0022003B05DF895
:10194000044B70471800002089B5F8140000FFFF11
:101950002DE9F04182B004460E4617469846FEF740
:1019600009FD94F83D30DBB2202B18BF022340F074
:10197000A080054600901923012250492046FFF718
:101980002BFD002840F08E8094F83C30012B00F0B5
:101990008B80012384F83C3023681A6812F0010F11
:1019A00003D11A6842F001021A602268136823F416
:1019B00000631360212384F83D30402384F83E30D7
:1019C00000232364089B6362BDF8243063853C4B8D
:1019D000E362638D238501950A9B009343463A4653
:1019E00031462046FFF796FD002839D0236C042BA2
:1019F0004FF0000384F83C300CBF0123032358E070
:101A00002A460A992046FFF75DFD48B1236C042B56
:101A10004CD12268136843F400731360012348E03B
:101A20002268636A591C61621B781361238D013B34
:101A30009BB22385628D013A92B262852268516918
:101A400011F0040F0CD05BB1636A591C61621B7802
:101A50001361238D013B2385638D013B9BB263851D
:101A6000238D002BCCD12A460A992046FFF75EFE33
:101A7000034648B1236C042B1AD12268136843F43F
:101A800000731360012314E021680A6842F40072B5
:101A90000A60202284F83D20002284F83E2084F849
:101AA0003C2006E0022304E0022302E0032300E0DE
:101AB0000323184602B0BDE8F08100BF0200100009
:101AC0000000FFFF2DE9F04387B004460E4617469D
:101AD0009846BDF83C5000230593FEF74BFC94F864
:101AE0003D30DBB2202B40F0BA8081465F4B1B6853
:101AF000DB085F4AA2FB03231B0A03EB830303EB10
:101B000083030593059B5A1E05923BB9236320224C
:101B100084F83D2084F83C300323A3E023689A69CD
:101B200012F0020FEED194F83C20012A00F09980C7
:101B3000012284F83C201A6812F0010F03D11A68C0
:101B400042F001021A602268136823F400631360F4
:101B5000222384F83D30402384F83E300023236460
:101B60000E9B63626585434BE362638D9BB2238565
:101B7000002B4CD0A36B404ADA63A36B3F4ADA6474
:101B8000A26B00231364A26B5364A26B9364A26BD9
:101B900013652168238D626A1031A06BFEF7AEFFDA
:101BA000CDF804902323009343463A46314620461D
:101BB000FFF71AFD034648B1236C042B4FF00003D6
:101BC00084F83C300CBF012303234BE0012D05D1E9
:101BD00021680A6822F480620A6004E021684A6889
:101BE00042F480524A6000210391226850690390B8
:101BF00090690390039884F83C10516841F4807117
:101C0000516021684A6842F400624A602AE0CDF8D7
:101C100004902323009343463A4631462046FFF77B
:101C2000E3FC034648B1236C042B4FF0000384F817
:101C30003C300CBF0123032314E0002004902268F1
:101C400051690491916904910499116841F40071FA
:101C50001160202284F83D2084F83C0002E0022339
:101C600000E00223184607B0BDE8F083180000200A
:101C700089B5F8140000FFFFC51C0008911C00087E
:101C8000704700BF704700BF704700BF704700BF7C
:101C900010B5846BFFF780F8022812D02268136811
:101CA00023F48063136000236385202284F83D20A1
:101CB00084F83E30236C43F0100323642046FFF782
:101CC000E5FF10BD08B5806B90F83D30DBB290F8B1
:101CD0003E20212B04D0D2B2222B0ED1202A0CD1AF
:101CE0000268536823F4006353600023438502684D
:101CF000536843F44073536008BD0268136823F4CB
:101D0000806313600268136843F400731360026811
:101D1000536823F4805353600268536823F40063CC
:101D2000536000234385036C13B1FFF7AFFF08BD79
:101D3000202380F83D3090F83E30DBB2402B05D1B7
:101D4000002380F83E3004F0DBF908BD002380F862
:101D50003E3004F0D3F908BD704700BF10B504460B
:101D600090F83D30293B012B05D80023036328233D
:101D700080F83D3010E090F83D30DBB2602B07D0AA
:101D800003685B6813F4006F04BF202380F83D30C4
:101D90000023236384F83E302268136823F4006331
:101DA000136023685A6812F4006F3AD05A6822F41C
:101DB00000625A60626B92F83530DBB2012B12D0B0
:101DC000374B1365606BFEF7E3FE002851D02268A5
:101DD000136823F001031360202384F83D30606B07
:101DE000036D984745E0A36B2D4A1A65A06BFEF77B
:101DF000CFFE00283DD023685A6912F0400F04D06E
:101E0000626A511C61621B6913702268136823F0B7
:101E100001031360202384F83D30A06B036D9847C5
:101E200027E094F83D20D2B2602A16D1202284F80F
:101E30003D20002222645A6912F0400F04D0626AE9
:101E4000511C61621B6913702268136823F001033F
:101E500013602046FFF780FF0BE05A6912F0400F35
:101E600004D0626A511C61621B6913702046FFF73F
:101E70000DFF94F83D30DBB2282B0FD1236C13F00B
:101E8000040F0BD0074BE36200232363202284F866
:101E90003D2084F83E302046FFF7F4FE10BD00BF21
:101EA000F92800080000FFFFF0B58DB00468A569AF
:101EB0006269616890F83E30DBB2102B02D0402B93
:101EC00040F0218312F0011F3CD011F4007F00F09C
:101ED000378490F83E30DBB2402B0CD1036D23B930
:101EE000436C03F0FE03236113E1436C43F00103F1
:101EF000DBB223610DE10369B3F5804F0CD190F89B
:101F00003D30DBB2212B436C0EBF03F0FE0343F0E8
:101F10000103DBB22361FCE0036D3BB9436CDB11D1
:101F200003F0060343F0F0032361F2E0036D012B9D
:101F300040F0EF80436CDB1103F0060343F0F10344
:101F40002361E6E09E4B13403BB111F4007F00F0AB
:101F5000E080436CDBB22361DBE09A4B1340002B43
:101F600000F0D78011F4007F00F0D38090F83E306D
:101F7000DEB2C76AD0F830E090F83D30DBB2222BF9
:101F800040F0C080036D43B9402E06D101936369D0
:101F90000193A3690193019BBBE0036D93B90369AE
:101FA000B3F5404F0ED10023029363690293A369F6
:101FB0000293029B236843F480732360036D013313
:101FC0000365A6E0438D9BB253B903936369039302
:101FD000A3690393039B236843F4007323608EE09B
:101FE000438D9BB2012B4ED117F5803F21D1236841
:101FF00023F48063236003685C6814F4006F0CD0E2
:102000001C6824F480641C600023049303685C69EA
:1020100004949B690493049B71E0002405945C691B
:1020200005949C690594059C1C6844F400741C602C
:1020300065E0042F16D0082F14D0BEF1120F11D076
:10204000C36A022B236814BF23F4806343F48063C4
:1020500023600023069303685C6906949B690693DA
:10206000069B4CE0236823F48063236000230793DE
:1020700003685C6907949C690794079C1C6844F496
:1020800000741C603BE0438D9BB2022B22D1C36ADB
:10209000022B09D0236823F480632360046823683B
:1020A00043F40063236003E0236843F48063236008
:1020B00003685C6814F4006F03D05C6844F48054D7
:1020C0005C600023089303685C6908949B6908932B
:1020D000089B14E0236843F48063236003685C6812
:1020E00014F4006F03D05C6844F480545C600023F7
:1020F000099303685C6909949B690993099B002310
:10210000036506E000230A9363690A93A3690A93AF
:102110000A9B2D4B2B40002B00F013812B4B1340BF
:10212000002B00F0B98011F4806F00F0B580284BCF
:102130001340002B40F0B58090F83D30DBB290F8B2
:102140003E20D2B2C46A018D002943D1212B43D154
:10215000042C14D0082C12D014F5803F0FD0026844
:10216000536823F4E063536011230363002380F872
:102170003E30202380F83D3003F0DAFFE6E20268CB
:10218000536823F4E06353600268136843F40073F8
:10219000136000230363202380F83D3090F83E3025
:1021A000DBB2402B05D1002380F83E30FFF76CFDF9
:1021B000CCE2002380F83E3003F0BAFFC6E200BF55
:1021C000080001000200010004001000800001006E
:1021D00004000100212B05D0402A40F0B782222BB9
:1021E00040F0B482438D9BB22BB90268536823F44C
:1021F00080635360AAE290F83E30DBB2402B40D1BE
:10220000036D9BB9C36C012B07D10268836CDBB2F1
:102210001361036D0233036598E20268836CC3F3B4
:1022200007231361036D013303658FE2036D012BF7
:1022300007D10268836CDBB21361036D0133036560
:1022400084E2036D022B40F0818290F83D30DBB2D6
:10225000222B05D10268136843F48073136075E282
:1022600090F83D30DBB2212B40F070820268436A67
:10227000591C41621B781361438D013B9BB243851E
:1022800064E20268436A591C41621B781361438D02
:10229000013B9BB2438559E2A54B1340002B00F054
:1022A000558211F4007F00F05182C26A90F83D30EF
:1022B000DBB2212B40F04A82438D9BB253B10268BE
:1022C000436A591C41621B781361438D013B9BB2E9
:1022D00043853BE2042A14D0082A12D012F5803F2D
:1022E0000FD00268536823F4E06353601123036343
:1022F000002380F83E30202380F83D3003F018FFA3
:1023000024E20268536823F4E063536002681368B0
:1023100043F40073136000230363202380F83D30EF
:1023200090F83E30DBB2402B05D1002380F83E30E0
:10233000FFF7AAFC0AE2002380F83E3003F0F8FE23
:1023400004E27C4B1340002B60D011F4806F5DD011
:10235000774B1340002B5ED190F83D30DBB2222B3F
:1023600040F0F481438D9BB2032B0AD9436A5A1C77
:102370004262026812691A70438D013B9BB2438529
:10238000E4E1023B012B0FD80268136823F4806359
:1023900013600268136843F40063136002685368B3
:1023A00023F480635360D1E10268136823F48063EF
:1023B0001360C36A022B04D10268136843F40063FC
:1023C00013600268536823F4E0635360436A5A1C45
:1023D0004262026812691A70438D013B9BB24385C9
:1023E000202380F83D300023036390F83E30DBB2B9
:1023F000402B05D1002380F83E3003F081FEA5E19B
:10240000002380F83E3003F079FE9FE1484B1340F3
:10241000002B00F09B8111F4007F00F09781C26ACD
:10242000438D9BB2032B16D1042A04D0082A02D074
:1024300012F5803F04D10268136823F480631360AF
:10244000436A5A1C4262026812691A70438D013B4A
:102450009BB243857AE1438D9BB2022B48D1042A7B
:1024600012D0082A10D012F5803F0DD001680B68F9
:1024700023F480630B60013A012A0AD802681368CA
:1024800043F48073136004E00268136843F400733C
:102490001360436A5A1C4262026812691A70438DC3
:1024A000013B9BB24385436A5A1C4262026812692F
:1024B0001A70438D013B9BB243850268536823F435
:1024C00040735360202380F83D300023036390F86D
:1024D0003E30DBB2402B05D1002380F83E3003F0C4
:1024E0000FFE33E1002380F83E3003F007FE2DE1BC
:1024F000436A5A1C4262026812691A70438D013B9A
:102500009BB2438522E10C4B1340BBB111F4007F19
:1025100000F09380A16981F00401C1F38001A369F7
:1025200013F0800F0CBF8289028BFFF7A9FB0DE12E
:10253000040001004000010002000100844B134030
:10254000002B7AD011F4007F77D090F83D30DBB2C9
:10255000626822F4E062626000220B9202685169B4
:102560000B91116841F0010111600B9A01680A6832
:1025700022F480620A6001684A6812F4006F14D085
:1025800090F83D20D2B2222A04D090F83D20D2B259
:102590002A2A05D1826B1268526892B2428504E001
:1025A000426B1268526892B24285428D92B2F2B189
:1025B0004A6912F0040F08D0426A541C4462096947
:1025C0001170428D013A92B242850268516911F050
:1025D000400F08D0416A4C1C446212690A70428D57
:1025E000013A92B24285026C42F004020264026C2B
:1025F00012B1FFF7B3FBA9E0A3F12802D2B2022A7D
:102600000BD8544BC36200230363202280F83D2083
:1026100080F83E30FFF736FB98E0026B222A02D0AA
:10262000222B40F0938000230363202280F83D207A
:1026300080F83E3003F0AEFD88E0474B2B40002B86
:1026400040D0464B134043B311F4806F25D0444B28
:10265000134033BB90F83D30DAB2438D9BB2002B70
:1026600074D0436A591C41621B782361438D013B3E
:102670009BB24385438D9BB2002B67D1292A65D13C
:102680000268536823F48063536021230363282383
:1026900080F83D3003F08AFD58E0314B1340002BA9
:1026A00054D011F4007F51D0438D9BB2002B4DD0FC
:1026B000436A5A1C42621B782361438D013B9BB2E3
:1026C000438543E0274B13403BB311F4806F24D084
:1026D000234B134023BB90F83D30DAB2438D9BB2BD
:1026E000002B33D0436A591C416221691970438D14
:1026F000013B9BB24385438D9BB23BBB2A2A25D12C
:102700000268536823F48063536022230363282301
:1027100080F83D3003F03EFD18E0114B1340ABB1A3
:1027200011F4007F12D0438D9BB27BB1436A5A1CD7
:10273000426222691A70438D013B9BB2438505E0DA
:10274000094B1340002B7FF4E4AC06E40DB0F0BD60
:10275000100001000000FFFF0400100080000100D5
:1027600004000100400001000800010038B50446E3
:1027700003685D695A685E490D420DD012F4807F8E
:102780000AD0016C41F0010101646FF4807159615C
:1027900015F4813F07D1A0E015F4813F0FD012F46A
:1027A000807F00F09F80236C43F002032364236842
:1027B0006FF40071596115F4823F06D175E015F48C
:1027C000823F72D012F4807F7DD094F83E30DBB22D
:1027D000628D92B294F83D10C9B2206B202B51D17A
:1027E000002A4FD101F0F703212B03D0282949D12A
:1027F000212847D194F83D30DBB2E26A042A01D0A7
:10280000082A1CD1282B1AD13A4BE362226853685C
:1028100023F4E063536023686FF480625A61226896
:10282000136823F48063136000232363202284F859
:102830003D2084F83E302046FFF724FA49E0212B62
:102840001BD12C4BE36221232363202384F83D30EA
:10285000002384F83E302268536823F4E063536019
:1028600023686FF480625A612268136823F48063DE
:102870001360204603F09AFC2BE023686FF480621B
:102880005A6126E0236C43F00403236494F83E303D
:10289000DBB2102B04D12268136843F40073136079
:1028A00023686FF480625A6113E015F4843F0AD004
:1028B00012F4807F07D0236C43F00803236423685D
:1028C0006FF400625A61236C83B12046FFF746FA29
:1028D00038BD15F4843FEED1F5E715F4823F7FF45F
:1028E00074AFE2E715F4823FEDD1DEE738BD00BFFB
:1028F000000101000000FFFF08B5806B026813684B
:1029000023F48063136000234385426B1365826B5D
:10291000136590F83D30DBB2602B0ED1202380F898
:102920003D30002380F83E3003640268136823F0D2
:1029300001031360FFF710FA08BD202380F83D3033
:10294000002380F83E300268136823F0010313600F
:10295000FFF79CF908BD00BF08B338B5044603680B
:102960004CF6CC421A60036845F255521A6003686F
:1029700042685A60036882689A60FDF7FBFC05466E
:1029800004E0FDF7F7FC401B30280AD82368DA681A
:10299000002AF6D14AF6AA221A60002038BD01208A
:1029A0007047032038BD00BF03684AF6AA221A60A8
:1029B00000207047002864D0F0B58BB00546032393
:1029C00080F8B93305F01EFA286801F089FF2C461B
:1029D00054F8107B6E460FCC0FC60FCC0FC694E890
:1029E000030086E803002B1D0ECB384601F036FFAE
:1029F0000021286801F07AFF2B462A460021012099
:102A00000C4682F8390082F83810D18782F83B40B2
:102A100014645464D46401311C320F29F1D10021B3
:102A20000A4683F8F92183F8F811D98783F8FB2146
:102A3000C3F80022C3F80422C3F80C222C6801F169
:102A4000400004EB8004626001311C330F29E8D19F
:102A50002C4654F8107B6E460FCC0FC60FCC0FC619
:102A600094E8030086E803002B1D0ECB384601F0E6
:102A700053FF012385F8B933286802F06DFB00206D
:102A800001E0012070470BB0F0BD00BF90F8B833F3
:102A9000012B0ED010B50446012380F8B83300682E
:102AA00002F04EFB206801F015FF002084F8B80307
:102AB00010BD0220704700BF2DE9F04F87B00446DB
:102AC000D0F80080404602F081FB002840F0C78229
:102AD000206802F04DFB002800F0C182206802F05F
:102AE00047FB10F0020F04D02268536903F0020381
:102AF0005361206802F03CFB10F4002F50D0206896
:102B000002F03AFB054600284DD008F5306627460E
:102B10004FF0000915F0010F3BD05FFA89FB5946D1
:102B2000206802F039FB824610F0010F24D0012307
:102B3000B3602369012B0CD1D7F800223369C3F3AA
:102B40001203D31AC7F81032D7F804321A44C7F860
:102B500004225946204605F091F92369012B0BD137
:102B6000B9F1000F08D1D4F80C322BB904F56F720B
:102B70000121206802F04AFB1AF0080F04D0204619
:102B800005F074F90823B3601AF0100F1CBF10236E
:102B9000B36009F1010920361C376D08BAD104E091
:102BA0004FF0000901E04FF00009206802F0E0FA60
:102BB00010F4802F00F0B380206802F0E5FA82461E
:102BC000002800F0AA802746CDF8108008F5106B89
:102BD0004FF00009CDF814801AF0010F00F0918039
:102BE0005FFA89F302931946206802F0DFFA05467E
:102BF00010F0010F26D0049B03F50062D3F834389F
:102C0000012101FA09F123EA010353630123CBF8FF
:102C100008302369012B03D17A6C3B6C13447B642D
:102C20000299204605F036F92369012B0AD1B9F142
:102C3000000F07D1E36C2BB904F56F7201212068F6
:102C400002F0E4FA15F0080F1CBF0823CBF8083097
:102C500015F0100F1CBF1023CBF8083015F0400FF3
:102C60001CBF4023CBF8083015F0020F1CBF022315
:102C7000CBF8083015F0800F43D023681946039332
:102C80003E46FB6C386D1D1A3A6C9542A8BF15463E
:102C900001F5106808EB4918D8F81820E91C92B221
:102CA000B2EB910F21D983421FD9F3B1181A356CB9
:102CB0008542A8BF0546237C0093ABB2029A716C93
:102CC000039802F0A7F9736C2B447364306D2844A9
:102CD0003065D8F81830EA1C9BB2B3EB920F04D9D8
:102CE000F36C834201D9002BE0D1002D09DC039B5A
:102CF000D3F83428012101FA09F122EA0102C3F8CC
:102D0000342809F101091C370BF1200B5FEA5A0A3C
:102D10007FF462AFDDF8148001E04FF00009206815
:102D200002F026FA00280DDAD8F8043823F001035F
:102D3000C8F80438204605F0E7F82268536903F024
:102D400000435361206802F013FA10F4006F0CD0B6
:102D5000D8F8083813F0010F02D0204605F0BCF86F
:102D60002268536903F400635361206802F000FA9B
:102D700010F4805F45D008F500656B6823F001030F
:102D80006B601021206801F073FE636863B108F581
:102D900030630022FF21A3F5007081609960013249
:102DA000203360689042F6D84FF0FF33AB61EB6997
:102DB00043F00113EB61236B53B1D5F8843043F03A
:102DC0000B03C5F884306B6C43F00B036B6407E0B6
:102DD0006B6943F00B036B612B6943F00B032B61B1
:102DE000D8F8003823F4FE63C8F8003804F56F7291
:102DF000217C206802F00AFA2268536903F48053A8
:102E00005361206802F0B4F910F4005F00F08F8085
:102E1000206802F0DFF92268D36823F47053D3608E
:102E2000206801F04FFE50B90023E3604FF40073B7
:102E300063612268D36843F41053D3606FE00323C7
:102E4000E3604023636100F09DFD864B0344864AA6
:102E5000934205D82268D36843F47053D3605EE090
:102E6000824B0344824A934205D82268D36843F4D4
:102E70006053D36053E0A0F57403A3F510537D4A6B
:102E8000934205D82268D36843F45053D36046E098
:102E9000A0F18373A3F5E743774A934205D82268EC
:102EA000D36843F44053D36039E0744B0344744A0D
:102EB000934205D82268D36843F43053D3602EE0A0
:102EC000704B0344704A934205D82268D36843F498
:102ED0002053D36023E06D4B03446D4A934205D8E1
:102EE0002268D36843F41053D36018E0A0F1B7739D
:102EF000A3F55853674A934205D82268D36843F430
:102F00000053D3600BE0644B0344644A934222684D
:102F1000D36894BF43F4E05343F4C053D3602046D6
:102F200004F0CAFF2268536903F400535361206818
:102F300002F01EF910F0100F43D02268936923F0BD
:102F400010039361D8F8205005F00F06C5F34343F2
:102F5000022B1ED147F6F0731D422DD02D094FEAEA
:102F6000C60AC6EB0A0704EB8707C5F30A02D7F8BF
:102F70000412404602F062F8C5F30A05D7F804329D
:102F80002B44C7F80432D7F810321D44C7F810524A
:102F900012E0062B10D1082204F56F71404602F0B2
:102FA0004DF8F3009A1B04EB8202C5F30A15D2F820
:102FB00010321D44C2F810522268936943F0100386
:102FC0009361206802F0D4F810F0080F07D0204673
:102FD00004F06CFF2268536903F008035361206812
:102FE00002F0C6F810F4801F09D05FFA89F120467C
:102FF00004F096FF2268536903F48013536120683C
:1030000002F0B6F810F4001F09D05FFA89F12046EB
:1030100004F080FF2268536903F4001353612068B1
:1030200002F0A6F810F0804F07D0204604F07EFF93
:103030002268536903F080435361206802F098F8D6
:1030400010F0040F0BD023685D6815F0040F02D058
:10305000204604F071FF226853682B43536007B089
:10306000BDE8F08F405327FFFF340C00401E1BFFCC
:103070003F420F007F4F12001FD6130060B6E5FEDF
:103080005FE3160000D3CEFE3F771B00C05BB3FEAC
:10309000BF9121001F753800E05459FEDF9C4100AC
:1030A00090F8B833012B0BD010B50446012380F8FB
:1030B000B833006802F034F8002084F8B80310BD7B
:1030C00002207047F8B511F0800F13D001F07F0493
:1030D000E500291B00EB810138312E1B00EB860631
:1030E00086F83840012786F83970326486F83B301C
:1030F000F48713E001F07F04E500291B00EB810158
:1031000001F5FC712E1B00EB860686F8F8410027BE
:1031100086F8F971C6F8002286F8FB31022B04BF4D
:1031200000230B7190F8B833012B0AD00446012319
:1031300080F8B833006801F0E5FC002084F8B8039B
:10314000F8BD0220F8BD00BF4AB2002A01F07F039B
:10315000C3EBC30300EB8303B4BF383303F5FC7345
:1031600001F07F011970D20F5A7090F8B823012A2C
:103170000CD010B50446012280F8B8231946006827
:1031800001F008FD002084F8B80310BD022070474C
:1031900038B501F07F05EC00611B00EB810101F502
:1031A000FC71641B00EB8404C4F80422C4F80C32E4
:1031B0000023C4F8103284F8F93184F8F851036917
:1031C000012B05D1C5EBC50400EB8404C4F808222B
:1031D00025B9DAB2006801F06FFE03E0DAB20068E8
:1031E00001F04CFD002038BD01F00F01C1EBC10121
:1031F00000EB8100B0F81002704700BF38B501F055
:103200007F05EC00611B00EB81013831641B00EB92
:1032100084046264E36400232365012384F8393065
:1032200084F838500369012B04D1C5EBC50400EBC9
:103230008404A26425B9DAB2006801F03DFE03E01F
:10324000DAB2006801F01AFD002038BD38B54AB284
:10325000002A07DA01F07F03C3EBC30300EB83030B
:10326000383305E0C1EBC10300EB830303F5FC73C6
:1032700001249C7001F07F041C70D20F5A7090F8EA
:10328000B823012A12D00546012280F8B823194636
:10329000006801F0E9FE2CB905F56F72297C2868F9
:1032A00001F0B4FF002085F8B80338BD022038BD16
:1032B00010B54AB2002A07DA01F07F03C3EBC3035B
:1032C00000EB8303383305E0C1EBC10300EB83035C
:1032D00003F5FC7300249C7001F07F011970D20F7C
:1032E0005A7090F8B823012A0BD00446012280F8C6
:1032F000B8231946006801F0E3FE002084F8B80303
:1033000010BD022010BD00BF70B40668736A19B901
:1033100043EA0244B46218E0B46A03EB144401398E
:1033200000290CDD00231846403306EB83035D685B
:1033300004EB15440130C0B203468842F4DB44EA92
:103340000244403106EB81067460002070BC704777
:103350000368596200207047F0B583B004460368E3
:1033600013F0010F5AD0A34B9B6803F00C03042BFE
:103370000AD0A04B9B6803F00C03082B0DD19D4B8A
:103380005B6813F4800F08D09A4B1B6813F4003F5E
:1033900044D06368002B41D1A7E16368B3F5803F57
:1033A00005D1944A136843F48033136015E0B3F5F4
:1033B000A02F09D18F4B1A6842F480221A601A6834
:1033C00042F480321A6008E08A4B1A6822F4803294
:1033D0001A601A6822F480221A6063687BB1FCF7D5
:1033E000C9FF0646834D05E0FCF7C4FF801B642837
:1033F00000F27D812B6813F4003FF5D00EE0FCF75E
:10340000B9FF06467B4D05E0FCF7B4FF801B64283E
:1034100000F26F812B6813F4003FF5D1236813F09D
:10342000020F5ED0734B9B6813F00C0F0AD0714BE8
:103430009B6803F00C03082B1DD16E4B5B6813F4E3
:10344000800F18D16B4B1B6813F0020F03D0E36899
:10345000012B40F0508167480268F82393FAA3F3E8
:10346000B3FA83F3DBB2216901FA03F322F0F80225
:103470001343036035E0E3680BB301225E4B1A602F
:10348000FCF778FF06465B4D05E0FCF773FF801BF9
:10349000022800F232812B6813F0020FF5D0554854
:1034A0000268F82393FAA3F3B3FA83F3DBB221693A
:1034B00001FA03F322F0F8021343036011E0002243
:1034C0004D4B1A60FCF756FF06464A4D05E0FCF7E7
:1034D00051FF801B022800F212812B6813F0020FAB
:1034E000F5D1236813F0080F26D0636993B1012248
:1034F000424B1A60FCF73EFF06463E4D05E0FCF7E6
:1035000039FF801B022800F2FC806B6F13F0020F62
:10351000F5D011E00022394B1A60FCF72BFF06466C
:10352000344D05E0FCF726FF801B022800F2EB80FB
:103530006B6F13F0020FF5D1236813F0040F6BD0FB
:10354000002301932B4B1A6C42F080521A641B6CBF
:1035500003F080530193019B294A136843F480735D
:103560001360FCF707FF0646254D05E0FCF702FF58
:10357000801B022800F2C9802B6813F4807FF5D0ED
:10358000A368012B05D11B4A136F43F00103136796
:1035900014E0052B09D1174B1A6F42F004021A6789
:1035A0001A6F42F001021A6708E0124B1A6F22F0FC
:1035B00001021A671A6F22F004021A67A3688BB11E
:1035C000FCF7D8FE07460B4D41F2883605E0FCF7C4
:1035D000D1FEC01BB04200F29A802B6F13F0020F95
:1035E000F5D019E0FCF7C6FE0746024D41F28836D9
:1035F0000EE000BF0038024000004742800E474204
:1036000000700040FCF7B6FEC01BB04200F28180A3
:103610002B6F13F0020FF5D1A369002B7BD0434A27
:10362000926802F00C02082A77D0022B4AD10022BD
:103630003F4B1A60FCF79EFE06463C4D04E0FCF74B
:1036400099FE801B02286AD82B6813F0007FF6D100
:1036500047F6C07393FAA3F3B3FA83F34FF44035FC
:1036600095FAA5F5B5FA85F54FF0706191FAA1F1DB
:10367000B1FA81F0E169226A1143DBB2626A02FAAF
:1036800003F31943A36A5B085A1EEBB202FA03F371
:103690000B43C1B2E26A8A401343244A53600122B9
:1036A000234B1A60FCF766FE0546204C04E0FCF74D
:1036B00061FE401B022834D8236813F0007FF6D047
:1036C000002031E000221A4B1A60FCF753FE054639
:1036D000164C04E0FCF74EFE401B022823D823685A
:1036E00013F0007FF6D100201EE001201CE0032033
:1036F0001AE0032018E0012016E0032014E0032064
:1037000012E0032010E003200EE003200CE0032071
:103710000AE0032008E0002006E0012004E0032086
:1037200002E0032000E0032003B0F0BD00380240B7
:10373000600047421C4B9B6803F00C03042B02D033
:10374000082B02D02EE019487047174A536803F03F
:103750003F03526812F4800F134A516847F6C07253
:1037600092FAA2F0B0FA80F002EA0102C0B222FAA4
:1037700000F014BF0D4A0E4AB2FBF3F303FB00F353
:10378000094A50684FF4403191FAA1F1B1FA81F140
:1037900000F44032C8B222FA00F001304000B3FB1E
:1037A000F0F070470248704700380240001BB70035
:1037B0000024F4002DE9F0416E4B1B6803F00F0369
:1037C0008B4208D2CBB26B4A1370136803F00F031D
:1037D000994240F0B480036813F0020F06D0664CA3
:1037E000A36823F0F00283681343A3600D460446E8
:1037F000036813F0010F63D04368012B05D15E4AC3
:10380000126812F4003F0FD19CE09A1E012A05D8DD
:10381000594A126812F0007F06D196E0564A1268A3
:1038200012F0020F00F0948053498A6822F00302DC
:1038300013438B60FCF79EFD06466368012B0FD196
:1038400005E0FCF797FD801B404503D983E04A4F14
:1038500041F28838BB6803F00C03042BF1D12FE050
:10386000022B0FD105E0FCF785FD801B404503D9F5
:1038700074E0414F41F28838BB6803F00C03082B19
:10388000F1D11DE0032B09D03B4F41F2883813E002
:10389000FCF770FD801B404503D962E0364F41F2D2
:1038A0008838BB6803F00C030C2BF1D108E0FCF75F
:1038B00061FD801B404557D8BB6813F00C0FF6D153
:1038C0002C4B1B6803F00F039D4207D2EAB2294B31
:1038D0001A701B6803F00F039D4248D1236813F050
:1038E000040F06D024498B6823F4E052E3681343A5
:1038F0008B60236813F0080F07D01F4A9368216973
:1039000023F4604343EAC1039360FFF713FF1A4BAC
:103910009A68F02393FAA3F3B3FA83F302F0F00268
:10392000DBB222FA03F3154AD35CDBB2D840144B66
:1039300018600F20FCF7E6FC0020BDE8F0810120B4
:10394000BDE8F0810120BDE8F0810120BDE8F081F3
:103950000120BDE8F0810320BDE8F0810320BDE82F
:10396000F0810320BDE8F0810320BDE8F081012053
:10397000BDE8F081003C0240003802400800002011
:1039800018000020014B1868704700BF1800002085
:10399000094B9A684FF4E05393FAA3F3B3FA83F315
:1039A00002F4E052DBB222FA03F3044AD35CDBB246
:1039B000034A1068D8407047003802401C000020BD
:1039C00018000020094B9A684FF4604393FAA3F360
:1039D000B3FA83F302F46042DBB222FA03F3044A3F
:1039E000D35CDBB2034A1068D8407047003802400D
:1039F0001C00002018000020F8B507460E461546AA
:103A00001C4636E0B4F1FF3F34D02CB1FCF7B2FCD9
:103A1000069BC01A84422CD83A68536823F0E0030E
:103A200053607B68B3F5827F0BD1BB68B3F5004F61
:103A300002D0B3F5806F04D13A68136823F04003D5
:103A40001360BB6AB3F5005F0BD13A68136823F4C7
:103A500000531B041B0C13603A68136843F40053B3
:103A60001360012387F85130002387F8503003207A
:103A7000F8BD3A68936836EA03030CBF01230023BC
:103A80009D42BFD10020F8BD10B582B0044600921F
:103A90000B4600228021FFF7AFFF034620B1636D84
:103AA00043F0200363650323184602B010BD00BF36
:103AB00000283CD010B504460023836290F85130B2
:103AC00013F0FF0F04D1002380F8503003F09EF96B
:103AD000022384F851302268136823F040031360F6
:103AE00021686268A3681A43E3681A4323691A438A
:103AF00063691A43E3691A43236A1A43A36A1A43A0
:103B0000A36903F4007313430B602168638B03F014
:103B10000402636A13434B602268D36923F4006391
:103B2000D36100206065012384F8513010BD01206D
:103B3000704700BF30B490F85040012C53D001249E
:103B400080F8504090F85140E4B2012C08D045680C
:103B5000B5F5827F35D18568002D34D1042C34D160
:103B6000002934D0002A34D0002B34D090F85140B2
:103B7000E4B2012C04BF052480F8514000244465C0
:103B800001638386C38682638387C387C36823B147
:103B9000164B0364164B436403E0164B0364164B49
:103BA00043640268536843F0E003536003681A6893
:103BB00012F0400F11D11A6842F040021A6000233F
:103BC0000CE002230AE0022308E0022306E00123BE
:103BD00004E0012302E0012300E00023002280F83A
:103BE0005020184600E0022030BC70474D3D0008D0
:103BF000193D0008E53C0008B13C0008704700BFD3
:103C0000704700BF10B582B00446274B1B68274A97
:103C1000A2FB03235B0A642202FB03F30193FCF77C
:103C2000A9FB024621684B6823F020034B60019BEF
:103C3000591E019123B9636D43F02003636504E0CD
:103C400023689B6813F0020FF1D064212046FFF730
:103C50001BFF18B1636D43F020036365A36833B99C
:103C600000932368DA6800929B680093009B636D61
:103C700093B994F85130DBB2042B06D1012384F8B8
:103C800051302046FFF7BAFF0CE0012384F8513091
:103C90002046FFF7B5FF05E0012384F851302046A8
:103CA00002F0E2FF02B010BD18000020F119760505
:103CB00008B50268036B591C01631B781373C38E2C
:103CC000013B9BB2C386C38E9BB24BB9026853685B
:103CD00023F080035360C38F9BB20BB9FFF792FFB1
:103CE00008BD00BF08B5836B5A1C82630268127B53
:103CF0001A70C38F013B9BB2C387C38F9BB24BB972
:103D00000268536823F060035360C38E9BB20BB903
:103D1000FFF778FF08BD00BF08B50368026B128883
:103D2000DA60036B02330363C38E013B9BB2C3862D
:103D3000C38E9BB24BB90268536823F08003536073
:103D4000C38F9BB20BB9FFF75DFF08BD08B5836B4E
:103D50000268D2681A80836B02338363C38F013B8E
:103D60009BB2C387C38F9BB24BB90268536823F0E1
:103D700040035360C38E9BB20BB9FFF743FF08BDEE
:103D800010B584B0044602685168936803F041009E
:103D9000012806D111F0400F03D0236C204698472C
:103DA0006CE013F0020F06D011F0800F03D0636CAB
:103DB0002046984762E013F4B07F5FD011F0200FE7
:103DC0005CD013F0400F18D094F85100C0B2032813
:103DD0000BD0606D40F00400606500200090D0685A
:103DE000009090680090009807E000230193D3684A
:103DF000019393680193019B40E013F0200F0CD0D6
:103E0000606D40F0010060650020029090680290B3
:103E1000106820F040001060029A13F4807F09D0EF
:103E2000636D43F0080363650023039323689B6875
:103E30000393039B636D0BB32268536823F0E00385
:103E40005360012384F8513011F0030F13D022681E
:103E5000536823F003035360E36C23B1084A1A65E7
:103E6000E06CFCF795FEA36C43B1054A1A65A06CA3
:103E7000FCF78EFE02E0204602F0F6FE04B010BD14
:103E8000853E000808B5806B0023C387C38602F017
:103E9000EBFE08BD90F85100704700BF022380F888
:103EA00039300268136843F001031360012380F87E
:103EB00039300020704700BF704700BF704700BF17
:103EC000704700BF704700BF704700BF10B5044681
:103ED00003681A6912F0020F17D0DA6812F0020FA5
:103EE00013D06FF002021A610123037603689B6905
:103EF00013F0030F02D0FFF7E3FF04E0FFF7DEFF4C
:103F00002046FFF7DFFF0023237623681A6912F0AB
:103F1000040F19D0DA6812F0040F15D06FF0040204
:103F20001A610223237623689B6913F4407F03D030
:103F30002046FFF7C5FF05E02046FFF7BFFF2046FC
:103F4000FFF7C0FF0023237623681A6912F0080FD9
:103F500019D0DA6812F0080F15D06FF008021A6154
:103F6000042323762368DB6913F0030F03D0204674
:103F7000FFF7A6FF05E02046FFF7A0FF2046FFF76A
:103F8000A1FF0023237623681A6912F0100F19D0BD
:103F9000DA6812F0100F15D06FF010021A610823C2
:103FA00023762368DB6913F4407F03D02046FFF7B4
:103FB00087FF05E02046FFF781FF2046FFF782FFDD
:103FC0000023237623681A6912F0010F09D0DA68FA
:103FD00012F0010F05D06FF001021A612046FFF7C1
:103FE0006BFF23681A6912F0800F09D0DA6812F0AB
:103FF000800F05D06FF080021A61204600F0D0F8E3
:1040000023681A6912F0400F09D0DA6812F0400FE5
:1040100005D06FF040021A612046FFF755FF236874
:104020001A6912F0200F09D0DA6812F0200F05D0BB
:104030006FF020021A61204600F0B0F810BD00BFFA
:104040000368314A904212D0B0F1804F0FD0A2F5F0
:104050007C4290420BD002F58062904207D002F57C
:104060008062904203D002F57842904219D123F049
:1040700070034A681343244A904229D0B0F1804F1C
:1040800026D0A2F57C42904222D002F58062904276
:104090001ED002F5806290421AD002F5784290421A
:1040A00016D01A4A904213D002F5806290420FD087
:1040B00002F5806290420BD0A2F59832904207D070
:1040C00002F58062904203D002F58062904214D1E2
:1040D00023F44073CA681A4302608B68C3620B689A
:1040E0008362094B984203D003F58063984201D163
:1040F0000B69036301234361704703608B68C362EC
:104100000B688362F6E700BF0000014000400140F9
:10411000B8B110B5044690F8393013F0FF0F04D150
:10412000002380F8383002F0B7FF022384F83930DA
:10413000211D2068FFF784FF012384F83930002017
:1041400010BD0120704700BF90F83830012B21D0FE
:1041500030B4012280F83820022380F83930046816
:10416000636823F070036360046865680B682B4321
:1041700063600468A36823F08003A3600468A568F3
:104180004B682B43A36080F83920002380F8383037
:10419000184601E00220704730BC7047704700BFEE
:1041A000704700BF0268D36823F49073D36002683D
:1041B000536923F001035361012380F83D307047B8
:1041C000002800F0B9802DE9F041044690F83D3018
:1041D00013F0FF0F04D1002380F83C3003F0BAF94C
:1041E000022384F83D302268D36823F00C03D360A7
:1041F0002068036923F47C52A169E3690B4343F40B
:104200000063216A0B43E1680B4313430361206899
:10421000C36823F4164323F00C03A16822690A4300
:1042200042F4004261690A431343C3602268536940
:1042300023F4407353612668404B9E4203D003F53C
:1042400080639E4231D1FFF7BDFB00EB800000EBA5
:10425000800065686D00B0FBF5F5394FA7FB0535AB
:104260006D092D01FFF7AEFB00EB800000EB800035
:1042700063685B00B0FBF3F8FFF7A4FB00EB800082
:1042800000EB800063685B00B0FBF3F3A7FB032344
:104290005B09642202FB13831B013233A7FB032358
:1042A000C3F343132B43B36030E0FFF771FB00EB24
:1042B000800000EB800065686D00B0FBF5F5204FD5
:1042C000A7FB05356D092D01FFF762FB00EB8000B0
:1042D00000EB800063685B00B0FBF3F8FFF758FB6E
:1042E00000EB800000EB800063685B00B0FBF3F341
:1042F000A7FB03235A09642303FB12831B013233F8
:10430000A7FB0323C3F343132B43B3602268136952
:1043100023F4804313612268536923F02A03536115
:104320002268D36843F40053D36000202064012343
:1043300084F83D30BDE8F081012070470010014055
:104340001F85EB5138B590F83D40E4B2012C31D1D6
:10435000002931D0002A31D090F83C30012B2FD0E9
:1043600013460446012280F83C20416203854385C0
:1043700000250564122280F83D20426B1148D0636D
:10438000626B11481064626B1048D064626B1565F3
:1043900022680432606BFCF7B1FB23686FF04002C7
:1043A0001A6084F83C502268536943F080035361DB
:1043B000284638BD022038BD012038BD012038BD57
:1043C000022038BDD14300083144000805460008EA
:1043D00010B5846B03681B6813F4807F11D1002330
:1043E000638594F83D30DBB2122B12D122685369F9
:1043F00023F0800353612268D36843F04003D36005
:1044000007E094F83D30DBB2122B02D1204603F0D6
:1044100035F894F83D30DBB2122B05D0222384F816
:104420003D30204603F02AF810BD00BF704700BFA2
:1044300008B5806BFFF7FAFF08BD00BF704700BFEB
:1044400008B590F83D30DBB2222B52D18368B3F52A
:10445000805F1CD1C26A036943B903685B68C3F318
:1044600008031380C36A0233C36206E003685B6813
:10447000DBB21380C36A0133C362438E013B9BB23C
:104480004386EBB1036840F2FF125A6018E00369FB
:1044900033B9C36A5A1CC262026852681A7007E0D4
:1044A000C26A531CC36203685B6803F07F03137026
:1044B000438E013B9BB2438613B10368FF225A60CF
:1044C000438E9BB2BBB90268D36823F02003D3604C
:1044D0000268D36823F48073D3600268536923F0C1
:1044E00001035361012380F83D30FFF7A7FF00204F
:1044F00008BD022008BD002008BD00BF704700BFF6
:1045000008B590F83D30DBB2322B76D1438D9BB2AB
:1045100043B303681A6812F0800F23D08268B2F5A3
:10452000805F0ED1426A1288C2F308025A600369A2
:104530001BB9436A0233436208E0436A01334362B2
:1045400004E0426A511C416212785A60438D013B7B
:104550009BB24385438D9BB223B90268D36823F095
:104560008003D360438E9BB2002B2DD003681A6862
:1045700012F0200F28D08268B2F5805F11D1C16A95
:1045800002693AB95B68C3F308030B80C36A02335C
:10459000C36215E05B68DBB20B80C36A0133C362A0
:1045A0000EE002692AB9C26A511CC1625B681370CD
:1045B00006E0C26A511CC1625B6803F07F0313709E
:1045C000438E013B9BB24386438E9BB2BBB90268CC
:1045D000D36823F02003D3600268D36823F4807388
:1045E000D3600268536923F001035361012380F80B
:1045F0003D30FFF783FF002008BD022008BD0020EA
:1046000008BD00BF10B5846B0023638663852268F4
:10461000516994F83D30DBB2122B09D111F0800FB3
:1046200006D0D36823F0C003D360012384F83D3063
:1046300023685A6994F83D30DBB2222B05D112F081
:10464000400F02D02046FFF7ADFD236C43F010036E
:104650002364012384F83D30204602F02FFF10BD73
:1046600010B5044602681368D068516913F00F0F43
:1046700014D113F0200F00F0898010F0200F00F00B
:10468000858094F83D30DBB2222B03D12046FFF722
:10469000D7FE10BD2046FFF733FF10BD11F001011A
:1046A00002D110F4907F71D013F0010F06D010F4F6
:1046B000807F03D0226C42F00102226413F0040FC9
:1046C0000AD0002900F0B480226C42F00202226479
:1046D00013F0020F04D1B0E013F0020F08D079B14B
:1046E000226C42F00402226413F0080F04D107E0A8
:1046F00013F0080F04D019B1226C42F008022264B2
:10470000226C002A00F09E8013F0200F0ED010F0D3
:10471000200F0BD094F83D30DBB2222B03D1204682
:10472000FFF78EFE02E02046FFF7EAFE23685A6993
:10473000236C13F0080F02D112F0400F20D0204656
:10474000FFF730FD23685A6912F0400F14D05A6900
:1047500022F040025A61A36B53B13B4A1A65A06B29
:10476000FCF716FA00286DD0A06B036D984710BDBA
:10477000204602F0A3FE10BD204602F09FFE10BDB1
:10478000204602F09BFE0023236410BD13F0800F2F
:1047900038D010F0800F35D094F83D30DBB2122BBA
:1047A0002CD194F83D30DBB2122B4BD1A368B3F57A
:1047B000805F0ED1636A1B88C3F3080353602369CB
:1047C0001BB9636A0233636208E0636A01336362A0
:1047D00004E0636A591C61621B785360638D013B7E
:1047E0009BB2638573BB2268D36823F08003D360D8
:1047F0002268D36843F04003D36010BD2046FFF722
:104800007FFE10BD13F0400F1CD010F0400F19D0E8
:10481000D36823F04003D3602268536923F0010377
:104820005361012384F83D30204602F027FE10BD7D
:1048300013F0020F7FF464AF5AE713F0080F3FF450
:104840005FAF59E710BD00BF4D48000808B5806B49
:1048500000234386438502F031FE08BD84B010B5C5
:10486000044603A880E80E00089B012B18D1A36B17
:1048700023F48033A363E36823F4840323F0400329
:10488000E360E36823F44013E3600F9B012B03D143
:10489000E36843F48013E360204600F0D9FC09E0AC
:1048A000E36843F04003E360204600F0D1FC4FF49E
:1048B0008033A363069B012B07D1A36843F0060353
:1048C000A360A36843F02003A3600020BDE810406C
:1048D00004B07047836843F0010383600020704791
:1048E000836823F0010383600020704708B5C36824
:1048F00023F0C043C360012904D1C36843F00053CF
:10490000C36004E019B9C36843F08043C360322038
:10491000FBF736FD002008BD84B02DE9F0470546C1
:1049200009A880E80E000C46DDF83080DDF84CA0C8
:10493000BAF1000F04D1AB6B43F40013AB6303E097
:10494000AB6B43F40023AB630023C5F8003E05F5D1
:104950000066D5F80038C5F800380E9B012B0BD146
:104960000B9B23B90021284600F0A4F808E00121A0
:10497000284600F09FF803E00321284600F09AF84B
:104980001021284600F074F8284600F083F8002330
:10499000336173614FF0FF32B261F3614CB305F5DF
:1049A0001063002296464FF09049FF2718680028B0
:1049B000B4BFC3F80090C3F800E0C3F810E09F60F4
:1049C000013220339442F1D105F5306300221746BD
:1049D0004FF090494FF0FF0C18680028B4BFC3F89F
:1049E00000901F601F61C3F808C001322033944259
:1049F000F2D1336923F480733361B8F1010F0ED122
:104A0000194B3363336B43F4803343F00303336355
:104A1000336B0023AB616FF080436B610BE00023CD
:104A2000AB616FF080436B61B8F1000F03D1AB69EC
:104A300043F01003AB61AA690C4B1343AB610F9BAE
:104A40001BB1AB6943F00803AB61BAF1010F05D1AB
:104A5000AB6943F0804343F00403AB610020BDE841
:104A6000F04704B0704700BF0001800000383C8070
:104A7000890141F020010161054B01E0013B05D0B6
:104A8000026912F0200FF9D100207047032070470F
:104A9000400D030010230361054B01E0013B05D0ED
:104AA000026912F0100FF9D10020704703207047FF
:104AB000400D0300D0F800381943C0F8001800205A
:104AC000704700BFD0F8083800F5006013F0060FFB
:104AD00011D0836803F00603022B0ED0836803F025
:104AE0000603062B0BD0836803F00603042B14BFC8
:104AF00000200220704700207047032070470320E9
:104B0000704700BF70B44B78012B21D1D0F81C48FE
:104B10000B78012202FA03F39BB22343C0F81C383E
:104B20000E78750105F510652B5813F4004F2DD143
:104B30002C588B68C3F30A0244F0805343F40043BB
:104B40001A43CB7842EA834343EA86532B501DE055
:104B5000D0F81C280D784FF48033AB401343C0F8D5
:104B60001C380B785B0103F530631A5812F4004FC0
:104B70000CD11C588A68C2F30A0544F0805242F4F2
:104B800000422A43C97842EA81421A50002070BC90
:104B9000704700BF38B54B78012B34D10B785B01DF
:104BA00003F510631A5822F400421A500B785B0187
:104BB00003F510634FF000621A500B785B0103F5A8
:104BC00010634FF080421A500C7800EB441404F547
:104BD0001064294B01E0013B4AD0A26812F0804FDB
:104BE000F9D10D4604461021FFF742FFD4F81C18F6
:104BF0002B78012202FA03F39BB221EA0303C4F8E3
:104C00001C38002038BD0B785B0103F53063C258B7
:104C100022F40042C2500B785B0103F530634FF081
:104C20000062C2500B785B0103F530634FF08042A5
:104C3000C2500C7800EB441404F530640E4B01E0D4
:104C4000013B17D0A26812F0100FF9D1D0F8043848
:104C500043F48063C0F80438D0F81C2809784FF476
:104C600080338B4022EA0303C0F81C38002038BD93
:104C7000032038BD032038BD400D030070B582B05D
:104C80004B78012B40F0A2804B69EBB90B7800EB1D
:104C90004313D3F8104924F0FF5424F4C014C3F88C
:104CA00010490B7800EB4313D3F8104944F4002467
:104CB000C3F810490B7800EB4313D3F81049E40C08
:104CC000E404C3F8104945E00B7800EB4313D3F834
:104CD0001049E40CE404C3F810490B7800EB4313CB
:104CE000D3F8104924F0FF5424F4C014C3F8104939
:104CF0000C7800EB4414D4F810598E684B69334497
:104D0000013BB3FBF6F36B4E06EAC3432B43C4F8F7
:104D100010390B7800EB4313D3F810594C69C4F3E6
:104D200012042C43C3F81049CB78012B40F0BB8010
:104D30000B7800EB4313D3F8104924F0C044C3F8B8
:104D400010490B7800EB4313D3F8104944F000549A
:104D5000C3F81049012A06D10B7800EB43130C6904
:104D6000C3F814490CE0CB78012B0CD04B69D3B1BC
:104D7000D0F834480E780123B3402343C0F83438C8
:104D8000CB78012B0FD1D0F8083813F4807F0B7843
:104D90004FEA431303F51063C4580CBF44F00054AA
:104DA00044F08054C4500B785B0103F51063C45881
:104DB00044F00444C450CB78012B78D114468B8A3C
:104DC0000A78C968009400F025F970E00B7800EBD0
:104DD0004313D3F8104BE40CE404C3F8104B0B78E6
:104DE00000EB4313D3F8104B24F0FF5424F4C01409
:104DF000C3F8104B4B69A3B90B7800EB4313D3F8FE
:104E0000105B8C68C4F312042C43C3F8104B0B786E
:104E100000EB4313D3F8104B44F40024C3F8104BB9
:104E20001DE08C682344013BB3FBF4F30C7800EBEA
:104E30004414D4F8106B1F4D05EAC3453543C4F83C
:104E4000105B0C7800EB4414D4F8106B9BB28D68A7
:104E500005FB03F5C5F312053543C4F8105B012AC1
:104E600005D10B7800EB4313CA68C3F8142BCB7839
:104E7000012B0FD1D0F8083813F4807F0B784FEA5C
:104E8000431303F53063C2580CBF42F0005242F0A6
:104E90008052C2500B785B0103F53063C25842F078
:104EA0000442C25003E0012A7FF460AF54E70020BF
:104EB00002B070BD0000F81F30B44B78012B69D1EF
:104EC0004B69EBB90B7800EB4313D3F8104924F08E
:104ED000FF5424F4C014C3F810490B7800EB4313BB
:104EE000D3F8104944F40024C3F810490B7800EBC0
:104EF0004313D3F81049E40CE404C3F810492CE040
:104F00000B7800EB4313D3F81049E40CE404C3F826
:104F100010490B7800EB4313D3F8104924F0FF54E9
:104F200024F4C014C3F810498B684C699C4288BFB4
:104F30004B610B7800EB4313D3F8104944F4002481
:104F4000C3F810490B7800EB4313D3F810594C69A0
:104F5000C4F312042C43C3F810490B785B0103F52A
:104F60001063C45844F00444C450012A06D10B789D
:104F700000EB43100B69C0F8143947E04B69002B74
:104F800044D0D0F83428097801238B401343C0F86B
:104F900034383BE00B7800EB4313D3F8104BE40CB0
:104FA000E404C3F8104B0B7800EB4313D3F8104B19
:104FB00024F0FF5424F4C014C3F8104B4B690BB118
:104FC0008B684B610B7800EB4313D3F8104B44F420
:104FD0000024C3F8104B0B7800EB4313D3F8105B9D
:104FE0008C68C4F312042C43C3F8104B012A05D17A
:104FF0000B7800EB4313CA68C3F8142B0B785B01E2
:1050000003F53063C25842F00442C250002030BC65
:10501000704700BF30B49DF8084064B903339B0863
:1050200009D000F5805000EB023251F8045B1560A6
:105030000134A342F9D1002030BC704703329208FA
:105040000FD070B40C46002300F58056356844F844
:10505000045B01339A42F9D101EB8201084670BC2E
:1050600070470846704700BF4B78012B13D10B786F
:105070005B0103F51063C258002A03DBC25822F01B
:105080008042C2500B785B0103F51063C25842F4B2
:105090000012C25012E00B785B0103F53063C25876
:1050A000002A03DBC25822F08042C2500B785B0119
:1050B00003F53063C25842F40012C250002070471A
:1050C0004B78012B15D10B785B0103F51063C258A7
:1050D00022F40012C250CB78023BDBB2012B1DD868
:1050E0000B785B0103F51063C25842F08052C25046
:1050F00014E00B785B0103F53063C25822F4001210
:10510000C250CB78023BDBB2012B07D80B785B0196
:1051100003F53063C25842F08052C25000207047FD
:10512000D0F8003823F4FE63C0F80038D0F8003817
:10513000090101F4FE610B43C0F8003800207047FC
:1051400008B5D0F8043823F00203C0F8043803206F
:10515000FBF716F9002008BD08B5D0F8043843F075
:105160000203C0F804380320FBF70AF9002008BD49
:10517000426980691040704700F50063D0F8180854
:10518000DB691840000C704700F50063D0F8180880
:10519000DB69184080B2704700F5306303EB4111C2
:1051A0008A6800F50060406910407047D0F8102808
:1051B000D0F8343800EB411000F51060806823FA15
:1051C00001F1C901C9B2114308407047406900F0BC
:1051D00001007047D0F8003923F4FF6323F0070380
:1051E000C0F8003900F500639A6802F00602042A4C
:1051F00005D1D0F8002942F00302C0F800295A680E
:1052000042F480725A600020704700BF10B400243E
:10521000C0F8104BD0F8104B44F40024C0F8104BE9
:10522000D0F8104B44F01804C0F8104BD0F8104BD5
:1052300044F0C044C0F8104B012905D1C0F8142B2C
:105240004FF08023C0F8003B00205DF8044B70470E
:105250000C4B01E0013B10D00269002AFADA036925
:1052600043F001030361074B01E0013B07D00269F2
:1052700012F0010FF9D1002070470320704703207E
:10528000704700BF400D030008B500F009F800BFEB
:1052900001230360014B0B60704700BF000000203A
:1052A000BFF34F8F0449CA6802F4E062034B134313
:1052B000CB60BFF34F8FFEE700ED00E00400FA057E
:1052C0000F49D1F8883043F47003C1F888300D4B92
:1052D0001A6842F001021A60002098601A6822F0F1
:1052E000847222F480321A60074A5A601A6822F4E3
:1052F00080221A60D8604FF000638B60704700BF57
:1053000000ED00E000380240103000241E4B9B6886
:1053100003F00C03042B06D0082B08D023BB1B4A38
:105320001B4B1A6023E01B4A194B1A601FE0164BF7
:105330005A685B6803F03F0312F4800F124A526808
:10534000C2F3881214BF13491049B1FBF3F303FBF6
:1053500002F20D4B5B68C3F3014301335B00B2FB08
:10536000F3F30B4A136002E0084A094B1A60064B3C
:105370009B68C3F30313084AD35CDAB204490B6891
:10538000D3400B60704700BF003802400024F40097
:1053900018000020001BB7000800002030B595B0B1
:1053A000002401941C4B1A6C42F080521A641B6C4E
:1053B00003F080530193019B0294184B1A6842F446
:1053C00040421A601B6803F440430293029B01238E
:1053D00003934FF480330493022509954FF480031F
:1053E0000A930C230B934FF4A8730C930D9507238A
:1053F0000E9303A8FDF7B0FF0F230F9310951194A0
:105400004FF4A05312934FF48053139305210FA828
:10541000FEF7D0F915B030BD0038024000700040F2
:1054200008B5FFF74DFF064AD2F8883043F4700301
:10543000C2F88830FAF77CFFFFF7B0FF08BD00BF65
:1054400000ED00E02DE9F04389B0002601964A4CBA
:10545000636C43F480736364636C03F4807301933F
:10546000019B0296236B43F001032363236B03F03C
:1054700001030293029B1F2303934FF00309CDF80E
:105480001090059603A93D48FBF782FE0396236B17
:1054900043F480032363236B03F480030393039B90
:1054A000374D384B2B606E60AE60EE604FF480631A
:1054B0002B614FF400636B614FF40053AB614FF409
:1054C0008073EB616E62EE622E632E622846FBF7FC
:1054D00081FA2D4CAC63A56332460A213820FBF7D4
:1054E000EDF93820FBF71CFA284B23606660A660B4
:1054F00001272761A6612662E662254BA362E6606A
:105500004FF00508C4F81C80276366612046FAF74F
:105510004BFF204D2E606F60AF6029462046FBF7A1
:10552000F1F82F6002266E60AF6029462046FBF737
:10553000E9F82E60C5F80490AF6029462046FBF7D5
:10554000E1F8C5F8009004236B60AF60294620465F
:10555000FBF7D8F8104B2B60C5F804800723AB602D
:1055600029462046FBF7CEF842460C492046FAF77A
:10557000E1FF09B0BDE8F0830038024000000240BE
:10558000CC08002010640240780800200020014070
:105590000100000F2C09002012000010C00800209C
:1055A00008B5074B1B7813F0FF0F07D00022044B00
:1055B0001A70052203490448FAF7BCFF08BD00BF72
:1055C00019030020C008002078080020094B1B891F
:1055D0009BB2A3F2AF304FF4C87303FB00F306484D
:1055E00080FB0320DB17C3EB2020193040B2034BB4
:1055F00018707047C0080020431CCF341A030020E5
:105600000268034B9A4202D10122024B1A70704782
:10561000002001401903002000B587B0002100914F
:105620000B4B1A6B42F008021A631B6B03F0080362
:105630000093009B07230193012302930323049308
:10564000039101A90348FBF7A3FD07B05DF804FB34
:1056500000380240000C024008B5102802D101F0C9
:10566000FDFA08BDB0F5004F01D101F0DBFC08BD2B
:105670000F4B984215D803889BB24FF6FF729342A6
:1056800011D102F1006202F5E8224FF6FF7103E04A
:1056900003889BB28B4208D104309042F8D9012094
:1056A000704701207047002070470020704700BFFE
:1056B000FF3F080838B5214B1B889BB2204A15884C
:1056C000ADB22DB94EF6EE655B1B18BF012306E0A7
:1056D0007BBB4EF6EE639D4214BF0023012303F50E
:1056E00000542034A4035D1C164B03EB8535AC42FB
:1056F00021D22368B3F1FF3F16D103E02368B3F151
:10570000FF3F11D105468AB2002321460120FBF755
:1057100017FC08B180B238BDAAB20023A11C012039
:10572000FBF70EFC80B238BD0434A542E6D88020D9
:1057300038BDAB2038BD802038BD00BF0000080850
:1057400000400808FFFF070800B587B00023059355
:105750000093022302930122039204931048FFF75F
:1057600087FF20B905A96846FBF7BCFC88B9002271
:1057700000230B490120FBF7E3FB58B903230293F5
:105780000848FFF775FF30B905A96846FBF7AAFC82
:1057900002E001E000E0002007B05DF804FB00BF7C
:1057A000000008080040080830B4154B1B889BB265
:1057B000144A12888BB192B28AB1AB201EE01A88CB
:1057C00092B2824204D133F8023C0B80002015E0F3
:1057D000043BA342F3D8012010E0002400E00124A0
:1057E000621C9203084D531904F500542034A4039D
:1057F0000234525B92B29042EAD1E4E730BC704787
:105800000000080800400808FEFF07082DE9F043E3
:1058100087B0002105918F4B1B889BB28E4A12885E
:1058200092B20091022102910120039004914EF660
:10583000EE618B4239D04FF6FF718B4203D0002BC3
:1058400040F0E88093E07AB98248FFF711FF044600
:10585000002840F0E48005A96846FBF743FC0028D7
:1058600000F0F48084B2F1E04EF6EE639A4215D176
:105870007848FFF7FDFE30B905A96846FBF732FC12
:1058800008B184B2E2E00022002373490120FBF753
:1058900057FB002800F0C58084B2D7E0FFF754FF23
:1058A000002800F0C08084B2D0E0002A3ED16B4DC9
:1058B00000244FF0FF366A4FDFF8AC813B889BB283
:1058C00002352888834208BF26B2B4420CD0414634
:1058D000FFF76AFF012807D0B8F800102888FFF703
:1058E000E9FE002840F0A1800134832CE6D100229B
:1058F000002358490120FBF723FB08B184B2A5E03F
:105900000323029301230393022304935248FFF7D6
:10591000AFFE0446002840F08A8005A96846FBF7E0
:10592000E1FB002800F0928084B28FE04FF6FF7315
:105930009A4216D1032302934748FFF799FE30B9E4
:1059400005A96846FBF7CEFB08B184B27EE00022D1
:10595000002340490120FBF7F3FA002869D084B204
:1059600074E0FFF7F1FE002865D084B26EE02AB93A
:10597000FFF7EAFE002860D084B267E04FF6FF73BD
:105980009A420FD1032302933348FFF771FE044676
:10599000002854D105A96846FBF7A4FB002855D080
:1059A00084B253E02D4D00244FF0FF362D4FDFF829
:1059B000B8803B889BB202352888834208BF26B254
:1059C000B4420AD04146FFF7EFFE012805D0B8F8EF
:1059D00000102888FFF76EFE98BB0134832CE8D1B5
:1059E000002200231C490120FBF7AAFA08B184B267
:1059F0002CE0022302930122039204931548FFF73F
:105A000037FE0446F8B905A96846FBF76BFBE8B119
:105A100084B21BE0FFF798FEB8B184B216E0002410
:105A200014E0002412E0002410E004460EE00024FC
:105A30000CE000240AE0002408E0002406E0002432
:105A400004E0044602E0002400E00024204607B001
:105A5000BDE8F08300000808004008084E09002057
:105A600006000808064008081C03002038B5054653
:105A7000C47807301CB9302101F010FC09E0012C7A
:105A800003D1302101F076FC03E0802004F0BCFC5F
:105A900038BD6B7913F0010F4FF03402034B02FB5A
:105AA000043414BF02230123A37038BD38750020CD
:105AB00070B5C378C21D032B13D10121134B83F89A
:105AC000B6101346124930321E685D689C68D8686B
:105AD0000E604D608C60C860103310319342F3D17A
:105AE00070BD022B04D13021104602F079F970BD4F
