:020000040800F2
:10000000FFFF0720AD4F0008153500081F35000819
:1000100029350008333500083D3500080000000090
:10002000000000000000000000000000473500084C
:1000300051350008000000005B350008B1330008AE
:10004000FD4F0008FD4F0008FD4F0008FD4F000860
:10005000FD4F0008FD4F0008FD4F0008FD4F000850
:10006000FD4F0008FD4F0008FD4F000875320008E5
:1000700095320008A5320008B5320008C5320008E4
:100080005133000861330008FD4F0008FD4F0008A0
:10009000FD4F0008FD4F0008FD4F0008D532000855
:1000A000FD4F0008FD4F0008FD4F0008FD4F000800
:1000B000FD4F0008FD4F0008FD4F00089133000878
:1000C000FD4F0008FD4F0008FD4F0008FD4F0008E0
:1000D000FD4F000899400008E14000081941000860
:1000E000FD4F0008FD4F0008FD4F0008FD4F0008C0
:1000F000FD4F0008FD4F0008FD4F00088532000845
:10010000FD4F0008FD4F0008FD4F0008FD4F00089F
:1001100051410008FD4F0008FD4F0008FD4F000849
:10012000E1320008F132000801330008FD4F0008F9
:1001300011330008FD4F0008FD4F0008FD4F000877
:10014000FD4F0008FD4F0008FD4F00082133000857
:10015000FD4F000831330008413300088941000891
:100160007133000881330008FD4F0008FD4F00087F
:10017000FD4F0008FD4F0008FD4F0008FD4F00082F
:10018000FD4F0008FD4F0008FD4F0008FD4F00081F
:10019000A1330008FD4F0008FD4F0008FD4F000887
:1001A000FD4F0008FD4F0008FD4F0008FD4F0008FF
:1001B000FD4F0008FD4F0008FD4F0008FD4F0008EF
:1001C000FD4F0008FD4F000800000000FD4F000833
:1001D000FD4F0008FD4F0008FD4F0008FD4F0008CF
:1001E000FD4F0008FD4F0008FD4F0008FD4F0008BF
:0801F000FD4F0008FD4F00085F
:1002000010B5054C237833B9044B13B10448AFF350
:1002100000800123237010BDE00D002000000000CD
:10022000C430010808B5034B1BB103490348AFF3C1
:10023000008008BD00000000E40D0020C43001086B
:1002400081F0004102E000BF83F0004330B54FEA87
:1002500041044FEA430594EA050F08BF90EA020FF4
:100260001FBF54EA000C55EA020C7FEA645C7FEA87
:10027000655C00F0E2804FEA5454D4EB5555B8BFAA
:100280006D420CDD2C4480EA020281EA030382EA1B
:10029000000083EA010180EA020281EA0303362DAD
:1002A00088BF30BD11F0004F4FEA01314FF4801C80
:1002B0004CEA113102D0404261EB410113F0004F92
:1002C0004FEA03334CEA133302D0524263EB430349
:1002D00094EA050F00F0A780A4F10104D5F1200EE7
:1002E0000DDB02FA0EFC22FA05F2801841F1000142
:1002F00003FA0EF2801843FA05F359410EE0A5F116
:1003000020050EF1200E012A03FA0EFC28BF4CF046
:10031000020C43FA05F3C01851EBE37101F00045FC
:1003200007D54FF0000EDCF1000C7EEB00006EEB09
:100330000101B1F5801F1BD3B1F5001F0CD3490893
:100340005FEA30004FEA3C0C04F101044FEA4452EA
:1003500012F5800F80F09A80BCF1004F08BF5FEA71
:10036000500C50F1000041EB045141EA050130BD51
:100370005FEA4C0C404141EB010111F4801FA4F1F4
:100380000104E9D191F0000F04BF01460020B1FA49
:1003900081F308BF2033A3F10B03B3F120020CDA81
:1003A0000C3208DD02F1140CC2F10C0201FA0CF05F
:1003B00021FA02F10CE002F11402D8BFC2F1200CC4
:1003C00001FA02F120FA0CFCDCBF41EA0C0190407A
:1003D000E41AA2BF01EB0451294330BD6FEA0404C3
:1003E0001F3C1CDA0C340EDC04F11404C4F12002AE
:1003F00020FA04F001FA02F340EA030021FA04F3C0
:1004000045EA030130BDC4F10C04C4F1200220FA16
:1004100002F001FA04F340EA0300294630BD21FA54
:1004200004F0294630BD94F0000F83F4801306BF1A
:1004300081F480110134013D4EE77FEA645C18BF0E
:100440007FEA655C29D094EA050F08BF90EA020FA5
:1004500005D054EA000C04BF1946104630BD91EA9D
:10046000030F1EBF0021002030BD5FEA545C05D1A0
:100470004000494128BF41F0004130BD14F58004DF
:100480003CBF01F5801130BD01F0004545F0FE4153
:1004900041F470014FF0000030BD7FEA645C1ABF88
:1004A000194610467FEA655C1CBF0B46024650EABF
:1004B000013406BF52EA033591EA030F41F40021EB
:1004C00030BD00BF90F0000F04BF0021704730B571
:1004D0004FF4806404F132044FF000054FF0000146
:1004E00050E700BF90F0000F04BF0021704730B507
:1004F0004FF4806404F1320410F0004548BF4042DC
:100500004FF000013EE700BF42004FEAE2014FEA30
:1005100031014FEA02701FBF12F07F4393F07F4F0B
:1005200081F06051704732F07F4208BF704793F00E
:100530007F4F04BF41F40021704730B54FF4607421
:1005400001F0004521F000411CE700BF50EA010224
:1005500008BF704730B54FF000050AE050EA0102CD
:1005600008BF704730B511F0004502D5404261EB3D
:1005700041014FF4806404F132045FEA915C3FF47E
:10058000D8AE4FF003025FEADC0C18BF03325FEA1B
:10059000DC0C18BF033202EBDC02C2F1200300FACC
:1005A00003FC20FA02F001FA03FE40EA0E0021FAF1
:1005B00002F11444BDE600BF70B54FF0FF0C4CF4DF
:1005C000E06C1CEA11541DBF1CEA135594EA0C0F91
:1005D00095EA0C0F00F0DEF82C4481EA030621EACC
:1005E0004C5123EA4C5350EA013518BF52EA033507
:1005F00041F4801143F4801338D0A0FB02CE4FF0B9
:100600000005E1FB02E506F00042E0FB03E54FF0E8
:100610000006E1FB03569CF0000F18BF4EF0010EE0
:10062000A4F1FF04B6F5007F64F5407404D25FEADC
:100630004E0E6D4146EB060642EAC62141EA55518F
:100640004FEAC52040EA5E504FEACE2EB4F1FD0CD1
:1006500088BFBCF5E06F1ED8BEF1004F08BF5FEA4F
:10066000500E50F1000041EB045170BD06F0004601
:1006700046EA010140EA020081EA0301B4EB5C04AE
:10068000C2BFD4EB0C0541EA045170BD41F48011A6
:100690004FF0000E013C00F3AB8014F1360FDEBFCB
:1006A000002001F0004170BDC4F10004203C35DAA7
:1006B0000C341BDC04F11404C4F1200500FA05F32A
:1006C00020FA04F001FA05F240EA020001F00042CB
:1006D00021F0004110EBD37021FA04F642EB060141
:1006E0005EEA430E08BF20EAD37070BDC4F10C046B
:1006F000C4F1200500FA04F320FA05F001FA04F22F
:1007000040EA020001F0004110EBD37041F100011A
:100710005EEA430E08BF20EAD37070BDC4F1200525
:1007200000FA05F24EEA020E20FA04F301FA05F28D
:1007300043EA020321FA04F001F0004121FA04F235
:1007400020EA020000EBD3705EEA430E08BF20EA05
:10075000D37070BD94F0000F0FD101F0004640003F
:1007600041EB010111F4801F08BF013CF7D041EAC1
:10077000060195F0000F18BF704703F000465200C5
:1007800043EB030313F4801F08BF013DF7D043EA96
:100790000603704794EA0C0F0CEA135518BF95EA4C
:1007A0000C0F0CD050EA410618BF52EA4306D1D1D3
:1007B00081EA030101F000414FF0000070BD50EAF2
:1007C000410606BF1046194652EA430619D094EA7C
:1007D0000C0F02D150EA013613D195EA0C0F05D166
:1007E00052EA03361CBF104619460AD181EA0301BA
:1007F00001F0004141F0FE4141F470014FF0000072
:1008000070BD41F0FE4141F4780170BD70B54FF00C
:10081000FF0C4CF4E06C1CEA11541DBF1CEA13558C
:1008200094EA0C0F95EA0C0F00F0A7F8A4EB05046E
:1008300081EA030E52EA03354FEA013100F0888065
:100840004FEA03334FF0805545EA131343EA12632E
:100850004FEA022245EA111545EA10654FEA0026E3
:100860000EF000419D4208BF964244F1FD0404F59C
:10087000407402D25B084FEA3202B61A65EB0305F8
:100880005B084FEA32024FF480104FF4002CB6EBB5
:10089000020E75EB030E22BFB61A754640EA0C0035
:1008A0005B084FEA3202B6EB020E75EB030E22BF75
:1008B000B61A754640EA5C005B084FEA3202B6EBB6
:1008C000020E75EB030E22BFB61A754640EA9C0075
:1008D0005B084FEA3202B6EB020E75EB030E22BF45
:1008E000B61A754640EADC0055EA060E18D04FEA03
:1008F000051545EA16754FEA06164FEAC30343EAA3
:1009000052734FEAC2025FEA1C1CC0D111F4801F6F
:100910000BD141EA00014FF000004FF0004CB6E768
:1009200011F4801F04BF01430020B4F1FD0C88BF07
:10093000BCF5E06F3FF6AFAEB5EB030C04BFB6EB12
:10094000020C5FEA500C50F1000041EB045170BD05
:100950000EF0004E4EEA113114EB5C04C2BFD4EB32
:100960000C0541EA045170BD41F480114FF0000EB6
:10097000013C90E645EA060E8DE60CEA135594EA32
:100980000C0F08BF95EA0C0F3FF43BAF94EA0C0F35
:100990000AD150EA01347FF434AF95EA0C0F7FF4AA
:1009A00025AF104619462CE795EA0C0F06D152EAFE
:1009B00003353FF4FDAE1046194622E750EA4106E2
:1009C00018BF52EA43067FF4C5AE50EA41047FF4F3
:1009D0000DAF52EA43057FF4EBAE12E753B94AB9C3
:1009E000002908BF00281CBF4FF0FF314FF0FF3037
:1009F00000F072B9ADF1080C6DE904CE00F006F814
:100A0000DDF804E0DDE9022304B070472DE9F0478A
:100A1000089E04468846002B4BD18A42154667D96A
:100A2000B2FA82F24AB1C2F1200701FA02F320FAC7
:100A300007F7954047EA030894404FEA154E230C08
:100A4000B8FBFEF71FFA85FC0EFB178843EA084344
:100A500007FB0CF1994209D9EB1807F1FF3080F040
:100A60001B81994240F21881023F2B445B1AA4B2C9
:100A7000B3FBFEF00EFB103344EA034400FB0CFC16
:100A8000A44509D92C1900F1FF3380F00781A44552
:100A900040F2048102382C4440EA0740A4EB0C04E5
:100AA00000271EB1D4400023C6E900433946BDE803
:100AB000F0878B4209D9002E00F0EB800027C6E9B1
:100AC000000138463946BDE8F087B3FA83F7002FB6
:100AD00047D18B4202D3824200F2FA80841A61EB42
:100AE000030301209846002EE0D0C6E90048DDE768
:100AF00002B9FFDEB2FA82F2002A40F08F80491B71
:100B00004FEA154E1FFA85F80127B1FBFEFC230CB6
:100B10000EFB1C1143EA014308FB0CF1994207D973
:100B2000EB180CF1FF3002D2994200F2CD808446DE
:100B3000591AA3B2B1FBFEF00EFB101443EA0444B1
:100B400008FB00F8A04507D92C1900F1FF3302D2A9
:100B5000A04500F2B6801846A4EB080440EA0C4019
:100B60009FE7C7F1200CBB4022FA0CFE4EEA030EB1
:100B700001FA07F420FA0CF521FA0CF34FEA1E48AB
:100B80002543B3FBF8F92C0C08FB19331FFA8EFA36
:100B900044EA034309FB0AF49C4202FA07F200FA12
:100BA00007F10BD91EEB030309F1FF3080F08780BA
:100BB0009C4240F28480A9F1020973441B1BADB230
:100BC000B3FBF8F008FB103345EA034400FB0AFAD4
:100BD000A24508D91EEB040400F1FF336BD2A245F5
:100BE00069D90238744440EA0940A0FB0289A4EBA9
:100BF0000A044C45C2464B4654D351D0002E69D00E
:100C0000B1EB0A0564EB030404FA0CFCFD40FC4064
:100C10004CEA0505C6E90054002747E7C2F1200366
:100C200020FA03F7954001FA02F021FA03F34FEAA4
:100C3000154E3843010CB3FBFEF71FFA85F80EFB87
:100C4000173341EA034107FB08F38B4204FA02F42D
:100C500007D9691807F1FF3C2FD28B422DD9023FEB
:100C60002944CB1A81B2B3FBFEF00EFB103341EAEC
:100C7000034100FB08F38B4207D9691800F1FF3CE0
:100C800017D28B4215D902382944C91A40EA0747BE
:100C90003BE73746304609E70746E7E61846FBE6F6
:100CA0004145ABD2B8EB020A69EB0E02013813469C
:100CB000A4E76046E9E7184695E76746D1E781462D
:100CC0007CE702382C4447E7ACF1020C2B442FE7B9
:100CD000384608E73746E9E6704700BF844641EAF0
:100CE000000313F003036DD1403A41D351F8043BA4
:100CF00040F8043B51F8043B40F8043B51F8043BF6
:100D000040F8043B51F8043B40F8043B51F8043BE5
:100D100040F8043B51F8043B40F8043B51F8043BD5
:100D200040F8043B51F8043B40F8043B51F8043BC5
:100D300040F8043B51F8043B40F8043B51F8043BB5
:100D400040F8043B51F8043B40F8043B51F8043BA5
:100D500040F8043B51F8043B40F8043B51F8043B95
:100D600040F8043B51F8043B40F8043B403ABDD204
:100D7000303211D351F8043B40F8043B51F8043BA6
:100D800040F8043B51F8043B40F8043B51F8043B65
:100D900040F8043B103AEDD20C3205D351F8043B35
:100DA00040F8043B043AF9D2043208D0D2071CBF01
:100DB00011F8013B00F8013B01D30B88038060462A
:100DC000704700BF082A13D38B078DD010F00303A0
:100DD0008AD0C3F10403D21ADB071CBF11F8013B10
:100DE00000F8013B80D331F8023B20F8023B7BE75F
:100DF000043AD9D3013A11F8013B00F8013BF9D28A
:100E00000B7803704B7843708B7883706046704723
:100E100000000000000000000000000000000000D2
:100E200000000000000000000000000000000000C2
:100E300000000000000000000000000000000000B2
:100E400090F800F06DE9024520F007016FF0000C0A
:100E500010F0070491F820F040F049804FF00004B2
:100E60006FF00700D1E9002391F840F000F108008D
:100E700082FA4CF2A4FA8CF283FA4CF3A2FA8CF3C5
:100E80004BBBD1E9022382FA4CF200F10800A4FA2C
:100E90008CF283FA4CF3A2FA8CF3E3B9D1E9042380
:100EA00082FA4CF200F10800A4FA8CF283FA4CF3B7
:100EB000A2FA8CF37BB9D1E9062301F1200182FA71
:100EC0004CF200F10800A4FA8CF283FA4CF3A2FA77
:100ED0008CF3002BC6D0002A04BF04301A4612BA85
:100EE000B2FA82F2FDE8024500EBD2007047D1E988
:100EF000002304F00305C4F100004FEAC50514F017
:100F0000040F91F840F00CFA05F562EA05021CBFE7
:100F100063EA050362464FF00004A9E70000000001
:100F200001F0FF01102A2BDB10F0070F08D010F89A
:100F3000013B013A8B422DD010F0070F42B3F6D19E
:100F4000F0B441EA012141EA014122F007047FF0B7
:100F500000070023F0E80256083C85EA010586EA0E
:100F6000010685FA47F5A3FA87F586FA47F6A5FA4A
:100F700087F68EB9EED1F0BC01F0FF0102F0070256
:100F800032B110F8013B013A83EA010313B1F8D101
:100F90000020704701387047002D06BF35460338E2
:100FA000073815F0010F07D1013015F4807F02BF1B
:100FB000013015F4C03F0130F0BC0138704700BF6C
:100FC0004FF0FF3C06E000BF4FF0010C02E000BF15
:100FD0004FF0010C4DF804CD4FEA410C7FEA6C5CF8
:100FE0004FEA430C18BF7FEA6C5C1BD001B050EA9B
:100FF000410C0CBF52EA430C91EA030F02BF90EA86
:10100000020F0020704710F1000F91EA030F58BF44
:10101000994208BF90422CBFD8176FEAE37040F0A6
:10102000010070474FEA410C7FEA6C5C02D150EA44
:10103000013C07D14FEA430C7FEA6C5CD6D152EAFF
:10104000033CD3D05DF8040B704700BF84461046C4
:1010500062468C461946634600E000BF01B5FFF7C3
:10106000B7FF002848BF10F1000F01BD4DF808ED93
:10107000FFF7F4FF0CBF012000205DF808FB00BF64
:101080004DF808EDFFF7EAFF34BF012000205DF8BE
:1010900008FB00BF4DF808EDFFF7E0FF94BF01200B
:1010A00000205DF808FB00BF4DF808EDFFF7CEFF0C
:1010B00094BF012000205DF808FB00BF4DF808ED4B
:1010C000FFF7C4FF34BF012000205DF808FB00BF1C
:1010D0004FEA410C7FEA6C5C02D150EA013C0AD134
:1010E0004FEA430C7FEA6C5C02D152EA033C02D126
:1010F0004FF0000070474FF0010070474FEA410287
:1011000012F5001215D211D56FF47873B3EB625259
:1011100012D94FEAC12343F0004343EA505311F080
:10112000004F23FA02F018BF404270474FF0000012
:10113000704750EA013005D111F0004008BF6FF050
:10114000004070474FF00000704700BF014B187817
:10115000704700BF000E0020024B187800F002001C
:10116000704700BF000E0020024B187800F0080006
:10117000704700BF000E0020024B187800F01000EE
:10118000704700BF000E0020012802D010F0010FB0
:1011900003D1402803D90020704700207047012068
:1011A00070470000454B1B783BB10023434A137046
:1011B000434A01211170434A1380414B1B78032B92
:1011C00077D8DFE803F002065F6D00203E4B188001
:1011D00070472DE9F04184B03A4B1B88B3F5167F78
:1011E0002BD040F25922934247D0642B04D00133D4
:1011F000344A138001201DE0DFF8E480334F344E81
:10120000344C0025009543463A46314620460CF0C2
:10121000F9FAB8F800303A78317802952E48019002
:101220002820009020460DF041FD264A1388013306
:101230001380012004B0BDE8F081DFF8A480234FC3
:10124000234E244D0124009443463A463146284615
:101250000CF0C8F8B8F800303A78317800200290E5
:101260001D4801902820009028460DF01FFD154ACA
:101270001388234413802046DCE7114B02221A70A6
:101280000120D7E7104A138801339BB213804DF633
:101290006C12934210D90A4B03221A700120704736
:1012A00000230E4A1370064A1370064A1380022068
:1012B00070474FF0FF30704701207047010E00204B
:1012C000FC0D0020020E0020FE0D0020984F002093
:1012D000944F0020FC40012000000020000E002060
:1012E000964F002030B585B03B4B1B7813F0010FB3
:1012F0000BD113F0020F0BD113F0080F27D113F00D
:10130000100F43D1002005B030BDFFF74BFFFAE7C7
:101310000023324A1370304A137001F08DFE00F042
:10132000D3FD01F067FE044601F086FE2C4B0290CF
:1013300003F10C0292E803008DE803000ECB204677
:1013400001F0F8FD012001F0B9FE0220DBE70023E7
:10135000224A1370204A137001F04CFE00F070FD19
:1013600001F048FE044601F067FE1D4B029003F1B8
:101370000C0292E803008DE803000ECB204601F03A
:10138000D9FD012001F09AFE0220BCE70022134B98
:101390001A70114B1A70134B03920292104C019465
:1013A0001A6900920FCB0DF0FDFD01F023FE0546FA
:1013B00001F042FE029004F10C0393E803008DE873
:1013C000030094E80E00284601F0B4FD012001F06E
:1013D00075FE022097E700BF000E0020010E0020DE
:1013E000AC550020C0550020074B984207D8038811
:1013F0009BB24FF6FF72934203D10430F4E7012011
:1014000070470020704700BFFF3F0908114B1B8841
:101410009BB2114A128892B288B1012813D13AB90D
:101420004EF6EE618B4201D001230DE013460BE036
:1014300063B94EF6EE618A4206D1012304E01BB186
:1014400032B9012300E0002318467047AB23FBE7C5
:10145000AB23F9E7000009080040090870B505460C
:101460000E460120FFF7D2FFAB2821D042F2240420
:101470000444A403431C0F4800EB8330844216D27B
:101480002368B3F1FF3F01D00434F7E7B2B2002381
:101490002146012006F06AFC08B180B208E0AAB239
:1014A0000023A11C012006F061FC80B200E0802036
:1014B00070BD00BFFFFF080810B586B0002305937C
:1014C0000093022302930122039204931048FFF732
:1014D0008BFF28B905A9684606F0E0FC044638B938
:1014E000002200230A49012006F040FC044610B106
:1014F000204606B010BD032302930648FFF774FF91
:101500000028F5D105A9684606F0C8FC0446EFE7B7
:10151000000009080040090838B504460D460020BF
:10152000FFF774FFAB2816D042F224020244920364
:10153000431C094800EB8330931C83420AD2038882
:101540009BB2A34201D00438F6E730F8023C2B806E
:10155000002000E0012038BDFEFF08082DE9F04121
:1015600086B000230593954AB2F800801FFA88F8E8
:1015700002F580421688B6B200930223029301223C
:10158000039204934EF6EE63984542D04FF6FF73F4
:1015900098450DD0B8F1000F00F0A080FFF78CFF48
:1015A000002800F0088186B2304606B0BDE8F08120
:1015B00056B14EF6EE639E4215D0FFF77DFF002830
:1015C00000F0F18086B2EFE77C48FFF70DFF04469C
:1015D0000028E9D105A9684606F060FC002800F063
:1015E000DE8086B2E0E77548FFF7FEFE20B905A968
:1015F000684606F053FC50B90022002370490120D0
:1016000006F0B4FB002800F0CC8086B2CCE786B2AE
:10161000CAE75EB34FF6FF739E4248D0FFF74CFF18
:10162000002800F0C68086B2BEE727B20CE0013485
:10163000A4B2992C1ED8634B1B889BB22546624AE4
:1016400032F814008342F0D0BD42F0D05F49FFF77A
:1016500063FF0128EBD05D4B19885B4B33F8150015
:10166000FFF7FCFE0028E2D006469DE734464FF027
:10167000FF37DEE7002200235049012006F076FB09
:1016800008B186B290E70323029301230393022358
:1016900004934B48FFF7A8FE0446002884D105A90F
:1016A000684606F0FBFB00287FD086B27CE7032368
:1016B00002934348FFF798FE20B905A9684606F053
:1016C000EDFB48B9002200233C49012006F04EFB07
:1016D00000286CD086B267E786B265E73EB14FF668
:1016E000FF739E420AD044464FF0FF371CE0FFF7DD
:1016F000E3FE00283FF458AF86B255E70323029378
:101700002F48FFF771FE064608B146464CE705A98B
:10171000684606F0C3FB00283FF446AF86B243E7B5
:1017200027B20CE00134A4B2992C1AD8284B1B889C
:101730009BB22546244A32F814008342F0D0BD42C1
:10174000F0D02249FFF7E8FE0128EBD01F4B1988A3
:101750001D4B33F81500FFF781FE06460028E1D047
:1017600022E7002200231649012006F0FFFA08B103
:1017700086B219E7022302930122039204930F48D1
:10178000FFF732FE064608B146460DE705A9684652
:1017900006F084FB00283FF407AF86B204E7264634
:1017A00002E7002600E70026FEE62646FCE60026C5
:1017B000FAE60026F8E60026F6E600BF0000090873
:1017C0000040090806000908D44F0020040E00203C
:1017D000064009082DE9F04186B005460E46002076
:1017E0000590FFF713FE012811D000284DD14FF0CE
:1017F0000208274F4EF6EE6200233946012006F01C
:10180000B5FA40B184B2204606B0BDE8F0814FF091
:101810000308204FEEE731462846FFF71FFE044637
:1018200010B1F0E70134A4B2992C14D81A4B33F854
:101830001400A842F6D01949FFF76EFE0128F1D036
:10184000164B1988144B33F81400FFF707FE0028D5
:10185000E8D00446D7E700230093CDF808800123A1
:1018600003930223049305A9684606F017FB08B109
:1018700084B2C8E7002200233946012006F076FA38
:1018800008B984B2BFE784B2BDE7AB24BBE700BFB1
:101890000040090800000908D44F0020040E002071
:1018A00038B504460D46FFF7D9FD802800D038BD75
:1018B00029462046FFF78EFFF9E700002DE9F041A9
:1018C00084B007460E461546134B1870012306E0F8
:1018D000F21812F8011C104AD1540133DBB26A1C11
:1018E0009342F5DB0024042C11D80A2302930195BE
:1018F000009601233A46D021084806F0C7FD8046ED
:1019000028B10A2003F0C0FB0134E4B2EBE7404603
:1019100004B0BDE8F08100BF0851002074530020DE
:1019200030B583B002AC802304F8013D012221468A
:101930006B20FFF7C3FF642003F0A6FB01258DF8A1
:1019400007502A4621466B20FFF7B8FFC82003F056
:101950009BFB00238DF807302A4621466C20FFF7B9
:10196000ADFF0A2003F090FB03B030BD00B583B09B
:10197000FFF7D6FF192003F087FB0D4B0022DA8218
:101980001A835A831A825A829A829A83DA831A8431
:10199000084B1B6802A941F8043D04221A20FFF7F6
:1019A0008DFF0A2003F070FB03B05DF804FB00BF5D
:1019B00080140120E030010800B583B00F230193AB
:1019C000094B009301233B22D021084806F048FE32
:1019D00028B1074BFF221A7003B05DF804FB044BDB
:1019E00003221A70F8E700BFC05300207453002090
:1019F0002D0E002070B485B0002300930193029354
:101A0000ADF80C301A460FE0501CC0B2164CA55C65
:101A10000232D2B2215C41EA052104A800EB430066
:101A200020F8101C0133DBB2062BEDD9BDF90060A4
:101A30000E4B1E80BDF902505D80BDF904409C80B4
:101A4000BDF90800D880BDF90A101981BDF90C2034
:101A50005A81074BDE821D835C83188259829A82E9
:101A600005B070BC704700BFC05300206C5100200F
:101A700080140120034B1870034B1970034B1A702C
:101A8000704700BF0F0E00200E0E00200D0E00202C
:101A900010B52E4B1B78FBB12D4B1B782BB12B4B6C
:101AA0001A782C4B1B789A4231D22B4B1B782BB1D6
:101AB000264B1A78294B1B789A4232D2284B1B7836
:101AC0002BB1224B1A78274B1B789A4233D21F4AEC
:101AD00013780233137010BD234C01224FF4804160
:101AE000204603F06BFC01224FF40051204603F026
:101AF00065FC01224FF40041204603F05FFC012306
:101B0000134A1370144A1370154A1370C4E7002265
:101B10004FF48041144803F051FC0D4B00221A7021
:101B2000C3E700224FF400510F4803F047FC0A4B73
:101B300000221A70C2E700224FF400410A4803F065
:101B40003DFC074B00221A70C1E700BF070E0020C2
:101B50000B0E00200F0E00200A0E00200E0E00209B
:101B6000060E00200D0E002000100240014B1878D8
:101B7000704700BF0C0E0020044B1B78C0F1FA0028
:101B8000834201DC00207047012070470C0E0020CA
:101B90000E490B8801339AB20D4BA3FB02039B093C
:101BA0004FF47A7000FB13239BB20B80B3F5F97FDF
:101BB00008D8084A1380074B1B88C3F34703064A1B
:101BC00013707047C31A034A1380F4E7100E002005
:101BD000D34D6210080E00200C0E0020024B187826
:101BE00000F00100704700BF120E002008B5FFF79B
:101BF000F5FF08B9002008BD034B00221A7002202F
:101C000001F05CFA0120F6E7120E002010B586B054
:101C10000F4B1A6B42F010021A631B6B03F0100398
:101C20000093009B0B4C00224FF4C051204603F060
:101C3000C5FB4FF4C0530193012302930023039388
:101C4000049301A9204603F0C9FA06B010BD00BFF5
:101C5000003802400010024010B586B00F4B1A6BDE
:101C600042F010021A631B6B03F010030093009BF9
:101C70000B4C00224FF46041204603F09FFB4FF4D1
:101C8000604301930123029300230393049301A96A
:101C9000204603F0A3FA06B010BD00BF0038024092
:101CA0000010024008B5FFF7B1FFFFF7D5FF08BDF0
:101CB00070B5374C2468632C2ED8364D01262E7013
:101CC0000134334D2C60C72C02D92C4600252560E9
:101CD0001BB1314B4FF4FA641C602F4B1B6813B1DE
:101CE000013B2D4C23602C4B1B68CBB92B4B0124A3
:101CF0001C70012A18D02A4B1B78012B14D0012903
:101D00002BD001282ED0254B1A78012A21D001236F
:101D100000221846114610E01E4D00262E70CFE717
:101D20001E4B00241C70E4E71D4B01221A70194B56
:101D300019784FF0FF3300221046C3B1012B1ED09B
:101D4000524243424842D2B2D9B2C0B2FFF792FEE9
:101D500070BD002318461946EFE74FF0FF3300220D
:101D60001046EAE701464FF0FF330022E5E7FFF7B0
:101D7000FDFE024600210846FFF77CFEE8E7FFF77C
:101D8000F5FE002201461046FFF774FEE0E700BFB3
:101D9000140E0020190E002004000020180E002050
:101DA0001A0E002084B010B401AC84E80F00069A2B
:101DB000079B9DF80E0019784C1C1C7022F811002E
:101DC0001978481C1870BDF8040022F81100029818
:101DD00019784C1C1C70040C22F8114019784C1C0A
:101DE0001C7022F811001978481C1870BDF80C30CE
:101DF00022F811305DF8044B04B0704730B413780A
:101E00005C1C147031F81330837213785C1C1470EE
:101E100031F8133003801478631CDBB2137031F88F
:101E200014405D1C157031F8133003EB044343601C
:101E300013785C1C147031F81330038130BC704788
:101E400008B501468620FFF72BFD08B1002008BD2C
:101E500043F239018720FFF723FD08B90120F6E797
:101E60000020F4E700B583B00023ADF8063002A9E6
:101E700021F8043D8620FFF74FFB18B1002003B086
:101E80005DF804FB0DF106018720FFF745FB80B9E3
:101E9000BDF8062043F239039A4205D1064BBDF83E
:101EA00004201A800120EAE7034B00221A80022056
:101EB000E5E70020E3E700BF1C0E0020014B188877
:101EC000704700BF1C0E002008B581B29220FFF7BA
:101ED000E7FC08B1002008BD45F6A0319320FFF7CC
:101EE000DFFC08B90120F6E70020F4E700B583B075
:101EF0000023ADF8063002A921F8043D9220FFF737
:101F00000BFB18B1002003B05DF804FB0DF10601D6
:101F10009320FFF701FB80B9BDF8062045F6A033FA
:101F20009A4205D19DF90420054B1A700120EAE779
:101F3000034B00221A700220E5E70020E3E700BF10
:101F40001B0E0020014B93F9000070471B0E002070
:101F500084B000B589B00DF1280C8CE80F0005AAFB
:101F6000002305930693ADF81C3008A901F80D3D38
:101F7000029101920E9B00939CE80F00FFF712FF65
:101F800001238DF81330BDF814108A20FFF788FC68
:101F900028B1002009B05DF804EB04B070479DF84B
:101FA00013305A1C8DF8132008AA02EB430333F8B0
:101FB0000C1C8B20FFF774FC08B10020EAE79DF8A9
:101FC00013305A1C8DF8132008AA02EB430333F890
:101FD0000C1C8C20FFF764FC08B10020DAE79DF8A8
:101FE00013305A1C8DF8132008AA02EB430333F870
:101FF0000C1C8D20FFF754FC08B10020CAE79DF8A7
:1020000013305A1C8DF8132008AA02EB430333F84F
:102010000C1C8E20FFF744FC08B10020BAE744F204
:1020200083318F20FFF73CFC08B90120B2E7002084
:10203000B0E7000070B58EB00023ADF822300693F3
:102040000793ADF8203001238DF8173006A98A20B8
:10205000FFF762FA10B100200EB070BD9DF81710A6
:102060004B1C8DF8173006AB03EB41018B20FFF7BB
:1020700053FA08B10020EFE79DF817104B1C8DF8BC
:10208000173006AB03EB41018C20FFF745FA08B18E
:102090000020E1E79DF817104B1C8DF8173006ABB8
:1020A00003EB41018D20FFF737FA08B10020D3E799
:1020B0009DF817104B1C8DF8173006AB03EB410150
:1020C0008E20FFF729FA08B10020C5E70DF12201A3
:1020D0008F20FFF721FA002831D1BDF8222044F2E9
:1020E00083339A4217D100260EAA02F8216D0124EB
:1020F000144B1C7009AD06A92846FFF77FFE039418
:102100000296114B01930D9B009395E80F000CF084
:1021100049FF2046A0E700250A4B1D7009AC29465F
:1021200020460CF0B5FE03950295074B01930D9BDD
:10213000009394E80F000CF035FF02208CE700209C
:102140008AE700BF1E0E0020AC55002038B50546BA
:10215000C4788CB1C11D012C05D0062C08D080207C
:1021600008F0D1FB12E03022042001F027FC03E04C
:102170003022032001F022FC6B7913F0010F06D10D
:10218000064B342202FB04340123A37038BD034BF9
:10219000342202FB04340223A370F7E72CB700209B
:1021A00008B5C3780730032B0AD0022B12D0042BBA
:1021B00014D0062B18D013B90E4B02229A7008BD0A
:1021C0000C4B012283F8B620302201460A48FEF764
:1021D00085FDF4E7302102F0C9FCF0E7302201462A
:1021E000022001F0EBFBEAE730220146032001F078
:1021F000E5FBE4E72CB70020B6B00020014B1878CF
:10220000704700BF0800002008B502F051FFC0B2BF
:1022100008BD012070470000014B1878704700BFCF
:102220001500002028B1012806D0022807D0002080
:102230007047044B585C7047034B585C7047034B26
:10224000585C70470C000020100000201400002093
:1022500038B1012807D0022801D0002070470120A2
:102260007047022070470220704700001D4B1B681A
:10227000B3F57A7F0DD31C4B01221A701B4B1B78D0
:1022800033B11B4A1378013303F0010313703BB1E0
:102290007047154A002111700133124A13607047CC
:1022A0002DE9F04184B0DFF85C80124F124E134CE0
:1022B0000025009543463A46314620460CF020F86A
:1022C000B8F800303A7831780C20039002950C4829
:1022D00001901620009020460CF030FD04B0BDE8BF
:1022E000F08100BF280E0020200E00201F000020DB
:1022F0001F0E0020984F0020944F0020FC4001202A
:10230000240E0020964F002008B5124A137801339E
:1023100003F00303137063B10F4B1B785BB2042B04
:1023200009D1FFF767FB00230B4A13700B4A1370A8
:1023300001E0FFF741FB084B1B785BB2B3F1FF3FB5
:1023400000D008BD054A137801331370024B0022F8
:102350001A70F6E72E0E00202D0E00202C0E002005
:1023600008B51548154B0360154B43600023836087
:102370000122C260036143618361C361036206F0AD
:1023800027F850B900210C4806F0B2FE50B90021E0
:10239000094806F0DBFE50B908BD7021094801F07C
:1023A000E1F8EFE77621074801F0DCF8EFE77C2160
:1023B000044801F0D7F8EFE77453002000540040C0
:1023C0000D030060E430010808B51748174B03609F
:1023D000174B4360442383600123C36000230361E0
:1023E00043618361C361036205F0F2FF68B90021B4
:1023F0000D4806F07DFE68B900210B4806F0A6FEE8
:1024000068B9094806F06AFA08BD8E21094801F04A
:10241000A9F8ECE79421074801F0A4F8ECE79A2129
:10242000044801F09FF8ECE7B8520020005C00403F
:102430000D030060E43001080368074A934203D0AB
:10244000064A934204D07047054B04221A70704725
:10245000044B04221A70F6E7005400400058004074
:102460002D0E00202F0E00200268114B9A4204D03E
:102470000268104B9A420DD070470F4B1B785BB22D
:10248000012B03D00C4BFF221A70F1E70A4B0222FA
:102490001A70EDE7094B1B785BB2012B03D0074B99
:1024A000FF221A70E8E7054B02221A70704700BF3E
:1024B00000540040005800402D0E00202F0E002038
:1024C00008B50268034B9A4200D008BD00F0D8FC62
:1024D000FBE700BF005C00407047000008B50268E1
:1024E000054B9A4200D008BD01224FF480410348B9
:1024F00002F064FFF7E700BF005C004000100240FC
:1025000008B511B1012908D008BD4FF000730C22A5
:102510000649074806F090F9F6E74FF000730E22DF
:102520000449034806F036F9EEE700BFA852002040
:10253000B85200200453002008B5024806F0CEF936
:1025400008BD00BFB85200202DE9F0418AB00368F1
:10255000654A934206D0654A934200F084800AB0EF
:10256000BDE8F0810446624D2B6B43F002032B6300
:102570002B6B03F002030093009B4FF44073059311
:10258000122306930123079303230893042309933B
:1025900005A9584802F022FE2B6C43F400132B646B
:1025A0002B6C03F400130193019B2B6B43F400137A
:1025B0002B632B6B03F400130293029B4E484F4B8B
:1025C00003604FF00073436000238360C3604FF4E7
:1025D0008062026143618361C3610362436204F00C
:1025E00033FB002833D1444BE3639C634448454BA1
:1025F00003604FF000734360402383600023C36097
:102600004FF48062026143618361C361036243628C
:1026100004F01AFB08BB3A4BA3639C63002202211F
:102620001F2006F0D1FD1F2006F000FE00221146FB
:102630000B2006F0C9FD0B2006F0F8FD0022114624
:102640002F2006F0C1FD2F2006F0F0FD87E74FF4A4
:1026500099712D4800F086FFC5E74FF4A2712A4812
:1026600000F080FFD7E7224C236B43F00103236384
:10267000236B03F001030393039B4FF40073059353
:102680004FF01208CDF81880012507950327089709
:102690000426099605A91D4802F0A0FD4FF4807399
:1026A0000593CDF8188007950897099605A918484D
:1026B00002F094FD236C43F400032364236C03F4C1
:1026C00000030493049B2A460021492006F07CFD68
:1026D000492006F0ABFD00221146482006F074FDAB
:1026E000482006F0A3FD3AE700540040005C00409B
:1026F0000038024000040240FC54002010600240F8
:1027000014530020B8600240E43001080008024081
:102710000000024008B500F0A5FF0CF03BFA00F005
:1027200069F900F0A5FA0CF0F7F90AF0DDFD00F008
:1027300013FD01E000F034F90E4B1B78DBB2012BE6
:10274000FAD10C4B00221A700B4C2378DBB25AB230
:102750000A4D2A700A4A52F823309847FF232B70FB
:1027600023780133DBB22370072BE3D900222270D8
:10277000E0E700BF580F0020590F00204000002064
:102780002000002008B50A4A1368591C1160094A44
:10279000C2F81034FEF7A6FD20B1022805D0FFF7DD
:1027A00025FA08BD0AF0A9FDF9E70AF0AAFDF6E747
:1027B000440E00208014012008B5FFF7A5FD08BDD8
:1027C0007047000008B500F0A5FC10B1FFF74EFD02
:1027D00008BD0C4B00221A700B4808F0B7FD40B141
:1027E0000A4A42F24273D35A1BB1064A13780133A4
:1027F0001370044B1B78002BE8D0054B01221A7094
:10280000E4E700BF300E0020C8D2002098B80020B6
:10281000400E002070B500F07DFC10B9124B1B7803
:102820000BB1002403E000F067F9FAE70134062C4D
:1028300017DC0E4A40F6185303FB0423B3F8123D8D
:10284000002BF3D040F6185505FB04F606F65800A9
:102850001546104408F0DBFB35440023A5F8123D73
:10286000E4E700F05DFC70BD300E002098B8002059
:1028700008B50AF041FD08BD10B4002319464FF019
:10288000FF3400E00133092B06DCC25C52B28A42FD
:10289000F8DB5CB2C15CF5E7B4F1FF3F07D001F0B3
:1028A0000F0040EA041080B25DF8044B704700202E
:1028B000FAE7000010B5FFF76BF9194C23780022F6
:1028C00011461046FFF7F4F923780BB1002222706D
:1028D0000C20FFF751F902464FF48051114802F0E5
:1028E0006DFD012000F0CAF80F48FFF7C5FF0F4B40
:1028F00058857F2809D06F280CD000230C4A13601C
:102900000C4A136001F080F810BD0A4A13680133C5
:102910001360F7E7064A136801331360F2E700BF5C
:10292000400E0020001002405C0F002080140120A7
:10293000340E0020380E0020002303E0034A00215B
:10294000D1540133092BF9DD704700BF5C0F002023
:1029500008B50D4A1368013313600C4981FB03214C
:10296000DA17C2EB613244F6206101FB123202B188
:1029700008BDFFF7E1FF0649052000F0EDF9024B25
:1029800000221A60F4E700BF3C0E0020AD8BDB682C
:102990004C31010808B5022008F000FD08BD000018
:1029A00070B5FFF775F80F4A137883F001031370C1
:1029B000ABB90D4E0D4D0E4C33462A462146012033
:1029C00008F088FC33462A462146052008F082FCA0
:1029D00033462A462146002008F07CFC70BDFFF7F4
:1029E000D9FFE6E7320E0020310E0020420E002013
:1029F000410E002070B584B000242CE0184D2A5DF3
:102A0000214640F61850174B00FB043008F0D2FA6C
:102A1000962303FB04F3144818442A5D4FF41C71F9
:102A200001FB04F101F59C75104E354403953144CA
:102A300002914FF464710E4D01FB0451019100901D
:102A40000C490B44214634250B4805FB040008F0D3
:102A500077FA0134E4B2062CD0D904B070BD00BFBF
:102A60001800002098B8002010B30020E49D00203A
:102A7000F4840020F4AE00202CB70020012800D9F7
:102A8000704708B54FF41C7303FB00F303F59C7308
:102A9000144A1A441449342303FB00139B7E012B70
:102AA00000D008BD342303FB0013002199760D49A3
:102AB0004FF41C7303FB001393F83D3113F0010F27
:102AC00009D00949342303FB001002238370104608
:102AD000FFF73CFBE5E7044B342101FB0033012108
:102AE0009970F4E7E49D00202CB700205D2814BF06
:102AF00000200120704700003D4B1B781BB1F0B552
:102B0000C1B0002207E070473A4850F82210013166
:102B100040F82210013219469342F5DC0024A1420C
:102B200043DD344B53F82420334B33F814309A42AE
:102B300001DA0134F3E7314B53F82450E8B2FFF7E0
:102B4000D5FF002833D12E4A135D0133DBB2135574
:102B50009BB22C4A02EB84025288934204D9294B3F
:102B600033F82420264B1A554FF480720021684612
:102B70000CF086FA244B33F814308DF80030204BDB
:102B80001B5D8DF8043005EB4505AB001F4AD3589B
:102B90001F49214468469847174B33F81410154ACB
:102BA00052F824305B1A42F8243041B0F0BD184F7F
:102BB0003D5D40F61852174B02FB0535124B33F8BA
:102BC0001430154EB370FFF71FFBF0703B5D337090
:102BD000002185F8FD152B463246084810F82400E0
:102BE00008F09EFA0028D7D00023A5F8123DD3E7BD
:102BF0007E4F00204C0E0020600300205C0300206C
:102C0000804F0020C02C0120844F0020DC7E00205B
:102C10006403002098B80020480E002010B586B04C
:102C20000E4B1A6B42F002021A631B6B03F0020395
:102C30000093009B0A4C00220721204602F0BEFBB5
:102C4000072301930123029300230393049301A913
:102C5000204602F0C3FA06B010BD00BF00380240A3
:102C6000000402400023036041608360704700005D
:102C700010B584B000F000FDFFF714F8FFF7CEFFA9
:102C8000002000F0AFFD042000F0ACFD00F0B4F82F
:102C9000022000F0A7FDFFF763FBFEF767FEFFF7DA
:102CA00093FB01F00FFF05F015F8FEF757FC002825
:102CB00047D1FFF79FFE32212448FFF7D3FF00F0F2
:102CC0009FF900F0E1F900F0BDF900F093F9044636
:102CD00000F0B2F91E4B029003F10C0292E80300DF
:102CE0008DE803000ECB204600F024F9194C002299
:102CF0004FF48041204602F061FB00224FF4005166
:102D0000204602F05BFB00224FF40041204602F017
:102D100055FB012000F0A0FE4FF4FA7002F0B4F968
:102D2000022000F0F5FC012000F0F2FC042000F08D
:102D3000EFFC032000F0ECFC002000F0E9FC04B004
:102D400010BD012002F0A0F9B3E700BF74550020C8
:102D5000AC55002000100240052800D970470EB481
:102D600010B583B00D4C4FF48072002120460CF05A
:102D700087F906AB0193059A4FF4807120460DF058
:102D8000EDFE2046FEF75CF882B22146022000F0FC
:102D900015FE03B0BDE8104003B07047500E002090
:102DA000012800D07047024A138801331380F9E7E5
:102DB000500F002008B50E4B1B780E2B0DD80122AA
:102DC00011460C4802F0FAFA094B1B781D2B0AD861
:102DD0000133074A1370002008BD00220121054875
:102DE00002F0ECFAF0E7024B00221A700120F3E740
:102DF000520F00200010024030B589B01C4B1A6BF6
:102E000042F004021A631A6B02F004020192019A62
:102E10001A6B42F010021A631B6B03F0100302934B
:102E2000029B4FF480730393124B04930024059488
:102E300003A9114802F0D2F922460721172006F013
:102E4000C3F9172006F0F2F90123039304930594C4
:102E500006940A4D03A9284602F0C0F90223039301
:102E60000494059403A9284602F0B8F909B030BDCE
:102E700000380240000031100008024000100240FB
:102E80002DE9F04182B00223ADF80630264B5C7884
:102E900004F15603DBB2082B2AD9234E0DF10601AB
:102EA000304607F045FD214D28800DF106013046E2
:102EB00007F03EFD68800DF10601304607F038FD51
:102EC000A8800DF10601304607F032FDE880BDF81C
:102ED0000620531C9BB2B2562A725A1CADF806202B
:102EE000F35CAB812046FFF75BFF02B0BDE8F081E9
:102EF00002AE032326F8023DA4F1AA080A4F314688
:102F0000384607F015FD0A4D25F8180031463846B9
:102F100007F02FFDA63C45F82400BDF80630FB5C09
:102F2000454485F83030E0E7A852002080140120A5
:102F3000882C012084B070B582B007AC84E80E0004
:102F40009DF8274014B10F2C28BF0F2464B29DF8C0
:102F5000283044EAC314E4B202AE012326F8023D4D
:102F60001A4D55232B703246294607F0D4FC3246C1
:102F70002946BDF81C0007F0CEFC324629460898C9
:102F800007F0E0FC32462946BDF8240007F0C3FCF8
:102F9000BDF80620531C9BB2AC54581C80B29DF95E
:102FA0003020EA540022134605E00849C95C0A446F
:102FB000D2B20133DBB299B28842F6D8034B1A542D
:102FC00002B0BDE8704004B0704700BF0453002059
:102FD00043F69823984207D94CF25033984228BFC1
:102FE0001846034B1880704743F69820F9E700BF56
:102FF000660F0020014B1888704700BF660F002045
:1030000008B5FEF72FFFFEF759FF20B948F6A0409C
:10301000FFF7DEFF08BDFFF7DBFFFBE710F10E0F48
:1030200005DB0F28A8BF0F20024B187070476FF008
:103030000E00F9E7530F0020014B93F90000704791
:10304000530F002008B5FEF751FFFEF77BFF00F19C
:103050000F03DBB21E2B03D90020FFF7DFFF08BDF3
:10306000FFF7DCFFFBE7000084B030B402AC84E87B
:103070000F00044C02AD0FCD0FC42B68236030BC91
:1030800004B07047C055002010B58AB0FEF7D2FFDB
:1030900008B10AB010BD05AC002120460BF0F8FEC7
:1030A000002303930293044B0193099B009394E83C
:1030B0000F000BF077FFECE7AC550020134B1B78AB
:1030C00013BB012811D028B1022815D0104B0022C3
:1030D0001A7005E00D4B01221A700D4B03221A7075
:1030E0000A4B187878B101207047084B01221A70FA
:1030F000074B02221A70F3E7044B01221A70044BAB
:1031000004221A70ECE7704700207047550F00202A
:10311000560F0020014B1878704700BF550F002054
:1031200008B50B4B1B7843B10A4B1B7833B9094BDD
:103130001B7813B9064B00221A7008BDFFF73AFE40
:103140000028F4D0034A1378013B1370EFE700BF67
:10315000550F0020560F002008B5054B1B7803B90A
:1031600008BD013B024A13700020FFF7A7FFF7E7F5
:1031700041000020B0F5807F00D070471F4B1B78C6
:10318000DBB2062B27D81E4B1B7813B91D4B01222F
:103190001A701B4B1B7833B11B4B1B78032B24D0AD
:1031A0000133194A1370194B1B785BB2B3F1FF3F1F
:1031B000E3D0164B1B785BB2154AD35C5BB20E2B87
:1031C000DBDC124B1A7852B211498B5C5BB20133D3
:1031D0005BB28B54D1E70A4B1B78002BD9D101236A
:1031E000074A1370074A1370D3E7064B01221A707F
:1031F0000023054A1370024A1370D4E7590F0020C8
:10320000570F0020580F0020540F002040000020CE
:103210005C0F002008B5032005F0C4FF0022114612
:103220006FF00B0005F0D0FF002211466FF00A008E
:1032300005F0CAFF002211466FF0090005F0C4FF37
:10324000002211466FF0040005F0BEFF0022114677
:103250006FF0030005F0B8FF002211466FF0010087
:1032600005F0B2FF002211464FF0FF3005F0ACFF31
:1032700008BD000008B5024803F09AFD08BD00BF74
:10328000FC54002008B5024803F092FD08BD00BFC1
:103290001453002008B5024803F08AFD08BD00BFA2
:1032A0001458002008B5024803F082FD08BD00BF95
:1032B000E856002008B5024803F07AFD08BD00BFBB
:1032C0005C59002008B5024803F072FD08BD00BF3C
:1032D000CC5F002008B54FF4807002F075F808BD8F
:1032E00008B5024803F064FD08BD00BF845100200A
:1032F00008B5024803F05CFD08BD00BFA8570020D8
:1033000008B5024803F054FD08BD00BF7C5A0020F8
:1033100008B5024803F04CFD08BD00BFE451002091
:1033200008B5024802F00AFF08BD00BFC8720020BD
:1033300008B5024803F03CFD08BD00BF1C5A002040
:1033400008B5024803F034FD08BD00BFBC59002099
:1033500008B5024803F02CFD08BD00BF4857002007
:1033600008B5024803F024FD08BD00BFDC5A002068
:1033700008B5024805F0C6FA08BD00BFB8520020E3
:1033800008B5024805F064FE08BD00BFB852002031
:1033900008B5024805F0B6FA08BD00BF7453002016
:1033A00008B5024801F08CFE08BD00BF4452002061
:1033B00008B501F057FE05F06CFF08BD08B50728F9
:1033C00018D8DFE800F004182C4054687C90504C6A
:1033D00000224FF48041204601F0F0FF00224FF41C
:1033E0000051204601F0EAFF01224FF4004120463F
:1033F00001F0E4FFFEE7464C01224FF480412046F5
:1034000001F0DCFF00224FF40051204601F0D6FF0E
:1034100000224FF40041204601F0D0FFEAE73C4C87
:1034200000224FF48041204601F0C8FF01224FF4F2
:103430000051204601F0C2FF01224FF40041204616
:1034400001F0BCFFD6E7324C00224FF48041204609
:1034500001F0B4FF01224FF40051204601F0AEFF0D
:1034600000224FF40041204601F0A8FFC2E7284C9B
:1034700001224FF48041204601F0A0FF00224FF4CA
:103480000051204601F09AFF01224FF400412046EE
:1034900001F094FFAEE71E4C01224FF4804120461C
:1034A00001F08CFF01224FF40051204601F086FF0D
:1034B00000224FF40041204601F080FF9AE7144CAF
:1034C00001224FF48041204601F078FF01224FF4A1
:1034D0000051204601F072FF01224FF400412046C6
:1034E00001F06CFF86E70A4C00224FF48041204631
:1034F00001F064FF00224FF40051204601F05EFF0E
:1035000000224FF40041204601F058FF72E700BF4F
:103510000010024008B500210846FFF74FFF08B52C
:1035200001210846FFF74AFF08B501210220FFF7F5
:1035300045FF08B501210320FFF740FF08B5012131
:103540000420FFF73BFF08B500210520FFF736FFF9
:1035500008B500210620FFF731FF08B5002107203C
:10356000FFF72CFFFEE7000000B5B9B0384B1A6C2E
:1035700042F080521A641B6C03F080530093009B4E
:10358000344B1A6842F440421A601B6803F440430B
:103590000193019B01232B934FF480332C9302233F
:1035A00031934FF48002329206223392D822349221
:1035B0003593092336932BA803F0E8FC002836D175
:1035C00004F0B8FC002836D10F232693022327935A
:1035D000002328934FF4A05329934FF480532A9348
:1035E000072126A803F010FF48BB1B4B02930023C2
:1035F00013931493159318931B931D93219302A86F
:1036000003F0DAFFF8B903F0B1FF144BA3FB00306D
:10361000800905F017FE042005F02AFE002211465D
:103620004FF0FF3005F0D0FD39B05DF804FB762196
:103630000B48FFF797FF7C210948FFF793FF89218B
:103640000748FFF78FFF98210548FFF78BFF00BF62
:103650000038024000700040C0492100D34D621084
:103660006831010808B501F0F1FCFFF77DFF642027
:1036700001F00AFD08BD000030B585B00B4C0C4BC5
:10368000236000256560A5604FF6FF73E360204668
:1036900001F03CFF0195039501A9204601F050FF80
:1036A000204601F09FFE05B030BD00BFD45500207C
:1036B00000100040B0F5FA7F01D94FF4FA7000EB2A
:1036C0004000C0EBC00083009BB22A3B9BB2044A7F
:1036D000116800224A624A6A9A42FCD3704700BFCE
:1036E000D45500200268094B9A4200D0704782B03E
:1036F00003F50A331A6C42F010021A641B6C03F0D3
:1037000010030193019B02B0704700BF00100040FE
:1037100008B5042859D8DFE800F00314253647001F
:103720002B4BDB6893F86930DBB2202B01D00020F3
:1037300008BD274BD868196ADA6992B201F0C2FF56
:10374000F6E7244BDB6893F86930DBB2202B01D01D
:103750000020EDE71F4BD868196ADA6992B201F0D0
:10376000B1FFE5E71C4BDB6893F86930DBB2202B37
:1037700001D00020DCE7184BD868196ADA6992B2E8
:1037800001F0A0FFD4E7154BDB6893F86930DBB29A
:10379000202B01D00020CBE7104BD868196ADA69DA
:1037A00092B201F08FFFC3E70D4BDB6893F86930ED
:1037B000DBB2202B01D00020BAE7094BD868196A88
:1037C000DA6992B201F07EFFB2E70020B0E700BFF5
:1037D000D8320020381B0020680F0020A83E0020AF
:1037E0000827002038B5042819D8DFE800F0031AAC
:1037F000324A6200394C00252570394B636084F8E9
:10380000285084F83F58204600F064F9642001F005
:103810003BFC012384F83E382846FFF779FF00205F
:1038200038BD304C012525704FF4E133636084F8D6
:103830003F58002384F8283004F5046007F0ABF803
:10384000204600F09DF90A2001F01EFC84F83E5845
:10385000E5E7012000F0B8FA234C022323704FF46F
:1038600061336360012584F82850002384F83F38D1
:10387000204600F0CFF90A2001F006FC84F83E58FB
:10388000CDE71A4C032323704FF4613363600023A8
:1038900084F82830012584F83F58154807F07BF854
:1038A000204600F0FFF90A2001F0EEFB84F83E58B4
:1038B000B5E7104C042323700F4B6360002384F89A
:1038C000283084F83F38204600F034FA0A2001F00E
:1038D000DBFB012384F83E38A1E700BFD83200208B
:1038E000C0270900381B0020680F0020A83E0020D8
:1038F000782300200827002080841E00F8B590F867
:103900002C30072B01D90020F8BD16460F4604467F
:1039100090F82B502D023835054406354FF480724F
:10392000002128460BF0ACFB324639462846FDF70D
:10393000D5F994F82B3003F1140204EB4202D6803F
:1039400094F82C20013284F82C2001335A4203F0E1
:10395000070302F0070258BF534284F82B30D2E726
:1039600010B5044690F82C302BB1C06890F869303F
:10397000DBB2202B02D094F82C0010BD94F82A3032
:10398000190238312144143304EB4303DA88063139
:1039900001F050FE0028EED194F82A3001335A424B
:1039A00003F0070302F0070258BF534284F82A309D
:1039B00094F82C30013B84F82C30DCE710B5042857
:1039C00015D8DFE800F0030B05070900094C06E0F5
:1039D000094C04E0094C02E0094C00E0094C204687
:1039E000FFF78CFF2046FFF7BBFF002010BD012032
:1039F000FCE700BFD8320020680F0020A83E00205E
:103A000008270020381B002010B50E48FFF7A8FF3C
:103A100084B20D48FFF7A4FF14FA80F4A4B20B4857
:103A2000FFF79EFF14FA80F4A4B20948FFF798FF4D
:103A300014FA80F4A4B20748FFF792FF14FA80F05A
:103A400000B210BDA83E0020680F0020082700200B
:103A5000381B0020D832002010B5012802D00228DF
:103A60001AD010BD194C01224FF48061204601F09C
:103A7000A5FC0A20FFF71EFE00224FF480612046BD
:103A800001F09CFC0A20FFF715FE01224FF4806133
:103A9000204601F093FCE4E70D4C01224FF48051E5
:103AA000204601F08BFC0A20FFF704FE00224FF4B1
:103AB0008051204601F082FC0A20FFF7FBFD012225
:103AC0004FF48051204601F079FCCAE7000C024017
:103AD0000008024010B50446002206213A2005F0F5
:103AE00073FB3A2005F0A2FB01220621462005F0D7
:103AF0006BFB462005F09AFB1748184B0360636880
:103B0000436000238360C36003610C2242618361D0
:103B1000C3610362436202F0F0F9C0B9104B1C604C
:103B20000D4BE3600F4B23610F4B63610F4B6362DF
:103B30000F4B23620F4BA3600F4B1B68E361002305
:103B400084F82C3084F82A3084F82B3010BD5921A9
:103B50000A48FFF707FDE1E73C5B00200010014049
:103B6000784A00207C5A0020BC59002008580020C8
:103B7000145600202CB7002044000020D431010846
:103B800010B5044619481A4B03606368436000236C
:103B90008360C36003610C22426183614FF4004281
:103BA000C2610362436202F0A8F9C8B9114B5C60BC
:103BB0000E4BE360104B2361104B6361104B63624B
:103BC000104B2362104BA360104B1B68E361002372
:103BD000238384F82C3084F82A3084F82B3010BDED
:103BE0007A210B48FFF7BEFCE0E700BF945E00209F
:103BF00000440040784A002048570020DC5A00204A
:103C0000045F00205C5D002030B8002048000020E8
:103C1000D431010810B504461848194B0360636895
:103C200043600023036183608361C3600C224261AF
:103C3000C3610362436202F060F9C8B9114B9C6032
:103C40000E4BE360104B2361104B6361104B6362BA
:103C5000104B2362104BA360104B1B68E3610023E1
:103C6000238384F82C3084F82A3084F82B3010BD5C
:103C7000A3210B48FFF776FCE0E700BFD4580020F3
:103C800000480040784A0020145800205C59002069
:103C900020560020AC5B0020FCB700204C00002028
:103CA000D431010810B504461848194B0360636805
:103CB000436000238360C36003610C22426183611F
:103CC000C3610362436202F018F9C8B9114BDC60AA
:103CD0000E4BE360104B2361104B6361104B63622A
:103CE000104B2362104BA360104B1B68E361002351
:103CF000238384F82C3084F82A3084F82B3010BDCC
:103D0000C5210B48FFF72EFCE0E700BF245E002032
:103D1000004C0040784A0020E8560020CC5F00208C
:103D200044590020D45C002064B8002050000020DA
:103D3000D431010810B5044619481A4B0360636872
:103D4000436000238360C36003610C22426183618E
:103D50004FF40042C2610362436202F0CEF8C8B978
:103D6000114B1C610E4BE360104B2361104B6361E0
:103D7000104B6362104B2362104BA360104B1B6807
:103D8000E3610023238384F82C3084F82A3084F8FC
:103D90002B3010BDE7210B48FFF7E4FBE0E700BF45
:103DA000EC5C002000140140784A0020A857002055
:103DB0001C5A0020745C00207458002060B700205A
:103DC00054000020D4310108F0B589B0012803D097
:103DD000022833D009B0F0BD3E4B1A6B42F0080206
:103DE0001A631B6B03F008030093009B4FF480667B
:103DF000039601270497059702250695364C03A9DB
:103E0000204601F0EBF900223146204601F0D6FAB7
:103E10004FF400630393002604960597069503A9C3
:103E2000204601F0DBF94FF44053039304960596C6
:103E3000069503A9204601F0D1F9CBE7254B1A6B73
:103E400042F001021A631A6B02F001020192019A18
:103E50001A6B42F004021A631B6B03F00403029313
:103E6000029B4FF480550395012604960596022483
:103E700006941A4F03A9384601F0B0F900222946EA
:103E8000384601F09BFA4FF4005303930025049544
:103E90000596069403A9384601F0A0F94FF4404373
:103EA000039304950595069403A9384601F096F905
:103EB0004FF400470397049605940694084C03A911
:103EC000204601F08BF92A463946204601F076FA61
:103ED00080E700BF00380240000C024000080240AA
:103EE0000000024090F83E38002B00F0D18030B541
:103EF00083B0044690F82930022B54D0032B00F0F5
:103F00008C80012B01D003B030BDC26903691B68EE
:103F10005B68D31A9BB2018B5B1A9BB2ADF806307B
:103F2000BDF806309BB2002BEDD0BDF806309BB239
:103F30009A42E8D090F82830B3B990F83F382BB3C4
:103F4000036ABDF80620194400F5046006F034FD4C
:103F5000BDF80630228B13449BB22383E26993425F
:103F6000D1D300232383CEE783681878236ABDF872
:103F70000620194440F61855464B05FB003007F063
:103F800068F9A268137901331371E1E78368006A65
:103F9000BDF806200144586906F00EFDA2681379A9
:103FA00001331371D4E790F828308BB990F83F387B
:103FB0001BB3016A038BC269C3EB520292B219446C
:103FC00000F5046006F0F8FCE3695B0823839AE7D8
:103FD00083681878216A238BE269C3EB520292B29C
:103FE000194440F618552B4B05FB003007F031F90A
:103FF000A268137901331371E6E78068216A238B85
:10400000E269C3EB520292B21944406906F0D4FC53
:10401000A268137901331371D6E790F82830A3B959
:1040200090F83F382BB3016A038BC269D21A92B25F
:10403000194400F5046006F0BFFC0023238384F8D4
:1040400029302078FFF764FB5DE783681878216AE0
:10405000238BE269D21A92B2194440F618550D4BDF
:1040600005FB003007F0F5F8A268137901331371EE
:10407000E3E78068216A238BE269D21A92B219447D
:10408000406906F099FCA268137901331371D4E7F3
:10409000704700BF98B8002008B50E4B1B68DB695D
:1040A00013F0100F02D00C4B1B7833B10A4B0022D7
:1040B0001A70084801F044FC08BD084B1868012339
:1040C00080F82930FFF70EFF024B1B6810221A629E
:1040D000EFE700BF3C5B002042000020784A002050
:1040E00008B50B4B1B68DB6913F0100F03D10848B0
:1040F00001F026FC08BD074B5868012380F82930E1
:10410000FFF7F0FE024B1B6810221A62F2E700BFB5
:10411000945E0020784A002008B50B4B1B68DB69D1
:1041200013F0100F03D1084801F00AFC08BD074B3B
:104130009868012380F82930FFF7D4FE024B1B68F2
:1041400010221A62F2E700BFD4580020784A0020FB
:1041500008B50B4B1B68DB6913F0100F03D108483F
:1041600001F0EEFB08BD074BD868012380F8293029
:10417000FFF7B8FE024B1B6810221A62F2E700BF7D
:10418000245E0020784A002008B50B4B1B68DB69D1
:1041900013F0100F03D1084801F0D2FB08BD074B04
:1041A0001869012380F82930FFF79CFE024B1B6839
:1041B00010221A62F2E700BFEC5C0020784A00206F
:1041C00008B503681B4A93420CD01B4A934211D096
:1041D0001A4A934216D01A4A93421BD0194A934264
:1041E00020D008BD184B1868022380F82930FFF74B
:1041F00079FEF6E7144B5868022380F82930FFF760
:1042000071FEEEE7104B9868022380F82930FFF723
:1042100069FEE6E70C4BD868022380F82930FFF7E7
:1042200061FEDEE7084B1869022380F82930FFF7AA
:1042300059FED6E70010014000440040004800400D
:10424000004C004000140140784A002008B5036883
:104250001B4A93420CD01B4A934211D01A4A9342F4
:1042600016D01A4A93421BD0194A934220D008BD57
:10427000184B1868032380F82930FFF733FEF6E760
:10428000144B5868032380F82930FFF72BFEEEE724
:10429000104B9868032380F82930FFF723FEE6E7E8
:1042A0000C4BD868032380F82930FFF71BFEDEE7AC
:1042B000084B1869032380F82930FFF713FED6E76F
:1042C000001001400044004000480040004C004005
:1042D00000140140784A002008B5202380F8693096
:1042E00003680E4A934203D00D4A934206D008BD9C
:1042F0000C4B1868FFF734FB002200E001220A494A
:10430000342303FB02139B78022BF0D10B4634219C
:1043100001FB023203239370E9E700BF0010014064
:1043200000140140784A00202CB70020002841D119
:1043300010B5022911D001291DD003292CD01E4C03
:1043400001224FF40041204601F038F800224FF4DA
:104350008041204601F032F810BD174C01224FF485
:104360000041204601F02AF801224FF48041204606
:1043700001F024F8F0E7104C00224FF48041204671
:1043800001F01CF80120FFF795F900224FF40041DD
:10439000204601F013F8DFE7074C00224FF40041FC
:1043A000204601F00BF801224FF48041204601F035
:1043B00005F8D1E7704700BF000C02402DE9F04737
:1043C00098B004460268A24B9A4214D02368A14ACE
:1043D000934200F0AD80A04A934200F05D812368D3
:1043E0009E4A934200F0FE819D4A934200F0C882AB
:1043F00018B0BDE8F08703F594331A6B42F0010260
:104400001A631A6B02F001020192019A1A6B42F0D0
:1044100008021A631A6B02F008020292029A5A6C9E
:1044200042F010025A645A6C02F010020392039A8E
:104430001A6B42F480021A631B6B03F4800304932B
:10444000049B4FF4007313930226149600251595D0
:1044500016964FF0070ACDF85CA0DFF8389213A942
:10446000484600F0BBFE4FF48068CDF84C801496AF
:10447000012715971696CDF85CA013A9484600F0C1
:10448000ADFE4FF4404313931497159503231693F1
:1044900013A9744800F0A2FE39462846FFF746FFEC
:1044A0007148724B03604FF0006343608560C560E4
:1044B000C0F81080456185614FF48073C3614FF48B
:1044C000803303624562846302F0BEFB20BB664B0F
:1044D00063669C636648674B03604FF0006343600C
:1044E000402383600023C3604FF480620261436114
:1044F0008361C36103624362846302F0A5FB88B9F0
:104500005B4B23669C6302220621252004F05CFE9F
:10451000252004F08BFE59E74FF49B715648FFF7B6
:1045200021F8D4E740F249115348FFF71BF8E7E7B9
:10453000524B1A6B42F008021A631A6B02F008021F
:104540000592059A1A6C42F400321A641A6C02F44D
:1045500000320692069A1A6B42F400121A631B6B21
:1045600003F400130793079B602313930223149310
:1045700001231593032316930723179313A939488F
:1045800000F02CFE3E483F4B03604FF00063436059
:1045900000238360C3604FF48062026143618361E2
:1045A0004FF48072C2610362436202F04DFB002847
:1045B00041D1334B63669C6300220F21102004F02D
:1045C00003FE102004F032FE2F48304B03604FF002
:1045D00000634360402383600023C3604FF4806224
:1045E000026143618361C3610362436202F02CFB99
:1045F00038BB254B23669C6301220F21112004F058
:10460000E3FD112004F012FE02220F21262004F007
:10461000DBFD262004F00AFE2268136843F0100335
:1046200013600A20FFF746F8194B202283F869200F
:1046300083F86A20D3E640F27F110F48FEF792FF1D
:10464000B7E740F295110C48FEF78CFFD1E700BFA9
:10465000001001400044004000480040004C004071
:1046600000140140000C02407C5A002040640240CB
:10467000BC590020B8640240D4310108003802401F
:104680004857002088600240DC5A0020A0600240A9
:10469000945E002000000240AA4B1A6B42F0020216
:1046A0001A631A6B02F002020892089A1A6B42F01F
:1046B00008021A631A6B02F008020992099A1A6C2E
:1046C00042F480221A641A6C02F480220A920A9A36
:1046D0001A6B42F400121A631B6B03F400130B9362
:1046E0000B9B4FF4407313930225149501231593EC
:1046F000032716970726179613A9934800F06EFD17
:104700004FF4C043139314950025159516971796EB
:1047100013A98E4800F062FD8D488E4B03604FF068
:10472000006343608560C5604FF480630361456149
:1047300085614FF48073C3614FF480330362456237
:1047400002F082FA002841D1814B63669C6300220B
:1047500006210C2004F038FD0C2004F067FD7E4893
:104760007E4B03604FF0006343604023836000236F
:10477000C3604FF48062026143618361C36103627D
:10478000436202F061FA38BB734B23669C630122DB
:1047900006210E2004F018FD0E2004F047FD022231
:1047A0000621272004F010FD272004F03FFD226899
:1047B000136843F0100313600A20FEF77BFF684B79
:1047C000202283F8692083F86A2008E64FF4EB7111
:1047D0006448FEF7C7FEB7E74FF4F6716148FEF78D
:1047E000C1FED1E7574B1A6B42F001021A631A6BF4
:1047F00002F001020C920C9A1A6B42F004021A6346
:104800001A6B02F004020D920D9A1A6C42F4002207
:104810001A641A6C02F400220E920E9A1A6B42F479
:1048200000121A631B6B03F400130F930F9B4FF4DA
:104830004063139302231493012715974FF0030944
:10484000CDF8589008231793474E13A9304600F02F
:10485000C5FC4FF48058CDF84C8014970025159571
:10486000CDF8589013A9304600F0B8FC3A464146BE
:10487000304600F0A3FD3D483D4B03604FF0006320
:1048800043608560C5604FF4806303614561856165
:104890004FF48073C3614FF480330362456202F0CA
:1048A000D3F9002841D1314B63669C6300220A2171
:1048B0000D2004F089FC0D2004F0B8FC2D482E4B8F
:1048C00003604FF000634360402383600023C360B4
:1048D0004FF48062026143618361C361036243629A
:1048E00002F0B2F938BB234B23669C6301220A21F4
:1048F0000F2004F069FC0F2004F098FC02220A212A
:10490000342004F061FC342004F090FC2268136829
:1049100043F0100313600A20FEF7CCFE174B202251
:1049200083F8692083F86A2062E540F22A210D4865
:10493000FEF718FEB7E740F23E210A48FEF712FEE6
:10494000D1E700BF00380240000C024000040240E2
:1049500014580020286002405C5900205860024032
:10496000D4580020D431010800080240E856002045
:1049700040600240CC5F002070600240245E002056
:10498000484B1A6B42F004021A631A6B02F00402DD
:104990001092109A5A6C42F020025A645A6C02F03B
:1049A00020021192119A1A6B42F480021A631B6B57
:1049B00003F480031293129BC023139302231493D6
:1049C00001231593032316930823179313A936483D
:1049D00000F004FC3548364B03604FF02063436021
:1049E00000238360C3604FF480620261436183618E
:1049F0004FF48072C2614FF480320262436202F06F
:104A000023F9002841D1294B63669C6300220521CC
:104A1000392004F0D9FB392004F008FC2548264B46
:104A200003604FF020634360402383600023C36032
:104A30004FF48062026143618361C3610362436238
:104A400002F002F938BB1B4B23669C63012205214F
:104A5000452004F0B9FB452004F0E8FB02220521C3
:104A6000472004F0B1FB472004F0E0FB2268136804
:104A700043F0100313600A20FEF71CFE0F4B2022A8
:104A800083F8692083F86A20B2E440F272210C486E
:104A9000FEF768FDB7E74FF422710948FEF762FDA3
:104AA000D1E700BF0038024000080240A8570020AC
:104AB000286402401C5A0020A0640240EC5C0020E4
:104AC000D431010810B5094C00220949204604F0F0
:104AD00020FF0849204604F033FF0749204605F02F
:104AE00017FA204604F033FF10BD00BF2C600020F1
:104AF00068000020A8000020580000200020704717
:104B00000020704738B505460A68962A00D99622D3
:104B100092B20849084806F09CFB084C29462046FA
:104B200005F005FA204605F022FA08B140B238BD7A
:104B30000020FCE7C8620020C8D200202C600020C2
:104B400010B5074C00220749204605F0E8F9064950
:104B5000204605F0ECF9204605F009FA002010BDCA
:104B60002C600020C86A0020C8620020094BD3F8DE
:104B70009032D3F814320BB10120704710B50A46B9
:104B80000146044C204605F0CAF9204605F0D5F947
:104B900010BD00BF2C600020044BD3F890321BB135
:104BA000D3F81402C0B27047012070472C60002077
:104BB0000368B3F1A04F00D0704730B589B04FF40F
:104BC000C053039302230493002505950324069400
:104BD0000A23079303A9104800F000FB0F4B5A6B00
:104BE00042F080025A635A6B02F080020192019AED
:104BF0005A6C42F480425A645B6C03F48043029323
:104C0000029B2A462146432004F0DEFA432004F0AA
:104C10000DFB09B030BD00BF00000240003802406B
:104C200008B500F57071D0F8FC0304F0A9FE08BDCA
:104C300008B5C1EBC10293000344D3F80822D0F8B1
:104C4000FC0304F0CAFE08BD08B5C1EBC102930025
:104C500003449A6CD0F8FC0304F005FF08BD08B5C6
:104C6000D0F8FC0304F0A4FF08BD10B50446C368E7
:104C70004BB10121D4F8FC0304F088FFD4F8FC0305
:104C800004F05CFF10BD0021F4E7000010B50446FD
:104C9000D0F8FC0304F07DFF2268D2F8003E43F018
:104CA0000103C2F8003E236A23B1034A136943F0AB
:104CB0000603136110BD00BF00ED00E008B5D0F899
:104CC000FC0304F06FFF08BD08B5D0F8FC0304F046
:104CD0007FFF08BD08B5D0F8FC0304F077FF08BDDE
:104CE00008B5D0F8FC0304F075FF08BD08B5D0F88E
:104CF000FC0304F071FF08BD03780BB1002070477E
:104D000010B503461748C0F8FC33C3F898024FF0BB
:104D1000A0430360062343600222C26000230361B4
:104D200043618261C36103624362C362036301F052
:104D30006DF980B90B4C8021204601F0F0FE402235
:104D40000021204601F0C7FE80220121204601F00B
:104D5000C2FE002010BD40F239110348FEF702FCEC
:104D6000E8E700BFC87200204032010808B5D0F85B
:104D7000980201F0CDF918B1022803D0022008BD35
:104D80000020FCE70120FAE710B51C461346224636
:104D9000D0F8980201F04EFD18B1022803D002208D
:104DA00010BD0020FCE70120FAE708B5D0F8980212
:104DB00001F081FD18B1022803D0022008BD0020B7
:104DC000FCE70120FAE708B5D0F8980201F00BFEE5
:104DD00018B1022803D0022008BD0020FCE7012002
:104DE000FAE708B5D0F8980201F03EFE18B10228A3
:104DF00003D0022008BD0020FCE70120FAE7D0F82C
:104E0000983211F0800F08D101F07F01C1EBC10190
:104E10008A00134493F8FE01704701F07F01C1EB53
:104E2000C1018A00134493F83E00704708B5D0F8DA
:104E3000980201F0EBFC18B1022803D0022008BD53
:104E40000020FCE70120FAE708B5D0F8980201F04D
:104E5000A0FD18B1022803D0022008BD0020FCE705
:104E60000120FAE708B5D0F8980201F05BFD18B10F
:104E7000022803D0022008BD0020FCE70120FAE749
:104E800008B5D0F8980201F07BFD08BD00487047D6
:104E90008C4A00207047000012230B8000487047A6
:104EA0008400002004230B800048704798000020F5
:104EB00008B50A4628B10549054804F00EFD034827
:104EC00008BD0249024804F008FDF8E7C876002052
:104ED000E032010810B5044C0A462146034804F0AC
:104EE000FCFC204610BD00BFC8760020CC32010873
:104EF00008B50A4628B10549054804F0EEFC034808
:104F000008BD0249024804F0E8FCF8E7C876002032
:104F1000F832010808B50A4628B10549054804F0E9
:104F2000DCFC034808BD0249024804F0D6FCF8E75F
:104F3000C8760020B032010808B50A4628B10549F4
:104F4000054804F0CAFC034808BD0249024804F0C1
:104F5000C4FCF8E7C8760020BC32010810B40F4A40
:104F6000D2F8883043F47003C2F888300C4B1968CB
:104F700041F001011960002098601C680949214036
:104F8000196009495960196821F480211960D860B5
:104F90004FF0006393605DF8044B704700ED00E054
:104FA00000380240FFFFF6FE10300024DFF834D056
:104FB000002103E00C4B5B58435004310B480C4B71
:104FC00042189A42F6D30B4A02E0002342F8043B0F
:104FD000094B9A42F9D3FFF7C1FF0AF02DF8FDF70C
:104FE00099FB7047FFFF07204438010800000020AC
:104FF000DC0D0020E00D002048410120FEE700000C
:1050000010B504460E4B18784FF47A73B3FBF0F3E7
:105010000C4A1068B0FBF3F004F014F968B90F2CD7
:1050200001D901200AE0002221464FF0FF3004F0B0
:10503000CBF8054B1C60002000E0012010BD00BF34
:10504000A00000209C000020A400002008B5032040
:1050500004F0A8F80020FFF7D3FFFEF7DBF80020EC
:1050600008BD0000034A1168034B1B780B44136012
:10507000704700BFC8780020A0000020014B1868CE
:10508000704700BFC878002038B50446FFF7F6FF28
:105090000546B4F1FF3F02D0044B1B781C44FFF7D8
:1050A000EDFF401BA042FAD338BD00BFA000002096
:1050B000014B1868704700BF20F4F01F70470000D4
:1050C00010B584B0044602685068936803F041014B
:1050D00001290AD013F0020F0ED010F0800F0BD070
:1050E000236D2046984704B010BD10F0400FF1D05A
:1050F000E36C20469847F6E713F4B07FF3D010F046
:10510000200FF0D013F0400F0FD094F85D10C9B20B
:1051100003294AD0216E41F004012166002100914B
:10512000D168009191680091009913F0200F0CD084
:10513000216E41F0010121660021029191680291E6
:10514000116821F040011160029A13F4807F09D0A8
:10515000236E43F0080323660023039323689B68B0
:105160000393039B236E002BBDD02268536823F06A
:10517000E0035360012384F85D3010F0030F1CD06E
:105180002268536823F003035360A36D23B10D4AD3
:105190001A65A06D01F0F8FD636D002BA3D0094ADC
:1051A0001A65606D01F0F0FD9DE700230193D3685F
:1051B000019393680193019B95E72046FFF77EFFDB
:1051C00091E700BFC951000808B5806B0023A0F823
:1051D0004630C387FFF772FF08BD000000230F2B86
:1051E00000F2E280F0B482B039E0092200E000224F
:1051F000B2403A4302346D4E46F824206C4A14689B
:10520000EA4302EA04064F6817F4803F01D045EAFA
:105210000406674C2660646802EA04064F6817F4C7
:10522000003F01D045EA0406614C6660A46802EACA
:1052300004064F6817F4801F01D045EA04065C4C51
:10524000A660E46822404E6816F4001F01D045EACB
:105250000402574CE26001330F2B00F2A2800122BE
:105260009A400C6804EA0205AA42F4D14C68122C58
:1052700018BF022C10D1DE08083650F826C003F003
:105280000704A7000F24BC402CEA040C0C69BC40A6
:1052900044EA0C0440F8264004685F000326BE4040
:1052A000F64306EA040C4C6804F00304BC4044EAEC
:1052B0000C0404604C6804F1FF3C112C18BFBCF1D5
:1052C000010F01D9122C11D1846806EA040CCC68B4
:1052D000BC4044EA0C048460446824EA020C4C6834
:1052E000C4F300129A4042EA0C024260C2681640BF
:1052F0008A68BA403243C2604A6812F0805FAAD01E
:105300002C4A546C44F480445464526C02F480423D
:105310000192019A9C08A61C244A52F8267003F0B8
:10532000030296000F22B24027EA0207224A904267
:105330003FF45DAF02F58062904222D002F58062B8
:10534000904220D002F5806290421ED002F5806229
:1053500090421CD002F5806290421AD002F5806221
:10536000904218D002F58062904216D002F5806219
:10537000904214D002F5806290423FF436AF0A2288
:1053800036E7012234E7022232E7032230E7042223
:105390002EE705222CE706222AE7072228E7082223
:1053A00026E702B0F0BC7047704700BF00380140EC
:1053B000003C0140003802400000024012B90904DC
:1053C000816170478161704708B5054B5B69034295
:1053D00000D108BD024B5861FDF7CCFEF9E700BFD4
:1053E000003C0140022380F83D300268136843F01E
:1053F00001031360012380F83D3000207047000056
:1054000070B403683A4CA04214BF00240124B0F1E8
:10541000804F14BF224644F00102AAB9354DA8427C
:1054200014BF00250125344EB0420DD065B905F1F9
:10543000804505F58235A84214BF0025012506F5F3
:105440000066B04200D01DB123F070034D682B43BD
:10545000002A33D1274A904214BF00220122264D50
:10546000A8422BD052BB02F1804202F58232904218
:1054700014BF0022012205F50065A8421ED0EAB93A
:105480001E4A904214BF0022012205F59A35A84217
:1054900014D09AB91A4A904214BF0022012205F58D
:1054A0000065A8420AD04AB9164A904214BF0022A9
:1054B0000122A5F59635A84200D01AB123F4407315
:1054C000CA68134323F080034A69134303608A6860
:1054D000C2620A6882620C4B984214BF234644F0B1
:1054E00001030BB10B6903630123436170BC704777
:1054F000000001400008004000040040004401405A
:10550000001800400020004000040140A8B110B580
:10551000044690F83D305BB1022384F83D30211DF4
:105520002068FFF76DFF012384F83D30002010BD97
:1055300080F83C30FEF7D6F8EEE701207047000017
:1055400090F83C30012B21D070B4012380F83C301E
:1055500003685A689D680E4E0E4CA34218BFB342B2
:1055600003D122F470024C68224322F070020C68CE
:10557000224325F08004896821435A6003689960BA
:10558000002380F83C30184670BC704702207047FA
:10559000000001400004014090F86930DBB2212B8B
:1055A0002ED1B0F852309BB28BB18368B3F5805FD7
:1055B00019D0C36C5A1CC2641A7803689A62B0F896
:1055C0005230013B9BB2A0F8523000207047026875
:1055D000136823F0800313600268136843F04003EC
:1055E0001360002070470369002BE2D1C36C1B8855
:1055F0000268C3F308039362C36C0233C364DEE73B
:10560000022070470268136823F0C0031360202350
:1056100080F8693070470268136823F49073136050
:105620000268936823F001039360202380F86A30B6
:105630007047000038B590F86950EDB2202D35D193
:10564000B2FA82F56D09002908BF0125002D2FD17E
:1056500090F86830012B2DD013460446012280F8C3
:105660006820C164A0F85030A0F85230C5662122ED
:1056700080F86920026E1048D063226E0F481064D3
:10568000226E0F48D064226E156522682832206E83
:1056900001F040FB236840221A6284F868502268B7
:1056A000936843F080039360284600E0022038BDF1
:1056B0000120FCE70220FAE7C35700081158000850
:1056C000E958000838B590F86A50EDB2202D3BD16A
:1056D000B2FA82F56D09002908BF0125002D35D1E8
:1056E00090F86830012B33D013460A460446012156
:1056F00080F868104265A0F85830C566222180F80D
:105700006A10416E1348C863616E13480864616E85
:105710001248C864616E0D6521682431606E01F025
:10572000F9FA84F868502268136843F480731360B0
:105730002268936843F0010393602268936843F002
:1057400040039360284600E0022038BD0120FCE7BA
:105750000220FAE71B580008DD580008E958000845
:105760002DE9F04105460F4616469846069C2B68E3
:10577000DB6937EA03030CBF01230023B3421DD1C9
:10578000B4F1FF3FF3D02CB1FFF778FCA0EB080099
:10579000A042ECD32A68136823F4D07313602A68FC
:1057A000936823F001039360202385F8693085F81E
:1057B0006A30002385F86830032000E00020BDE84F
:1057C000F08108B5836B0268126812F4807F0DD1F6
:1057D0000022A3F8522019688A6822F080028A60A9
:1057E0001A68136843F04003136008BD1846FEF7BB
:1057F00073FDFAE708B501680B6823F040030B60FE
:10580000202380F86930FEF767FD002008BD70474F
:1058100008B5806BFFF7FBFF08BD08B5836B026816
:10582000126812F4807F14D10022A3F85A2019685C
:105830000A6822F480720A6019688A6822F00102FC
:105840008A6019688A6822F040028A60202283F800
:105850006A201846FEF7FAFC08BDB0F85C2090F804
:105860006A30DBB2222B32D110B58368B3F5805F8A
:1058700010D00368596AD2B2436D5C1C44650A407B
:105880001A70B0F85A30013B9BB2A0F85A306BB195
:10589000002010BD0369002BEBD1436D0168496AFC
:1058A0000A401A80436D02334365EAE702681368D1
:1058B00023F4907313600268936823F001039360EC
:1058C000202380F86A30FEF7C1FC0020E1E702687F
:1058D000936943F0080393610220704708B5806B19
:1058E000FEF76EFC08BD704710B5846B0023A4F86A
:1058F0005A30A4F8523094F86930DBB2212B0CD026
:1059000094F86A30DBB2222B10D0E36E43F0100320
:10591000E3662046FFF7E7FF10BD23689B6813F09E
:10592000800FEDD02046FFF76DFEE9E723689B6806
:1059300013F0400FE9D02046FFF76DFEE5E70000C9
:1059400038B504460268D3691068916813F00F05F2
:1059500005D113F0200F02D010F0200F5FD1002DE1
:1059600073D011F0010102D110F4907F6DD013F0CB
:10597000010F07D010F4807F04D001251562E26E7C
:105980002A43E26613F0020F07D031B122680225E4
:105990001562E26E42F00402E26613F0040F07D0D3
:1059A00031B1226804251562E26E42F00202E2661D
:1059B00013F0080F09D010F0200F00D129B1226890
:1059C00008211162E26E0A43E266E26E002A48D0C4
:1059D00013F0200F02D010F0200F24D1E36E13F04B
:1059E000080F04D123689B6813F0400F27D020468E
:1059F000FFF711FE23689A6812F0400F1BD09A68D7
:105A000022F040029A60636E8BB11A4A1A65606E8A
:105A100001F0BAF928B3606E036D984721E0204683
:105A2000FFF71BFF1DE02046FFF717FFD6E72046D4
:105A3000FFF759FF15E02046FFF755FF11E020461C
:105A4000FFF751FF0023E3660BE013F0800F02D055
:105A500010F0800F06D113F0400F02D010F0400F6D
:105A600004D138BD2046FFF797FDFAE72046FFF73F
:105A7000C1FEF6E7795A000808B5806B0023A0F84C
:105A80005A30A0F85230FFF72EFF08BD10B504467B
:105A900083680269134342691343C269134301686F
:105AA00008689D4A024013430B602268536823F440
:105AB0004053E1680B435360A369226A1A4321688B
:105AC0008B6823F4306313438B602368934A9342BB
:105AD00019D0934A93422AD0924A934240D0924A94
