:020000040800F2
:10000000FFFF0220F53E0008C9200008D5200008A7
:10001000E1200008ED200008F920000800000000A1
:1000200000000000000000000000000005210008A2
:1000300011210008000000001D2100082D1F0008EC
:10004000453F0008453F0008453F0008453F000880
:10005000453F0008453F0008453F0008453F000870
:10006000453F0008453F0008551F00080D200008C7
:10007000AD1F000825200008C51F0008453F0008E7
:10008000453F000819200008453F0008453F00088B
:10009000453F0008453F0008453F0008453F000830
:1000A000453F0008453F0008453F0008453F000820
:1000B000453F0008453F0008453F00086120000813
:1000C0006D200008453F0008453F0008453F0008F7
:1000D000453F0008651F0008453F0008D526000879
:1000E0005D1F0008453F0008453F0008453F0008E8
:1000F000453F0008453F0008453F00083120000803
:10010000453F0008453F0008453F0008453F0008BF
:10011000453F0008453F0008453F000855200008BE
:100120003D200008DD1F00087D1F0008453F000836
:10013000453F0008453F0008453F0008453F00088F
:10014000453F0008453F0008453F0008492000089A
:10015000453F0008F51F0008951F0008711F0008A3
:100160007920000885200008453F0008453F000829
:10017000453F0008453F0008453F000800000000DB
:10018000453F0008453F0008453F0008453F00083F
:100190003D1F0008453F0008453F0008453F000857
:0C01A0000000000000000000453F0008C7
:1001C00010B5054C237833B9044B13B10448AFF391
:1001D00000800123237010BD78080020000000007B
:1001E00034DE000808B5034B1BB103490348AFF3E5
:1001F000008008BD000000007C08002034DE0008FC
:1002000053B94AB9002908BF00281CBF4FF0FF317D
:100210004FF0FF3000F072B9ADF1080C6DE904CE7B
:1002200000F006F8DDF804E0DDE9022304B07047D1
:100230002DE9F047089E04468846002B4BD18A42A0
:10024000154667D9B2FA82F24AB1C2F1200701FA23
:1002500002F320FA07F7954047EA030894404FEA73
:10026000154E230CB8FBFEF71FFA85FC0EFB178812
:1002700043EA084307FB0CF1994209D9EB1807F14F
:10028000FF3080F01B81994240F21881023F2B44DD
:100290005B1AA4B2B3FBFEF00EFB103344EA034436
:1002A00000FB0CFCA44509D92C1900F1FF3380F0A8
:1002B0000781A44540F2048102382C4440EA0740FB
:1002C000A4EB0C0400271EB1D4400023C6E9004370
:1002D0003946BDE8F0878B4209D9002E00F0EB804B
:1002E0000027C6E9000138463946BDE8F087B3FA71
:1002F00083F7002F47D18B4202D3824200F2FA806B
:10030000841A61EB030301209846002EE0D0C6E971
:100310000048DDE702B9FFDEB2FA82F2002A40F0BF
:100320008F80491B4FEA154E1FFA85F80127B1FB54
:10033000FEFC230C0EFB1C1143EA014308FB0CF1ED
:10034000994207D9EB180CF1FF3002D2994200F222
:10035000CD808446591AA3B2B1FBFEF00EFB1014F7
:1003600043EA044408FB00F8A04507D92C1900F122
:10037000FF3302D2A04500F2B6801846A4EB080471
:1003800040EA0C409FE7C7F1200CBB4022FA0CFE6C
:100390004EEA030E01FA07F420FA0CF521FA0CF3E9
:1003A0004FEA1E482543B3FBF8F92C0C08FB193320
:1003B0001FFA8EFA44EA034309FB0AF49C4202FA4C
:1003C00007F200FA07F10BD91EEB030309F1FF3026
:1003D00080F087809C4240F28480A9F10209734436
:1003E0001B1BADB2B3FBF8F008FB103345EA034426
:1003F00000FB0AFAA24508D91EEB040400F1FF3302
:100400006BD2A24569D90238744440EA0940A0FB86
:100410000289A4EB0A044C45C2464B4654D351D042
:10042000002E69D0B1EB0A0564EB030404FA0CFC5E
:10043000FD40FC404CEA0505C6E90054002747E7AB
:10044000C2F1200320FA03F7954001FA02F021FAE5
:1004500003F34FEA154E3843010CB3FBFEF71FFAC6
:1004600085F80EFB173341EA034107FB08F38B4283
:1004700004FA02F407D9691807F1FF3C2FD28B4226
:100480002DD9023F2944CB1A81B2B3FBFEF00EFBFB
:10049000103341EA034100FB08F38B4207D9691886
:1004A00000F1FF3C17D28B4215D902382944C91AF2
:1004B00040EA07473BE73746304609E70746E7E6A5
:1004C0001846FBE64145ABD2B8EB020A69EB0E02D7
:1004D00001381346A4E76046E9E7184695E7674602
:1004E000D1E781467CE702382C4447E7ACF1020CA7
:1004F0002B442FE7384608E73746E9E6704700BF48
:10050000844641EA000313F003036DD1403A41D31E
:1005100051F8043B40F8043B51F8043B40F8043BDD
:1005200051F8043B40F8043B51F8043B40F8043BCD
:1005300051F8043B40F8043B51F8043B40F8043BBD
:1005400051F8043B40F8043B51F8043B40F8043BAD
:1005500051F8043B40F8043B51F8043B40F8043B9D
:1005600051F8043B40F8043B51F8043B40F8043B8D
:1005700051F8043B40F8043B51F8043B40F8043B7D
:1005800051F8043B40F8043B51F8043B40F8043B6D
:10059000403ABDD2303211D351F8043B40F8043B0D
:1005A00051F8043B40F8043B51F8043B40F8043B4D
:1005B00051F8043B40F8043B103AEDD20C3205D31D
:1005C00051F8043B40F8043B043AF9D2043208D015
:1005D000D2071CBF11F8013B00F8013B01D30B8887
:1005E00003806046704700BF082A13D38B078DD065
:1005F00010F003038AD0C3F10403D21ADB071CBF37
:1006000011F8013B00F8013B80D331F8023B20F8A0
:10061000023B7BE7043AD9D3013A11F8013B00F8D9
:10062000013BF9D20B7803704B7843708B78837061
:10063000604670470000000000000000000000005D
:1006400090F800F06DE9024520F007016FF0000C12
:1006500010F0070491F820F040F049804FF00004BA
:100660006FF00700D1E9002391F840F000F1080095
:1006700082FA4CF2A4FA8CF283FA4CF3A2FA8CF3CD
:100680004BBBD1E9022382FA4CF200F10800A4FA34
:100690008CF283FA4CF3A2FA8CF3E3B9D1E9042388
:1006A00082FA4CF200F10800A4FA8CF283FA4CF3BF
:1006B000A2FA8CF37BB9D1E9062301F1200182FA79
:1006C0004CF200F10800A4FA8CF283FA4CF3A2FA7F
:1006D0008CF3002BC6D0002A04BF04301A4612BA8D
:1006E000B2FA82F2FDE8024500EBD2007047D1E990
:1006F000002304F00305C4F100004FEAC50514F01F
:10070000040F91F840F00CFA05F562EA05021CBFEF
:1007100063EA050362464FF00004A9E72DE9F043C0
:1007200089B00026DFF860810196D8F844304E4841
:100730004E4F4F4C4F4D43F48073C8F84430D8F8B7
:10074000443003F480730193019B0296D8F8303053
:1007500043F00103C8F83030D8F83030059603F084
:10076000010302934FF003091F2303A9029ACDE965
:10077000033904F0F5FB0396D8F830307E6043F47B
:100780008003C8F83030D8F83030DFF800C1C7F83F
:1007900000C003F4800303934FF480604FF40061C2
:1007A0004FF40052039B38614FF480733846FB616D
:1007B000C7E90512BE60FE607E62C7E90B663E6255
:1007C00005F018FC32460A213820BC63A76307F005
:1007D00097FD382007F0CAFD0127274A274B2260E2
:1007E0004FF005082046A3626660A660267684F86E
:1007F0002060E662E6606661276184F83070C4F8C4
:100800001C8004F055F929462046C5E90067AF6011
:10081000022604F0EDFA294620462F60C5E901675B
:1008200004F0E6FA29462046C5E90069AF6004F005
:10083000DFFA042329462046C5E90137C5F80090B0
:1008400004F0D6FA07230E4A2A6029462046AB60F8
:10085000C5F8048004F0CCFA42462046094904F069
:10086000D9F909B0BDE8F08300000240880E0020ED
:10087000340E0020E80E0020002001400100000F8F
:10088000120000107C0E002000380240106402406C
:10089000064B1A7802B9704710B400241C70052268
:1008A000034904485DF8044B04F0B4B994080020EF
:1008B0007C0E0020340E0020094B0A481B890A498F
:1008C000A3F2AF324FF4C87303FB02F380FB0302C1
:1008D000D817C0EB2220193040B20870704700BF13
:1008E0007C0E0020431CCF3495080020064A074B9D
:1008F00010B4148850889188D2885C849884D984F4
:100900001A855DF8044B70477C0E002018D100203A
:100910000268034B9A4202D1024B01221A707047BF
:10092000002001409408002008B50146862002F00E
:10093000F5FF08B1002008BD43F23901872002F01D
:10094000EDFFB0FA80F0400908BD00BF00B583B0EC
:1009500002A9002321F8023D8620ADF8043002F000
:10096000CBFE18B1002003B05DF804FB01A987207D
:1009700002F0C2FE03460028F4D1BDF8041043F291
:100980003902914207D1064BBDF806201A8001209A
:1009900003B05DF804FB024A02201380E3E700BFC6
:1009A00098080020014B1888704700BF9808002065
:1009B00008B581B2922002F0B1FF08B1002008BD55
:1009C00045F6A031932002F0A9FFB0FA80F040096B
:1009D00008BD00BF00B583B002A9002321F8023D85
:1009E0009220ADF8043002F087FE18B1002003B069
:1009F0005DF804FB01A9932002F07EFE0346002867
:100A0000F4D1BDF8041045F6A032914207D1064B4F
:100A1000BDF806201A70012003B05DF804FB024AFD
:100A200002201370E3E700BF96080020014B93F902
:100A3000000070479608002084B070B504AC84E8CC
:100A40000F008A209DF81A10BDF81040059DBDF8D2
:100A5000186002F063FF20B10020BDE8704004B0D0
:100A6000704721468B2002F059FF0028F4D1290C51
:100A70008C2002F053FF0028EED1A9B28D2002F0A5
:100A80004DFF0028E8D131468E2002F047FF0028B4
:100A9000E2D144F283318F2002F040FFB0FA80F0BF
:100AA0004009DAE7F0B58FB0002306A98A20079342
:100AB000ADF816300693ADF8203002F01DFE10B1EF
:100AC00000200FB0F0BD0DF11A018B2002F014FED2
:100AD0000028F5D107A98C2002F00EFE0028EFD1E6
:100AE0000DF11E018D2002F007FE0028E8D108A9B3
:100AF0008E2002F001FE0028E2D10DF116018F20B8
:100B000002F0FAFD04460028DAD1BDF8162044F2BE
:100B100083339A4221D1BDF81C00BDF81E30BDF8C8
:100B20001850BDF81A10BDF82020029403EB0043C2
:100B30008DF82E500A93ADF82410ADF82C20104EED
:100B4000104D09AB0FCB012401960D9E0394009626
:100B50002C700DF017F82046B3E70A4B084F1C70B5
:100B600009AD214628460CF0CDFFCDE902440D9E8B
:100B700095E80F00CDE900670DF004F80220A0E72A
:100B8000181200209A08002038B505460730EC7886
:100B9000B4B1012C04D08020BDE8384008F012BE6A
:100BA000302101F003FD6B7913F0010F064B4FF07C
:100BB000340202FB043414BF02230123A37038BDA6
:100BC000302101F0B7FCEEE7C4730020C378032B9B
:100BD00010B500F107010BD0022B13D0042B17D056
:100BE00003B110BD01F0DAFD0C4B02229A7010BD6A
:100BF0000A4B0B48012483F8B6403022BDE8104070
:100C0000FFF77EBC0846BDE81040302102F0DCB999
:100C10000846BDE81040302101F016BDC473002025
:100C20004E6D0020014B1878704700BF0000002077
:100C3000014B9878704700BF107AFF1F0120704762
:100C4000014B1878704700BF0D00002038B1012813
:100C500008D0022806BF054B585C00207047044BA3
:100C6000585C7047034B585C704700BF0C00002075
:100C70000400002008000020012883BF0238B0FAD9
:100C800080F040090220704710B5114A13780133F3
:100C900003F00303591E022913700DD902F026FF39
:100CA0000C4C2378FF2B00D010BD0B4A1378013376
:100CB00000211370217010BD064C2378042BF0D155
:100CC00002F032FF044A002313702370E9E700BFEB
:100CD0009E0800209D0800209B08002010B5114AA6
:100CE0001378013303F00303591E022913700DD941
:100CF00001F01AFA0C4C2378FF2B00D010BD0B4AE0
:100D00001378013300211370217010BD064C237835
:100D1000042BF0D101F052FA044A0023137023701F
:100D2000E9E700BFA00800209F0800209C080020E1
:100D30002DE9F043394D3A4B3A4F3B4A2B6083B093
:100D400000244FF4804328466A602B61C5E90244C1
:100D5000C5E90544C5E9074406F032F901943B6B47
:100D6000324E334AB46043F400133B633B6BF46090
:100D700003F4001301934FF000794FF4806830467C
:100D8000019B7462C6E90029C6E90544C6E9074427
:100D9000C6F8108005F02EF9224621460B20AE63DE
:100DA000B56307F0ADFA0B2007F0E0FA00943B6B57
:100DB000204E214AC6F8049043F400133B633B6B7A
:100DC000326003F40013009330464023B36000996F
:100DD000F460C6E90484C6E90644C6E9084405F09F
:100DE00009F90322022111206E63B56307F088FA26
:100DF000112007F0BBFA01220221202007F080FA1F
:100E0000202007F0B3FA224602211F2007F078FACB
:100E10001F2003B0BDE8F04307F0A8BAE00F0020A0
:100E20000054004000380240801A0600781100206B
:100E300010600240800F0020A06002402DE9F043C6
:100E4000324D334B334F344A2B6083B000244FF480
:100E5000804328466A602B61C5E90244C5E9054420
:100E6000C5E9074485F83D4006F0AAF801943B6BBC
:100E70002A4E2B4AB46043F400133B633B6BF4608F
:100E800003F4001301934FF060694FF4806830461B
:100E9000019B7462C6E90029C6E90544C6E9074416
:100EA000C6F8108005F0A6F8214601220D20AE6399
:100EB000B56307F025FA0D2007F058FA00943B6B54
:100EC000184E194AC6F8049043F400133B633B6B79
:100ED000326003F400130093304640230099B3605E
:100EE000F460C6E90484C6E90644C6E9084405F08E
:100EF00081F8042202212F206E63B56307F000FA07
:100F00002F2003B0BDE8F04307F030BA4C100020AA
:100F10000058004000380240801A0600A01000204F
:100F20004060024000110020B860024038B5154C06
:100F3000154B1649236000254FF480434422204678
:100F4000C4E903236160A560C4E90555C4E90755F8
:100F500084F83D5006F034F829460122492007F074
:100F6000CFF9492007F002FA2A462946482007F01F
:100F7000C7F9482007F0FAF92046BDE8384006F0E6
:100F8000C7BA00BF1C0F0020005C0040801A06009A
:100F9000704700BF0368074A934207D0064A93424E
:100FA00000D07047054B04221A707047044B04228E
:100FB0001A70704700540040005800409F080020FD
:100FC0009D08002003680A4A93420AD0094A9342C6
:100FD00000D07047084B1A78012A06D0FF221A70F9
:100FE0007047064B1A78012AF8D102221A7070470E
:100FF00000540040005800409F0800209D08002039
:101000000268034B9A4200D0704700F025BC00BF35
:10101000005C0040704700BF0268044B9A4200D059
:10102000704701221021024804F0D8B8005C00404B
:101030000014024041B1012905D108230C220549C1
:10104000054806F021BA704708230E2203490248DA
:1010500006F0D6B90C0F00201C0F0020700F0020E6
:10106000014806F055BA00BF1C0F002070B586B0CD
:1010700000230E4A0093116B0D4C41F010011163D7
:10108000126B039302F010020092204608250126FD
:1010900001A9009A0493CDE9015603F061FF32469D
:1010A0002946204604F09AF806B070BD0038024088
:1010B000001002402DE9F04303685A4A93428DB074
:1010C00008D0594A934272D0584A93422CD00DB05E
:1010D000BDE8F083564C574800250095236B43F03C
:1010E00002032363236B099503F00203009312218B
:1010F0004FF44073032207930891042307A9CDE915
:101100000A23009E03F02CFF012002F06FFF0195DF
:10111000236C43F400132364236C03F40013019342
:10112000019B0DB0BDE8F083414C43480025049578
:10113000236B43F001032363236B03F00103049348
:10114000049B0595236B43F004032363236B0995EC
:1011500003F00403059307A94FF480734FF01208BE
:1011600003270426059ACDE90738CDE90A7603F06E
:10117000F7FE012002F03AFF4FF4007307A92F4851
:101180000793CDE90885CDE90A7603F0E9FE012051
:1011900002F02CFF0695236C43F400032364236CB8
:1011A00003F400030693069B0DB0BDE8F083204CCA
:1011B00000250295236B43F020032363236B03F088
:1011C00020030293029B4FF01209FFF74FFF4FF0ED
:1011D0000308022307A9042719480995CDE907390F
:1011E000CDE90A8703F0BCFE012002F0FFFE0126D4
:1011F00007A913480796CDE90895CDE90A8703F0BA
:10120000AFFE304602F0F2FE0395236C43F48003F8
:101210002364236C03F480030393039B0DB0BDE8A8
:10122000F08300BF0054004000580040005C0040C4
:101230000038024000040240000002400008024062
:101240000014024080B500F0D9FF0CF051FB00F013
:1012500035FA0CF00DFB0AF097FF00F0BBFC0F4CC9
:101260000F4D104EDFF8409000274FF0FF08237815
:10127000012BFCD127702B78DBB25AB2327059F8AF
:101280002330984786F800802B780133DBB2092B96
:101290002B7088BF2F7000F0E1F8E8E7E808002025
:1012A000E9080020410000201800002008B502F0E5
:1012B00053F940B102280FD0002000F043F9BDE8F7
:1012C000084002F017BD0AF06FFF002000F03AF965
:1012D000BDE8084002F00EBD0AF068FF002000F0F3
:1012E00031F9BDE8084002F005BD00BF10B50D4C56
:1012F00002F0DEFC002223781146104602F03EFD8B
:1013000023780BB1002323700C2002F0C5FC4FF4AE
:1013100080510246044803F061FF0120BDE81040FF
:1013200000F010B9A4080020000C0240FFF7ACBC8C
:1013300010B500F02DFAFFF7BFFA00210D480B465B
:101340004FF0FF34C25C52B28A42A4BFC15C5CB2AF
:1013500001330A2BF6D1631C1CBF01F00F0343EAD3
:101360000413054A14BF9BB20023BDE81040538507
:10137000FFF7B4BCB808002018D100200AF012BF53
:1013800000F0FABB10B5184CFFF782FAFFF7AEFA7F
:1013900000231648237008F0CFFF28B923787BB1CB
:1013A000134B01221A7010BD1249237842F2427287
:1013B0008A5A002AF3D00133DBB22370002BEFD11D
:1013C0000D4808F0B9FF58B10A49237844F2721267
:1013D0008A5A12B10133DBB22370002BE0D110BD69
:1013E0002378002BFBD0DBE7A1080020608F0020D2
:1013F000A40800203075002090A9002008B5064BF5
:101400001B780BB900F0C2F8044AD2F8103401334B
:10141000C2F8103408BD00BFA108002018D1002078
:1014200070B50C4C04F5B7452835002603E004F6EA
:101430001854AC420CD0B4F8BA34002BF7D0204684
:1014400008F0AAFDA4F8BA6404F61854AC42F2D12C
:1014500070BD00BF887D0020704700BF08B502F056
:10146000ADFB104A137883F00101012B117005D0F8
:10147000022008F06DFF042008F06AFF0A4B0B4AB7
:101480000B49012008F026FF074B084A08490020B5
:1014900008F020FF042000F0B7FCBDE8084000F091
:1014A0000BBC00BFA3080020A2080020A608002053
:1014B000A50800202DE9F04F1B4FDFF884801B4E5C
:1014C0000123002507F8013985B02C464FF0340A76
:1014D0004FF464795FFA84FB404617F8012F5946B0
:1014E00008F040FD124B3A78029609FB0430114B8C
:1014F0002B44CDE90030104B104806F59C7C2B4462
:101500000AFB04005946CDF80CC0013408F0EEFC8B
:10151000072C08F6185806F51C7605F19605D9D162
:1015200005B0BDE8F08F00BF100000207C5A0020FD
:101530008C410020A86F00208C6B0020C473002019
:1015400030750020012800D970470E4A342303FB70
:1015500000239A7E012AF7D10B494FF41C7202FB3B
:1015600000F00A1800F59C7092F83D2112F0010F6E
:1015700008444FF0000214BF0221012199709A76AD
:10158000FFF702BBC47300207C5A0020304B1B784D
:101590006BB12DE9F0472F4C2F4D23682A8801337A
:1015A0009A42C0B0236003DD40B0BDE8F0877047C9
:1015B0002A4E2B4B376893F80080FBB25D2B22D06C
:1015C000284B294A1E7851880136F6B2B1421E7066
:1015D0004FF000013CBF16781E704FF480726846D1
:1015E0000CF050FB07EB4703204A8DF800808DF884
:1015F0000460684652F823301D49984723682A88BA
:101600009B1A2360D0E7DFF868A0DFF86C90194BD5
:101610009AF8007089F8028040F6185202FB0737EA
:10162000FFF706FB4FF000089AF8003089F8030036
:1016300089F80030307887F8FD854A463B464146B8
:1016400008F03EFD0028D9D0A7F8128DD6E700BFDC
:101650000F0E0020AC080020540200205002002091
:10166000140E0020100E0020ACE80020743B002077
:101670005802002030750020A808002030B587B03F
:1016800000210C4B00911A6B0B4842F008021A63C0
:101690001B6B039103F0080300930122032307242B
:1016A00001A9009D0493CDE9014203F059FC07B064
:1016B00030BD00BF00380240000C024010B584B0BD
:1016C00002F0E0FB00F0EEFD00F008FE2C4801F017
:1016D00067F92B4801F02EFA00F0DEFE02F01AFB4B
:1016E000FFF7CCFFFFF71AF800F0ACFA00F06CF847
:1016F0004FF4613001F0E8FA00221021214803F094
:101700006DFDFFF715FB02F0D1F9FFF797FBFFF72F
:101710000DFC01F0B7FB05F031F902F023F810B130
:10172000012002F063FCFFF7C5FE00F095F900F020
:10173000E5F900F0C1F900F089F9044600F0B6F9C6
:10174000114B029003F10C0292E803008DE80300B4
:1017500020460ECB00F0E0F8002210210B4803F0E9
:101760003DFD00220821094803F038FD0022202118
:10177000064803F033FD04B0BDE8104001F066BB3D
:1017800080841E0000000240181200200014024055
:1017900038B50A4C237823B90948BDE8384002F02F
:1017A0005BBC074B074A1A60002532221846C3E982
:1017B000015202F02DFC257038BD00BF4000002012
:1017C000F01100200030004070B588B000241E4B9E
:1017D00001941A6B1D491E481E4D42F040021A63C7
:1017E0001A6B02F040020192019A02941A6B42F0C5
:1017F00002021A631B6B049103F00203029303A914
:1018000002234FF4004205930392029E03F0A8FBCB
:1018100022460721282006F073FD282006F0A6FDA9
:10182000402203A928460123CDE90323CDE905443D
:1018300003F096FB802303A92846CDE904440393D3
:1018400003F08EFB08B070BD00380240000031107C
:1018500000180240000402402DE9F0412A4C65784E
:1018600005F1560382B0DBB20222082BADF8062048
:101870002CD90DF10601204607F0BCFF234E0DF1D7
:1018800006013080204607F0B5FF0DF1060170809B
:10189000204607F0AFFF0DF10601B080204607F0AB
:1018A000A9FFBDF80620F080531C9BB2A25CE35C4C
:1018B0003272012DB38102D002B0BDE8F081144A2A
:1018C00013880133138002B0BDE8F08102AF032317
:1018D00027F8023D2046394607F08CFFDFF83480B8
:1018E000A5F1AA06394628F81600204607F0A6FFFB
:1018F000BDF806304644A63DE35C48F8250086F86E
:10190000303002B0BDE8F0810C0F002018D100206B
:10191000B008002074E8002084B0F0B583B009ACB2
:1019200084E80E009DF82F309DF938601BB10F2B15
:1019300028BF0F235BB202AF01223B4C27F8022DD8
:101940009DF830503A4643EAC51521465523237089
:1019500007F042FF3A462146BDF8240007F03CFF5D
:101960003A4621460A9807F053FF3A462146BDF809
:101970002C0007F031FFBDF806305A1C92B2991CBA
:10198000EDB289B2E554A654002948D00C3BF12BA6
:101990003BD8022A45D98D08012D226819D96368E0
:1019A00083EA020003F07F3602F07F3300F08030DC
:1019B0003344022D83EA00020BD0A36882EA0300BD
:1019C00003F07F3502F07F3300F080302B4483EA50
:1019D0000002C2F30723C2F307401344034421F07B
:1019E000030080B203EB12638142DBB2C2B206D0C5
:1019F000A05C0132D2B203449142DBB2F8D8635406
:101A000003B0BDE8F04004B0704700231A46A05C64
:101A10000132D2B203449142DBB2F8D8EFE70B4671
:101A2000EDE700231A46E3E7700F00204CF2503335
:101A3000984228BF184643F69823034A984238BF75
:101A400018461080704700BFC2080020014B18885C
:101A5000704700BFC208002008B5FEF777FFFEF709
:101A6000A1FF68B14CF25033984228BF184680B2AB
:101A700043F69822054B904238BF1046188008BDA7
:101A8000024B48F6A0421A8008BD00BFC2080020E1
:101A90000F28A8BF0F206FF00E02034B9042B8BF73
:101AA00010461870704700BFB3080020014B93F92F
:101AB00000007047B308002008B5FEF78BFFFEF763
:101AC000B5FF00F10F03DBB21E2B034B8ABF0022D0
:101AD00018701A7008BD00BFB308002084B030B47D
:101AE00002AC84E80F0025460FCD034C2D680FC4CF
:101AF000256030BC04B070472C120020F0B58BB0CC
:101B0000FEF7D0FF78B9044605AD214628460BF014
:101B1000F9FFCDE90244054F099E95E80F00CDE994
:101B200000670CF02FF80BB0F0BD00BF18120020BA
:101B30000F4B1A7852B901280ED012D3022807D1C0
:101B40000C4A042101201170187070470020704762
:101B5000084B10461A707047064A1870022313701B
:101B60007047044A0321012011701870704700BFAC
:101B7000B4080020B508002070B5124C237823B1BA
:101B8000114D2B7813B90023237070BD0F4E1048F0
:101B900033780E2B94BF01220022402103F01EFB5C
:101BA00032782B781D2A04D801323270002BEAD00B
:101BB00070BD013BDBB200222B703270002BF7D1DD
:101BC000E1E700BFB4080020B5080020B2080020FB
:101BD00000040240074A137823B107490878013B03
:101BE000137000B17047054A0320012310700B7079
:101BF000704700BF42000020B4080020B508002054
:101C0000102818D0B0F5004F00D0704708B500F08C
:101C10005FFB0A4B1A78FF2A0CD01A78084952B297
:101C20008A5C52B20E2A05DC1A7852B28B5C013300
:101C30005BB28B5408BD00F027B800BF4100002004
:101C4000B808002038B50E4B0E4A1A604FF40075E4
:101C50000022082407211846C3E90654D962C3E9C3
:101C60000122C3E903225A61C3E908229A6202F001
:101C700011FD00B938BD0420BDE8384007F0A2BD11
:101C80000813002000340140014B01221A707047F4
:101C9000C808002008B50268054B9A4200D008BD6C
:101CA000FFF7D0FF034A13880133138008BD00BF3C
:101CB00000340140CA0800202D4B1A78002A3DD07C
:101CC00030B52C492C4D0A782C482D4C01320A7025
:101CD00000211970AB680360580683B0226836D4BF
:101CE00093681B0608D52449264A8B6823F0800395
:101CF0008B60138801331380234C2449D4F8B0003F
:101D0000302207F0BFFD0123302284F8A0300021EB
:101D10001E480BF0B7FF94F8B630012B4FF030029D
:101D20000DD0CC211A480BF0ADFF184A18491448C1
:101D3000302303B0BDE8304002F0ECBC70471549D9
:101D40001348FEF7DDFB002384F8B630EDE7019180
:101D5000D368019393680193019BFFF773FF0E49CA
:101D600022680B8801330B8093681B06C4D5BAE741
:101D7000C8080020CE08002000340140D008002010
:101D800008130020C6080020C4730020B8130020E8
:101D9000E81300204E6D0020CC08002030B5144C14
:101DA000237883F00103054683B01A464FF400619F
:101DB0001048237003F012FA042D05D00E4A138840
:101DC0000133138003B030BD0C4B0D4819680D4A28
:101DD00000230193CC680194896801910370019BF1
:101DE000936823F080039360FFF72CFFE6E700BFC2
:101DF000D4080020000C0240C40800200813002072
:101E0000CE08002000340140042800D07047034B66
:101E10001B78052BFAD9FFF7C1BF00BFCE08002001
:101E200070B503683B4A93428AB035D03A4A934230
:101E300004D0022007F0C6FC0AB070BD374B38480A
:101E4000002103911A6B42F020021A631A6B02F010
:101E500020020392039A04915A6C42F480125A644D
:101E60005B6C03F4801304930522022305A94FF44D
:101E700070750124CDE90553CDE907430992049E0D
:101E800003F06EF809221146552006F039FA552064
:101E900006F06CFA0AB070BD204B22480024019471
:101EA0001A6B42F010021A631A6B02F010020192D0
:101EB000019A02945A6C42F400525A645B6C03F427
:101EC00000530293022305A96422029D0693012573
:101ED0000893052305920993079503F041F8124BE7
:101EE0001048079505A91022CDE9052303F038F81D
:101EF0002A462946542006F003FA542006F036FA02
:101F0000224621460A2006F0FBF90A2006F02EFAA6
:101F10000AB070BD0034014000500140003802405A
:101F200000140240001002400000111008B502F039
:101F30004BF8BDE8084006F05FBA00BF034A04480A
:101F400013680133136002F005BD00BFD8080020FC
:101F500008130020102003F045B900BF4FF40040E3
:101F600003F040B9014802F06DBA00BF601B0020C9
:101F7000014802F067BA00BF2416002008B53A20D5
:101F800006F01CFA0248BDE8084004F023B900BF7F
:101F9000C816002008B5462006F010FA024B586B10
:101FA000BDE8084004F016B9601B002008B50C20FD
:101FB00006F004FA0248BDE8084004F00BB900BF7F
:101FC000BC19002008B50E2006F0F8F9024B586B3A
:101FD000BDE8084004F0FEB81819002008B5392003
:101FE00006F0ECF90248BDE8084004F0F3B800BF81
:101FF0005818002008B5452006F0E0F9024B586B50
:10200000BDE8084004F0E6B824160020014B986BA8
:1020100004F0E0B8E00F0020014B586B04F0DAB890
:10202000E00F0020014B986B04F0D4B84C10002056
:10203000014B586B04F0CEB84C100020014804F05E
:10204000C9B800BF880E0020014803F0F9BA00BFEC
:10205000C82D0020014803F0EDB800BFB4140020E3
:10206000014805F003BC00BFE00F0020014806F066
:1020700089B800BFE00F0020014805F0F7BB00BFA2
:102080001C0F0020014806F07DB800BF1C0F002087
:1020900008B50C4C29B101221021204603F09EF80E
:1020A000F9E720460122102103F098F8204601228A
:1020B000082103F093F801222021204603F08EF836
:1020C000EFE700BF00140240002108B50846FFF703
:1020D000DFFF00BF012108B50846FFF7D9FF00BFA9
:1020E00008B501210220FFF7D3FF00BF08B5012189
:1020F0000320FFF7CDFF00BF08B501210420FFF743
:10210000C7FF00BF08B500210520FFF7C1FF00BFD2
:1021100008B500210620FFF7BBFF00BF08B500216E
:102120000720FFF7B5FF00BF00B50B4B0B4883B08E
:102130000922CDE90032CC210123082205F08EF8D6
:10214000074B20B1FF221A7003B05DF804FB032295
:102150001A7003B05DF804FBD81100204C10002069
:102160009F08002030B40588029C6DBAC5F30B159A
:102170000D804578817841EA0521C1F30B0111807A
:10218000B0F803506DBAC5F30B151D80057943797E
:1021900043EA0523C3F30B032380C388DDE903125D
:1021A0005BBAC3F30B130B80C179037A43EA0123B3
:1021B000C3F30B03138030BC704700BF10B50C4C49
:1021C0000C4884B004F10A0104F10802A31DCDE912
:1021D00001210093A21C231D2146FFF7C3FFD4E970
:1021E0000001054BA2685A63C3E90B0104B010BD9E
:1021F000DC080020D811002018D1002070B594B060
:1022000001F0C8FE0023CDE90A33CDE90C33CDE956
:102210000433CDE90633204901930393086C1F4A28
:1022200040F080500864096C01F0805101910199DF
:102230000293136843F440431360136803F440436C
:10224000029301224FF480334FF4800002240C21CA
:10225000089209934FF4A87207230F9008A8029DD3
:102260000E941294CDE91012139304F08FF800B17C
:10227000FEE703460F264FF4A0554FF4805203A803
:102280000521049405930396CDE9065204F06EFAF5
:1022900000B1FEE714B070BD00380240007000408D
:1022A000FEE700BF08B504F0FBFA084BA3FB0030C3
:1022B000800906F069F8042006F090F80022114623
:1022C0004FF0FF30BDE8084006F01AB8D34D621059
:1022D000014B01221A707047E808002030B50C4C01
:1022E0000C4B236083B04FF6FF7300252046E3605C
:1022F000C4E9015503F0BAF869462046CDE9005516
:1023000003F0D0F8204602F079FF03B030BD00BFE3
:102310007414002000100040B0F5FA7F28BF4FF47D
:10232000FA70074A00EB4000C0EBC0001168830060
:102330002A3B00229BB24A624A6A9A42FCD3704707
:102340007414002000B50368174A934283B005D087
:10235000164A934211D003B05DF804FB144B0022DF
:1023600000921A6C42F010021A641B6C03F0100306
:102370000093009B03B05DF804FB00220C4B01921C
:10238000196C41F0200119641B6C03F020030193C8
:1023900003213720019B05F0B3FF372003B05DF820
:1023A00004EB05F0E3BF00BF001000400014004044
:1023B0000038024038B502680B4B9A420FD00B4CE4
:1023C0000B4D0C492A88606907F05CFA2A680948B5
:1023D00000210BF057FC23790133237138BD064BE4
:1023E0001B78012BEBD138BD40640240C473002040
:1023F00044000020F4140020EA08002038B50268E8
:102400000C4B9A4211D00C4C0C4D0D492A88A06CF3
:1024100007F038FA2A680A4800210BF033FC94F8D8
:102420003830013384F8383038BD064B1B78012B27
:10243000E9D138BD28640240C47300204800002060
:10244000C0170020EB08002038B5074D074C2A883C
:102450000748214607F0D8FE2A6820460021BDE83B
:1024600038400BF00FBC00BF4C0000201C1A0020AD
:1024700090A9002010B5074C002220464FF480514F
:1024800002F0ACFE204600224FF40061BDE810408F
:1024900002F0A4BE0014024030B587B000230C4AFD
:1024A0000093116B0B4841F020011163126B0493F0
:1024B00002F0200200924FF4C054012201A9009DB5
:1024C0000393CDE9014202F04BFD07B030BD00BFE0
:1024D0000038024000140240A8B9022910B5044691
:1024E00012D0012920D003291CD001224FF48051A1
:1024F0000F4802F073FE22464FF400610C48BDE81D
:10250000104002F06BBE704701224FF48051084822
:1025100002F064FE01224FF400610548BDE810405E
:1025200002F05CBE0246F0E7BDE81040FFF7A2BF34
:102530000014024038B505460C4600200221FFF782
:10254000CBFF224629461248FDF7DAFF114B124A0B
:102550005B6B1B68934216D8104A93420ED8104A00
:102560009342104B4FF070628CBFDA609A60224643
:1025700007490848BDE8384001F01CBE0A4B4FF03F
:1025800070629A60F3E7084B4FF07062DA60EEE732
:1025900028170020601B002058640240B8600240E9
:1025A00058600240006002400064024038B50D46A9
:1025B0001D4C01462A461D48FDF7A2FF636B1C4ACD
:1025C0001B6893421ED91B4B4FF07062DA602A469B
:1025D0001649154801F0EEFD174A136808B101339A
:1025E0001360642B0DD92068C1686E2B21F0C001E7
:1025F0004FF0010588BF0023C16088BF136084F8D5
:102600003D5038BD0D4A934204D90A4B4FF07062D9
:102610009A60DCE70A4A93420A4B4FF070628CBF23
:10262000DA609A60D3E700BF24160020B41A0020B5
:102630005864024000640240EC080020B860024088
:10264000586002400060024038B50A460C46014618
:102650000F48FDF755FF22460D490E4801F0AAFD2F
:102660000D4A136808B101331360642B0ED9094871
:102670000468E1686E2B21F0C0014FF0010588BFAE
:102680000023E16088BF136080F83D5038BD00BF73
:102690008C15002018190020F00800200B49026852
:1026A00001238A4280F83D3004D001F580618A42DE
:1026B00001D070470023064A342101FB03239A7896
:1026C000022A04BF03229A70704700BF0010014025
:1026D000C4730020F0B51D4C23681B68DB0683B073
:1026E00005D4204603B0BDE8F04001F0ABBE184D64
:1026F000184E2A6833685268174F1849D7F8E40013
:102700009B1A9BB2ADF80230BDF8022007F0BAF870
:102710003268124800210BF0B5FA97F8D430013333
:1027200087F8D430284603F043FD33680B4A0C4940
:10273000284603F0FBFC2368002201921A680192EC
:102740005B680193019B03B0F0BD00BF1819002026
:10275000BC1900204C000020C47300201C1A00206B
:10276000044800400C4B02689A4200D07047036C4A
:1027700063B9436B93F83520042A03D093F83520CE
:10278000032AF3D1002283F8352070470022012369
:10279000026480F83D30ECE700100140C37803B1DB
:1027A000704770B50C4A0D4C1278256B0232A3F1BC
:1027B0003333A3FB0213DB0803EB8303A2EB4303D6
:1027C000C11D30220126E81DE376A676FDF798FEAE
:1027D000236B30229A7170BDE9080020C473002079
:1027E0002DE9F0430368664A934289B000F0818086
:1027F000644A934200F0A680634A934205D01020B9
:1028000009B0BDE8F04306F0DDBF604D604C6148A3
:10281000002604962B6C666043F480232B642B6C9B
:10282000A66003F480230493049B05962B6B43F06E
:1028300002032B632B6B03F002030227059321464F
:102840004FF400594FF00108059BC4F80090E76071
:1028500002F086FB4FF4804321464E48C4E900381D
:10286000C4E9026702F07CFB32464946494802F05F
:10287000B5FC06962B6B67603B432B632B6B45487F
:10288000C4F808803B4006934FF44062072321467A
:10289000DDF818C022602361E76002F061FB079653
:1028A0002B6BC4F8048043EA08032B632B6B3A4874
:1028B000C4F8088003EA0803079321461023079A07
:1028C0002360E76002F04CFB20232146324823605E
:1028D000C4E90168E76002F043FB2F48E760C023CA
:1028E0002146C4E90166236009B0BDE8F04302F067
:1028F00037BB02F5943200240094516C244B2648D7
:1029000041F010015164516C01F0100100910099E7
:102910000194116B41F001011163126B02F001028D
:102920000192019A01254FF4C06207241A601946EA
:1029300002229D601C615A60DA6009B0BDE8F04374
:1029400002F00EBB02F5923200240294516C104B3F
:10295000124841F020015164516C01F020010291B4
:1029600002990394116B41F040011163126B02F064
:1029700040020392039A01254FF484420824D5E7CC
:10298000001001400014014000480040003802409F
:102990004C1B0020000402400000024000180240CE
:1029A0002DE9F047584F594E3E6082B005463846F3
:1029B000FFF716FF00220F212520002405F0A0FCC0
:1029C0000C2338467D607B61C7E902443C6101F01D
:1029D00049FBF3684E4DDFF85881AC6043F4004387
:1029E000F360F368EC6043F00403F36033696C61F7
:1029F00023F4006333617369AC6143F40063736172
:102A000073696C6243F0400373617369EC6243F075
:102A1000800352207361B0600194D8F830302C6389
:102A200043F48003C8F83030D8F8303039493A4A96
:102A3000296003F4800301934FF480714FF48033D5
:102A40004FF0006A4FF4806903262846C5E9071352
:102A5000DDF804C0C5F804A0C5F81090AE62EA63C2
:102A600003F0C8FA224605213A2005F049FC3A2035
:102A700005F07CFCD5F800C0284BDCF800101B6882
:102A8000274A41F01001CCF800102846254903F0F0
:102A90004DFB0094D8F83020234B2449C3F804A000
:102AA00042F48002C8F83020D8F83020DC6002F40C
:102AB00080024FF0400C009218464FF4003204257B
:102AC000C3E90825C3E90494C3E90644C3E90A64D9
:102AD0001C637B639F631960C3F808C0DDF800E0E6
:102AE00003F088FA22462946462005F009FC4620D4
:102AF00005F03CFC7B6B1A68136843F0100313600D
:102B000002B0BDE8F08700BF601B0020001001404C
:102B1000C816002040640240B5230008440000208D
:102B2000F414002004100140B8180020B8640240DA
:102B3000003802402DE9F047584F594E3E6082B0B0
:102B400005463846FFF74CFE01220F21472000249E
:102B500005F0D6FB0C2338467D607B61C7E9024453
:102B60003C6101F07FFAF3684E4DDFF85881AC60AC
:102B700043F40043F360F368EC6043F00403F36054
:102B800033696C6123F4006333617369AC6143F4AE
:102B90000063736173696C6243F04003736173692E
:102BA000EC6243F0800352207361B0600194D8F866
:102BB00030302C6343F48003C8F83030D8F830301C
:102BC00039493A4A296003F4800301934FF4807134
:102BD0004FF480334FF0206A4FF480690326284673
:102BE000C5E90713DDF804C0C5F804A0C5F81090C6
:102BF000AE62EA6303F0FEF901220521392005F0F7
:102C00007FFB392005F0B2FBD5F800C0284BDCF87B
:102C100000101B68274A41F01001CCF8001028462C
:102C2000254903F083FA0094D8F83020234B244937
:102C3000C3F804A042F48002C8F83020D8F830204D
:102C4000DC6002F480024FF0400C009218464FF412
:102C500000320425C3E90825C3E90494C3E9064406
:102C6000C3E90A641C637B639F631960C3F808C0EF
:102C7000DDF800E003F0BEF929460122452005F009
:102C80003FFB452005F072FB7B6B1A68136843F02D
:102C90001003136002B0BDE8F08700BF24160020C7
:102CA000001401405818002028640240FD23000849
:102CB00048000020C0170020041401405C190020C7
:102CC000A0640240003802402DE9F04F544E554FA9
:102CD000376083B004463046FFF782FD08210022AA
:102CE000272005F00DFB272005F040FB32687460BB
:102CF000D3684D4DDFF8508143F010030024D360BA
:102D00004FF00C0B3046C6E90244C6E9044B01F013
:102D1000A9F9FB68AC6043F00403FB603B69EC601D
:102D200023F400633B617B696C6143F400637B6166
:102D30007B69AC6143F040037B617B696C6243F06B
:102D400080037B610194D8F83030EC6243F40013C7
:102D5000C8F83030D8F830303449354A2C6303F4A1
:102D6000001301934FF4807C03234FF0006A4FF46B
:102D70008069019FC5F81CC04FF480372846AB62BC
:102D80002960EA63C5F804A0C5F810902F6203F02B
:102D900031F922465846052105F0B2FA584605F0A9
:102DA000E5FAD5F800E0234BDEF800001B68224A64
:102DB000224940F0100CCEF800C0284603F0B6F9C6
:102DC0000094D8F830201E4B1E49C3F804A042F4EA
:102DD0000012C8F83020D8F83020DC6002F400126D
:102DE000009218464022C3E90494C3E906441F62D6
:102DF00073639E6319609A60009D03F0FBF822469E
:102E000004210E2005F07CFA0E2005F0AFFA736B5A
:102E10001A68136843F01003136003B0BDE8F08F25
:102E20001819002000480040BC190020286002400A
:102E3000492400084C0000201C1A002004480040CF
:102E400068160020586002400038024010B50C4C53
:102E500001222046102102F0C1F90A20FFF75CFA96
:102E600020460022102102F0B9F90A20FFF754FA97
:102E7000204601221021BDE8104002F0AFB900BF8A
:102E80000000024008B500221449154805F0C6FCB0
:102E9000F0B91449124805F0D7FCA0B912491048FE
:102EA00005F036FF50B90E4805F0D6FC00B908BD54
:102EB00058210E48BDE80840FFF7F2B954210B48ED
:102EC000FFF7EEF9EFE750210848FFF7E9F9E5E7EA
:102ED0004C210648FFF7E4F9DBE700BF6000002063
:102EE000A41B0020C40000205000002050DE000879
:102EF000002070470020704770B50C68224D82B0EA
:102F00000023962CE86F8DF807302BD91F4C2049F1
:102F100023780133DBB29622237006F0B3FC9622AD
:102F20001B491C4806F0AEFC03238DF807301A4EEF
:102F30009DF807309DF8072095F86C1041F6332472
:102F40000B44305D124902440132013332551348BB
:102F500085F86C3005F0ECFE104805F007FF40B234
:102F600002B070BDA6B23246094906F08BFC32466B
:102F70000749084806F086FC302CD8D93023B4FB2A
:102F8000F3F3DBB2D1E700BFC4730020F4080020E4
:102F9000C81D00206C8F002030750020A41B00206D
:102FA00010B5064C06490022204605F0B9FE204621
:102FB000044905F0BDFE002010BD00BFA41B002089
:102FC000C8250020C81D002010B5094CD4F81832BF
:102FD000D3F814320BB1012010BD0A460146204639
:102FE00005F09EFE2046BDE8104005F0A7BE00BFDC
:102FF000A41B0020044BD3F818321BB1D3F81402E1
:10300000C0B2704701207047A41B00200368B3F1D1
:10301000A04F00D0704770B588B0194C19480025F2
:103020000195236B43F001032363236B059503F0A4
:103030000103019302214FF4C0530322039304912F
:103040000A2303A9CDE90623019E01F089FF636BE2
:1030500043F0800363630295636C43F480436364CD
:10306000636C03F4804302932A4629464320029B63
:1030700005F046F9432005F079F908B070BD00BFAE
:10308000003802400000024000F57171D0F80404DD
:1030900005F0FABBC1EBC10300EB8303D0F80404D5
:1030A000D3F8082205F020BCC1EBC10300EB830379
:1030B000D0F804049A6C05F04DBC00BFD0F80404AD
:1030C00005F0D4BC10B5C16804460031D0F8040442
:1030D00018BF012105F0B4FCD4F80404BDE8104089
:1030E00005F08EBC10B50446D0F8040405F0ACFC25
:1030F0002268D2F8003E43F00103C2F8003E236A82
:1031000023B1034A136943F00603136110BD00BFE6
:1031100000ED00E0D0F8040405F0A0BCD0F80404F1
:1031200005F0B4BCD0F8040405F0AEBCD0F804043B
:1031300005F0AEBCD0F8040405F0ACBC02780AB1CE
:103140000020704738B5164B0221C3F804044FF035
:10315000A0450424C0F8203218461A61C3E90722AA
:103160005A62C3E90B22C3E90054D960996102F0A5
:10317000BFF978B980210A4802F036FF40220021C9
:10318000074802F00DFF80220121054802F008FFE8
:10319000002038BD4FF4AF710248FFF781F8E9E72E
:1031A000C82D002078DE000808B5D0F8200202F013
:1031B00025FA032896BF024B0220185C08BD00BF09
:1031C00074DE000810B51C46D0F8200213462246D3
:1031D00002F0B0FD032896BF014B0220185C10BD21
:1031E00074DE000808B5D0F8200202F0D7FD0328ED
:1031F00096BF024B0220185C08BD00BF74DE0008B9
:1032000008B5D0F8200202F04FFE032896BF024B0B
:103210000220185C08BD00BF74DE000808B5D0F8B5
:10322000200202F085FE032896BF024B0220185CA4
:1032300008BD00BF74DE00080A06D0F8203206D4AC
:10324000C1EBC10103EB810191F8FE01704701F070
:103250007F01C1EBC10103EB810191F83E00704792
:1032600008B5D0F8200202F051FD032896BF024BAA
:103270000220185C08BD00BF74DE000808B5D0F855
:10328000200202F0EDFD032896BF024B0220185CDD
:1032900008BD00BF74DE000808B5D0F8200202F0B7
:1032A000ADFD032896BF024B0220185C08BD00BF8D
:1032B00074DE0008D0F8200202F0C8BD0048704754
:1032C000F8080020704700BF12230B8000487047A9
:1032D0007C00002004230B800048704790000020F1
:1032E000013A30B4D2B28C1C04EB42040025020F28
:1032F000092AD3B203F130028ABF37330A700B7048
:103300004D700231A1424FEA0010F0D130BC70473D
:103310000B4A0C4B10681B681A22C0180A8001D196
:103320000948704710B5094B09491C680822FFF786
:10333000D7FF204604220749FFF7D2FF024810BDFD
:10334000107AFF1F187AFF1F94000020147AFF1FC5
:1033500096000020A600002010B5044C04480A4640
:10336000214605F033FA204610BD00BFD0310020C1
:10337000B8DE000810B5044C04480A46214605F0A2
:1033800025FA204610BD00BFD0310020CCDE000859
:1033900010B5044C04480A46214605F017FA2046A9
:1033A00010BD00BFD03100209CDE000810B5044CD9
:1033B00004480A46214605F009FA204610BD00BF20
:1033C000D0310020A8DE0008014B1878704700BFFC
:1033D000080D0020024B187800F00200704700BF73
:1033E000080D0020024B187800F00800704700BF5D
:1033F000080D0020024B187800F01000704700BF45
:10340000080D0020012807D0C30704D440288CBF32
:103410000020012070470020704700BF2DE9F041D7
:10342000434B44491A7884B052B101200022424DE6
:1034300008701A7001322A80012004B0BDE8F081C2
:103440000B78032B26D8DFE803F01B280C023B483F
:10345000394A0023037002200B70138004B0BDE8CA
:10346000F081374A138801339BB24DF66C108342CA
:1034700013800BD9032301200B7004B0BDE8F08149
:103480002F4B0020188004B0BDE8F081012004B06B
:10349000BDE8F0814FF0FF30CFE7274D2A88B2F525
:1034A000167F22D040F259239A423CD0642AC1D1DF
:1034B000244EDFF8A080244F2448002431464346A0
:1034C0003A46009409F0B2F83178214E3A78B8F8CB
:1034D000003002942820CDE900061C480AF06CFA5E
:1034E0002B8801332B800120A7E7164EDFF864807C
:1034F000154F16480124314643463A46009408F0D9
:103500008BFE134831783A78019000262820B8F8CD
:103510000030009002960D480AF04EFA2B882344A2
:1035200020462B8089E702230B70012085E700BF2E
:10353000090D0020040D00200A0D0020080D0020B8
:10354000060D00201F0E0020220E0020E4FC0020AB
:10355000B0000020200E00202E4B187810F0010241
:103560000CD170B510F0020184B027D110F008041E
:1035700006D110F0100029D104B070BDFFF74EBF86
:10358000254A19701170FEF761FAFDF7CDF9FEF7C3
:103590005DFA0446FEF78AFA204B029003F10C0212
:1035A00092E803008DE8030020460ECBFEF7B4F945
:1035B0000120FEF7BDFA022004B070BD16491A7052
:1035C0000A70FEF773FAFDF7F3F9E0E7144A134DBA
:1035D0001169114ECDE90244CDE900151C700FCAE6
:1035E00034700AF0CFFAFEF731FA0446FEF75EFABD
:1035F00005F10C03029093E803008DE803002046D8
:1036000095E80E00FEF788F90120FEF791FA0220F6
:10361000B2E700BF080D0020090D0020181200209D
:103620002C12002038B51D4A1D4B14881B889DB2F2
:10363000A4B2FDB94EF6EE63E31A18BF012303F5F9
:103640000054184D20340133A40305EB8335AC42FC
:1036500003D317E00434A54214D923680133F9D108
:1036600005460A4600232146012003F0C5F968B14A
:1036700080B238BD44B94EF6EE63EB1AB3FA83F369
:103680005B09DCE7802038BDAB2038BDA11C2A4691
:103690000023012003F0B0F9EAE700BF00000808AA
:1036A00000400808FFFF070810B586B0002102227D
:1036B0000124CDE900110E4B0E480392CDE90442DE
:1036C0004FF6FF7101E0834209D01A88914203F15D
:1036D0000403F8D0694601A803F05CFA28B9002277
:1036E00000230349012003F087F906B010BD00BF95
:1036F0000000080800400808144B154A1B8812886F
:103700009BB210B42BB192B2DAB9124B124C1A46DA
:1037100002E0124B124C1A461288904203D109E083
:103720001A88904206D0043BA342F9D801205DF8E4
:10373000044B704733F8023C0B8000205DF8044BCB
:103740007047AB205DF8044B704700BF00000808CD
:1037500000400808FE7F080802400808FE3F0808ED
:10376000020008082DE9F0416649674A0B88148871
:1037700086B000269BB2CDE900664EF6EE660225C5
:103780000120B342A4B20395CDE904056FD04FF6F2
:10379000FF7083424FD03BB1FFF786FF002846D031
:1037A00080B206B0BDE8F081002CF5D084423ED056
:1037B000564D574E574F1C464FF0FF3835F8023BD9
:1037C00032885449934208BF0FFA84F8444518469A
:1037D00004F101040AD0FFF78FFF012806D03988D1
:1037E00035F8020CFFF71EFF0028DAD1872CE5D14F
:1037F000002200234449012003F0FEF80028CFD125
:1038000002220121CDE904123E4B3F4803924FF6BC
:10381000FF7101E083420AD01A88914203F1040348
:10382000F8D0694601A803F0B5F90028B8D1002006
:1038300006B0BDE8F081002C44D0B442ACD11C46A7
:1038400001E091420AD00888844201F10401F8D0D5
:10385000694601A803F09EF90028A1D100220023A7
:103860002949012003F0C8F80028E0D098E7002C8F
:1038700039D1264D284E274F4FF0FF3835F8023BFF
:1038800032882449934208BF0FFA84F84445184609
:1038900004F101040BD0FFF72FFF012807D039886E
:1038A00035F8020CFFF7BEFE00287FF47AAF872CB4
:1038B000E4D1002200231349012003F09DF80028E1
:1038C000B5D06DE71C4601E09142B0D00888844233
:1038D00001F10401F8D0694601A803F05BF9002862
:1038E0007FF45EAFA3E74FF6FF739C427FF454AFC3
:1038F000032400220023039403F07EF8002896D0CE
:103900004EE700BF0000080800400808D033002040
:10391000064008080C0D0020060008082DE9F047B5
:1039200086B006460C46FFF77DFE8028054603D08C
:10393000284606B0BDE8F0872C482D4903880A8840
:1039400000259BB292B200957BB988464FF00209E0
:103950004EF6EE6200234146012003F04DF848B1D7
:1039600085B2284606B0BDE8F08732BB80464FF0EE
:103970000309EDE721463046FFF754FE05460028CF
:10398000D6D11C4CDFF870A004F5877701E0BC426B
:1039900015D034F8023B18499E421846F7D0FFF77D
:1039A000ABFE0128F3D0BAF8001034F8020CFFF790
:1039B00039FE0028EBD00546BAE7AB25B8E7002270
:1039C00001240223694601A8CDF80C900192CDE9AB
:1039D000044303F0DFF80028C2D14146204600220C
:1039E000002303F009F80028BAD1A1E70000080875
:1039F00000400808D03300200C0D00202DE9F047CE
:103A0000154F84B00D46164638700123EC18591C2A
:103A100014F8014CFC54CBB2B342F7D9DFF83C9018
:103A20001FFA80F805244FF00A0ACDE9016A0095D3
:103A300001234246D021484603F07AFB074630B1C5
:103A40000A2000F0D3FA631E13F0FF04EDD13846CC
:103A500004B0BDE8F08700BFE0340020E00F002094
:103A600030B583B002AC802304F8013D0122214629
:103A70006B20FFF7C3FF0125642000F0B7FA214651
:103A80002A466B208DF80750FFF7B8FFC82000F0DA
:103A9000ADFA002321462A466C208DF80730FFF747
:103AA000ADFF0A2000F0A2FA03B030BD10B582B01D
:103AB000FFF7D6FF192000F099FA0A4A0A4B12685C
:103AC00002A9002441F8042DC3E904440422C3E9F7
:103AD00006441A201C84FFF791FF0A2000F086FAA2
:103AE00002B010BD4CDE000818D1002000B50B4B11
:103AF0000B4883B00F22CDE90032D02101233B22B5
:103B000003F0ACFB074B20B1FF221A7003B05DF845
:103B100004FB03221A7003B05DF804FB341000208C
:103B2000E00F00209D08002030B4002284B0184B24
:103B30000292CDE90022ADF80C2003F10E04ADF1A4
:103B4000020118785A78023342EA00229C4221F896
:103B5000022FF6D10F4A104BBDF90000BDF902103B
:103B6000BDF90450BDF908401080D8825180BDF9DC
:103B70000A001983BDF90C1095805D83D4801C82E6
:103B8000108158825181998204B030BC704700BFC7
:103B9000341000204435002018D1002030B4044BEC
:103BA000044D054C1A702870217030BC704700BF5E
:103BB000150D0020170D0020160D0020F8B52B4C18
:103BC000237883B12A4F3A78002A3FD1294E2A4DD3
:103BD00032781ABB2A781AB1284A12789A422AD91E
:103BE00002332370F8BD012210212548204F214EB9
:103BF000214D01F0F3FA01220821214801F0EEFAEB
:103C0000012220211E4801F0E9FA1E4A237811788A
:103C1000012299423A7032702A701DD91A4A1278DC
:103C20009A42D7D800220821154801F0D7FA00227D
:103C300023783270CEE700222021114801F0CEFA1D
:103C40002378002202332A702370F8BD0D4A094EF2
:103C50001278094D9A42BBD800220948102101F080
:103C6000BDFA002223783A70B2E700BF0F0D0020A2
:103C7000130D0020120D00200E0D0020150D002048
:103C800000140240170D0020160D0020014B18787B
:103C9000704700BF140D0020044B1B78C0F1FA00E0
:103CA0008342D4BF00200120704700BF140D0020C4
:103CB0000C490D4B0A88013292B2A3FB02039B0907
:103CC0004FF47A7000FB13239BB2B3F5F97F0B809E
:103CD00088BFC31A0549064A88BF9BB20B805B08A0
:103CE00013707047180D0020D34D6210100D002086
:103CF000140D002008B5064B187810F0010000D113
:103D000008BD002202201A70FDF712FF012008BD35
:103D10001A0D002070B588B0154D16480024029485
:103D20002B6B43F008032B632B6B069403F0080303
:103D3000029303A94FF4C0530126029A0594CDE9DA
:103D4000033601F00DF901942B6B0B4843F020036F
:103D50002B632B6B049603F02003019303A93823F4
:103D6000019A0393CDE9054401F0FAF808B070BD5B
:103D700000380240000C024000140240F8B5284E02
:103D8000284F3468632C04F101048CBF0025012501
:103D9000C72C88BF002434603D70234E13BB3468A9
:103DA000C4BB0123214E012A3370214B10D01A7855
:103DB000012A0DD0012926D0012818D0D4B1FFF74F
:103DC00065FF00220146BDE8F8401046FFF7E6BE59
:103DD00068420122C0B21A7000210022BDE8F840FA
:103DE000FFF7DCBE002340F2CF743460DAE7FF2136
:103DF0000846F2E7FFF74AFF214602462046BDE8A3
:103E0000F840FFF7CBBE0021FF200022BDE8F840BC
:103E1000FFF7C4BE013C0CBF01230023E5E700BF50
:103E20001C0D0020210D0020B4000020200D0020DA
:103E3000220D00201049114BD1F8882042F4700265
:103E400010B4C1F888201A680D4C002042F001021D
:103E50001A6098601A6822F0847222F480321A6024
:103E60005C601A684FF0006422F480221A60D86007
:103E70008C605DF8044B704700ED00E000380240B4
:103E800010300024164A936803F00C03042B24D04E
:103E9000082B0AD0134B124A134892681349C2F3F5
:103EA0000312825CD3400B607047506851685268BF
:103EB0004302C2F3881201F03F014CBF0C4B094B87
:103EC000B3FBF1F303FB02F3054A5268C2F301426C
:103ED00001325200B3FBF2F3DDE7054BDBE700BF35
:103EE000003802400024F400E4DE0008B80000209E
:103EF000001BB700DFF834D0002103E00C4B5B5807
:103F0000435004310B480C4B42189A42F6D30B4AEB
:103F100002E0002342F8043B094B9A42F9D3FFF731
:103F200089FF09F08BFEFDF78DF97047FFFF022036
:103F300098E10008000000207408002078080020A4
:103F4000D8FD0020FEE70000704700BF38B50E4ADC
:103F50000E4B12781B6805464FF47A70B0FBF2F0F6
:103F6000B3FBF0F004F010FA08B90F2D01D90120CD
:103F700038BD0446024629464FF0FF3004F0C0F930
:103F8000034B20461D6038BDBC000020B800002057
:103F9000C000002008B50B4B1A6842F400721A608A
:103FA0001A6842F480621A601A6842F480721A60D9
:103FB000032004F093F90F20FFF7C8FFFFF7C4FFB9
:103FC000002008BD003C0240034A044B11681B78E6
:103FD0000B441360704700BF5C350020BC0000201C
:103FE000014B1868704700BF5C35002038B50446A7
:103FF000FFF7F6FF631C054602D0044B1B781C44F8
:10400000FFF7EEFF401BA042FAD338BDBC000020F2
:10401000E8B138B5D0E9003182684CF6CC450446A9
:1040200045F255501D60186059609A60FFF7D8FF3F
:10403000054604E0FFF7D4FF401B302809D8236869
:10404000D8680028F6D14AF6AA221A6038BD0120A5
:104050007047032038BD00BF03684AF6AA221A60E1
:1040600000207047002800F09D80F8B590F83D30A2
:10407000044603F0FF02002B00F08F802268256ABF
:10408000022384F83D30D168D4E9063021F00C01D8
:10409000D16003431169E06843F400632B4321F4CA
:1040A0007C5103430B4313612569A368D1686069A0
:1040B0002B4321F4164143F4004321F00C01034348
:1040C0000B43D3605369384923F440738A425361E8
:1040D00047D0364B9A4244D002F0E8FB344E636836
:1040E00000EB800000EB80005B00B0FBF3F3A6FB6D
:1040F00003235B091D0102F0D9FB676800EB800018
:1041000000EB80007F00B0FBF7F702F0CFFBD4E9B3
:10411000002100EB80004B0000EB8000B0FBF3F3CC
:10412000A6FB031364205B0900FB13731B013233EE
:10413000A6FB0313C3F343132B439360136923F4C8
:1041400080431361536923F02A035361D36800212C
:1041500043F400530125D3600846216484F83D50A0
:10416000F8BD02F0B3FB124E636800EB800000EB79
:1041700080005B00B0FBF3F3A6FB03235B091D018A
:1041800002F0A4FB676800EB800000EB80007F007A
:10419000B0FBF7F702F09AFBB9E780F83C20FEF796
:1041A0001FFB6BE701207047001001400014014025
:1041B0001F85EB5170B590F83D40E4B2012C29D138
:1041C00051B34AB390F83C50012D23D00546134615
:1041D000406B85F83C40122600246B852C6485F8E2
:1041E0003D600E4E2A682B856962C6630C4E0664DC
:1041F0000C4E04650432C66401F098FF2B686FF022
:1042000040021A605A6985F83C4042F0800220461C
:104210005A6170BD022070BD204670BD2942000861
:1042200069420008DD43000808B50368806B1B681D
:1042300013F4807305D1438590F83D30122B07D0DD
:1042400008BD90F83D30122BFAD1FEF727FA08BDD1
:1042500003685A6922F080025A61DA6842F040022B
:10426000DA6008BD704700BF08B5806BFFF7FAFF42
:1042700008BD00BF704700BF10B584680169C36AFC
:104280000268B4F5805F27D05C1C5268C46201BB31
:104290001A70438E013B9BB24386B3B9438E9BB2E7
:1042A0008BB90268D16821F02001D160D16821F476
:1042B0008071D1605169012421F00101516180F8C0
:1042C0003D40FFF7D7FF002010BD0368FF225A6072
:1042D000E4E702F07F02DBE771B15168C9B223F86D
:1042E000011BC362438E013B9BB24386002BD5D09A
:1042F00040F2FF135360D1E75168C1F3080123F87E
:10430000021BC362EEE700BF704700BF438D9BB244
:1043100010B51BB103681A6811062FD4438E9BB2E7
:104320001BB103681A68920616D4438E9BB28BB9F0
:104330000268D16821F02001D160D16821F4807138
:10434000D1605169012421F00101516180F83D40A3
:10435000FFF7DAFF002010BD84680169C26AB4F576
:10436000805F2AD0541C5B68C46209B103F07F03EC
:104370001370438E013B9BB24386D6E78168426A45
:10438000B1F5805F10D0511C416212785A60428DA5
:10439000013A92B24285428D92B2002ABED1DA68C9
:1043A00022F08002DA60B9E711880469C1F30801DC
:1043B00059607CB902324262E9E75B6829B9C3F30C
:1043C000080322F8023BC262D3E7DBB222F8013BCA
:1043D000C262CEE701324262D9E700BF08B5836B03
:1043E00000211A6859865985506993F83D101229A1
:1043F0001DD0506993F83D1022290AD01A6C012172
:1044000042F010021A64184683F83D10FEF7AAF92C
:1044100008BD4106F2D5D16821F49071D16051698F
:10442000012021F00101516183F83D00E6E700061B
:10443000DFD5D168012021F0C001D16083F83D00B3
:10444000D7E700BF03681A6870B51607DD685969B9
:1044500004464AD011F001011E4653D0D00705D5BD
:10446000EB0503D5236C43F001032364500702F0EE
:1044700002036ED561B1216C41F00201216402F0AA
:104480000801002B6AD119B1236C43F0080323649F
:10449000236C002B35D0900601D5A9066AD4756926
:1044A000226C120702D415F0400576D0F36823F48D
:1044B0009073F3607369012223F00103736184F840
:1044C0003D2073695B0651D57369A06B23F04003EF
:1044D000736100284AD04B4B036501F069FE80B13F
:1044E000A06BBDE87040036D184791060DD5AE0670
:1044F0000BD590F83D30222B90F83D3047D0322B31
:1045000022D070BD15F4907FA8D1160612D45106A2
:10451000F7D56A06F5D5DA6822F04002DA605A6902
:10452000012122F001025A61204684F83D10FEF775
:10453000B5F870BD2806EAD594F83D20122A31D08E
:1045400094F83D30322BDCD12046BDE87040FFF7B7
:10455000DDBE43B100299BD002F00801236C43F07B
:10456000040323648FE7130792D58CE72046FEF7F8
:10457000F9F870BD94F83D30222B94F83D302DD0E1
:10458000322B8CD12046FFF7C1FE266887E7222B0D
:10459000B7D1BDE87040FFF76FBE2046FEF7E2F8E6
:1045A000256470BD94F83D20122AAAD1A168626AE0
:1045B000B1F5805F1AD0511C616212785A60628D29
:1045C000013A92B26285002A9BD1DA6822F0800219
:1045D000DA60DA6842F04002DA6070BD222B7FF4C4
:1045E0005EAF2046FFF748FE266858E7118820692D
:1045F000C1F30801596010B902326262DFE701328B
:104600006262DCE70946000808B5836B00225A861F
:1046100018465A85FEF7A6F808BD00BF70B50546D6
:104620000C4616462B6801E0621C04D1986810F015
:104630008000F9D170BDFFF7D3FC801B8442F1D814
:10464000D5E900315A68B1F5827F22F0E0025A6064
:1046500014D0AA6AB2F5005F07D00122002385F8C2
:10466000512085F85030032070BD1A6822F40052A2
:104670001A601A6842F400521A60EEE7AA68B2F5AE
:10468000004F02D0B2F5806FE3D11A6822F04002E9
:104690001A60DEE700283BD090F85120002370B567
:1046A00002F0FF010446836262B31846D4E9013583
:1046B000D4E903212B4313436269E569266A0B435E
:1046C0001343A26921682B43022584F851503343D8
:1046D00002F400750E682B43120C656A02F00402A6
:1046E00003432A4326F040060E600B604A60CB6904
:1046F000002223F400630125CB611046626584F833
:10470000515070BD80F85010FDF78AFBA06ACDE7CC
:1047100001207047F0B4044690F85000012845D0BD
:1047200094F851000125C0B2A84284F850500ED030
:104730006568B5F5827F05D00220002384F85030EB
:10474000F0BC7047A568002DF6D10428F4D159B308
:1047500052B34BB394F851002568E668154F2163B6
:1047600004281CBF052084F8510000206065E38602
:10477000E3876968A26386420F4EA38608BF3E4660
:104780000E4FA38741F0E0020D4908BF3946C4E946
:1047900010166A602B6813F04003CED12A6842F0ED
:1047A000400218462A60C8E70120C6E70220F0BC94
:1047B000704700BF7D480008E5480008B148000880
:1047C0001D490008704700BF704700BF10B5294B56
:1047D000294A1B68A2FB032382B0642204465B0AB9
:1047E00002FB03F30093FFF7FBFB21684B6823F008
:1047F000200302464B6005E0009B013B00938B6861
:104800009B0706D4009B002BF6D1636D43F0200379
:10481000636564212046FFF701FF38B1636D43F003
:1048200020036365636D43F020036365A36833B9B8
:1048300022680193D368019393680193019B636D90
:1048400083B994F85130042B4FF0010384F85130B0
:10485000204603D0FFF7B8FF02B010BDFFF7B2FF4C
:1048600002B010BD012384F851302046FDF712FA42
:1048700002B010BDB8000020F1197605016B026886
:1048800009781173C28E016B013A92B2C286C28E50
:10489000013192B201633AB901684A6822F080029C
:1048A0004A60C38F9BB203B17047FFF78FBF00BF51
:1048B0000168826B097B1170C28F816B013A92B2E1
:1048C000C287C28F013192B281633AB901684A68E6
:1048D00022F060024A60C38E9BB203B17047FFF7BB
:1048E00075BF00BF016B10B4046831F8022BE260A1
:1048F000C28E0163013A92B2C286C28E92B232B9BE
:10490000626822F080026260C38F9BB213B15DF8CF
:10491000044B70475DF8044BFFF758BF10B40468B0
:10492000816BE26821F8022BC28F8163013A92B257
:10493000C287C28F92B232B9626822F040026260CE
:10494000C38E9BB213B15DF8044B70475DF8044B06
:10495000FFF73CBF30B501684D688B68C3F3801426
:1049600085B0024654B913F0010F07D015F0400F7F
:1049700004D0036C05B0BDE830401847980707D550
:10498000280605D5536C104605B0BDE830401847E1
:10499000C3F3401000283DD1002C4ED0AC0637D5D3
:1049A00092F85140032C5AD0546D44F004045465DD
:1049B0000090C8680090886800900098C3F30023B6
:1049C000002B3ED1536D1BB34B68144623F0E0031C
:1049D0000122AD074B6084F8512048D04B68E06C51
:1049E00023F003034B6040B12A4B036501F0E0FB69
:1049F00018B1636D43F040036365A06C40B1254B73
:104A0000036501F0D5FB18B1636D43F040036365A6
:104A100005B030BDA806FBD5ECB9C3F30023506D3B
:104A2000002440F0010050650294886802900868F4
:104A300020F0400008600298C2E7DC05E8D5AB062C
:104A4000E6D5536D002043F00803536503908B684F
:104A50000393039BB6E792F8510003280BD1002380
:104A60000193CB6801938B680193019BD0E72046AB
:104A7000FDF710F9CCE7506D002440F004005065BC
:104A80000094C868009088680090C3F300230098E1
:104A9000C5E700BF994A000808B5836B0022DA8792
:104AA0001846DA86FDF7F6F808BD00BF704700BF6C
:104AB000002800F09180F8B5056C0446002D00F048
:104AC0008180236CDB0604D50023012084F83C3070
:104AD000F8BD226C4D4923684D4D22F4885222F0D6
:104AE000020242F0020222644A6822F440324A6022
:104AF0004A68606802434A6058682169A768E668A6
:104B000020F4807058605A6842EA01225A6058685E
:104B100020F0407058605968A06A3943596099681C
:104B200021F4006199609A68A84242EA06029A60FC
:104B300054D09968E56A21F0706199609A681043D1
:104B40009860996821F0405199609A682A439A6068
:104B50009968257E94F8200021F0020199609A68F6
:104B600042EA45029A605A68002840D122F4006265
:104B70005A60DA6AE56994F83070666922F4700266
:104B8000DA62D86A013D40EA0550D862986820F49C
:104B900000709860996841EA47219960996821F40A
:104BA000806199609A68002042EA86229A60606477
:104BB000236C23F0030343F001032364002384F8F0
:104BC0003C30F8BDFFF772FF6564236C84F83C50FD
:104BD000DB063FF579AF7CE7012070479A6822F049
:104BE00070629A609A6822F040529A60B0E742F48C
:104BF0000062616A5A605A6822F460425A605A68D8
:104C0000013942EA41325A60B3E700BF0023014054
:104C10000100000FF0B590F83C3083B00024012B68
:104C2000019400F081800568AB680124DF0780F8FB
:104C30003C4014D4404B414E1C68AB68A6FB046456
:104C4000A40C43F0010304EB4404AB600194019B0A
:104C50002BB1019C013C0194019C002CF9D1AB6863
:104C6000DE0743D5046C24F4E06424F0010444F42A
:104C7000807404646B685C0505D5036C23F44053B1
:104C800043F480530364036C2D4E13F480531CBF14
:104C9000436C23F0060343640446806B13460027ED
:104CA000284A84F83C70C6630264274EC6646FF0DD
:104CB00022022A606E6846F080666E60AE6846F436
:104CC00080760A46AE6005F14C0101F02FFA1F4BC9
:104CD0005A68D2060DD122681D498A421BD001F5BF
:104CE00080718A4223D01B498A420FD0002003B032
:104CF000F0BD2368164A9342F8D1986810F04050EE
:104D0000F4D19A6842F080429A60F0E75B6803F061
:104D10001F030F2BEAD8906810F04050E6D193683B
:104D200043F080439360E2E7022003B0F0BD5B688C
:104D3000DB06F0D0DAE700BFB800002083DE1B43BB
:104D4000854D00085D4D00086D4D000800230140B1
:104D50000020014000220140704700BF08B5806B71
:104D6000FFF7FAFF08BD00BF704700BF806B08B5B2
:104D700040230364436C43F004034364FFF7F4FFF0
:104D800008BD00BF836B1A6C12F0500F10B51A6C7F
:104D900023D142F4007219681A648A6812F0405FE5
:104DA00017D11A7EAAB9CA6A12F4700F02D08A68A3
:104DB00050050ED44A6822F020024A601A6C22F490
:104DC00080721A641A6CD10403D41A6C42F0010286
:104DD0001A641846FBF79CFD10BDD20604D49B6BE9
:104DE000BDE81040DB6C18471846FFF7BDFF10BD4B
:104DF000F0B490F83C3082B00022012B019200F018
:104E000094800D688A6803680124092DAFB280F888
:104E10003C4029D81C6905EB45064FF0070C0CFAFD
:104E200006FC24EA0C041C611C6902FA06F62643FF
:104E30001E614E68062E06EB86022AD8596B053A8B
:104E40001F24944021EA04015963596B07FA02F2C6
:104E50000A435A633D4A93422DD0002380F83C30E8
:104E6000184602B0F0BC704707EB4706DC681E3EF0
:104E70004FF0070C0CFA06FC24EA0C04DC60DC683A
:104E800002FA06F62643DE604E68062E06EB860220
:104E9000D4D90C2E31D8A2F123041F211A6BA140C2
:104EA00022EA01021A63196B07FA04F20A431A6331
:104EB000264A9342D1D1122D2DD0254B9D4238D177
:104EC000244A254B5168254C21F4800151605168DA
:104ED00041F4000151601B68A4FB03239B0C03EB0E
:104EE00083035B000193019B002BB6D0019B013B28
:104EF0000193019B002BF9D1AFE7A2F141011F24DF
:104F0000DA6A8C4022EA0402DA62DC6A07FA01F209
:104F10002243DA629EE70F4B5A6822F400025A607D
:104F20005A6842F480025A6097E7022002B0F0BC4F
:104F30007047112D91D1074B5A6822F480025A60B4
:104F40005A6842F400025A6087E700BF002001401F
:104F50001200001000230140B800002083DE1B4334
:104F60002DE9F04FDFF860C2DFF86082D1F800E091
:104F700083B0002503E00135102D00F0A48001234B
:104F8000AB400EEA0304A342F5D14E6826F0100AA6
:104F9000BAF1020F00F09A804FEA45090322D0F8D7
:104FA00000B002FA09F2D24306F0030702EA0B0B43
:104FB00007FA09F70AF1FF3A47EA0B07BAF1010FBE
:104FC000076040F2A980C7688B683A4003FA09F38A
:104FD0001343C360F300CED500230193D8F84430C7
:104FE00043F48043C8F84430D8F8443025F0030235
:104FF00002F1804203F4804302F59C32019305F0F4
:105000000307019BD2F80890BF000F23BB4029EA99
:10501000030A674B98422ED003F58063984200F054
:105020008E80644B984200F09180634B984200F070
:105030009480624B984200F09780614B984200F058
:10504000A180604B984200F0A480DFF8849148452D
:1050500000F09180DFF87C91484500F0A180DFF8F6
:10506000789148450CBF4FF009094FF00A0909FA39
:1050700007F74AEA070AC2F808A0DCF80030E24362
:10508000F70354BF13402343CCF80030DCF804305E
:10509000B70354BF13402343CCF80430DCF8083086
:1050A000F70254BF13402343CCF80830DCF80C302F
:1050B000B60205F1010554BF13402343102DCCF86F
:1050C0000C307FF45CAF03B0BDE8F08F4FEAD50938
:1050D00000EB890905F00707D9F82020BF004FF041
:1050E0000F0B0BFA07FB22EA0B0A0A69BA4042EAE5
:1050F0000A02C9F820204FEA45090322D0F800A08F
:1051000002FA09F2D24306F003070AEA020A07FA92
:1051100009F747EA0A070760876807EA020ACF68C3
:1051200007FA09F747EA0A078760D0F804A0C6F330
:1051300000172AEA0303AF401F43476043E74FF0DD
:10514000010909FA07F74AEA070A94E74FF002094A
:1051500009FA07F74AEA070A8DE74FF0030909FA47
:1051600007F74AEA070A86E74FF0040909FA07F742
:105170004AEA070A7FE74FF0070909FA07F74AEA00
:10518000070A78E74FF0050909FA07F74AEA070A1C
:1051900071E74FF0060909FA07F74AEA070A6AE7D2
:1051A0004FF0080909FA07F74AEA070A63E700BF60
:1051B0000000024000080240000C024000100240C3
:1051C0000014024000180240003C01400038024038
:1051D000001C0240002002400024024002B90904E1
:1051E00081617047044A5169014200D1704708B596
:1051F0005061FCF705FD08BD003C01400223026838
:1052000080F83D30936803F00703062B03D0136842
:1052100043F001031360012380F83D300020704704
:10522000704700BF704700BF704700BF704700BFA6
:10523000704700BF03681A69910710B5044602D58C
:10524000DA6892075FD41A69500702D5DA68510705
:1052500046D41A69120702D5DA6810072ED41A69E3
:10526000D20602D5DA68D00618D41A69D10702D559
:10527000DA68D2075DD41A69100602D5DA68110619
:105280005FD41A69520602D5DA68500661D41A69E9
:10529000910602D5DA68920643D410BD6FF0100271
:1052A0001A61DB69082213F4407F2277204664D01C
:1052B000FFF7BAFF002223682277D6E76FF00802D3
:1052C0001A61DB69042299072277204652D1FFF741
:1052D000A9FF2046FFF7AAFF002223682277BEE736
:1052E0006FF004021A619B69022213F4407F227757
:1052F00020463CD1FFF796FF2046FFF797FF00229C
:1053000023682277A5E76FF002021A619B690122E8
:105310009B07027725D0FFF787FF002223682277BB
:1053200091E76FF0200220461A61BDE8104000F0BE
:10533000DBB86FF001021A612046FFF771FF2368A6
:1053400099E76FF080021A61204600F0CFF82368D9
:1053500097E76FF040021A612046FFF769FF236864
:1053600095E7FFF75FFF2046FFF760FFD5E7FFF700
:105370005BFFC4E7FFF758FFAEE7FFF753FF204698
:10538000FFF754FF96E700BFF0B4364E03684D694F
:105390008C680A68B04255D0B0F1804F29D0A6F58C
:1053A0007C46B04237D006F58066B04233D006F571
:1053B0008066B0422FD006F57846B0422BD006F575
:1053C0007056B04213D006F58066B0420FD006F595
:1053D0008066B0420BD0A6F59836B04207D006F5ED
:1053E0008066B04203D006F58066B04209D1C96834
:1053F00004E04E68C96823F07003334323F440731C
:105400000B4323F080032B430360C46282620123B9
:105410004361F0BC70474E68134F23F07003334371
:10542000CE6823F44073334323F080032B43B84208
:105430000360C4628262EAD10B69036301234361A2
:10544000F0BC70474F68CE6823F070033B4323F4F1
:105450004073334323F080032B430360C4628262B2
:10546000EAE700BF0000014000040140B8B190F835
:105470003D3010B503F0FF0204465BB1022384F80F
:105480003D302068211DFFF77FFF012384F83D3068
:10549000002010BD80F83C20FCF754FFEEE701200F
:1054A000704700BF90F83C20012A1AD070B4022245
:1054B000046880F83D20D1E9006503466068A26871
:1054C00020F0700122F0800231432A43012600259A
:1054D00061602846A26083F83D6083F83C5070BC50
:1054E00070470220704700BF704700BF704700BF81
:1054F000F0B58BB000287CD090F8BD33044603F0A3
:10550000FF02002B70D00323254684F8BD332068AA
:1055100003F026FD55F810CB2F460FCF6E460FC671
:105520000FCF0FC697E8030086E80300261D6046EC
:1055300096E80E0003F04CFC074630B1022384F8D5
:10554000BD33012528460BB0F0BD0146206803F0AD
:105550000FFD606860B339463A464FF0010CC1EB6D
:10556000C10304EB83034F1C83F83C10A3F84210E3
:10557000F9B2814283F83DC083F83F20C3E911228C
:105580001A65ECD300221146C2EBC20304EB83037D
:10559000571C83F8FC21FAB2824283F8FD1183F88C
:1055A000FF11C3F80412C3F80812C3F81012EBD3AA
:1055B0000FCD6F46D4F800C00FC70FCD0FC795E8C9
:1055C000030087E80300604696E80E0003F0E8FC5D
:1055D00005460028B2D1012384F83800206884F8F9
:1055E000BD3304F069F8ADE780F8BC23FDF70EFD8C
:1055F00089E7012528460BB0F0BD00BF90F8BC3309
:10560000012B1AD0826A036801218A4210B580F802
:10561000BC130AD00446184604F042F8206803F090
:1056200097FC002084F8BC0310BD82698A42F1D047
:105630009A6B42F480329A63ECE70220704700BF15
:105640002DE9F04F056889B00446284604F072F849
:1056500010B109B0BDE8F08F0646206804F038F8B4
:105660000028F6D0206804F033F810F0020F20680C
:105670001EBF436903F00203436104F029F810F4EC
:10568000002B206840F0C88104F022F810F4802F2D
:10569000206840F0228104F01BF800287DDB2068A0
:1056A00004F016F8010549D4206804F011F8C30489
:1056B00000F18780206804F00BF810F4005F206888
:1056C00040F0C98004F004F810F0100F206811D0E9
:1056D000836923F0100383612E6AC6F34343022BD0
:1056E00006F00F0739D0062B00F0A282836943F041
:1056F0001003836103F0ECFF070700F1E5802068E9
:1057000003F0E6FFC60200F1D480206803F0E0FF5A
:10571000850200F1C380206803F0DAFF400000F149
:10572000B480206803F0D4FF410792D523685D68F8
:105730006A070DD45A682A435A608AE7D5F80838B0
:10574000DA0726D42068436903F400634361ACE7B9
:105750002046FDF7EFFC2368ECE747F6F0731E42A6
:10576000C4D0C7EBC70704EB8707C6F30A16D7F800
:1057700008123246284603F019FFD7F80812D7F866
:105780001422206831443244C7F80812C7F81422A2
:10579000ACE72046FDF7A6FCD4E794F8F413D5F85F
:1057A0000428012922F00102C5F8042800F0FB8139
:1057B0002046FDF7AFFC2068436903F000434361D6
:1057C0006EE705F500677B68206823F00103102170
:1057D0007B6003F0CFFCD4F804E0BEF1000F16D0DC
:1057E00005F5106300214FF67F3098601A6822F4A7
:1057F00000121A60C3F80802D3F80022013122F423
:1058000000127145C3F8002203F12003EDD1FB69BA
:10581000226B43F00113FB61002A00F0B981D7F835
:10582000843043F00B03C7F884307B6C43F00B03E8
:105830007B64D5F80038217C206823F4FE63C5F82A
:10584000003804F5717203F095FF2068436903F492
:10585000805343612FE703F071FF206803F09CFC45
:10586000002818BF0326E660266801F019F8227B9D
:105870000146304603F0F0FA2046FDF723FC20688D
:10588000436903F4005343611CE72046FDF74EFCD7
:105890002068436903F08043436143E720465FFA91
:1058A0008BF1FDF73BFC2068436903F4001343616F
:1058B00032E720465FFA8BF1FDF734FC206843693C
:1058C00003F48013436121E72046FDF7F7FB2068CE
:1058D000436903F00803436112E703F005FF8146C3
:1058E000002800F0C18105F51063CDE9035620685A
:1058F000A2464FF0000B1D4607E05FEA59090BF185
:10590000010B0AF11C0A00F0F98019F0010FF4D024
:105910005FFA8BF7394603F0F9FEC207064600F13D
:10592000B88020688046330703D505EB4B13082267
:105930009A60F10603D505EB4B1310229A607206AC
:1059400003D505EB4B1340229A60B30703D505EB53
:105950004B1302229A603606CFD5DAE914138B4234
:10596000CBD808EB4B1202F510621046DAF844204F
:105970000590CE1A96428069CDF81880B44628BFAB
:10598000944680B20CF1030CB0EB9C0F32D38B42E7
:1059900034D299B3CDF81CB0DAF84810DDF814B061
:1059A00007E0DAF850609E4240F29681DAF844202F
:1059B000F61A964228BF1646237C00933A46B3B2A5
:1059C000404603F0DDFDDBF81820DAF84810DAF87D
:1059D00054303144334492B20336B2EB960FCAF8D6
:1059E0004810CAF85430DCD2DDF81CB0D4F800807E
:1059F000DAF85010994240463FF67FAF069B0120EF
:105A0000D3F834280BF00F0100FA01F122EA010269
:105A10004046C3F8342870E703F05EFE07460028CE
:105A200000F01F8120684FF0000B05F5306ACDE9CA
:105A3000036503E07F080BF1010B62D0FD07F9D588
:105A40005FFA8BF6314603F057FE10F0010F8046E7
:105A50005AD100F00803002B7DD1206818F0100FF8
:105A600003D00AEB4B1310229A6018F0200F07D0D6
:105A70002169012900F0EF800AEB4B1320229A6084
:105A800018F4005FD6D00AEB4B134FF400529A6023
:105A9000D0E7039B2069D3F834184FF0010C0BF0CA
:105AA0000F020CFA02F221EA020105EB4B12C3F8D5
:105AB000341813466045C3F808C004D1DAE911234D
:105AC0001344CAF8483039462046FDF7EDFA2169FB
:105AD000D4F80080012940467FF425AFBBF1000FC8
:105AE0007FF421AF236D002B7FF41DAF04F571729D
