:020000040800F2
:10000000FFFF0220E1430008552F00085F2F000882
:10001000692F0008732F00087D2F000800000000E2
:10002000000000000000000000000000872F000812
:10003000912F0008000000009B2F0008892D000868
:1000400031440008314400083144000831440008BC
:1000500031440008314400083144000831440008AC
:100060003144000831440008B12D00086D2E00080D
:10007000152E00088D2E0008292E00083144000896
:10008000314400087D2E0008314400083144000846
:10009000314400083144000831440008314400086C
:1000A000314400083144000831440008314400085C
:1000B000314400083144000831440008DD2E0008B6
:1000C000ED2E000831440008314400083144000896
:1000D00031440008C92D00083144000839390008AE
:1000E000BB2D0008314400083144000831440008A9
:1000F0003144000831440008314400089D2E0008B6
:1001000031440008314400083144000831440008FB
:10011000314400083144000831440008CD2E000865
:10012000AD2E0008412E0008E92D000831440008DA
:1001300031440008314400083144000831440008CB
:10014000314400083144000831440008BD2E000845
:1001500031440008552E0008FD2D0008D92D000857
:10016000FD2E00080D2F000831440008314400081E
:100170003144000831440008314400080000000008
:10018000314400083144000831440008314400087B
:10019000952D00083144000831440008314400081E
:0C01A000000000000000000031440008D6
:1001C00010B5054C237833B9044B13B10448AFF391
:1001D00000800123237010BD78080020000000007B
:1001E00028EC000808B5034B1BB103490348AFF3E3
:1001F000008008BD000000007C08002028EC0008FA
:1002000053B94AB9002908BF00281CBF4FF0FF317D
:100210004FF0FF3000F072B9ADF1080C6DE904CE7B
:1002200000F006F8DDF804E0DDE9022304B07047D1
:100230002DE9F047089E04468846002B4BD18A42A0
:10024000154667D9B2FA82F24AB1C2F1200701FA23
:1002500002F320FA07F7954047EA030894404FEA73
:10026000154E230CB8FBFEF71FFA85FC0EFB178812
:1002700043EA084307FB0CF1994209D9EB1807F14F
:10028000FF3080F01B81994240F21881023F2B44DD
:100290005B1AA4B2B3FBFEF00EFB103344EA034436
:1002A00000FB0CFCA44509D92C1900F1FF3380F0A8
:1002B0000781A44540F2048102382C4440EA0740FB
:1002C000A4EB0C0400271EB1D4400023C6E9004370
:1002D0003946BDE8F0878B4209D9002E00F0EB804B
:1002E0000027C6E9000138463946BDE8F087B3FA71
:1002F00083F7002F47D18B4202D3824200F2FA806B
:10030000841A61EB030301209846002EE0D0C6E971
:100310000048DDE702B9FFDEB2FA82F2002A40F0BF
:100320008F80491B4FEA154E1FFA85F80127B1FB54
:10033000FEFC230C0EFB1C1143EA014308FB0CF1ED
:10034000994207D9EB180CF1FF3002D2994200F222
:10035000CD808446591AA3B2B1FBFEF00EFB1014F7
:1003600043EA044408FB00F8A04507D92C1900F122
:10037000FF3302D2A04500F2B6801846A4EB080471
:1003800040EA0C409FE7C7F1200CBB4022FA0CFE6C
:100390004EEA030E01FA07F420FA0CF521FA0CF3E9
:1003A0004FEA1E482543B3FBF8F92C0C08FB193320
:1003B0001FFA8EFA44EA034309FB0AF49C4202FA4C
:1003C00007F200FA07F10BD91EEB030309F1FF3026
:1003D00080F087809C4240F28480A9F10209734436
:1003E0001B1BADB2B3FBF8F008FB103345EA034426
:1003F00000FB0AFAA24508D91EEB040400F1FF3302
:100400006BD2A24569D90238744440EA0940A0FB86
:100410000289A4EB0A044C45C2464B4654D351D042
:10042000002E69D0B1EB0A0564EB030404FA0CFC5E
:10043000FD40FC404CEA0505C6E90054002747E7AB
:10044000C2F1200320FA03F7954001FA02F021FAE5
:1004500003F34FEA154E3843010CB3FBFEF71FFAC6
:1004600085F80EFB173341EA034107FB08F38B4283
:1004700004FA02F407D9691807F1FF3C2FD28B4226
:100480002DD9023F2944CB1A81B2B3FBFEF00EFBFB
:10049000103341EA034100FB08F38B4207D9691886
:1004A00000F1FF3C17D28B4215D902382944C91AF2
:1004B00040EA07473BE73746304609E70746E7E6A5
:1004C0001846FBE64145ABD2B8EB020A69EB0E02D7
:1004D00001381346A4E76046E9E7184695E7674602
:1004E000D1E781467CE702382C4447E7ACF1020CA7
:1004F0002B442FE7384608E73746E9E6704700BF48
:10050000844641EA000313F003036DD1403A41D31E
:1005100051F8043B40F8043B51F8043B40F8043BDD
:1005200051F8043B40F8043B51F8043B40F8043BCD
:1005300051F8043B40F8043B51F8043B40F8043BBD
:1005400051F8043B40F8043B51F8043B40F8043BAD
:1005500051F8043B40F8043B51F8043B40F8043B9D
:1005600051F8043B40F8043B51F8043B40F8043B8D
:1005700051F8043B40F8043B51F8043B40F8043B7D
:1005800051F8043B40F8043B51F8043B40F8043B6D
:10059000403ABDD2303211D351F8043B40F8043B0D
:1005A00051F8043B40F8043B51F8043B40F8043B4D
:1005B00051F8043B40F8043B103AEDD20C3205D31D
:1005C00051F8043B40F8043B043AF9D2043208D015
:1005D000D2071CBF11F8013B00F8013B01D30B8887
:1005E00003806046704700BF082A13D38B078DD065
:1005F00010F003038AD0C3F10403D21ADB071CBF37
:1006000011F8013B00F8013B80D331F8023B20F8A0
:10061000023B7BE7043AD9D3013A11F8013B00F8D9
:10062000013BF9D20B7803704B7843708B78837061
:10063000604670470000000000000000000000005D
:1006400090F800F06DE9024520F007016FF0000C12
:1006500010F0070491F820F040F049804FF00004BA
:100660006FF00700D1E9002391F840F000F1080095
:1006700082FA4CF2A4FA8CF283FA4CF3A2FA8CF3CD
:100680004BBBD1E9022382FA4CF200F10800A4FA34
:100690008CF283FA4CF3A2FA8CF3E3B9D1E9042388
:1006A00082FA4CF200F10800A4FA8CF283FA4CF3BF
:1006B000A2FA8CF37BB9D1E9062301F1200182FA79
:1006C0004CF200F10800A4FA8CF283FA4CF3A2FA7F
:1006D0008CF3002BC6D0002A04BF04301A4612BA8D
:1006E000B2FA82F2FDE8024500EBD2007047D1E990
:1006F000002304F00305C4F100004FEAC50514F01F
:10070000040F91F840F00CFA05F562EA05021CBFEF
:1007100063EA050362464FF00004A9E7014B18782D
:10072000704700BF98080020024B187800F00200C4
:10073000704700BF98080020024B187800F00800AE
:10074000704700BF98080020024B187800F0100096
:10075000704700BF98080020012802D010F0010F58
:1007600003D1402803D900207047002070470120A2
:1007700070470000454B1B783BB10023434A137080
:10078000434A01211170434A1380414B1B78032BCC
:1007900077D8DFE803F002065F6D00203E4B18803B
:1007A00070472DE9F04184B03A4B1B88B3F5167FB2
:1007B0002BD040F25922934247D0642B04D001330E
:1007C000344A138001201DE0DFF8E480334F344EBB
:1007D000344C0025009543463A46314620460CF0FD
:1007E00089FDB8F800303A78317802952E480190AA
:1007F0002820009020460DF0B3FF264A13880133CD
:100800001380012004B0BDE8F081DFF8A480234FFD
:10081000234E244D0124009443463A46314628464F
:100820000CF058FBB8F800303A783178002002908C
:100830001D4801902820009028460DF091FF154A90
:100840001388234413802046DCE7114B02221A70E0
:100850000120D7E7104A138801339BB213804DF66D
:100860006C12934210D90A4B03221A700120704770
:1008700000230E4A1370064A1370064A13800220A2
:1008800070474FF0FF3070470120704799080020F3
:10089000940800209A080020960800202C0E0020C2
:1008A000280E00209CFD0020000000209808002059
:1008B0002A0E002030B585B03B4B1B7813F0010F9A
:1008C0000BD113F0020F0BD113F0080F27D113F047
:1008D000100F43D1002005B030BDFFF74BFFFAE702
:1008E0000023324A1370304A137002F019F800F0F6
:1008F000D3FE01F0F3FF044602F012F82C4B0290F5
:1009000003F10C0292E803008DE803000ECB2046B1
:1009100001F084FF012002F045F80220DBE700230C
:10092000224A1370204A137001F0D8FF00F070FEC5
:1009300001F0D4FF044601F0F3FF1D4B029003F1D8
:100940000C0292E803008DE803000ECB204601F074
:1009500065FF012002F026F80220BCE70022134BBD
:100960001A70114B1A70134B03920292104C01949F
:100970001A6900920FCB0EF011F801F0AFFF054697
:1009800001F0CEFF029004F10C0393E803008DE820
:10099000030094E80E00284601F040FF012002F019
:1009A00001F8022097E700BF98080020990800206E
:1009B000AC130020C0130020074B984207D80388CF
:1009C0009BB24FF6FF72934203D10430F4E701204B
:1009D00070470020704700BFFF3F0808114B1B887D
:1009E0009BB2114A128892B288B1012813D13AB948
:1009F0004EF6EE618B4201D001230DE013460BE071
:100A000063B94EF6EE618A4206D1012304E01BB1C0
:100A100032B9012300E0002318467047AB23FBE7FF
:100A2000AB23F9E7000008080040080870B5054648
:100A30000E460120FFF7D2FFAB2821D000F500546D
:100A40002034A403431C0F4800EB8330844216D2A9
:100A50002368B3F1FF3F01D00434F7E7B2B20023BB
:100A60002146012006F0EEFB08B180B208E0AAB2F0
:100A70000023A11C012006F0E5FB80B200E08020ED
:100A800070BD00BFFFFF070810B586B000230593B7
:100A90000093022302930122039204931048FFF76C
:100AA0008BFF28B905A9684606F090FC044638B9C2
:100AB000002200230A49012006F0C4FB044610B1BD
:100AC000204606B010BD032302930648FFF774FFCB
:100AD0000028F5D105A9684606F078FC0446EFE742
:100AE000000008080040080838B504460D460020FC
:100AF000FFF774FFAB2816D000F5005220329203A6
:100B0000431C094800EB8330931C83420AD20388BC
:100B10009BB2A34201D00438F6E730F8023C2B80A8
:100B2000002000E0012038BDFEFF07082DE9F0415C
:100B300086B000230593954AB2F800801FFA88F822
:100B400002F580421688B6B2009302230293012276
:100B5000039204934EF6EE63984542D04FF6FF732E
:100B600098450DD0B8F1000F00F0A080FFF78CFF82
:100B7000002800F0088186B2304606B0BDE8F0815A
:100B800056B14EF6EE639E4215D0FFF77DFF00286A
:100B900000F0F18086B2EFE77C48FFF70DFF0446D6
:100BA0000028E9D105A9684606F010FC002800F0ED
:100BB000DE8086B2E0E77548FFF7FEFE20B905A9A2
:100BC000684606F003FC50B900220023704901205A
:100BD00006F038FB002800F0CC8086B2CCE786B265
:100BE000CAE75EB34FF6FF739E4248D0FFF74CFF53
:100BF000002800F0C68086B2BEE727B20CE00134C0
:100C0000A4B2862C1ED8634B1B889BB22546624A31
:100C100032F814008342F0D0BD42F0D05F49FFF7B4
:100C200063FF0128EBD05D4B19885B4B33F815004F
:100C3000FFF7FCFE0028E2D006469DE734464FF061
:100C4000FF37DEE7002200235049012006F0FAFAC0
:100C500008B186B290E70323029301230393022392
:100C600004934B48FFF7A8FE0446002884D105A949
:100C7000684606F0ABFB00287FD086B27CE70323F2
:100C800002934348FFF798FE20B905A9684606F08D
:100C90009DFB48B9002200233C49012006F0D2FA0E
:100CA00000286CD086B267E786B265E73EB14FF6A2
:100CB000FF739E420AD044464FF0FF371CE0FFF717
:100CC000E3FE00283FF458AF86B255E703230293B2
:100CD0002F48FFF771FE064608B146464CE705A9C6
:100CE000684606F073FB00283FF446AF86B243E740
:100CF00027B20CE00134A4B2862C1AD8284B1B88EA
:100D00009BB22546244A32F814008342F0D0BD42FB
:100D1000F0D02249FFF7E8FE0128EBD01F4B1988DD
:100D20001D4B33F81500FFF781FE06460028E1D081
:100D300022E7002200231649012006F083FA08B1B9
:100D400086B219E7022302930122039204930F480B
:100D5000FFF732FE064608B146460DE705A968468C
:100D600006F034FB00283FF407AF86B204E72646BE
:100D700002E7002600E70026FEE62646FCE60026FF
:100D8000FAE60026F8E60026F6E600BF00000808AE
:100D90000040080806000808300E00209C080020CB
:100DA000064008082DE9F04186B005460E460020B1
:100DB0000590FFF713FE012811D000284DD14FF008
:100DC0000208274F4EF6EE6200233946012006F056
:100DD00039FA40B184B2204606B0BDE8F0814FF048
:100DE0000308204FEEE731462846FFF71FFE044672
:100DF00010B1F0E70134A4B2862C14D81A4B33F8A2
:100E00001400A842F6D01949FFF76EFE0128F1D070
:100E1000164B1988144B33F81400FFF707FE00280F
:100E2000E8D00446D7E700230093CDF808800123DB
:100E300003930223049305A9684606F0C7FA08B194
:100E400084B2C8E7002200233946012006F0FAF9EF
:100E500008B984B2BFE784B2BDE7AB24BBE700BFEB
:100E60000040080800000808300E00209C08002000
:100E700038B504460D46FFF7D9FD802800D038BDAF
:100E800029462046FFF78EFFF9E700002DE9F041E3
:100E900084B007460E461546134B1870012306E032
:100EA000F21812F8011C104AD1540133DBB26A1C4B
:100EB0009342F5DB0024042C11D80A2302930195F8
:100EC000009601233A46D021084806F029FF8046C3
:100ED00028B10A2003F000FB0134E4B2EBE74046FE
:100EE00004B0BDE8F08100BF400F00207411002065
:100EF00030B583B002AC802304F8013D01222146C5
:100F00006B20FFF7C3FF642003F0E6FA01258DF89C
:100F100007502A4621466B20FFF7B8FFC82003F090
:100F2000DBFA00238DF807302A4621466C20FFF7B4
:100F3000ADFF0A2003F0D0FA03B030BD00B583B096
:100F4000FFF7D6FF192003F0C7FA0D4B0022DA8213
:100F50001A835A831A825A829A829A83DA831A846B
:100F6000084B1B6802A941F8043D04221A20FFF730
:100F70008DFF0A2003F0B0FA03B05DF804FB00BF58
:100F800020D1002040EC000800B583B00F2301936E
:100F9000094B009301233B22D021084806F074FF3F
:100FA00028B1074BFF221A7003B05DF804FB044B15
:100FB00003221A70F8E700BFC81100207411002046
:100FC000BB08002070B485B0002300930193029306
:100FD000ADF80C301A460FE0501CC0B2164CA55CA0
:100FE0000232D2B2215C41EA052104A800EB4300A1
:100FF00020F8101C0133DBB2062BEDD9BDF90060DF
:101000000E4B1E80BDF902505D80BDF904409C80EE
:10101000BDF90800D880BDF90A101981BDF90C206E
:101020005A81074BDE821D835C83188259829A8223
:1010300005B070BC704700BFC8110020A40F00208D
:1010400020D10020034B1870034B1970034B1A700A
:10105000704700BFA7080020A6080020A5080020B0
:1010600010B52B4B1B78FBB12A4B1B782BB1284BAF
:101070001A78294B1B789A422ED2284B1B782BB119
:10108000234B1A78264B1B789A422ED2254B1B787D
:101090002BB11F4B1A78244B1B789A422ED21C4A34
:1010A00013780233137010BD204C0122102120460A
:1010B00004F098FB01220821204604F093FB012252
:1010C0002021204604F08EFB0123124A1370134A9C
:1010D0001370144A1370C7E700221021134804F05C
:1010E00081FB0C4B00221A70C7E7002208210F4831
:1010F00004F078FB094B00221A70C7E70022202178
:101100000A4804F06FFB074B00221A70C7E700BFC4
:101110009F080020A3080020A7080020A2080020A4
:10112000A60800209E080020A50800200014024008
:10113000014B1878704700BFA4080020044B1B78AF
:10114000C0F1FA00834201DC0020704701207047A3
:10115000A40800200E490B8801339AB20D4BA3FB63
:1011600002039B094FF47A7000FB13239BB20B80A0
:10117000B3F5F97F08D8084A1380074B1B88C3F3DF
:101180004703064A13707047C31A034A1380F4E7F3
:10119000A8080020D34D6210A0080020A408002059
:1011A000024B187800F00100704700BFAA08002029
:1011B00008B5FFF7F5FF08B9002008BD034B002272
:1011C0001A70022001F0EEFB0120F6E7AA080020C9
:1011D00000B587B0002300930B4A116B41F0080162
:1011E0001163126B02F008020092009A4FF4C05291
:1011F0000192012202920493039301A9034804F08F
:1012000001FA07B05DF804FB00380240000C024010
:1012100000B587B0002300930B4A116B41F0200109
:101220001163126B02F020020092009A38220192A0
:10123000012202920493039301A9044804F0E2F905
:1012400007B05DF804FB00BF003802400014024004
:1012500008B5FFF7BDFFFFF7DBFF08BD70B5374CE2
:101260002468632C2ED8364D01262E700134334D60
:101270002C60C72C02D92C46002525601BB1314BB0
:101280004FF4FA641C602F4B1B6813B1013B2D4CCB
:1012900023602C4B1B68CBB92B4B01241C70012AFB
:1012A00018D02A4B1B78012B14D001292BD00128F0
:1012B0002ED0254B1A78012A21D00123002218466E
:1012C000114610E01E4D00262E70CFE71E4B002465
:1012D0001C70E4E71D4B01221A70194B19784FF06E
:1012E000FF3300221046C3B1012B1ED052424342AD
:1012F0004842D2B2D9B2C0B2FFF7A4FE70BD0023FB
:1013000018461946EFE74FF0FF3300221046EAE790
:1013100001464FF0FF330022E5E7FFF709FF0246E1
:1013200000210846FFF78EFEE8E7FFF701FF0022E5
:1013300001461046FFF786FEE0E700BFAC0800203C
:10134000B108002004000020B0080020B2080020EE
:1013500000B587B0002100910A4B1A6B42F00102E0
:101360001A631B6B03F001030093009B1F2301937F
:1013700003230293039101A9034804F043F907B042
:101380005DF804FB003802400000024030B583B035
:1013900000250195174B1A6B42F480021A631B6BF0
:1013A00003F480030193019B134C144B236065608D
:1013B000A560E5604FF4806323614FF400636361CF
:1013C0004FF40053A3614FF48073E3616562E562FB
:1013D00025632562204605F0B3F9094BA3639C639E
:1013E0002A460A21382007F017FD382007F048FD6B
:1013F00003B030BD003802401C10002010640240D1
:10140000C80F00202DE9F04182B0002601962C4B38
:101410005A6C42F480725A645B6C03F480730193DB
:10142000019BFFF795FFFFF7B1FF264D264B2B6081
:101430006E60AE6001272F612E7685F82060EE6227
:10144000224BAB62EE604FF00508C5F81C8085F8B2
:1014500030706E61284603F0CCFE1D4C266067603C
:10146000A7602146284603F0FBFF2760022666603E
:10147000A7602146284603F0F3FF26600326666036
:10148000A7602146284603F0EBFF26600423636033
:10149000A7602146284603F0E3FF0E4B2360C4F803
:1014A00004800723A3602146284603F0D9FF424663
:1014B0000949284603F0C8FE02B0BDE8F08100BF2C
:1014C00000380240C80F0020002001400100000F3A
:1014D0007C100020120000101010002008B5064BF0
:1014E0001B7803B908BD044B00221A70052203497A
:1014F000034803F0A9FEF5E7B30800201010002010
:10150000C80F0020094B1B89A3F2AF304FF4C873FA
:1015100003FB00F3064A82FB0312D817C0EB22201C
:10152000193040B2034B1870704700BF10100020F4
:10153000431CCF34B4080020054A1188054B598458
:10154000518899849188D984D2881A85704700BFC0
:101550001010002020D100200268044B9A4200D0D5
:101560007047034B01221A70FAE700BF00200140C8
:10157000B308002084B010B401AC84E80F00069AD0
:10158000079B9DF80E0019784C1C1C7022F8110066
:101590001978481C1870BDF8040022F81100029850
:1015A00019784C1C1C70040C22F8114019784C1C42
:1015B0001C7022F811001978481C1870BDF80C3006
:1015C00022F811305DF8044B04B0704730B4137842
:1015D0005C1C147031F81330837213785C1C147027
:1015E00031F8133003801478631CDBB2137031F8C8
:1015F00014405D1C157031F8133003EB0443436055
:1016000013785C1C147031F81330038130BC7047C0
:1016100008B501468620FFF72BFC08B1002008BD65
:1016200043F239018720FFF723FC08B90120F6E7D0
:101630000020F4E700B583B00023ADF8063002A91E
:1016400021F8043D8620FFF74FFA18B1002003B0BF
:101650005DF804FB0DF106018720FFF745FA80B91C
:10166000BDF8062043F239039A4205D1064BBDF876
:1016700004201A800120EAE7034B00221A8002208E
:10168000E5E70020E3E700BFB6080020014B18881B
:10169000704700BFB608002008B581B29220FFF75E
:1016A000E7FB08B1002008BD45F6A0319320FFF705
:1016B000DFFB08B90120F6E70020F4E700B583B0AE
:1016C0000023ADF8063002A921F8043D9220FFF76F
:1016D0000BFA18B1002003B05DF804FB0DF1060110
:1016E0009320FFF701FA80B9BDF8062045F6A03334
:1016F0009A4205D19DF90420054B1A700120EAE7B2
:10170000034B00221A700220E5E70020E3E700BF48
:10171000B5080020014B93F900007047B508002080
:1017200084B000B589B00DF1280C8CE80F0005AA33
:10173000002305930693ADF81C3008A901F80D3D70
:10174000029101920E9B00939CE80F00FFF712FF9D
:1017500001238DF81330BDF814108A20FFF788FBA1
:1017600028B1002009B05DF804EB04B070479DF883
:1017700013305A1C8DF8132008AA02EB430333F8E8
:101780000C1C8B20FFF774FB08B10020EAE79DF8E2
:1017900013305A1C8DF8132008AA02EB430333F8C8
:1017A0000C1C8C20FFF764FB08B10020DAE79DF8E1
:1017B00013305A1C8DF8132008AA02EB430333F8A8
:1017C0000C1C8D20FFF754FB08B10020CAE79DF8E0
:1017D00013305A1C8DF8132008AA02EB430333F888
:1017E0000C1C8E20FFF744FB08B10020BAE744F23E
:1017F00083318F20FFF73CFB08B90120B2E70020BE
:10180000B0E7000070B58EB00023ADF8223006932B
:101810000793ADF8203001238DF8173006A98A20F0
:10182000FFF762F910B100200EB070BD9DF81710DF
:101830004B1C8DF8173006AB03EB41018B20FFF7F3
:1018400053F908B10020EFE79DF817104B1C8DF8F5
:10185000173006AB03EB41018C20FFF745F908B1C7
:101860000020E1E79DF817104B1C8DF8173006ABF0
:1018700003EB41018D20FFF737F908B10020D3E7D2
:101880009DF817104B1C8DF8173006AB03EB410188
:101890008E20FFF729F908B10020C5E70DF12201DC
:1018A0008F20FFF721F9002831D1BDF8222044F222
:1018B00083339A4217D100260EAA02F8216D012423
:1018C000144B1C7009AD06A92846FFF77FFE039450
:1018D0000296114B01930D9B009395E80F000DF0BC
:1018E0005DF82046A0E700250A4B1D7009AC29468B
:1018F00020460CF0C9FF03950295074B01930D9B01
:10190000009394E80F000DF049F802208CE70020C6
:101910008AE700BFB8080020AC13002038B50546A0
:10192000C47807302CB1012C11D0802008F06CFD58
:1019300038BD302101F012FF6B7913F0010F0AD18D
:10194000084B342202FB04340123A370F0E730215A
:1019500001F04AFFF0E7034B342202FB0434022378
:10196000A370E5E7CC73002010B5C378C41D032B2A
:1019700005D0022B0DD0042B10D0A3B110BD0D4B00
:10198000012283F8B620302221460B48FEF7B8FD2D
:10199000F4E73021204602F0A9FAEFE73021204693
:1019A00001F07CFFEAE702F02DF8024B02229A7068
:1019B000E4E700BFCC730020566D0020014B18787F
:1019C000704700BF08000020014B9878704700BFA7
:1019D000107AFF1F01207047014B1878704700BF35
:1019E0001500002028B1012806D0022807D00020C9
:1019F0007047044B585C7047034B585C7047034B6F
:101A0000585C70470C0000201000002014000020DB
:101A100038B1012807D0022801D0002070470120EA
:101A200070470220704702207047000070B582B0F6
:101A3000064600250195144B1A6B42F400121A63F6
:101A40001B6B03F400130193019B104C104B23609C
:101A50004FF000736360A560E5604FF4806323611D
:101A60006561A561E56125626562204604F068FE56
:101A7000B463A6632A4629460B2007F0CDF90B2054
:101A800007F0FEF902B070BD003802400C130020D0
:101A90001060024030B583B0054600230193154A1B
:101AA000116B41F400111163126B02F400120192E8
:101AB000019A114C114A22604FF00072626040227C
:101AC000A260E3604FF4806222616361A361E3611D
:101AD00023626362204604F033FE6C63A563032235
:101AE0000221112007F098F9112007F0C9F903B07D
:101AF00030BD00BF0038024014110020A060024039
:101B000070B582B0064600250195144B1A6B42F45D
:101B100000121A631B6B03F400130193019B104C1A
:101B2000104B23604FF060636360A560E5604FF485
:101B3000806323616561A561E56125626562204678
:101B400004F0FEFDB463A663012229460D2007F0D0
:101B500063F90D2007F094F902B070BD003802401F
:101B6000341200204060024030B583B005460023A7
:101B70000193154A116B41F400111163126B02F4C9
:101B800000120192019A114C114A22604FF06062DA
:101B900062604022A260E3604FF480622261636170
:101BA000A361E36123626362204604F0C9FD6C63B4
:101BB000A563042202212F2007F02EF92F2007F021
:101BC0005FF903B030BD00BF00380240941200201E
:101BD000B860024008B5124A1378013303F00303DA
:101BE000137063B10F4B1B785BB2042B09D1FFF765
:101BF000E9F900230B4A13700B4A137001E0FFF759
:101C0000C3F9084B1B785BB2B3F1FF3F00D008BDAE
:101C1000054A137801331370024B00221A70F6E75D
:101C2000BC080020BB080020B908002008B5124AF3
:101C30001378013303F00303137063B10F4B1B7868
:101C40005BB2042B09D101F0F9F900230B4A1370A0
:101C50000B4A137001E001F0A5F9084B1B785BB249
:101C6000B3F1FF3F00D008BD054A1378013313706C
:101C7000024B00221A70F6E7BE080020BD080020C3
:101C8000BA08002038B5144C144B2360144B636021
:101C90000025A560E5604FF4804323616561A5617F
:101CA000E5612562204605F06BFF2046FFF7BEFE8A
:101CB0002046FFF7EFFE01220221202007F0ACF8BA
:101CC000202007F0DDF82A4602211F2007F0A4F8A3
:101CD0001F2007F0D5F838BD7411002000540040D3
:101CE000801A060010B50D4C0D4B23600D4B636040
:101CF0000023A360E3604FF4804222616361A3612B
:101D0000E361236284F83D30204605F039FF204628
:101D1000FFF7F6FE2046FFF727FF10BDE011002079
:101D200000580040801A060038B5144C144B23604C
:101D3000144B63600025A5604423E3604FF48043A7
:101D400023616561A561E561256284F83D50204607
:101D500005F016FF01222946492007F05DF84920C9
:101D600007F08EF82A462946482007F055F8482003
:101D700007F086F8204606F0FBF938BDB0100020C9
:101D8000005C0040801A0600704700000368074AA4
:101D9000934203D0064A934204D07047054B042275
:101DA0001A707047044B04221A70F6E70054004082
:101DB00000580040BB080020BD0800200268114BFD
:101DC0009A4204D00268104B9A420DD070470F4BD4
:101DD0001B785BB2012B03D00C4BFF221A70F1E78A
:101DE0000A4B02221A70EDE7094B1B785BB2012BFC
:101DF00003D0074BFF221A70E8E7054B02221A7046
:101E0000704700BF0054004000580040BB0800204D
:101E1000BD08002008B50268034B9A4200D008BDF7
:101E200000F0A2FCFBE700BF005C00407047000030
:101E300008B50268044B9A4200D008BD0122102167
:101E4000024803F0CFFCF8E7005C004000140240B9
:101E500008B541B1012905D108230C2205490648DE
:101E600006F03FF908BD08230E220449024806F097
:101E7000F1F8F7E7A0100020B010002004110020B6
:101E800008B5024806F074F908BD00BFB010002084
:101E900070B586B0002300930D4A116B41F010011C
:101EA0001163126B02F010020092009A082501954E
:101EB0000126029603930493064C01A9204603F0E1
:101EC000A1FB32462946204603F08CFC06B070BDCB
:101ED00000380240001002402DE9F0478CB0036842
:101EE0005B4A934208D05B4A93422DD05A4A9342B0
:101EF0006AD00CB0BDE8F08700250095574C236BE5
:101F000043F002032363236B03F002030093009B5F
:101F10004FF44073079312230893099503230A9300
:101F200004230B9307A94E4803F06CFB012002F039
:101F3000D3FA0195236C43F400132364236C03F458
:101F400000130193019BD4E700250295434C236BBA
:101F500043F020032363236B03F020030293029BCF
:101F6000FFF796FF022307934FF0120ACDF820A047
:101F700009954FF00309CDF828904FF00408CDF8EB
:101F80002C80384F07A9384603F03CFB012002F0B3
:101F9000A3FA01260796CDF820A00995CDF8289040
:101FA000CDF82C8007A9384603F02CFB304602F010
:101FB00093FA0395236C43F480032364236C03F4A6
:101FC00080030393039B94E700250495234C236B24
:101FD00043F001032363236B03F001030493049B89
:101FE0000595236B43F004032363236B03F0040381
:101FF0000593059B4FF4807307934FF01208CDF8BB
:102000002080099503270A9704260B9607A91648EE
:1020100003F0F8FA012002F05FFA4FF4007307931F
:10202000CDF8208009950A970B9607A90F4803F071
:10203000E9FA012002F050FA0695236C43F40003FC
:102040002364236C03F400030693069B51E700BF4F
:102050000054004000580040005C0040003802403E
:102060000004024000140240000002400008024048
:1020700008B501F069F80CF0F9FA00F073FA0CF009
:10208000B7FA0AF0A9FE00F0D5FC01E000F00AF969
:102090000E4B1B78DBB2012BFAD10C4B00221A70CD
:1020A0000B4C2378DBB25AB20A4D2A700A4A52F816
:1020B00023309847FF232B7023780133DBB2237042
:1020C000092BE3D900222270E0E700BF08090020B5
:1020D00009090020490000202000002008B5FEF773
:1020E000E9FB38B1022808D0002000F04BF9FFF7D7
:1020F0005FF808BD0AF079FEF6E70AF07AFEF3E72A
:1021000010B5FFF727F80C4C237800221146104633
:10211000FFF7A4F823780BB1002222700C20FFF700
:102120000DF802464FF48051044803F05BFB012098
:1021300000F028F910BD00BFC2080020000C0240CA
:1021400008B5FFF747FD08BD08B50AF04DFE08BD0C
:1021500008B500F053FC08BD08B5FFF7BFF9FFF75D
:10216000EBF9154B00221A70144808F06BFE40B1D1
:10217000134A42F24273D35A1BB10F4A1378013308
:1021800013700D4B1B7833B10B4B1B7813B10D4BF8
:1021900001221A7008BD0C4808F054FE0028F3D044
:1021A000074A44F27213D35A002BEDD0024A137837
:1021B00001331370E8E700BFBF080020688F0020DC
:1021C00038750020C208002098A9002008B5064BE9
:1021D0001B7833B1054AD2F810340133C2F81034F9
:1021E00008BD00F00DF9F5E7BF08002020D1002060
:1021F00070B5002400E00134062C17DC0C4A40F6D0
:10220000185303FB0423B3F8123D002BF3D040F620
:10221000185505FB04F606F658001546104408F05C
:1022200073FC35440023A5F8123DE4E770BD00BF00
:1022300038750020704710B4002319464FF0FF3462
:1022400000E00133092B06DCC25C52B28A42F8DBA3
:102250005CB2C15CF5E7B4F1FF3F07D001F00F00BD
:1022600040EA041080B25DF8044B70470020FAE7A2
:1022700008B500F0F3F9FFF745F90448FFF7DBFF75
:10228000034B5885FFF7D2FC08BD00BFD8080020DB
:1022900020D1002008B5022008F0FCFD042008F041
:1022A000F9FD08BD70B5FEF7DBFE0F4A137883F029
:1022B00001031370A3B90D4E0D4D0E4C33462A4643
:1022C0002146012008F082FD33462A46214600209F
:1022D00008F07CFD042000F0C3FC00F019FC70BD88
:1022E000FFF7D8FFE7E700BFC1080020C0080020C3
:1022F000C4080020C308002070B584B01A4B012226
:102300001A7000242CE0184D2A5D214640F6185022
:10231000164B00FB043008F0CAFB962303FB04F3C2
:10232000134818442A5D4FF41C7101FB04F101F5B8
:102330009C75104E35440395314402914FF46471FD
:102340000D4D01FB0451019100900C490B442146B5
:1023500034250B4805FB040008F06FFB0134E4B2A0
:10236000062CD0D904B070BD1800002038750020AC
:10237000B06F0020845A002094410020946B00200C
:10238000CC730020012800D9704708B54FF41C73A6
:1023900003FB00F303F59C73144A1A4414493423D5
:1023A00003FB00139B7E012B00D008BD342303FBED
:1023B0000013002199760D494FF41C7303FB0013A1
:1023C00093F83D3113F0010F09D00949342303FB81
:1023D0000010022383701046FFF7A0FAE5E7044BD4
:1023E000342101FB003301219970F4E7845A002065
:1023F000CC7300205D2814BF00200120704700002E
:102400003D4B1B781BB1F0B5C1B0002207E070470F
:102410003A4850F82210013140F822100132194692
:102420009342F5DC0024A14243DD344B53F82420D1
:10243000334B33F814309A4201DA0134F3E7314B6D
:1024400053F82450E8B2FFF7D5FF002833D12E4AC5
:10245000135D0133DBB213559BB22C4A02EB8402AD
:102460005288934204D9294B33F82420264B1A551D
:102470004FF48072002168460CF0FEFA244B33F8CA
:1024800014308DF80030204B1B5D8DF8043005EBC7
:102490004505AB001F4AD3581F4921446846984759
:1024A000174B33F81410154A52F824305B1A42F8CF
:1024B000243041B0F0BD184F3D5D40F61852174B27
:1024C00002FB0535124B33F81430154EB370FFF78D
:1024D0007BFAF0703B5D3370002185F8FD152B46CB
:1024E0003246084810F8240008F098FB0028D7D09E
:1024F0000023A5F8123DD3E7120E0020CC080020DF
:102500007C03002078030020140E002060E90020E6
:10251000180E00207C3B002080030020387500202E
:10252000C808002000B587B0002100910B4B1A6B42
:1025300042F008021A631B6B03F008030093009B30
:10254000072301930123029303230493039101A919
:10255000034803F057F807B05DF804FB0038024069
:10256000000C024010B584B001F0EAFE00F0F2FD6C
:1025700000F00CFE2D4C204601F04EFB204601F0F1
:1025800087FB01F087F8FEF763FEFFF7CBFFFEF74E
:1025900039FF00F085FA00F09FF84FF4613001F048
:1025A000B1FB00221021224803F01CF9FFF76AFB5F
:1025B000FEF7C4FCFFF796FBFFF7B6FB01F0F8FB54
:1025C00004F0F6FDFEF7B2FA60BBFFF795FE00F0EF
:1025D0008BF900F0CDF900F0A9F900F07FF904467D
:1025E00000F09EF9134B029003F10C0292E80300F5
:1025F0008DE803000ECB204600F010F90E4C0022AF
:102600001021204603F0EEF800220821204603F0B6
:10261000E9F800222021204603F0E4F801F0AEFBA7
:1026200004B010BD012001F057FFCEE780841E00EA
:1026300000000240AC1300200014024008B5054819
:10264000054B0360002343603223836001F058FF91
:1026500008BD00BF841300200030004008B5064BC1
:102660001B781BB9054801F070FF08BDFFF7E6FFB6
:10267000014B00221A70F8E7480000208413002064
:10268000012800D07047024A138801331380F9E70C
:10269000D008002008B50E4B1B780E2B0DD8012258
:1026A00040210C4803F09EF8094B1B781D2B0AD8DB
:1026B0000133074A1370002008BD0022402105485D
:1026C00003F090F8F0E7024B00221A700120F3E7C4
:1026D000D20800200004024030B589B000240194E3
:1026E0001D4B1A6B42F040021A631A6B02F0400253
:1026F0000192019A02941A6B42F002021A631B6B58
:1027000003F002030293029B4FF400430393134B25
:1027100004930223059303A9114802F073FF224694
:102720000721282006F078FB282006F0A9FB40238B
:10273000039301230493059406940A4D03A92846A4
:1027400002F060FF802303930494059403A92846B4
:1027500002F058FF09B030BD0038024000003110CF
:1027600000180240000402402DE9F04182B002232B
:10277000ADF80630264B5C7804F15603DBB2082B2B
:102780002AD9234E0DF10601304607F052FE214DA5
:1027900028800DF10601304607F04BFE68800DF1F0
:1027A0000601304607F045FEA8800DF106013046CF
:1027B00007F03FFEE880BDF80620531C9BB2B256DE
:1027C0002A725A1CADF80620F35CAB812046FFF755
:1027D00057FF02B0BDE8F08102AE032326F8023DA8
:1027E000A4F1AA080A4F3146384607F022FE0A4DE6
:1027F00025F818003146384607F03CFEA63C45F85F
:102800002400BDF80630FB5C454485F83030E0E735
:10281000A010002020D1002028E9002084B070B54D
:1028200082B007AC84E80E009DF8274014B10F2C4D
:1028300028BF0F2464B29DF8283044EAC314E4B2E0
:1028400002AE012326F8023D1A4D55232B70324665
:10285000294607F0E1FD32462946BDF81C0007F085
:10286000DBFD32462946089807F0EDFD3246294641
:10287000BDF8240007F0D0FDBDF80620531C9BB224
:10288000AC54581C80B29DF93020EA540022134603
:1028900005E00849C95C0A44D2B20133DBB299B2FF
:1028A0008842F6D8034B1A5402B0BDE8704004B019
:1028B000704700BF0411002043F69823984207D9BF
:1028C0004CF25033984228BF1846034B188070478B
:1028D00043F69820F9E700BFE2080020014B188872
:1028E000704700BFE208002008B5FEF7A3FEFEF720
:1028F000CDFE20B948F6A040FFF7DEFF08BDFFF788
:10290000DBFFFBE710F10E0F05DB0F28A8BF0F2040
:10291000024B187070476FF00E00F9E7D3080020E3
:10292000014B93F900007047D308002008B5FEF76B
:10293000C5FEFEF7EFFE00F10F03DBB21E2B03D93D
:102940000020FFF7DFFF08BDFFF7DCFFFBE700001B
:1029500084B030B402AC84E80F00044C02AD0FCD5B
:102960000FC42B68236030BC04B07047C013002034
:1029700010B58AB0FEF746FF08B10AB010BD05AC2D
:10298000002120460BF080FF002303930293044BA9
:102990000193099B009394E80F000BF0FFFFECE715
:1029A000AC130020134B1B7813BB012811D028B1A6
:1029B000022815D0104B00221A7005E00D4B0122A1
:1029C0001A700D4B03221A700A4B187878B1012047
:1029D0007047084B01221A70074B02221A70F3E766
:1029E000044B01221A70044B04221A70ECE7704762
:1029F00000207047D4080020D508002008B50B4BF4
:102A00001B7843B10A4B1B7833B9094B1B7813B9B8
:102A1000064B00221A7008BDFFF73CFE0028F4D0D8
:102A2000034A1378013B1370EFE700BFD40800207E
:102A3000D508002008B5054B1B7803B908BD013B3C
:102A4000024A13700020FFF7ADFFF7E74A000020AD
:102A500008B5102803D0B0F5004F03D008BD00F032
:102A60003FF8FBE700F08CFB0B4B1B785BB2B3F13C
:102A7000FF3FF3D0084B1B785BB2084AD35C5BB2D4
:102A80000E2BEBDC044B1A7852B204498B5C5BB220
:102A900001335BB28B54E1E749000020D8080020E5
:102AA00008B50D480D4B0360002383604360C3608D
:102AB000036143614FF4007282610822C2610362C4
:102AC000436283620723C36202F0F6F800B908BDCF
:102AD000042007F099FCFAE79C1400200034014020
:102AE000014B01221A707047E808002008B50268FF
:102AF000054B9A4200D008BDFFF7D2FF034A138866
:102B000001331380F7E700BF00340140EA080020DA
:102B10002E4B1B78002B58D030B583B02B4B0022A6
:102B20001A702B4A1378013313702A4B9B682A4A78
:102B3000136013F0400F2FD1284B1B689B6813F0D4
:102B4000800F08D0234A936823F080039360244ABF
:102B5000138801331380234D234C30222946D4F8A7
:102B6000B00007F0ABFC012384F8A0303022002134
:102B700028460BF081FF94F8B630012B1CD0302290
:102B8000CC211A480BF078FF3023164A1749134816
:102B900002F0D2F803B030BD002301930F4B1B6845
:102BA000DA6801929B680193019BFFF779FF104A55
:102BB000138801331380BFE730220E490B48FDF71D
:102BC0009FFC002284F8B620DEE77047E80800206A
:102BD000EE08002000340140F00800209C14002082
:102BE000E60800204C150020CC7300207C15002046
:102BF000EC080020566D002010B582B00446124B40
:102C00001A7882F001021A704FF400610F4802F046
:102C1000E9FD042C05D00E4A13880133138002B05D
:102C200010BD00230B4A137001930B4B1B68DA682D
:102C300001929B680193019B084A936823F08003EB
:102C40009360FFF72DFFE6E7F4080020000C024038
:102C5000E4080020EE0800209C140020003401400D
:102C6000042800D0704708B5034B1B78052B00D80B
:102C700008BDFFF7C1FFFBE7EE08002070B58AB082
:102C800003683B4A934207D03A4A934242D002201B
:102C900007F0BAFB0AB070BD00240194364B1A6BE2
:102CA00042F010021A631A6B02F010020192019AAC
:102CB00002945A6C42F400525A645B6C03F4005361
:102CC0000293029B64230593022306930893012534
:102CD000079505230993294E05A9304602F092FC79
:102CE00010230593264B0693079505A9304602F05D
:102CF00089FC2A462946542006F08EF8542006F016
:102D0000BFF8224621460A2006F086F80A2006F07F
:102D1000B7F8BFE700210391174B1A6B42F020026E
:102D20001A631A6B02F020020392039A04915A6C00
:102D300042F480125A645B6C03F480130493049B86
:102D40004FF47073059302230693089301230793AE
:102D50000523099305A90B4802F054FC09221146EA
:102D6000552006F059F8552006F08AF892E700BF82
:102D70000034014000500140003802400010024081
:102D8000000011100014024008B501F093FB06F09A
:102D9000BAF808BD08B5044A136801331360034844
:102DA00002F0F4F808BD00BFF80800209C140020D1
:102DB00008B5102002F01CFD08BD08B54FF4004016
:102DC00002F016FD08BD000008B5024801F066FEDD
:102DD00008BD00BFF41C002008B5024801F05EFEEB
:102DE00008BD00BFB817002008B53A2006F06CF8FF
:102DF000014803F059FD08BD5C18002008B54620C5
:102E000006F062F8024B586B03F04EFD08BD00BFA0
:102E1000F41C002008B50C2006F056F8014803F019
:102E200043FD08BD501B002008B50E2006F04CF8ED
:102E3000024B586B03F038FD08BD00BFAC1A0020F0
:102E400008B5392006F040F8014803F02DFD08BD13
:102E5000EC19002008B5452006F036F8024B586BF7
:102E600003F022FD08BD00BFB817002008B5024BD3
:102E7000986B03F019FD08BD7411002008B5024BD2
:102E8000586B03F011FD08BD7411002008B5024B0A
:102E9000986B03F009FD08BDE011002008B5024B56
:102EA000586B03F001FD08BDE011002008B5024891
:102EB00003F0FAFC08BD00BF1C10002008B5024852
:102EC00002F0E2FF08BD00BF5C2F002008B50248F9
:102ED00002F0B3FC08BD00BF4816002008B5024848
:102EE00005F05EFE08BD00BF7411002008B5024861
:102EF00005F01CFF08BD00BF7411002008B5024892
:102F000005F04EFE08BD00BFB010002008B5024815
:102F100005F00CFF08BD00BFB010002008B529B1B6
:102F2000012210210A4802F05DFCF9E7084C012259
:102F30001021204602F056FC01220821204602F012
:102F400051FC01222021204602F04CFCEEE700BF9C
:102F50000014024008B500210846FFF7DFFF08B55E
:102F600001210846FFF7DAFF08B501210220FFF72B
:102F7000D5FF08B501210320FFF7D0FF08B50121D7
:102F80000420FFF7CBFF08B500210520FFF7C6FF9F
:102F900008B500210620FFF7C1FF08B50021072072
:102FA000FFF7BCFF00B583B009230193094B0093E1
:102FB00001230822CC21084804F066FF28B1074B02
:102FC000FF221A7003B05DF804FB044B03221A7051
:102FD000F8E700BF6C130020E0110020BD080020BE
:102FE00030B40578447844EA052424110C804478F0
:102FF000817841EA0421C1F30B011180C178027983
:1030000042EA012212111A800279437943EA02232B
:10301000C3F30B03029A13808279C37943EA022334
:103020001B11039A1380C279037A43EA0223C3F384
:103030000B03049A138030BC7047000000B585B0C4
:103040000F4901F10A03029301F1080301938B1D5B
:1030500000930B1D8A1C0B48FFF7C2FF002309E0F9
:10306000074A32F9131003F11400074A02EB400239
:1030700091800133052BF3DD05B05DF804FB00BF43
:10308000FC0800206C13002020D10020FEE7000087
:1030900000B595B03022002108A80BF0EDFC00230C
:1030A000039304930593069307930193234A116CAA
:1030B00041F080511164126C02F080520192019A29
:1030C00002931F4B1A6842F440421A601B6803F4D3
:1030D00040430293029B012308934FF480330993EA
:1030E00002230E934FF480020F920C2210924FF4A1
:1030F000A872119212930723139308A803F0C8FC37
:1031000098B90F23039302230493002305934FF4EC
:10311000A05306934FF480530793052103A803F0AF
:10312000D7FE30B915B05DF804FB6E210548FFF7F6
:10313000ADFF7B210348FFF7A9FF00BF0038024025
:103140000070004044EC000808B501F099F9FFF761
:103150009FFF08BD08B503F067FF084BA3FB0030D5
:10316000800905F09BFE042005F0BCFE00221146FC
:103170004FF0FF3005F050FE08BD00BFD34D621088
:10318000014B01221A7070470809002030B583B046
:103190000B4C0C4B236000256560A5604FF6FF7358
:1031A000E360204602F06AFC0095019569462046DE
:1031B00002F07DFC204602F029FB03B030BD00BFC9
:1031C0000816002000100040B0F5FA7F01D94FF436
:1031D000FA7000EB4000C0EBC00083009BB22A3BBA
:1031E0009BB2044A116800224A624A6A9A42FCD39E
:1031F000704700BF0816002000B583B00268164B68
:103200009A4206D00268154B9A420FD003B05DF87F
:1032100004FB00230093124B1A6C42F010021A6454
:103220001B6C03F010030093009BEBE7002201925C
:1032300003F50933196C41F0200119641B6C03F08C
:1032400020030193019B0321372005F0E5FD372082
:1032500005F016FEDAE700BF001000400014004041
:103260000038024070B582B0002401941B4B1A6BE9
:1032700042F480021A631B6B03F480030193019BE9
:103280001748184B03604FF000634360402383608E
:10329000C4604FF48063036144618461C4614FF48E
:1032A000003303620426466203238362C46204631C
:1032B0000D4D6863856303F043FA2246314646208C
:1032C00005F0AAFD462005F0DBFD6B6B1A6813685C
:1032D00043F01003136002B070BD00BF003802401D
:1032E0004C1A0020B8640240F41C002030B583B0B2
:1032F000002301931B4A116B41F480011163126B8F
:1033000002F480020192019A1748184A02604FF0B5
:103310002062426040228260C3604FF4806202619A
:1033200043618361C3614FF4003202620425456248
:1033300003228262C36203630D4C6063846303F003
:10334000FFF901222946452005F066FD452005F0DC
:1033500097FD636B1A68136843F01003136003B0A2
:1033600030BD00BF00380240F01A0020A0640240C7
:10337000B817002030B583B000240194184B1A6BA5
:1033800042F400121A631B6B03F400130193019BB8
:103390001448154B03604FF0006343604023836083
:1033A000C4604FF48063036144618461C4614FF47D
:1033B000803303620D4D6863856303F0C1F92246D3
:1033C00004210E2005F028FD0E2005F059FD6B6B41
:1033D0001A68136843F01003136003B030BD00BFD8
:1033E00000380240FC17002058600240AC1A002050
:1033F00030B583B0002501951E4B1A6B42F4800254
:103400001A631B6B03F480030193019B1A4C1B4B43
:1034100023604FF000636360A560E5604FF4806354
:1034200023616561A5614FF48073E3614FF48033DC
:10343000236265620323A362E5622563104BE363A5
:10344000204603F07DF92A4605213A2005F0E4FCE8
:103450003A2005F015FD2268136843F0100313604D
:10346000084B1B68084A0949204603F0CFF903B00E
:1034700030BD00BF003802405C18002040640240AC
:10348000D13500084C0000208816002004100140AF
:1034900010B582B0002301931E4A116B41F48001E4
:1034A0001163126B02F480020192019A1A4C1B4ABA
:1034B00022604FF020626260A360E3604FF480629C
:1034C00022616361A3614FF48072E2614FF4803244
:1034D000226263620322A262E3622363104BE3630E
:1034E000204603F02DF901220521392005F094FC36
:1034F000392005F0C5FC2268136843F010031360FF
:10350000084B1B68084A0949204603F07FF902B0BE
:1035100010BD00BF00380240EC19002028640240B2
:103520001D360008500000205419002004140140EA
:1035300030B583B0002501951E4B1A6B42F4001282
:103540001A631B6B03F400130193019B1A4C1B4B72
:1035500023604FF000636360A560E5604FF4806313
:1035600023616561A5614FF48073E3614FF480339B
:10357000236265620323A362E5622563104BE36364
:10358000204603F0DDF82A4605210C2005F044FC16
:103590000C2005F075FC2268136843F010031360DB
:1035A000084B1B68084A0949204603F02FF903B06D
:1035B00030BD00BF00380240501B00202860024090
:1035C0006D36000854000020B01B00200448004065
:1035D00002680D4B9A4211D070B50C4E0C4D0D4C3B
:1035E00032882946606906F069FF32680021284662
:1035F0000BF042FA23790133237170BD064B1B781F
:10360000DBB2012BE8D17047406402404C0000203F
:1036100088160020CC7300200A09002002680E4B97
:103620009A4213D070B50D4E0D4D0E4C328829467E
:10363000A06C06F043FF3268002128460BF01CFA0C
:1036400094F83830013384F8383070BD064B1B785D
:10365000DBB2012BE6D17047286402405000002005
:1036600054190020CC7300200B09002038B5064DFA
:10367000064C2A882146064807F069FB2A68002183
:1036800020460BF0F9F938BD54000020B01B002093
:1036900098A9002000B587B0002300930B4A116B56
:1036A00041F020011163126B02F020020092009A97
:1036B0004FF4C0520192012202920493039301A994
:1036C000034801F09FFF07B05DF804FB003802409B
:1036D0000014024000283ED110B5022911D0012962
:1036E0001DD0032929D01C4C01224FF480512046C3
:1036F00002F078F800224FF40061204602F072F8E0
:1037000010BD154C01224FF48051204602F06AF89A
:1037100001224FF40061204602F064F8F0E70E4CFD
:1037200000224FF48051204602F05CF800224FF452
:103730000061204602F056F8E2E7074C00224FF401
:103740008051204602F04EF801224FF400612046DD
:1037500002F048F8D4E770470014024038B5054637
:103760000C4602210020FFF7B5FF224629461748E4
:10377000FCF7C6FE002300E00133B3F57A7FFBD3EC
:10378000134B5B6B1B68134A93420AD8124A93424D
:1037900011D8124A934213D8114B4FF070629A60BD
:1037A00003E0104B4FF07062DA6022460749084888
:1037B00000F0E0FF38BD0B4B4FF070629A60F4E709
:1037C000074B4FF07062DA60EFE700BFBC180020D3
:1037D000F41C002058640240B86002405860024067
:1037E000006002400064024010B50C460A460146E3
:1037F0002248FCF785FE002300E00133B3F57A7F11
:10380000FBD31F4B5B6B1B681E4A934220D91E4B98
:103810004FF07062DA6022461849194800F0AAFF9A
:1038200018B11A4A136801331360184B1B68642BD4
:1038300008D913490868C26822F0C002C260012298
:1038400081F83D206E2B02D9104B00221A6010BD6A
:103850000F4A934204D90C4B4FF070629A60DAE73A
:103860000C4A934204D90C4B4FF07062DA60D2E7F5
:10387000094B4FF070629A60CDE700BF481C0020F2
:10388000B817002058640240006402400C09002070
:10389000B8600240586002400060024038B50D46F2
:1038A000114C0A4601462046FCF72AFE2A462146CC
:1038B0000E4800F05FFF18B10D4A13680133136022
:1038C0000B4B1B68642B08D908490868C26822F0B2
:1038D000C002C260012281F83D206E2B02D9044B48
:1038E00000221A6038BD00BF20170020AC1A00204B
:1038F00010090020012380F83D3003680C4A9342F0
:1039000006D002F58062934200D07047012200E0A9
:1039100000220849342303FB02139B78022BF4D1C5
:103920000B46342101FB023203239370EDE700BF05
:1039300000100140CC730020F0B583B01C4B1B6815
:103940001B6813F0100F04D1194801F0A7F803B059
:10395000F0BD184C23685A68174E33689B1A9BB207
:10396000ADF80230BDF80220144D154F2946D7F8A6
:10397000E40006F0A3FD3268002128460BF07CF835
:1039800097F8D430013387F8D430204602F078FF1E
:1039900033682A460B49204602F038FF0023019382
:1039A000034B1B681A6801925B680193019BCEE789
:1039B000AC1A0020501B002054000020B01B002037
:1039C000CC7300200448004002680D4B9A4200D09E
:1039D0007047036C23B100230364012380F83D305A
:1039E000426B92F83530DBB2042B04D092F83530BC
:1039F000DBB2032BECD1002382F83530E8E700BFBF
:103A000000100140C37803B1704710B50D4C34224B
:103A100002FB03440123A3760B4B1A7802320B4BB3
:103A200083FB02139B1003EB83035900531AE376C5
:103A3000236B3022C11DD81DFCF762FD236B3022A1
:103A40009A7110BDCC730020090900206766666674
:103A50002DE9F04788B00368674A93420BD0674A64
:103A600093422DD0664A93424FD0102006F0CCFCF2
:103A700008B0BDE8F08700210091624B5A6C42F01B
:103A800010025A645A6C02F010020092009A0191DE
:103A90001A6B42F001021A631B6B03F001030193DE
:103AA000019B59494FF4C0630B6002234B60012214
:103AB0008A60CB6007230B61544801F0A3FDD7E770
:103AC000002102914F4B5A6C42F020025A645A6C0A
:103AD00002F020020292029A03911A6B42F0400215
:103AE0001A631B6B03F040030393039B46494FF497
:103AF00084430B6002234B6001228A60CB60082361
:103B00000B61434801F07EFDB2E7002604963D4D6F
:103B10002B6C43F480232B642B6C03F480230493DD
:103B2000049B05962B6B43F002032B632B6B03F076
:103B300002030593059B344C4FF4005AC4F800A0CF
:103B40006660A6600227E760DFF8C8902146484615
:103B500001F058FD4FF4804323604FF00108C4F892
:103B60000480A660E7602146484601F04BFD3246DE
:103B70005146484601F036FE06962B6B3B432B63BD
:103B80002B6B3B400693069B4FF4406323606760BA
:103B9000C4F80880E760072323612146484601F006
:103BA00031FD07962B6B43EA08032B632B6B03EA6B
:103BB00008030793079B10232360C4F80480C4F80C
:103BC0000880E760A5F560552146284601F01AFDFA
:103BD000202323606660C4F80880E76021462846F9
:103BE00001F010FDC02323606660A660E7602146F7
:103BF000284601F007FD3BE700100140001401409A
:103C00000048004000380240E01C00200000024054
:103C1000001802400004024070B506461A4D1B4CC5
:103C20002C602846FFF714FF00220F21252005F005
:103C3000F3F86E600023AB60EB602B610C236B61CB
:103C4000284600F06FFDE36843F40043E360E36857
:103C500043F00403E360236923F400632361636991
:103C600043F400636361636943F040036361636924
:103C700043F0800363615223A360FFF7B9FB28463A
:103C8000FFF7F0FA70BD00BFF41C002000100140E7
:103C900070B50646194D1A4C2C602846FFF7D8FE21
:103CA00001220F21472005F0B7F86E600023AB60BA
:103CB000EB602B610C236B61284600F033FDE36859
:103CC00043F40043E360E36843F00403E3602369E3
:103CD00023F400632361636943F4006363616369F0
:103CE00043F040036361636943F0800363615223DF
:103CF000A360FFF7CDFBFFF7F9FA70BDB8170020FE
:103D00000014014070B506461A4D1B4C2C60284625
:103D1000FFF79EFE00220821272005F07DF82720CE
:103D200005F0AEF82A68D36843F01003D3606E60E4
:103D30000023AB60EB602B610C236B61284600F025
:103D4000F1FCE36843F00403E360236923F40063B8
:103D50002361636943F400636361636943F0400373
:103D60006361636943F080036361FFF7E1FBFFF781
:103D700001FB70BDAC1A00200048004010B50B4C90
:103D800001221021204601F02DFD0A20FFF71CFA28
:103D900000221021204601F025FD0A20FFF714FA29
:103DA00001221021204601F01DFD10BD000002403F
:103DB00008B500221349144805F026FB70B91349D1
:103DC000114805F038FB70B911490F4805F08EFD18
:103DD00070B90D4805F036FB78B908BD4C210D4887
:103DE000FFF754F9EBE750210A48FFF74FF9EBE7EB
:103DF00054210848FFF74AF9EBE758210548FFF737
:103E000045F9EAE768000020381D0020C4000020C2
:103E100058000020B0EC00080020704700207047D8
:103E200070B582B000238DF807300C68962C05D948
:103E30001D4A13780133DBB213709624A5B21B4ED2
:103E40002A4631461A4BD86F06F038FB2A463146CF
:103E5000184806F033FB302C06D9174BA3FB04346B
:103E6000C4F347148DF807409DF8073010495A1CD9
:103E700091F86C30134481F86C309DF807300F488E
:103E800041F633215A1C435C134443540C4C0749FC
:103E9000204605F03AFD204605F054FD10B140B231
:103EA00002B070BD0020FBE7140900205C1F002059
:103EB000CC730020748F0020ABAAAAAA387500200A
:103EC000381D002010B5064C00220649204605F09A
:103ED00014FD0549204605F018FD002010BD00BF67
:103EE000381D00205C2700205C1F0020094BD3F800
:103EF0001832D3F814320BB10120704710B50A46BE
:103F00000146044C204605F0F8FC204605F003FD70
:103F100010BD00BF381D0020044BD3F818321BB170
:103F2000D3F81402C0B2704701207047381D00203A
:103F30000368B3F1A04F00D0704730B589B00025B9
:103F40000195184C236B43F001032363236B03F0AB
:103F500001030193019B4FF4C05303930223049385
:103F60000595032306930A23079303A90E4801F03E
:103F700049FB636B43F0800363630295636C43F416
:103F800080436364636C03F480430293029B2A467C
:103F90002946432004F040FF432004F071FF09B09C
:103FA00030BD00BF003802400000024008B500F5F7
:103FB0007171D0F8040405F05EFA08BD08B5C1EBD4
:103FC000C10293000344D3F80822D0F8040405F09A
:103FD0007FFA08BD08B5C1EBC102930003449A6C97
:103FE000D0F8040405F0A9FA08BD08B5D0F8040417
:103FF00005F02CFB08BD10B50446C3684BB1012188
:10400000D4F8040405F010FBD4F8040405F0EDFA2C
:1040100010BD0021F4E7000010B50446D0F80404F8
:1040200005F005FB2268D2F8003E43F00103C2F818
:10403000003E236A23B1034A136943F00603136168
:1040400010BD00BF00ED00E008B5D0F8040405F095
:10405000F7FA08BD08B5D0F8040405F007FB08BD61
:1040600008B5D0F8040405F0FFFA08BD08B5D0F88B
:10407000040405F0FDFA08BD08B5D0F8040405F005
:10408000F9FA08BD03780BB10020704710B503465C
:104090001648C0F80434C3F820024FF0A043036070
:1040A000042343600222C260002303618261C36172
:1040B00003624362C362036301F088FD80B90B4C65
:1040C0008021204602F0BBFA40220021204602F067
:1040D00092FA80220121204602F08DFA002010BDC4
:1040E0004FF4AF710248FEF7D1FFE8E75C2F0020E4
:1040F00020ED0008D0F8203211F0800F08D101F037
:104100007F01C1EBC1018A00134493F8FE0170479F
:1041100001F07F01C1EBC1018A00134493F83E0016
:10412000704708B5D0F8200202F0BAF908BD18B1FE
:10413000022803D0022070470020704701207047FA
:1041400008B5D0F8200201F0CBFDFFF7F0FF08BD65
:1041500010B51C4613462246D0F8200202F0FAF8A9
:10416000FFF7E5FF10BD08B5D0F8200202F033F9E3
:10417000FFF7DDFF08BD08B5D0F8200202F0C3F953
:10418000FFF7D5FF08BD08B5D0F8200202F0FCF912
:10419000FFF7CDFF08BD08B5D0F8200202F0C6F841
:1041A000FFF7C5FF08BD08B5D0F8200202F081F97D
:1041B000FFF7BDFF08BD08B5D0F8200202F042F9B4
:1041C000FFF7B5FF08BD0000004870471809002040
:1041D0007047000012230B800048704784000020C5
:1041E00004230B800048704798000020002393426E
:1041F00016D230B40BE0373401F8134000015C00F4
:10420000013400250D550133DBB2934206D2040F71
:10421000092CF0D8303401F81340EFE730BC704778
:104220007047000038B50A4B186804331C68043323
:104230001B68C01800D138BD064D0822A91CFFF725
:10424000D5FF042205F112012046FFF7CFFFF2E768
:10425000107AFF1F9C00002008B51A230B80FFF77F
:10426000E1FF014808BD00BF9C00002008B50A46D8
:1042700028B10549054805F0AAF8034808BD0249D8
:10428000024805F0A4F8F8E764330020C0ED000808
:1042900010B5044C0A462146034805F098F820461C
:1042A00010BD00BF64330020ACED000808B50A461D
:1042B00028B10549054805F08AF8034808BD0249B8
:1042C000024805F084F8F8E76433002090ED000818
:1042D00008B50A4628B10549054805F078F80348AD
:1042E00008BD0249024805F072F8F8E7643300207F
:1042F0009CED00080F49D1F8883043F47003C1F8F1
:1043000088300D4B1A6842F001021A600020986054
:104310001A6822F0847222F480321A60074A5A60C6
:104320001A6822F480221A60D8604FF000638B6014
:10433000704700BF00ED00E000380240103000245C
:10434000224B9B6803F00C03042B14D0082B16D0CF
:104350001BB11F4B1F4A1A6002E01D4B1D4A1A6019
:104360001A4B9B68C3F303131B4AD15C184A1368AA
:10437000CB4013607047164B184A1A60F0E7134B96
:104380005A685B6803F03F0312F4800F13D0134A9E
:10439000B2FBF3F20D4B5B68C3F3881303FB02F32C
:1043A0000A4A5268C2F3014201325200B3FBF2F3EF
:1043B000074A1360D4E7074AB2FBF3F2034B5B688A
:1043C000C3F3881303FB02F3EAE700BF003802409F
:1043D000B80000200024F400D8ED0008001BB7004E
:1043E000DFF834D0002103E00C4B5B58435004311C
:1043F0000B480C4B42189A42F6D30B4A02E00023BA
:1044000042F8043B094B9A42F9D3FFF773FF0AF0D5
:104410000FFBFDF72DFE7047FFFF02208CF0000818
:10442000000000207408002078080020E4FD00202F
:10443000FEE7704710B504460E4B18784FF47A73B8
:10444000B3FBF0F30C4A1068B0FBF3F004F026FD68
:1044500068B90F2C01D901200AE0002221464FF053
:10446000FF3004F0D9FC054B1C60002000E0012067
:1044700010BD00BFBC000020B8000020C00000201C
:1044800008B50B4B1A6842F400721A601A6842F4BD
:1044900080621A601A6842F480721A60032004F085
:1044A000A9FC0F20FFF7C6FFFFF7C3FF002008BDE0
:1044B000003C0240034A1168034B1B780B44136015
:1044C000704700BF64350020BC000020014B186815
:1044D000704700BF6435002038B50446FFF7F6FF8B
:1044E0000546B4F1FF3F02D0044B1B781C44FFF794
:1044F000EDFF401BA042FAD338BD00BFBC00002036
:1045000008B338B5044603684CF6CC421A60036819
:1045100045F255521A60036842685A60036882681F
:104520009A60FFF7D3FF05462368DA6832B1FFF7D8
:10453000CDFF401B3028F7D9032003E04AF6AA221A
:104540001A60002038BD0120704703684AF6AA228D
:104550001A60002070470268D36823F0C003D3605C
:10456000012380F83D3070470268D36823F49073CC
:10457000D3600268536923F001035361012380F87B
:104580003D30704790F83D30DBB2122B2AD1836862
:10459000B3F5805F16D0436A5A1C42621A780368EA
:1045A0005A60438D013B9BB24385EBB90268D368E7
:1045B00023F08003D3600268D36843F04003D360E4
:1045C00000207047436A1B880268C3F308035360E6
:1045D00003691BB9436A02334362E2E7436A01336A
:1045E0004362DEE70220704700207047F8B50446BA
:1045F0000268D36823F00C03D36001680A6922F4CF
:104600007C528369C0690343206A0343E068034323
:10461000134343F400630B612168CA6822F4164215
:1046200022F00C02A368206903436069034313432B
:1046300043F40043CB602268536923F44073536111
:104640002368364A934236D002F58062934232D0D4
:1046500002F0F0FC00EB800000EB800065686D006C
:10466000B0FBF5F52E4EA6FB05356D092D0102F0C8
:10467000E1FC00EB800000EB800063685B00B0FBB6
:10468000F3F702F0D7FC00EB800000EB80006368DA
:104690005B00B0FBF3F3A6FB03235B09642000FB84
:1046A00013731B013233A6FB0323C3F343132268A6
:1046B0002B43936031E002F0CDFC00EB800000EB77
:1046C000800065686D00B0FBF5F5154EA6FB05355D
:1046D0006D092D0102F0BEFC00EB800000EB8000B4
:1046E00063685B00B0FBF3F702F0B4FC00EB800002
:1046F00000EB800063685B00B0FBF3F3A6FB0323D1
:104700005B09642000FB13731B013233A6FB0323F8
:10471000C3F3431322682B439360F8BD001001409C
:104720001F85EB5120B310B5044690F83D30D3B14E
:10473000022384F83D302046FFF758FF22681369B2
:1047400023F4804313612268536923F02A035361E1
:104750002268D36843F40053D3600020206401230F
:1047600084F83D3010BD80F83C30FFF771F9DFE789
:104770000120704738B590F83D40E4B2012C31D1AA
:10478000002931D0002A31D090F83C30012B2FD0B5
:1047900013460446012280F83C204162038543858C
:1047A00000250564122280F83D20426B1148D06339
:1047B000626B11481064626B1048D064626B1565BF
:1047C00022680432606B02F021F823686FF0400227
:1047D0001A6084F83C502268536943F080035361A7
:1047E000284600E0022038BD0120FCE70120FAE75E
:1047F0000220F8E7014800086D4800083F4A000819
:1048000008B5836B0268126812F4807F11D1002210
:104810005A8593F83D20D2B2122A0FD119684A69FD
:1048200022F080024A611A68D36843F04003D360E3
:1048300004E093F83D20D2B2122A00D008BD1846F9
:10484000FFF758F8FAE708B50168CA6822F0400295
:10485000CA6001684A6922F001024A61012280F8B7
:104860003D20FFF747F8002008BD704708B5806B72
:10487000FFF7FBFF08BD704708B590F83D30DBB28D
:10488000222B57D18368B3F5805F16D00369002BC4
:1048900031D103685A68C36A591CC1621A70438EC9
:1048A000013B9BB2438613B10368FF225A60438EDB
:1048B0009BB2002B28D000203DE0C26A036993B967
:1048C00003685B68C3F308031380C36A0233C362DF
:1048D000438E013B9BB24386002BE8D0036840F235
:1048E000FF125A60E3E703685B68DBB21380C36AB8
:1048F0000133C362ECE703685B68C26A511CC162A2
:1049000003F07F031370CAE70268D36823F0200323
:10491000D3600268D36823F48073D360026853695C
:1049200023F001035361012380F83D30FFF7A3FF1B
:10493000002000E0022008BD704708B590F83D3027
:10494000DBB2322B79D1438D9BB2CBB103681A68AD
:1049500012F0800F14D08268B2F5805F2ED0426AC8
:10496000511C416212785A60438D013B9BB24385D2
:10497000438D9BB223B90268D36823F08003D360D0
:10498000438E9BB2A3B103681A6812F0200F0FD0B8
:104990008268B2F5805F20D00269002A2FD15A6860
:1049A000C36A591CC1621A70438E013B9BB2438695
:1049B000438E9BB2002B2AD000203FE0426A12882F
:1049C000C2F308025A6003691BB9436A02334362A7
:1049D000CAE7436A01334362C6E7C16A02693AB96A
:1049E0005B68C3F308030B80C36A0233C362DBE76F
:1049F0005B68DBB20B80C36A0133C362D4E75B68D8
:104A0000C26A511CC16203F07F031370CCE70268D5
:104A1000D36823F02003D3600268D36823F4807343
:104A2000D3600268536923F001035361012380F8C6
:104A30003D30FFF781FF002000E0022008BD10B5E7
:104A4000846B00236386638523685A6994F83D303C
:104A5000DBB2122B13D023685A6902F0400294F89B
:104A60003D30DBB2222B12D0236C43F010032364C1
:104A7000012384F83D302046FEF7A6FF10BD02F06A
:104A80008002002AE7D02046FFF765FDE3E7002A11
:104A9000EAD02046FFF768FDE6E7000010B50446BF
:104AA00002681368D168526913F00F0012D113F035
:104AB000200F0FD011F0200F0CD094F83D30DBB256
:104AC000222B03D02046FFF738FF8AE02046FFF76D
:104AD000D3FE86E000286BD012F0010202D111F45F
:104AE000907F65D013F0010F06D011F4807F03D0C2
:104AF000206C40F00100206413F0040F04D01AB1C0
:104B0000206C40F00200206413F0020F04D01AB1B0
:104B1000206C40F00400206413F0080F04D01AB198
:104B2000226C42F008022264226C002A59D013F051
:104B3000200F0AD011F0200F07D094F83D30DBB2DF
:104B4000222B23D02046FFF7F8FE23685B6903F091
:104B50004003226C12F0080F00D11BB32046FFF770
:104B600003FD23685A6912F0400F17D05A6922F0EA
:104B700040025A61A36B6BB11C4A1A65A06B01F02D
:104B80007FFE70B3A06B036D98472AE02046FFF7C5
:104B900073FEDAE72046FEF717FF22E02046FEF715
:104BA00013FF1EE02046FEF70FFF0023236418E0EA
:104BB00013F0800F0FD011F0800F0CD094F83D301F
:104BC000DBB2122B03D02046FFF7B7FE09E02046E8
:104BD000FFF7D8FC05E013F0400F02D011F0400FB2
:104BE00000D110BD2046FFF72EFEFAE7F14B00087A
:104BF00008B5806B002343864385FEF7E5FE08BDBC
:104C0000F8B505460F4616461C462B689B6837EAE2
:104C100003030CBF01230023B34237D0B4F1FF3F9D
:104C2000F3D0FFF753FC069BC01AA04201D2002C20
:104C3000EBD12A68536823F0E00353606B68B3F547
:104C4000827F0BD0AB6AB3F5005F14D0012385F8E7
:104C50005130002385F85030032018E0AB68B3F5DD
:104C6000004F02D0B3F5806FECD12A68136823F0AF
:104C700040031360E6E72A68136823F400531360C7
:104C80002A68136843F400531360DFE70020F8BD7F
:104C900010B582B0044600920B4600228021FFF737
:104CA000AFFF034610B9184602B010BD636D43F064
:104CB000200363650323F6E700283BD010B50446C4
:104CC0000023836290F85130002B2ED0022384F809
:104CD00051302268136823F0400313606368A268B0
:104CE0001343E26813432269134362691343A269C1
:104CF00002F400721343E2691343226A1343A16A68
:104D000022680B431360638B03F00403616A22681B
:104D10000B4353602268D36923F40063D3610020FE
:104D20006065012384F8513010BD80F85030FDF7E4
:104D3000A5FFCBE70120704730B490F85040012C1C
:104D400054D0012480F8504090F85140E4B24568B6
:104D5000012C10D0B5F5827F06D00223002280F806
:104D60005020184630BC70478568002D34D1042C83
:104D700001D00223F2E7002930D0002A30D0002BE6
:104D800030D090F85140E4B2042C02D0052480F8D1
:104D900051400024446501638386C3868263838710
:104DA000C387C3689BB1124B0364124B4364026810
:104DB000536843F0E003536003681A6812F0400F31
:104DC00012D11A6842F040021A600023C6E70A4B6B
:104DD00003640A4B4364EAE70223BFE70123BDE70C
:104DE0000123BBE70123B9E70023B7E70223B8E7B4
:104DF000574F0008214F0008EB4E0008B54E000841
:104E00007047704710B582B00446284B1B68284A8B
:104E1000A2FB03235B0A642202FB03F30193FFF767
:104E200055FB024621684B6823F020034B60019B31
:104E300043B1019B013B019323689B6813F0020F70
:104E4000F5D003E0636D43F02003636564212046E1
:104E5000FFF71EFF18B1636D43F020036365A3687D
:104E600033B900932368DA6800929B680093009B33
:104E7000636D9BB994F85130DBB2042B07D001234A
:104E800084F851302046FFF7BCFF02B010BD01236B
:104E900084F851302046FFF7B3FFF6E7012384F88A
:104EA00051302046FDF722FEEFE700BFB80000209A
:104EB000F119760508B5026B036812781A73036B53
:104EC00001330363C38E013B9BB2C386C38E9BB287
:104ED0003BB90268536823F080035360C38F9BB2D1
:104EE00003B108BDFFF78EFFFBE708B50268836BCF
:104EF000127B1A70836B01338363C38F013B9BB2B8
:104F0000C387C38F9BB23BB90268536823F0600329
:104F10005360C38E9BB203B108BDFFF773FFFBE77D
:104F200008B5026B03681288DA60036B023303630F
:104F3000C38E013B9BB2C386C38E9BB23BB9026852
:104F4000536823F080035360C38F9BB203B108BD45
:104F5000FFF758FFFBE708B50368DA68836B1A8030
:104F6000836B02338363C38F013B9BB2C387C38FC1
:104F70009BB23BB90268536823F040035360C38E71
:104F80009BB203B108BDFFF73DFFFBE730B585B02D
:104F90000446026850689368C3F3801149B913F05E
:104FA000010F06D010F0400F03D0236C2046984725
:104FB00008E013F0020F07D010F0800F04D0636CEC
:104FC0002046984705B030BDC3F340151DB911B94F
:104FD00013F4807FF6D010F0200FF3D079B194F85D
:104FE0005110C9B2032953D0616D41F004016165CC
:104FF00000210091D168009191680091009965B1FC
:10500000616D41F001016165002102919168029199
:10501000116821F040011160029A13F4807F09D0D9
:10502000636D43F0080363650023039323689B6863
:105030000393039B636D002BC4D02268536823F055
:10504000E0035360012384F8513010F0030F27D0A0
:105050002268536823F003035360E36C4BB1124A98
:105060001A65E06C01F00CFC18B1636D43F040036D
:105070006365A36C002BA5D00B4A1A65A06C01F0E8
:10508000FFFB00289ED0636D43F04003636599E702
:1050900000230193D368019393680193019B91E7E7
:1050A0002046FDF723FD8DE7AD50000808B5806B65
:1050B0000023C387C386FDF719FD08BD4A4B5A6814
:1050C00022F440325A605A6841680A435A600268C2
:1050D000536823F48073536002685368016943EA9C
:1050E000012353600268536823F0407353600268E1
:1050F000536881680B4353600268936823F400632C
:10510000936002689368C1680B439360826A374B6F
:105110009A424BD00268936823F0706393600268F0
:105120009368816A0B4393600268936823F040534D
:10513000936002689368C16A0B4393600268936846
:1051400023F00203936002689368017E43EA4103FF
:10515000936090F82030002B33D10268536823F419
:10516000006353600268D36A23F47003D36201685A
:10517000CB6AC269013A43EA0253CB620268936880
:1051800023F4007393600268936890F8301043EA48
:10519000412393600268936823F4806393600268FC
:1051A0009368416943EA812393607047026893687A
:1051B00023F0706393600268936823F04053936018
:1051C000BCE70268536843F40063536002685368A5
:1051D00023F46043536001684B68426A013A43EA32
:1051E00042334B60BEE700BF002301400100000FC7
:1051F000704738B310B50446036C43B1236C13F009
:10520000100F0BD00120002384F83C3010BDFFF7B5
:10521000EFFF0023636484F83C30EFE7236C23F452
:10522000885323F0020343F0020323642046FFF770
:1052300045FF00206064236C23F0030343F0010367
:105240002364E0E70120704730B583B00023019369
:1052500090F83C30012B00F09B80012380F83C301B
:105260000468A36813F0010F13D1A36843F001038E
:10527000A3604D4B1C684D4BA3FB0434A40C04EB02
:105280004404019402E0019C013C0194019C002C27
:10529000F9D103689C6814F0010F7BD0046C24F4EE
:1052A000E06424F0010444F4807404645B6813F443
:1052B000806F05D0036C23F4405343F480530364A0
:1052C000036C13F4805F38D0436C23F0060343640F
:1052D00013460446002280F83C20826B3448D06399
:1052E000A26B34481064A26B3348D06422686FF01C
:1052F000220010602568686840F08060686025685A
:10530000A86840F48070A86020680A4600F14C014B
:10531000A06B01F07BFA294B5B6813F01F0F27D1BC
:105320002368274A934219D002F58072934207D02E
:10533000244A93420BD000202DE000234364C7E7AA
:1053400002F50072526812F01F0F07D0F0E702F565
:105350008072526802F01F020F2A1ED89A6812F05B
:10536000405F1CD19A6842F080429A60002012E0AF
:105370002368134A934201D000200CE09A6812F08F
:10538000405F0ED19A6842F080429A60002002E0AD
:10539000022000E0002003B030BD0020FBE7002029
:1053A000F9E70020F7E700BFB800002083DE1B43C9
:1053B000ED530008CB530008D753000800230140E9
:1053C0000020014000220140704708B5806BFFF7C4
:1053D000FBFF08BD704708B5806B40230364436C36
:1053E00043F004034364FFF7F5FF08BD08B5836B82
:1053F0001A6C12F0500F26D11A6C42F400721A6423
:105400001A68916811F0405F19D1197EB9B9D16A53
:1054100011F4700F03D0916811F4806F0FD15168AF
:1054200021F0200151601A6C22F480721A641A6C07
:1054300012F4805F03D11A6C42F001021A6418461C
:10544000FCF78AF808BD1A6C12F0100F03D19B6BA1
:10545000DB6C9847F6E71846FFF7BCFFF2E7000061
:1054600030B482B00023019390F83C30012B00F05F
:10547000BD80012380F83C300B68092B3ED90568BC
:10548000EA689BB203EB43031E3B072404FA03F3D1
:1054900022EA0303EB600568EA688C680B8803EB7B
:1054A00043031E3B04FA03F31343EB604B68062BE4
:1054B0003AD805686A6B03EB8303053B1F2404FAA3
:1054C00003F322EA03036B6305686A6B4B6803EB23
:1054D0008303053B0C8804FA03F313436B630268F0
:1054E000434B9A4250D00268414B9A4259D0002314
:1054F00080F83C30184602B030BC704705682A6915
:105500009BB203EB4303072404FA03F322EA0303E9
:105510002B6105682A698C680B8803EB430304FA46
:1055200003F313432B61C1E70C2B16D805682A6BD4
:1055300003EB8303233B1F2404FA03F322EA030350
:105540002B6305682A6B4B6803EB8303233B0C88B2
:1055500004FA03F313432B63C1E70568EA6A03EB1C
:105560008303413B1F2404FA03F322EA0303EB62A3
:105570000568EA6A4B6803EB8303413B0C8804FA35
:1055800003F31343EB62AAE70B68122BABD1194B61
:105590005A6822F400025A605A6842F480025A6043
:1055A000A1E70B68144A934201D0112B9FD1114BF4
:1055B0005A6822F480025A605A6842F400025A6023
:1055C0000A680D4B9A4292D10C4B1B680C4AA2FB05
:1055D00003239B0C03EB83035A00019202E0019B1F
:1055E000013B0193019B002BF9D180E7022082E768
:1055F000002001400023014012000010B8000020EC
:1056000083DE1B4300230F2B00F2E380F0B482B053
:1056100039E0092200E00022B2403A4302346D4EE4
:1056200046F824206C4A1468EA4302EA04064F68EC
:1056300017F4803F01D045EA0406674C2660646891
:1056400002EA04064F6817F4003F01D045EA040659
:10565000614C6660A46802EA04064F6817F4801F74
:1056600001D045EA04065C4CA660E46822404E681E
:1056700016F4001F01D045EA0402574CE2600133E2
:105680000F2B00F2A38001229A400C6804EA020565
:10569000AA42F4D14C68022C01D0122C10D1DE08A1
:1056A000083650F826C003F00704A7000F24BC40BA
:1056B0002CEA040C0C69BC4044EA0C0440F8264077
:1056C00004685F000326BE40F64306EA040C4C68FB
:1056D00004F00304BC4044EA0C0404604C6804F188
:1056E000FF3CBCF1010F03D9112C01D0122C10D1B9
:1056F000846806EA040CCC68BC4044EA0C0484606C
:10570000446824EA02024C68C4F300149C40144329
:105710004460C26816408A68BA403243C2604A6830
:1057200012F0805FABD0002201922C4A546C44F4FA
:1057300080445464526C02F480420192019A9C08A5
:10574000A61C244A52F8267003F0030296000F228A
:10575000B24027EA0207224A90423FF45CAF02F5CA
:105760008062904222D002F58062904220D002F501
:10577000806290421ED002F5806290421CD002F5F9
:10578000806290421AD002F58062904218D002F5F1
:105790008062904216D002F58062904214D002F5E9
:1057A000806290423FF435AF0A2235E7012233E7A9
:1057B000022231E703222FE704222DE705222BE7FF
:1057C000062229E7072227E7082225E702B0F0BCD6
:1057D0007047704700380140003C014000380240EB
:1057E0000000024012B9090481617047816170476D
:1057F00008B5054B5B69034200D108BD024B5861F7
:10580000FDF726F9F9E700BF003C0140022380F8CC
:105810003D300268936803F00703062B03D013683A
:1058200043F001031360012380F83D3000207047EE
:105830007047704770477047704710B5044603685B
:105840001A6912F0020F11D0DA6812F0020F0DD0AF
:105850006FF002021A610123037703689B6913F05A
:10586000030F70D0FFF7E6FF0023237723681A6940
:1058700012F0040F12D0DA6812F0040F0ED06FF09D
:1058800004021A610223237723689B6913F4407F83
:105890005FD02046FFF7CEFF0023237723681A69E5
:1058A00012F0080F12D0DA6812F0080F0ED06FF065
:1058B00008021A61042323772368DB6913F0030FBE
:1058C0004ED02046FFF7B6FF0023237723681A69DE
:1058D00012F0100F12D0DA6812F0100F0ED06FF025
:1058E00010021A61082323772368DB6913F4407FD1
:1058F0003DD02046FFF79EFF0023237723681A69D7
:1059000012F0010F03D0DA6812F0010F36D12368CC
:105910001A6912F0800F03D0DA6812F0800F34D1C8
:1059200023681A6912F0400F03D0DA6812F0400FB2
:1059300032D123681A6912F0200F03D0DA6812F00E
:10594000200F30D110BDFFF774FF2046FFF773FF23
:105950008AE72046FFF76DFF2046FFF76CFF9BE7C5
:105960002046FFF766FF2046FFF765FFACE72046BD
:10597000FFF75FFF2046FFF75EFFBDE76FF0010214
:105980001A612046FFF754FFC1E76FF080021A61E9
:10599000204600F0B0F8C3E76FF040021A612046DD
:1059A000FFF74AFFC5E76FF020021A61204600F0BA
:1059B000A1F8C7E70368304A904212D0B0F1804F97
:1059C0000FD0A2F57C4290420BD002F5806290424B
:1059D00007D002F58062904203D002F578429042EF
:1059E00003D123F070034A681343234A90422AD01C
:1059F000B0F1804F27D0A2F57C42904223D002F52F
:105A0000806290421FD002F5806290421BD002F566
:105A10007842904217D002F57052904213D002F5AE
:105A2000806290420FD002F5806290420BD0A2F5C6
:105A30009832904207D002F58062904203D002F57E
:105A40008062904203D123F44073CA68134323F069
:105A500080034A69134303608B68C3620B688362E7
:105A6000054B984203D003F58063984201D10B693E
:105A7000036301234361704700000140A8B110B5E2
:105A8000044690F83D305BB1022384F83D30211D7F
:105A90002068FFF78FFF012384F83D30002010BD00
:105AA00080F83C30FDF7A8FBEEE70120704790F846
:105AB0003C30012B1CD070B4012680F83C600223DE
:105AC00080F83D3002685568936825F070050C68D1
:105AD0002C4323F080054B682B435460026893608D
:105AE00080F83D60002380F83C30184670BC704759
