:020000040800F2
:10000000FFFF0720914A0008E9260008F5260008AE
:10001000012700080D27000819270008000000002C
:10002000000000000000000000000000252700087C
:1000300031270008000000003D2700089125000836
:10004000E14A0008E14A0008E14A0008E14A0008E4
:10005000E14A0008E14A0008E14A0008E14A0008D4
:10006000E14A0008E14A0008E14A0008A524000826
:10007000BD240008C9240008D5240008E124000894
:100080004925000855250008E14A0008E14A000812
:10009000E14A0008E14A0008E14A0008ED240008AE
:1000A000E14A0008E14A0008E14A0008E14A000884
:1000B000E14A0008E14A0008E14A00087925000801
:1000C000E14A0008E14A0008E14A0008E14A000864
:1000D000E14A0008B1380008053900084539000830
:1000E000E14A0008E14A0008E14A0008E14A000844
:1000F000E14A0008E14A0008E14A0008B12400088A
:10010000E14A0008E14A0008E14A0008E14A000823
:1001100085390008E14A0008E14A0008E14A000880
:10012000F5240008012500080D250008E14A000813
:1001300019250008E14A0008E14A0008E14A0008E0
:10014000E14A0008E14A0008E14A000825250008C4
:10015000E14A0008312500083D250008C53900089E
:10016000612500086D250008E14A0008E14A000801
:10017000E14A0008E14A0008E14A0008E14A0008B3
:10018000E14A0008E14A0008E14A0008E14A0008A3
:1001900085250008E14A0008E14A0008E14A000814
:1001A000E14A0008E14A0008E14A0008E14A000883
:1001B000E14A0008E14A0008E14A0008E14A000873
:1001C000E14A0008E14A000800000000E14A000896
:1001D000E14A0008E14A0008E14A0008E14A000853
:1001E000E14A0008E14A0008E14A0008E14A000843
:0801F000E14A0008E14A0008A1
:1002000010B5054C237833B9044B13B10448AFF350
:1002100000800123237010BDE00D002000000000CD
:100220008424010808B5034B1BB103490348AFF30D
:10023000008008BD00000000E40D002084240108B7
:1002400081F0004102E000BF83F0004330B54FEA87
:1002500041044FEA430594EA050F08BF90EA020FF4
:100260001FBF54EA000C55EA020C7FEA645C7FEA87
:10027000655C00F0E2804FEA5454D4EB5555B8BFAA
:100280006D420CDD2C4480EA020281EA030382EA1B
:10029000000083EA010180EA020281EA0303362DAD
:1002A00088BF30BD11F0004F4FEA01314FF4801C80
:1002B0004CEA113102D0404261EB410113F0004F92
:1002C0004FEA03334CEA133302D0524263EB430349
:1002D00094EA050F00F0A780A4F10104D5F1200EE7
:1002E0000DDB02FA0EFC22FA05F2801841F1000142
:1002F00003FA0EF2801843FA05F359410EE0A5F116
:1003000020050EF1200E012A03FA0EFC28BF4CF046
:10031000020C43FA05F3C01851EBE37101F00045FC
:1003200007D54FF0000EDCF1000C7EEB00006EEB09
:100330000101B1F5801F1BD3B1F5001F0CD3490893
:100340005FEA30004FEA3C0C04F101044FEA4452EA
:1003500012F5800F80F09A80BCF1004F08BF5FEA71
:10036000500C50F1000041EB045141EA050130BD51
:100370005FEA4C0C404141EB010111F4801FA4F1F4
:100380000104E9D191F0000F04BF01460020B1FA49
:1003900081F308BF2033A3F10B03B3F120020CDA81
:1003A0000C3208DD02F1140CC2F10C0201FA0CF05F
:1003B00021FA02F10CE002F11402D8BFC2F1200CC4
:1003C00001FA02F120FA0CFCDCBF41EA0C0190407A
:1003D000E41AA2BF01EB0451294330BD6FEA0404C3
:1003E0001F3C1CDA0C340EDC04F11404C4F12002AE
:1003F00020FA04F001FA02F340EA030021FA04F3C0
:1004000045EA030130BDC4F10C04C4F1200220FA16
:1004100002F001FA04F340EA0300294630BD21FA54
:1004200004F0294630BD94F0000F83F4801306BF1A
:1004300081F480110134013D4EE77FEA645C18BF0E
:100440007FEA655C29D094EA050F08BF90EA020FA5
:1004500005D054EA000C04BF1946104630BD91EA9D
:10046000030F1EBF0021002030BD5FEA545C05D1A0
:100470004000494128BF41F0004130BD14F58004DF
:100480003CBF01F5801130BD01F0004545F0FE4153
:1004900041F470014FF0000030BD7FEA645C1ABF88
:1004A000194610467FEA655C1CBF0B46024650EABF
:1004B000013406BF52EA033591EA030F41F40021EB
:1004C00030BD00BF90F0000F04BF0021704730B571
:1004D0004FF4806404F132044FF000054FF0000146
:1004E00050E700BF90F0000F04BF0021704730B507
:1004F0004FF4806404F1320410F0004548BF4042DC
:100500004FF000013EE700BF42004FEAE2014FEA30
:1005100031014FEA02701FBF12F07F4393F07F4F0B
:1005200081F06051704732F07F4208BF704793F00E
:100530007F4F04BF41F40021704730B54FF4607421
:1005400001F0004521F000411CE700BF50EA010224
:1005500008BF704730B54FF000050AE050EA0102CD
:1005600008BF704730B511F0004502D5404261EB3D
:1005700041014FF4806404F132045FEA915C3FF47E
:10058000D8AE4FF003025FEADC0C18BF03325FEA1B
:10059000DC0C18BF033202EBDC02C2F1200300FACC
:1005A00003FC20FA02F001FA03FE40EA0E0021FAF1
:1005B00002F11444BDE600BF70B54FF0FF0C4CF4DF
:1005C000E06C1CEA11541DBF1CEA135594EA0C0F91
:1005D00095EA0C0F00F0DEF82C4481EA030621EACC
:1005E0004C5123EA4C5350EA013518BF52EA033507
:1005F00041F4801143F4801338D0A0FB02CE4FF0B9
:100600000005E1FB02E506F00042E0FB03E54FF0E8
:100610000006E1FB03569CF0000F18BF4EF0010EE0
:10062000A4F1FF04B6F5007F64F5407404D25FEADC
:100630004E0E6D4146EB060642EAC62141EA55518F
:100640004FEAC52040EA5E504FEACE2EB4F1FD0CD1
:1006500088BFBCF5E06F1ED8BEF1004F08BF5FEA4F
:10066000500E50F1000041EB045170BD06F0004601
:1006700046EA010140EA020081EA0301B4EB5C04AE
:10068000C2BFD4EB0C0541EA045170BD41F48011A6
:100690004FF0000E013C00F3AB8014F1360FDEBFCB
:1006A000002001F0004170BDC4F10004203C35DAA7
:1006B0000C341BDC04F11404C4F1200500FA05F32A
:1006C00020FA04F001FA05F240EA020001F00042CB
:1006D00021F0004110EBD37021FA04F642EB060141
:1006E0005EEA430E08BF20EAD37070BDC4F10C046B
:1006F000C4F1200500FA04F320FA05F001FA04F22F
:1007000040EA020001F0004110EBD37041F100011A
:100710005EEA430E08BF20EAD37070BDC4F1200525
:1007200000FA05F24EEA020E20FA04F301FA05F28D
:1007300043EA020321FA04F001F0004121FA04F235
:1007400020EA020000EBD3705EEA430E08BF20EA05
:10075000D37070BD94F0000F0FD101F0004640003F
:1007600041EB010111F4801F08BF013CF7D041EAC1
:10077000060195F0000F18BF704703F000465200C5
:1007800043EB030313F4801F08BF013DF7D043EA96
:100790000603704794EA0C0F0CEA135518BF95EA4C
:1007A0000C0F0CD050EA410618BF52EA4306D1D1D3
:1007B00081EA030101F000414FF0000070BD50EAF2
:1007C000410606BF1046194652EA430619D094EA7C
:1007D0000C0F02D150EA013613D195EA0C0F05D166
:1007E00052EA03361CBF104619460AD181EA0301BA
:1007F00001F0004141F0FE4141F470014FF0000072
:1008000070BD41F0FE4141F4780170BD70B54FF00C
:10081000FF0C4CF4E06C1CEA11541DBF1CEA13558C
:1008200094EA0C0F95EA0C0F00F0A7F8A4EB05046E
:1008300081EA030E52EA03354FEA013100F0888065
:100840004FEA03334FF0805545EA131343EA12632E
:100850004FEA022245EA111545EA10654FEA0026E3
:100860000EF000419D4208BF964244F1FD0404F59C
:10087000407402D25B084FEA3202B61A65EB0305F8
:100880005B084FEA32024FF480104FF4002CB6EBB5
:10089000020E75EB030E22BFB61A754640EA0C0035
:1008A0005B084FEA3202B6EB020E75EB030E22BF75
:1008B000B61A754640EA5C005B084FEA3202B6EBB6
:1008C000020E75EB030E22BFB61A754640EA9C0075
:1008D0005B084FEA3202B6EB020E75EB030E22BF45
:1008E000B61A754640EADC0055EA060E18D04FEA03
:1008F000051545EA16754FEA06164FEAC30343EAA3
:1009000052734FEAC2025FEA1C1CC0D111F4801F6F
:100910000BD141EA00014FF000004FF0004CB6E768
:1009200011F4801F04BF01430020B4F1FD0C88BF07
:10093000BCF5E06F3FF6AFAEB5EB030C04BFB6EB12
:10094000020C5FEA500C50F1000041EB045170BD05
:100950000EF0004E4EEA113114EB5C04C2BFD4EB32
:100960000C0541EA045170BD41F480114FF0000EB6
:10097000013C90E645EA060E8DE60CEA135594EA32
:100980000C0F08BF95EA0C0F3FF43BAF94EA0C0F35
:100990000AD150EA01347FF434AF95EA0C0F7FF4AA
:1009A00025AF104619462CE795EA0C0F06D152EAFE
:1009B00003353FF4FDAE1046194622E750EA4106E2
:1009C00018BF52EA43067FF4C5AE50EA41047FF4F3
:1009D0000DAF52EA43057FF4EBAE12E753B94AB9C3
:1009E000002908BF00281CBF4FF0FF314FF0FF3037
:1009F00000F072B9ADF1080C6DE904CE00F006F814
:100A0000DDF804E0DDE9022304B070472DE9F0478A
:100A1000089E04468846002B4BD18A42154667D96A
:100A2000B2FA82F24AB1C2F1200701FA02F320FAC7
:100A300007F7954047EA030894404FEA154E230C08
:100A4000B8FBFEF71FFA85FC0EFB178843EA084344
:100A500007FB0CF1994209D9EB1807F1FF3080F040
:100A60001B81994240F21881023F2B445B1AA4B2C9
:100A7000B3FBFEF00EFB103344EA034400FB0CFC16
:100A8000A44509D92C1900F1FF3380F00781A44552
:100A900040F2048102382C4440EA0740A4EB0C04E5
:100AA00000271EB1D4400023C6E900433946BDE803
:100AB000F0878B4209D9002E00F0EB800027C6E9B1
:100AC000000138463946BDE8F087B3FA83F7002FB6
:100AD00047D18B4202D3824200F2FA80841A61EB42
:100AE000030301209846002EE0D0C6E90048DDE768
:100AF00002B9FFDEB2FA82F2002A40F08F80491B71
:100B00004FEA154E1FFA85F80127B1FBFEFC230CB6
:100B10000EFB1C1143EA014308FB0CF1994207D973
:100B2000EB180CF1FF3002D2994200F2CD808446DE
:100B3000591AA3B2B1FBFEF00EFB101443EA0444B1
:100B400008FB00F8A04507D92C1900F1FF3302D2A9
:100B5000A04500F2B6801846A4EB080440EA0C4019
:100B60009FE7C7F1200CBB4022FA0CFE4EEA030EB1
:100B700001FA07F420FA0CF521FA0CF34FEA1E48AB
:100B80002543B3FBF8F92C0C08FB19331FFA8EFA36
:100B900044EA034309FB0AF49C4202FA07F200FA12
:100BA00007F10BD91EEB030309F1FF3080F08780BA
:100BB0009C4240F28480A9F1020973441B1BADB230
:100BC000B3FBF8F008FB103345EA034400FB0AFAD4
:100BD000A24508D91EEB040400F1FF336BD2A245F5
:100BE00069D90238744440EA0940A0FB0289A4EBA9
:100BF0000A044C45C2464B4654D351D0002E69D00E
:100C0000B1EB0A0564EB030404FA0CFCFD40FC4064
:100C10004CEA0505C6E90054002747E7C2F1200366
:100C200020FA03F7954001FA02F021FA03F34FEAA4
:100C3000154E3843010CB3FBFEF71FFA85F80EFB87
:100C4000173341EA034107FB08F38B4204FA02F42D
:100C500007D9691807F1FF3C2FD28B422DD9023FEB
:100C60002944CB1A81B2B3FBFEF00EFB103341EAEC
:100C7000034100FB08F38B4207D9691800F1FF3CE0
:100C800017D28B4215D902382944C91A40EA0747BE
:100C90003BE73746304609E70746E7E61846FBE6F6
:100CA0004145ABD2B8EB020A69EB0E02013813469C
:100CB000A4E76046E9E7184695E76746D1E781462D
:100CC0007CE702382C4447E7ACF1020C2B442FE7B9
:100CD000384608E73746E9E6704700BF844641EAF0
:100CE000000313F003036DD1403A41D351F8043BA4
:100CF00040F8043B51F8043B40F8043B51F8043BF6
:100D000040F8043B51F8043B40F8043B51F8043BE5
:100D100040F8043B51F8043B40F8043B51F8043BD5
:100D200040F8043B51F8043B40F8043B51F8043BC5
:100D300040F8043B51F8043B40F8043B51F8043BB5
:100D400040F8043B51F8043B40F8043B51F8043BA5
:100D500040F8043B51F8043B40F8043B51F8043B95
:100D600040F8043B51F8043B40F8043B403ABDD204
:100D7000303211D351F8043B40F8043B51F8043BA6
:100D800040F8043B51F8043B40F8043B51F8043B65
:100D900040F8043B103AEDD20C3205D351F8043B35
:100DA00040F8043B043AF9D2043208D0D2071CBF01
:100DB00011F8013B00F8013B01D30B88038060462A
:100DC000704700BF082A13D38B078DD010F00303A0
:100DD0008AD0C3F10403D21ADB071CBF11F8013B10
:100DE00000F8013B80D331F8023B20F8023B7BE75F
:100DF000043AD9D3013A11F8013B00F8013BF9D28A
:100E00000B7803704B7843708B7883706046704723
:100E100000000000000000000000000000000000D2
:100E200000000000000000000000000000000000C2
:100E300000000000000000000000000000000000B2
:100E400090F800F06DE9024520F007016FF0000C0A
:100E500010F0070491F820F040F049804FF00004B2
:100E60006FF00700D1E9002391F840F000F108008D
:100E700082FA4CF2A4FA8CF283FA4CF3A2FA8CF3C5
:100E80004BBBD1E9022382FA4CF200F10800A4FA2C
:100E90008CF283FA4CF3A2FA8CF3E3B9D1E9042380
:100EA00082FA4CF200F10800A4FA8CF283FA4CF3B7
:100EB000A2FA8CF37BB9D1E9062301F1200182FA71
:100EC0004CF200F10800A4FA8CF283FA4CF3A2FA77
:100ED0008CF3002BC6D0002A04BF04301A4612BA85
:100EE000B2FA82F2FDE8024500EBD2007047D1E988
:100EF000002304F00305C4F100004FEAC50514F017
:100F0000040F91F840F00CFA05F562EA05021CBFE7
:100F100063EA050362464FF00004A9E70000000001
:100F200001F0FF01102A2BDB10F0070F08D010F89A
:100F3000013B013A8B422DD010F0070F42B3F6D19E
:100F4000F0B441EA012141EA014122F007047FF0B7
:100F500000070023F0E80256083C85EA010586EA0E
:100F6000010685FA47F5A3FA87F586FA47F6A5FA4A
:100F700087F68EB9EED1F0BC01F0FF0102F0070256
:100F800032B110F8013B013A83EA010313B1F8D101
:100F90000020704701387047002D06BF35460338E2
:100FA000073815F0010F07D1013015F4807F02BF1B
:100FB000013015F4C03F0130F0BC0138704700BF6C
:100FC0004FF0FF3C06E000BF4FF0010C02E000BF15
:100FD0004FF0010C4DF804CD4FEA410C7FEA6C5CF8
:100FE0004FEA430C18BF7FEA6C5C1BD001B050EA9B
:100FF000410C0CBF52EA430C91EA030F02BF90EA86
:10100000020F0020704710F1000F91EA030F58BF44
:10101000994208BF90422CBFD8176FEAE37040F0A6
:10102000010070474FEA410C7FEA6C5C02D150EA44
:10103000013C07D14FEA430C7FEA6C5CD6D152EAFF
:10104000033CD3D05DF8040B704700BF84461046C4
:1010500062468C461946634600E000BF01B5FFF7C3
:10106000B7FF002848BF10F1000F01BD4DF808ED93
:10107000FFF7F4FF0CBF012000205DF808FB00BF64
:101080004DF808EDFFF7EAFF34BF012000205DF8BE
:1010900008FB00BF4DF808EDFFF7E0FF94BF01200B
:1010A00000205DF808FB00BF4DF808EDFFF7CEFF0C
:1010B00094BF012000205DF808FB00BF4DF808ED4B
:1010C000FFF7C4FF34BF012000205DF808FB00BF1C
:1010D0004FEA410C7FEA6C5C02D150EA013C0AD134
:1010E0004FEA430C7FEA6C5C02D152EA033C02D126
:1010F0004FF0000070474FF0010070474FEA410287
:1011000012F5001215D211D56FF47873B3EB625259
:1011100012D94FEAC12343F0004343EA505311F080
:10112000004F23FA02F018BF404270474FF0000012
:10113000704750EA013005D111F0004008BF6FF050
:10114000004070474FF00000704700BF08B50146EF
:10115000862003F0D9F908B1002008BD43F2390117
:10116000872003F0D1F9B0FA80F0400908BD00BF34
:1011700000B583B00023862002A9ADF8043021F821
:10118000023D03F0B7F818B1002003B05DF804FB8E
:1011900001A9872003F0AEF803460028F4D1BDF87A
:1011A000041043F23902914207D1064B0120BDF8E9
:1011B00006201A8003B05DF804FB024A0220138067
:1011C000E3E700BFFE0D0020014B1888704700BF09
:1011D000FE0D002008B581B2922003F095F908B108
:1011E000002008BD45F6A031932003F08DF9B0FA38
:1011F00080F0400908BD00BF00B583B000239220F5
:1012000002A9ADF8043021F8023D03F073F818B1DB
:10121000002003B05DF804FB01A9932003F06AF8F5
:1012200003460028F4D1BDF8041045F6A0329142DF
:1012300007D1064B0120BDF806201A7003B05DF8F7
:1012400004FB024A02201370E3E700BFFC0D0020FC
:10125000014B93F900007047FC0D002084B070B57D
:1012600004AC84E80F008A209DF81A10BDF81040E5
:10127000059DBDF8186003F047F920B10020BDE8D6
:10128000704004B0704721468B2003F03DF90028E0
:10129000F4D1290C8C2003F037F90028EED1A9B243
:1012A0008D2003F031F90028E8D131468E2003F07B
:1012B0002BF90028E2D144F283318F2003F024F986
:1012C000B0FA80F04009DAE7F0B58FB000238A2049
:1012D00006A90793ADF816300693ADF8203003F059
:1012E00009F810B100200FB0F0BD0DF11A018B20EC
:1012F00003F000F80028F5D107A98C2002F0FAFFCE
:101300000028EFD10DF11E018D2002F0F3FF00281F
:10131000E8D108A98E2002F0EDFF0028E2D10DF1FE
:1013200016018F2002F0E6FF05460028DAD1BDF84D
:10133000162044F283339A4221D1BDF81C000124C7
:10134000BDF81E2009ABBDF8181002EB0042BDF835
:101350001A708DF82E100A920D99BDF82060114870
:10136000114A02950394ADF82470ADF82C60CDE9D4
:10137000001014700FCB0CF0E1FF2046B3E709AC6E
:10138000094B014620461D700CF096FF0D9B054A47
:10139000CDE90255CDE9003294E80F000CF0CEFF04
:1013A0000220A0E7F0530020000E002038B5C478DA
:1013B000054674B1012C00F1070106D0062C19D0A6
:1013C0008020BDE8384008F0B3BC3022042001F092
:1013D00071FB6B79DB0706D40A4A3421012301FB38
:1013E0000424A37038BD07493423022203FB0414EC
:1013F000A27038BD3022032001F05CFB6B79DB0763
:10140000EAD5F0E720B70020C378C11D032B0ED02A
:10141000022B17D0042B19D0062B04D013B90D4B77
:1014200002229A7070473022032001F043BB10B4AF
:10143000084B01243022084883F8B6405DF8044B7D
:10144000FFF74CBC0846302102F0F4BB30220220EA
:1014500001F030BB20B70020AAB00020014B187863
:10146000704700BF0000002008B503F08FFBC0B23A
:1014700008BD00BF01207047014B1878704700BFBE
:101480000D00002028B1012806D0022807D0002036
:101490007047044B585C7047034B585C7047034BD4
:1014A000585C704704000020080000200C00002059
:1014B000012805D9A0F10200B0FA80F04009704778
:1014C000022070471A4A1368B3F57A7F10D3194B7C
:1014D0000121194A1B7811704BB1184BF0B51C78DB
:1014E00085B00C440C401C7044B105B0F0BD704791
:1014F000013311490020136008707047104F114EDE
:10150000114D3B4632460094294610480CF012F922
:10151000297816200E4D32780C263B88CDE900053F
:101520000A48CDE902460CF0EBFD05B0F0BD00BF66
:10153000080E002017000020020E0020010E0020DF
:10154000884F00208A4F0020874F00203C40012018
:10155000040E0020114A10B51378013303F0030381
:10156000591E137002290DD90D4C03F0B5F82378DC
:10157000FF2B00D010BD0B4A0021137821700133DE
:10158000137010BD064C2378042BF0D103F0C2F881
:101590000023044A23701370E9E700BF0E0E0020F9
:1015A0000D0E00200C0E002038B5164B0022012134
:1015B000154D164C18461A62C3E90054C3E90221BE
:1015C000C3E90422C3E9062206F034FAA8B90021CF
:1015D0000C4807F091F858B900210A4807F0B6F80E
:1015E00000B938BD7C210A48BDE8384001F01CB97B
:1015F0007621074801F018F9EEE77021044801F060
:1016000013F9E4E7B8510020005400400D030060D6
:10161000A424010838B518480022184B442401219D
:10162000174D18601846C3E90154C3E90312C3E912
:101630000522C3E9072206F0FDF9B8B900210F48D9
:1016400007F05AF868B900210C4807F07FF818B184
:101650009A210C4801F0E8F80848BDE8384006F047
:1016600051BC9421074801F0DFF8ECE78E210548D2
:1016700001F0DAF8E2E700BF005C0040FC50002017
:101680000D030060A42401080368074A934207D0B1
:10169000064A934200D07047054B04221A707047E7
:1016A000044B04221A707047005400400058004058
:1016B0000F0E00200D0E002003680A4A93420AD044
:1016C000094A934200D07047084B1A78012A06D085
:1016D000FF221A707047064B1A78012AF8D10222AD
:1016E0001A70704700540040005800400F0E002050
:1016F0000D0E00200268034B9A4200D0704700F0A4
:101700007DBC00BF005C0040704700BF0268054B15
:101710009A4200D0704701224FF48041024803F002
:10172000E1BB00BF005C00400010024049B101294C
:1017300006D14FF000730E220549064806F050BB53
:1017400070474FF000730C220349024806F092BB29
:1017500048510020FC500020EC500020014806F0C9
:10176000D1BB00BFFC500020674A036893422DE9BB
:10177000F0418AB005D0654A93427ED00AB0BDE8F8
:10178000F081634D1222012104462B6B4FF440700F
:10179000032643F002032B632B6B0692042203F013
:1017A00002030590079105A900935A48009BCDE9D3
:1017B000086203F079FA2A6C574E4FF0007342F436
:1017C00000124FF48061736000232A6430462A6C53
:1017D000316102F4001251490192019AC6E90233C3
:1017E0002A6B736142F40012C6E906332A632A6B3E
:1017F000336202F40012736231600292029B04F0C1
:1018000053FE002879D1464D002346484FF000771B
:1018100040214FF4806228602846E663B4636B621F
:10182000C5E90171C5E90332C5E90533C5E90733E7
:1018300004F03AFE20B14FF4A2713B4800F0F4FFEF
:10184000A563002202211F20AC6306F0BDFF1F200C
:1018500006F0F0FF00220B20114606F0B5FF0B202A
:1018600006F0E8FF00222F20114606F0ADFF2F20E2
:1018700006F0E0FF0AB0BDE8F081254C01254FF4E9
:1018800000724FF01208236B0327042605A92B438F
:1018900026482363236B05922B40CDF818800996C8
:1018A0000393039BCDE9075703F0FEF94FF48073D0
:1018B00005A91F480593CDE90685CDE9087603F013
:1018C000F3F9236C2A46002143F4000349202364E2
:1018D000236C03F400030493049B06F075FF492076
:1018E00006F0A8FF00224820114606F06DFF4820B0
:1018F00006F0A0FF0AB0BDE8F0814FF499710A48E4
:1019000000F092FF7FE700BF00540040005C004001
:1019100000380240000402404053002010600240A2
:1019200058510020B8600240A42401080008024079
:101930000000024080B5164C0027164D4FF0FF09FD
:10194000154E00F001FFDFF854800CF01DFB00F095
:101950006DF900F079FA0CF0D7FA0AF03DFF00F0CB
:1019600017FD2378012BFCD127702B78DBB25AB2FC
:1019700058F823303270984786F800902B7801335E
:10198000DBB2072B2B7000D92F7000F023F9E8E7AA
:10199000380F0020390F00203800002018000020E8
:1019A00008B50E4B0E481A68511CC0F81024196077
:1019B00002F0D2FB28B1022809D0BDE8084002F0AD
:1019C00095BF0AF019FFBDE8084002F08FBF0AF08A
:1019D00015FFBDE8084002F089BF00BF240E0020BB
:1019E0007014012010B502F05FFF274C002223780D
:1019F0001146104602F0C8FF23780BB10023237074
:101A00000C204FF0FF3402F043FF4FF480510246A8
:101A10001E4803F067FA012000F04EF900211C482F
:101A20000B46C25C52B28A4201DBC15C5CB201333C
:101A30000A2BF6D1631C1AD001F00F01154A41EAB6
:101A400004118BB27F29538509D06F2B12D1124A12
:101A500013680133BDE81040136001F073B80F4AFA
:101A600013680133BDE81040136001F06BB8094BF7
:101A700000225A8500230849084A0B601360BDE81C
:101A8000104001F05FB800BF200E0020001002409F
:101A90003C0F002070140120140E0020180E0020AE
:101AA000FFF758BD704700BF10B500F039FC18B102
:101AB000BDE81040FFF706BD0346194C19482370D6
:101AC00008F040FF38B1184A42F24273D35A13B1BA
:101AD000237801332370042008F040FF237833B1CA
:101AE000124B01221A70BDE81040FFF7EBBC104802
:101AF00008F028FF30B92378002BF1D1BDE8104061
:101B0000FFF7E0BC084944F2721223788A5A002A8F
:101B1000F2D00133DBB22370002BEFD0E0E700BF3F
:101B2000100E0020BCD200208CB80020200E002017
:101B3000ECEC002070B500F0F3FB10B9104B1B78F3
:101B4000D3B1104C45F6A8350026254403E004F631
:101B50001854AC420CD0B4F8BA34002BF7D020465D
:101B600008F0F8FCA4F8BA6404F61854AC42F2D1B8
:101B7000BDE8704000F0DABB00F0C6F8E1E700BF56
:101B8000100E0020E4C000200AF034BE38B50D4D20
:101B900044F620600C492A68013281FB0231D317D8
:101BA0002A60C3EB613300FB132353B9074A1C4679
:101BB000D45401330A2BFBD10549052000F0B6F9B6
:101BC0002C6038BD1C0E0020AD8BDB683C0F002064
:101BD000C024010810B502F0E7FD104A137883F025
:101BE0000101012B117005D0022008F0B7FE04207E
:101BF00008F0B4FE0A4B01200A4A0B4908F06CFEBB
:101C0000074B084A0520084908F066FE044B054AC0
:101C100000200549BDE8104008F05EBE120E00200D
:101C2000110E0020220E0020210E00202DE9F04F81
:101C3000002585B0DFF87C804FF0340B174F2C4621
:101C4000174E4FF464795FFA84FA384618F8012F7A
:101C500007F61857514608F063FC124906F59C73C5
:101C600098F8002009FB04100F49019001EB050CC6
:101C70000E485146CDF800C00BFB04000134CDE9FD
:101C800002630B4B06F51C762B44963508F00AFCD4
:101C9000072CD8D105B0BDE8F08F00BF8CB800206C
:101CA000D89D0020E884002004B3002020B7002045
:101CB000E8AE00200F000020012800D97047104A2C
:101CC000342303FB00239A7E012AF7D14FF41C72C0
:101CD0000C4902FB00F00A1800F59C7092F83D21B7
:101CE000084412F0010F10B44FF0000414BF022298
:101CF00001229C769A705DF8044BFFF757BB00BF3A
:101D000020B70020D89D00202F4B1B786BB12DE908
:101D1000F04F2E4CC1B02E4D23682A8801339A42D1
:101D2000236003DD41B0BDE8F08F7047294E2A4B98
:101D3000376893F80080FBB25D2B21D0274B284AEF
:101D40001E7851880136F6B2B1421E7001D2167863
:101D50001E704FF48072002168460CF073FB214A1C
:101D600007EB47038DF800808DF80460684652F851
:101D700023301D49984723682A889B1A2360D1E79E
:101D8000DFF864B040F61852184B4FF0000A9BF889
:101D90000070DFF85C9002FB073789F80280FFF7DC
:101DA00063FB9BF800C04A4689F803003B46307845
:101DB000514687F8FDA589F800C008F07BFC002893
:101DC000D9D0A7F812ADD6E7774F00202C0E00200F
:101DD00038020020340200207C4F0020784F002081
:101DE000042C0120D07E00203C0200208CB8002072
:101DF000280E00200F4B0022072130B51C6B87B046
:101E00000D4D44F0020428461C6307241B6B03F0AD
:101E100002030093009B03F065F80122002328468B
:101E200001A9CDE90142CDE9033302F03DFF07B03E
:101E300030BD00BF00380240000402400023C0E96A
:101E400000318360704700BF10B584B000F0EEFC35
:101E500002F05CFDFFF7CEFF002000F071FD0420D2
:101E600000F06EFD00F086F8022000F069FDFFF73B
:101E70009BFB02F011FCFFF7CDFB01F089FE05F0A2
:101E8000A1FA02F06DFA10B1012002F06DFEFFF729
:101E9000CDFE32212248FFF7D1FF00F0B1F900F06A
:101EA00001FA00F0DDF900F0A5F9044600F0D2F9DE
:101EB0001C4B029003F10C0292E803008DE8030032
:101EC00020460ECB00F0FCF800224FF4804116486B
:101ED00003F008F800224FF40051134803F002F811
:101EE00000224FF40041104802F0FCFF012000F0F6
:101EF0004DFE4FF4FA7002F037FE022000F0E2FCD3
:101F0000012000F0DFFC042000F0DCFC032000F0E6
:101F1000D9FC002004B0BDE8104000F0D3BC00BFE5
:101F2000B8530020F053002000100240052800D9CB
:101F300070470EB410B583B04FF4807200210C4886
:101F400006AC0CF07FFA059A4FF4807123460848DE
:101F500001940DF0E3FF0648FEF772FF044982B2D8
:101F6000012000F0A7FD03B0BDE8104003B07047AA
:101F7000300E00201D4B1E481A6B42F0040270B553
:101F80001A6388B01A6B00244FF48076194D02F062
:101F9000040203A90192019A1A6B42F010021A631B
:101FA0001B6B039603F010030293029BCDE90454CC
:101FB00002F07AFE22460721172006F005FC0E4D9E
:101FC000172006F037FC012303A92846CDE9033387
:101FD000CDE9054402F068FE022303A928460393D5
:101FE000CDE9044402F060FE08B070BD0038024044
:101FF0000008024000003110001002402DE9F041BD
:102000002B4C022382B06578ADF8063005F15603FB
:10201000DBB2082B2DD9274E0DF10601204607F023
:102020009FFE0DF106013080204607F099FE0DF16C
:1020300006017080204607F093FE0DF10601B08086
:10204000204607F08DFEBDF80620012DF08002F13C
:102050000103A25C9BB23272E35CB38102D002B096
:10206000BDE8F081144A13880133138002B0BDE843
:10207000F081032302AFDFF84480A5F1AA0627F818
:10208000023D20463946A63D07F06AFE394628F84B
:102090001600204607F086FEBDF80630464448F894
:1020A0002500E35C86F8303002B0BDE8F08100BF67
:1020B000EC50002070140120300F0020CC2B0120A8
:1020C00084B0F0B583B009AC9DF9386084E80E00A7
:1020D0009DF82F301BB10F2B28BF0F235BB29DF84B
:1020E000305002AF3A4C012243EAC515552327F878
:1020F000022D21463A46237007F024FE3A46214637
:10210000BDF8240007F01EFE3A4621460A9807F063
:1021100035FE3A462146BDF82C0007F013FEBDF807
:102120000630EDB25A1C991CE55492B289B2A654FD
:10213000002947D00C3BF12B3AD8022A44D98E080B
:102140002068012E18D9626800F07F35022E82EADD
:10215000000302F07F3703F0803305EB070080EACD
:10216000030009D0A36800F07F3203F07F354340BD
:10217000501903F080335840C0F30723C0F30742DF
:1021800021F003050344ADB21344A942EAB203EBC4
:102190001063DBB206D0A05C0132D2B2034491429C
:1021A000DBB2F8D8635403B0BDE8F04004B0704728
:1021B00000231A46A05C0132D2B203449142DBB242
:1021C000F8D8EFE70B46EDE700231A46E3E700BF38
:1021D000485100204CF2503343F69821044A98426B
:1021E00028BF1846884238BF08461080704700BF95
:1021F000460F0020014B1888704700BF460F002093
:1022000008B5FEF7B5FFFEF7DFFF68B14CF25031BD
:1022100043F69822074B884228BF084680B2904276
:1022200038BF1046188008BD024B48F6A0421A80FD
:1022300008BD00BF460F00200F286FF00E02044BB0
:10224000A8BF0F209042B8BF10461870704700BF5B
:10225000330F0020014B93F900007047330F00202B
:1022600008B5FEF7C9FFFEF7F3FF00F10F03DBB27D
:102270001E2B034B01D8187008BD00221A7008BD30
:10228000330F002084B030B402AD054C85E80F0058
:102290000FCD2D680FC4256030BC04B0704700BF5F
:1022A0000454002030B58BB0FFF70EF878B905ADB7
:1022B0000146044628460BF0FFFF064A099BCDE97C
:1022C0000244CDE9003295E80F000CF037F80BB06E
:1022D00030BD00BFF05300200F4B1A7852B90128CF
:1022E0000ED012D3022807D101200C4A0421187005
:1022F0001170704700207047084B10461A707047E5
:10230000064A02211870117070470120034A032108
:1023100018701170704700BF350F0020360F002075
:10232000014B1878704700BF350F002070B5144C72
:10233000237823B1134D2B7813B90023237070BD7C
:10234000114E33780E2B15D801221048114602F099
:10235000C9FD32782B781D2A04D801323270002B47
:10236000EBD070BD013B0022DBB232702B70002B32
:10237000F7D1E2E700220121044802F0B3FDE8E7CB
:10238000350F0020360F0020320F002000100240D1
:10239000074A137823B10749013B0878137000B14D
:1023A00070470120044B032208701A70704700BF69
:1023B00039000020350F0020360F0020B0F5807F57
:1023C00000D07047194B1A4A10B4197813780629AF
:1023D0001ED91BB90123174913700B7016490B78CE
:1023E000032B1BD001330B70144B1A78FF2A0CD02F
:1023F0001A78134952B28A5C52B20E2A05DC1A7856
:1024000052B28B5C01335BB28B545DF8044B704766
:10241000002BE3D1074B01221A70E5E700230548A2
:1024200001240B7004701370DEE700BF390F002029
:10243000370F0020380F0020340F00203800002014
:102440003C0F002008B5032006F0AAF900226FF027
:102450000B00114606F0B8F900226FF00A00114691
:1024600006F0B2F900226FF00900114606F0ACF94F
:1024700000226FF00400114606F0A6F900226FF06A
:102480000300114606F0A0F900226FF0010011468A
:1024900006F09AF900224FF0FF301146BDE80840DF
:1024A00006F092B9014804F0F7B800BF405300208D
:1024B000014804F0F1B800BF58510020014804F071
:1024C000EBB800BF58560020014804F0E5B800BF43
:1024D0002C550020014804F0DFB800BFA0570020B1
:1024E000014804F0D9B800BF105E00204FF480709E
:1024F00002F0FCBC014804F0CFB800BFC84F002078
:10250000014804F0C9B800BFEC550020014804F0B0
:10251000C3B800BFC0580020014804F0BDB800BFD8
:1025200028500020014803F099BA00BF0C71002028
:10253000014804F0B1B800BF60580020014804F021
:10254000ABB800BF00580020014804F0A5B800BF98
:102550008C550020014804F09FB800BF205900208E
:10256000014805F0E7BC00BFFC500020014806F020
:1025700069B800BFFC500020014805F0DBBC00BF7B
:10258000B8510020014802F009BB00BF885000206C
:1025900008B502F0D7FABDE8084006F07DB900BFE3
:1025A00008B5072817D8DFE800F0897663503D2A80
:1025B000170400224FF480414A4802F093FC0022A5
:1025C0004FF40051474802F08DFC00224FF40041C7
:1025D000444802F087FCFEE701224FF48041414865
:1025E00002F080FC01224FF400513E4802F07AFCD8
:1025F00001224FF400413B4802F074FCEBE701225A
:102600004FF48041374802F06DFC01224FF4005135
:10261000344802F067FC00224FF40041314802F0D8
:1026200061FCD8E701224FF480412E4802F05AFCA9
:1026300000224FF400512B4802F054FC01224FF4C9
:102640000041284802F04EFCC5E700224FF48041CB
:10265000244802F047FC01224FF40051214802F0C7
:1026600041FC00224FF400411E4802F03BFCB2E75F
:1026700000224FF480411B4802F034FC01224FF449
:102680000051184802F02EFC01224FF40041154879
:1026900002F028FC9FE701224FF48041114802F02C
:1026A00021FC00224FF400510E4802F01BFC0022D6
:1026B0004FF400410B4802F015FC8CE700224FF468
:1026C0008041084802F00EFC00224FF400510548FA
:1026D00002F008FC01224FF40041024802F002FC23
:1026E00079E700BF00100240002108B50846FFF757
:1026F00057FF00BF012108B50846FFF751FF00BF93
:1027000008B501210220FFF74BFF00BF08B50121EA
:102710000320FFF745FF00BF08B501210420FFF7A4
:102720003FFF00BF08B500210520FFF739FF00BFBC
:1027300008B500210620FFF733FF00BF08B50021D0
:102740000720FFF72DFF00BFF0B5B9B0022402F05B
:10275000EDF9324A324B4FF48030116C01264FF4C0
:102760008005D82741F0805111640621126C02F0D7
:1027700080520092009A1A6842F440421A6009227C
:102780001B68089007A803F4404307960D94019333
:10279000019B119410971292CDE90E5104F052F85A
:1027A00000B1FEE704F064FF034600B1FEE74FF41A
:1027B00080520F264FF4A055072102A804930394DA
:1027C0000296CDE9055204F03FFA034600B1FEE758
:1027D000144A14A827932A932D932F93339314927A
:1027E000CDE9253304F0F4FA044600B1FEE704F025
:1027F000C9FA4FF47A73B0FBF3F006F027F804201F
:1028000006F03CF8224621464FF0FF3005F0DCFF91
:10281000642002F0A9F939B0F0BD00BF00380240D1
:1028200000700040C0492100FEE700BF30B50C4CED
:1028300085B04FF6FF720B4B00252046E260A56085
:10284000C4E9003502F0DEFB01A92046019503959D
:1028500002F0F4FB204602F055FB05B030BD00BF8E
:102860001854002000100040B0F5FA7F094A4FF0DC
:10287000000328BF4FF4FA70116800EB40004B6270
:10288000C0EBC00083002A3B9BB24A6A9A42FCD349
:10289000704700BF185400200268094B9A4200D0CC
:1028A000704703F50A3382B01A6C42F010021A64C2
:1028B0001B6C03F010030193019B02B0704700BF33
:1028C0000010004004280AD8DFE800F01727031F93
:1028D0000B00164BDA6892F86920202A07D00020F6
:1028E0007047134BDA6892F86920202AF7D1D8682C
:1028F000196ADA6992B202F00BBC0E4BDA6892F8F0
:102900006920202AF3D0002070470B4BDA6892F838
:102910006920202AEBD000207047084BDA6892F833
:102920006920202AE3D00020704700BF480F002014
:10293000E8260020B8320020883E0020181B002026
:1029400038B5042819D8DFE800F0032F48611A00D1
:102950003B4C00253B4B20462570636084F8285093
:1029600084F83F5800F020FA642002F0FDF80123BB
:10297000284684F83E38FFF7A5FF002038BD324CCA
:1029800000230421314A20462170626084F82830F7
:1029900084F83F3800F028FB0A2002F0E5F8012314
:1029A000002084F83E3838BD294C4FF4E132002332
:1029B000012504F504602570626084F83F5884F8AE
:1029C000283007F001FA204600F040FA0A2002F011
:1029D000CBF884F83E58002038BD1E4C012000F092
:1029E000DDFE012502214FF46132002320462170D3
:1029F000626084F8285084F83F3800F06DFA0A20AD
:102A000002F0B2F884F83E58002038BD124C032181
:102A10004FF461320023012510482170626084F870
:102A2000283084F83F5807F0CFF9204600F098FA94
:102A30000A2002F099F884F83E58002038BD00BF03
:102A4000B8320020C0270900E826002080841E003C
:102A5000181B0020480F0020883E0020582300202B
:102A600090F82C3023B1C26892F86910202901D067
:102A70001846704710B5044690F82A10104604EB2B
:102A8000410304EB0121DA8D3E3102F003FB70B902
:102A900094F82A2094F82C300132013B02F007020E
:102AA000DBB284F82A2084F82C30184610BD94F844
:102AB0002C30FAE7F8B5042838D8DFE800F0033105
:102AC00033352F001A4C94F82C3017460D46072B3F
:102AD00004D92046FFF7C4FF0020F8BD94F82B600E
:102AE0004FF48072002104EB06263E3630460BF090
:102AF000A9FC3A4629463046FEF7F0F894F82B3008
:102B000004EB43020133D78503F0070394F82C202C
:102B100084F82B30531C84F82C30DAE7054CD2E7CC
:102B2000054CD0E7054CCEE7054CCCE70120F8BDBD
:102B3000B8320020E8260020181B0020480F002093
:102B4000883E002010B50C48FFF78AFF04460B486A
:102B5000FFF786FF04440A48A4B2FFF781FF04444C
:102B60000848FFF77DFFA4B204440748FFF778FF49
:102B7000A4B2204400B210BD883E0020480F0020BF
:102B8000E8260020181B0020B8320020012810B5CC
:102B900004461CD0022800D010BD01224FF4805101
:102BA000184802F09FF90A20FFF75EFE00224FF45A
:102BB0008051144802F096F90A20FFF755FE0122D1
:102BC0004FF480510F48BDE8104002F08BB9024627
:102BD0004FF480610C4802F085F90A20FFF744FEAB
:102BE00000224FF48061084802F07CF90A20FFF7C8
:102BF0003BFE22464FF480610348BDE8104002F0DE
:102C000071B900BF00080240000C024090F8293062
:102C1000022B30B5044683B054D0032B36D0012BA1
:102C200001D003B030BD0369C2691B68018B5B68CA
:102C3000D31A5B1A9BB2ADF80630BDF806309BB2D2
:102C4000002BEED0BDF806309A42EAD0036A90F825
:102C500028201944002A7ED190F83F38BDF806207C
:102C6000002B73D18368586907F0C4F8A268137900
:102C700001331371218BBDF80630E2690B449BB21E
:102C800093422383CDD300232383CAE7038BD0E968
:102C9000072190F82800D21A194492B2002835D1A1
:102CA00094F83F38002B48D004F5046007F0A2F8F0
:102CB00000232078238384F8293003B0BDE8304016
:102CC000FFF700BE038BD0E9072190F82800C3EB83
:102CD0005202194492B258B994F83F3823B304F51C
:102CE000046007F087F8E3695B08238303B030BD15
:102CF000A06840F61855204B007805FB003007F01F
:102D000081FDA268137901331371ECE7A06840F6E6
:102D10001855194B007805FB003007F073FDA268C9
:102D2000137901331371C3E7A368586907F062F898
:102D3000A268137901331371D5E7A368586907F0C6
:102D400059F8A268137901331371B1E700F50460F3
:102D500007F050F88EE7826840F61855064B107859
:102D6000BDF8062005FB003007F04CFDA268137982
:102D7000013313717EE700BF8CB8002010B5094CF9
:102D800000224FF48041204602F0ACF80120FFF70A
:102D90006BFD204600224FF40041BDE8104002F0D8
:102DA000A1B800BF000C024038B50022062105463C
:102DB0003A2005F009FD3A2005F03CFD01220621EC
:102DC000462005F001FD462005F034FD154C6868ED
:102DD000002315490C226060204621606261236156
:102DE000C4E90233C4E90633C4E9083302F06EFDD6
:102DF00018B159210D48FFF717FD0D4A00230D4961
:102E000010680D4AEC60E8610C4C0D480D602A61B9
:102E10000C490D4A6C61AA606B8585F82C30C5E9B8
:102E2000081038BD8059002000100140DC24010842
:102E30003C000020584A0020C058002000580020C4
:102E40004C5600205854002020B7002038B5184DAB
:102E50000446184B0C2140684FF400422B600023BD
:102E6000686028466961EA612B61AB61C5E902339C
:102E7000C5E9083302F02AFD18B17A210E48FFF7A0
:102E8000D3FC0E4A00230E4910680E4AE560E0614B
:102E90000D4D0E484C6022610D490E4A6561A260DD
:102EA0002383638584F82C30C4E9081038BD00BF43
:102EB000D85C002000440040DC24010840000020D1
:102EC000584A00208C55002020590020485D0020E1
:102ED000A05B002024B8002038B50446164D1748E2
:102EE000002361680C22286028466960AB60AB61F2
:102EF000EB606B62C5E90432C5E9073302F0E6FC1A
:102F000018B1A3210E48FFF78FFC0E4A00230E498B
:102F100010680E4AE560E0610D4D0E488C6022613C
:102F20000D490E4A6561A2602383638584F82C30C5
:102F3000C4E9081038BD00BF185700200048004001
:102F4000DC24010844000020584A00205856002084
:102F5000A057002064540020F0590020F0B7002052
:102F600038B50446164D1748002361680C222860C6
:102F7000284669606A612B61C5E90233C5E90633F9
:102F8000C5E9083302F0A2FC18B1C5210E48FFF7CD
:102F90004BFC0E4A00230E4910680E4AE560E061C2
:102FA0000D4D0E48CC6022610D490E4A6561A2604C
:102FB0002383638584F82C30C4E9081038BD00BF32
:102FC000685C0020004C0040DC2401084800002020
:102FD000584A00202C550020105E00208857002001
:102FE000185B002058B8002038B5184D0446184B1F
:102FF0000C2140684FF400422B6000236860284693
:103000006961EA612B61AB61C5E90233C5E9083347
:1030100002F05CFC18B1E7210E48FFF705FC0E4AF0
:1030200000230E4910680E4AE560E0610D4D0E4820
:103030000C6122610D490E4A6561A260238363859C
:1030400084F82C30C4E9081038BD00BF305B002084
:1030500000140140DC2401084C000020584A0020E4
:10306000EC55002060580020B85A0020B8560020C7
:1030700054B700200D4A036893422DE9F0430446FB
:1030800099B01DD00A4A934200F0AE80094A93429B
:1030900000F08B82084A934200F03081074A934245
:1030A00000F0F98119B0BDE8F08300BF00100140C5
:1030B0000044004000480040004C00400014014023
:1030C000BA4B4FF40070022600251A6B072713A98C
:1030D0004FF4806842F001024FF001091A631A6B45
:1030E00002F001020192019A1A6B42F008021A637F
:1030F0001A6B02F008020292029A5A6C42F0100215
:103100005A645A6C02F010020392039A1A6B42F44A
:1031100080021A631B6B139003F48003A448149677
:103120000493049B16961797159501F0BDFD13A9FE
:103130009F48149616961797CDF84C80CDF854906A
:1031400001F0B2FD4FF4404203239A4E13A99A486E
:1031500013921693CDF85090159501F0A5FD974F59
:10316000FFF70CFE4FF000614FF480724FF4803394
:103170003046C6F810807562B463C6E90255C6E9E8
:103180000555C6E90071C6E9072303F08DF900284B
:1031900040F0E4828A4D00238A484FF000674021C6
:1031A0004FF48062286028466666B463AC636B6245
:1031B000C5E90171C5E90332C5E90533C5E907333E
:1031C00003F072F9002840F09F8202220621252098
:1031D0002566AC6305F0F8FA252005F02BFB236883
:1031E000794A93427FF452AF704B0221012060254F
:1031F0001A6B032642F008021A631A6B02F00802E7
:103200000592059A1A6C42F400321A641A6C02F4A0
:1032100000320692069A1A6B42F400121A630722D1
:103220001B6B149113A903F40013159062480793C4
:103230001395079B654DCDE9166201F035FD644B92
:103240004FF000604FF480614FF480722B600023D8
:10325000686028462961EA61C5E90233C5E905339A
:10326000C5E9083303F020F9002840F04782002226
:103270000F2165661020AC6305F0A6FA1020554DAD
:1032800005F0D8FA544B4FF0006040214FF48062B3
:103290002B60002368602846A9606B62C5E9033291
:1032A000C5E90533C5E9073303F0FEF8002840F00F
:1032B0001F8201220F2111202566AC6305F084FADC
:1032C000112005F0B7FA0F210222262005F07CFA22
:1032D000262005F0AFFA22680A20136843F0100395
:1032E0001360FFF7C1FA3D4A2021236882F8691074
:1032F00082F86A103A4A93427FF4D0AE2B4B0125F4
:103300004FF4406002211A6B032700264FF48058C7
:103310002A431A631A6B2A400C920C9A1A6B42F0D9
:1033200004021A631A6B02F004020D920D9A1A6CD1
:1033300042F400221A641A6C02F400220E920E9AD1
:103340001A6B42F400121A6308221B6B139000F1EF
:10335000804003F40013149100F5FE3013A90F937D
:103360000F9B1595CDE9167201F09EFC13A91D481F
:10337000149516974FF00067CDF84C80159601F024
:1033800093FC2A464146184D164801F0ABFDDFF884
:103390005CC04FF480614FF480724FF48033284654
:1033A000AE60EE606E62296122E000BF003802402C
:1033B00000000240C0580020000C0240406402405F
:1033C00000580020B8640240004400408C550020A2
:1033D0008860024020590020A0600240D85C002094
:1033E000004C0040000802402C5500204060024084
:1033F000C5E90566C5E900C7C5E9072303F054F828
:10340000002840F06F8100220A2165660D20AC6320
:1034100005F0DAF90D20BF4D05F00CFABE4B4FF068
:10342000006040214FF480622B60002368602846D2
:10343000A9606B62C5E90332C5E90533C5E9073305
:1034400003F032F820B140F23E21B448FFF7ECF926
:1034500001220A2125660F20AC6305F0B5F90F2083
:1034600005F0E8F90A210222342005F0ADF93420F4
:1034700005F0E0F922680A20136843F01003136096
:10348000FFF7F2F9A64B202283F8692083F86A201F
:1034900019B0BDE8F083A34B02210120C0251A6BAF
:1034A000032642F004021A631A6B02F0040210921F
:1034B000109A5A6C42F020025A645A6C02F02002B0
:1034C0001192119A1A6B42F480021A6308221B6B44
:1034D000149113A903F48003159093481293139544
:1034E000129B924DCDE9166201F0DEFB904A4FF03F
:1034F00020634FF480604FF480712A606B604FF45A
:1035000080320023286128466B62C5E90712C5E9AD
:103510000233C5E9053302F0C7FF002840F02A81D5
:103520000022052165663920AC6305F04DF939208C
:10353000804D05F07FF9804B4FF0206040214FF423
:1035400080622B60002368602846A9606B62C5E931
:103550000332C5E90533C5E9073302F0A5FF0028AA
:1035600040F002810122052125664520AC6305F06B
:103570002BF9452005F05EF905210222472005F0D0
:1035800023F9472005F056F922680A20136843F012
:1035900010031360FFF768F9684B202283F8692055
:1035A00083F86A2019B0BDE8F0835E4B02254FF422
:1035B000407101201A6B07274FF0030800262A43A9
:1035C0001A631A6B2A400892089A1A6B42F0080292
:1035D0001A631A6B02F008020992099A1A6C42F4F3
:1035E00080221A641A6C02F480220A920A9A1A6BD8
:1035F00042F400121A631B6B139113A903F4001316
:10360000CDE914500B934E480B9BCDE9168701F082
:103610004BFB4FF4C04313A94A4814954A4D1393EA
:103620001596CDE9168701F03FFB4FF00067DFF8F4
:1036300028C14FF480614FF480724FF480332846E4
:103640006E622961C5E90266C5E90566C5E900C77C
:10365000C5E9072302F028FF002840F091800022EE
:10366000062165660C20AC6305F0AEF80C20374DE2
:1036700005F0E0F8364B4FF0006040214FF48062D7
:103680002B60002368602846A9606B62C5E903329D
:10369000C5E90533C5E9073302F006FF002875D1F7
:1036A000012206210E202566AC6305F08DF80E2060
:1036B00005F0C0F806210222272005F085F8272012
:1036C00005F0B8F822680A20136843F0100313606D
:1036D000FFF7CAF81F4A2021236882F8691082F890
:1036E0006A10D7E440F22A210C48FFF79DF88AE6D9
:1036F00040F295110948FFF797F8DAE540F27F119B
:103700000648FFF791F8B2E540F249110348FFF788
:103710008BF85AE5105E002070600240DC2401083E
:10372000685C00200038024000080240EC55002090
:103730002864024060580020A0640240305B0020F2
:10374000000C02400004024058560020A057002000
:103750005860024018570020286002404FF49B71C7
:103760000D48FFF761F815E54FF422710A48FFF79D
:103770005BF8F7E640F272210748FFF755F8CFE60D
:103780004FF4EB710448FFF74FF868E74FF4F67118
:103790000148FFF749F883E7DC2401080128F0B568
:1037A000044689B04AD0022801D009B0F0BD3C4B94
:1037B000012600254FF480571A6B03A9394832437C
:1037C0001A631A6B32400192019A1A6B42F004029A
:1037D0001A631B6B069403F0040305960293029B85
:1037E000CDE9037601F060FA2A4639462D4801F00A
:1037F00079FB4FF4005303A92A4803934FF4004781
:103800000495CDE9056401F04FFA4FF4404303A954
:10381000244803930694CDE9045501F045FA03A921
:10382000214806940397CDE9046401F03DFA2A4645
:1038300039461D4801F056FB09B0F0BD184B022671
:1038400000254FF480671A6B03A9184842F008025C
:103850001A631B6B049403F0080305940397009309
:10386000009B069601F020FA2A4639460F4801F0DF
:1038700039FB4FF4006303A90C48CDE90335CDE9CA
:10388000054601F011FA4FF4405303A90748069684
:103890000393CDE9045501F007FA09B0F0BD00BF6C
:1038A000003802400008024000000240000C0240C4
:1038B00010B5114C2368DA6912F0100F0F4A01D0CD
:1038C000117831B100230C48BDE81040137001F0AD
:1038D00047BD0B4A0121106890F83E2880F8291056
:1038E00032B9102204481A62BDE8104001F038BD18
:1038F000FFF78CF92368F4E7805900203A00002094
:10390000584A002010B50D4C2368DA69D20610D54C
:103910000B4A0121506890F83E2880F8291012B90E
:1039200010221A6210BDFFF771F9236810221A6283
:1039300010BD2046BDE8104001F012BDD85C00204B
:10394000584A002010B50D4C2368DA69D20610D50C
:103950000B4A0121906890F83E2880F8291012B98E
:1039600010221A6210BDFFF751F9236810221A6263
:1039700010BD2046BDE8104001F0F2BC18570020F1
:10398000584A002010B50D4C2368DA69D20610D5CC
:103990000B4A0121D06890F83E2880F8291012B90E
:1039A00010221A6210BDFFF731F9236810221A6243
:1039B00010BD2046BDE8104001F0D2BC685C00207C
:1039C000584A002010B50D4C2368DA69D20610D58C
:1039D0000B4A0121106990F83E2880F8291012B98D
:1039E00010221A6210BDFFF711F9236810221A6223
:1039F00010BD2046BDE8104001F0B2BC305B002095
:103A0000584A00200368214A934217D0204A934223
:103A100009D0204A934225D01F4A93422CD01F4AF6
:103A2000934215D070471E4B0222586890F83E38DA
:103A300080F82920002BF5D0FFF7E8B8184B0222B8
:103A4000186890F83E3880F82920002BF4D1704790
:103A5000134B0222186990F83E3880F82920002B79
:103A6000E0D0E9E70E4B0222986890F83E3880F8E3
:103A70002920002BD6D0DFE7094B0222D86890F826
:103A80003E3880F82920002BCCD0D5E7001001402B
:103A90000044004000480040004C00400014014039
:103AA000584A00200368214A934217D0204A934283
:103AB00009D0204A934225D01F4A93422CD01F4A56
:103AC000934215D070471E4B0322586890F83E3839
:103AD00080F82920002BF5D0FFF798B8184B032267
:103AE000186890F83E3880F82920002BF4D17047F0
:103AF000134B0322186990F83E3880F82920002BD8
:103B0000E0D0E9E70E4B0322986890F83E3880F841
:103B10002920002BD6D0DFE7094B0322D86890F884
:103B20003E3880F82920002BCCD0D5E7001001408A
:103B30000044004000480040004C00400014014098
:103B4000584A002008B50E4A2021036880F8691001
:103B500093420ED00B4A934200D008BD01230A4A7B
:103B6000342101FB03239A78022AF6D103229A70AA
:103B700008BD064B1868FEF773FF0023EFE700BF90
:103B8000001001400014014020B70020584A0020D6
:103B900010B5094C00220949204605F00DF92046D0
:103BA000074905F01FF92046064905F0EDFB2046C0
:103BB000BDE8104005F01EB9705E002060000020D6
:103BC000A80000205000002000207047002070470F
:103BD0000A680A49962A28BF962238B50546084C35
:103BE00092B2084806F00EFE2946204605F0DCFB9E
:103BF000204605F0F9FB40B238BD00BF0C61002043
:103C0000705E0020BCD2002010B5074C002207498E
:103C1000204605F0C1FB0649204605F0C5FB2046BD
:103C200005F0E2FB002010BD705E00200C69002052
:103C30000C61002010B5094CD4F89032D3F814323E
:103C40000BB1012010BD0A460146204605F0A4FB39
:103C50002046BDE8104005F0ADBB00BF705E0020FF
:103C6000044BD3F890321BB1D3F81402C0B27047A2
:103C700001207047705E00200368B3F1A04F00D0B0
:103C8000704730B54FF4C05089B00222002503249C
:103C90000A2303A903901248CDE90643CDE9042580
:103CA00001F002F80F4B21462A465C6B432044F09A
:103CB00080045C635C6B04F080040194019C5C6C88
:103CC00044F480445C645B6C03F480430293029B85
:103CD00004F07AFD432004F0ADFD09B030BD00BF13
:103CE000000002400038024000F57071D0F8FC037B
:103CF00005F098B8C1EBC10300EB8303D0F8FC03D7
:103D0000D3F8082205F0BEB8C1EBC10300EB830372
:103D1000D0F8FC039A6C05F0F3B800BFD0F8FC03B0
:103D200005F086B9C168003110B5044618BF0121FD
:103D3000D0F8FC0305F066F9D4F8FC03BDE81040A8
:103D400005F038B910B50446D0F8FC0305F05EF96B
:103D50002268D2F8003E43F00103C2F8003E236A15
:103D600023B1034A136943F00603136110BD00BF7A
:103D700000ED00E0D0F8FC0305F052B9D0F8FC03E8
:103D800005F066B9D0F8FC0305F060B9D0F8FC0383
:103D900005F060B9D0F8FC0305F05EB902780AB10D
:103DA0000020704738B5174B02214FF0A04506247C
:103DB000C3F8FC03C0F8983218465A62D96099617A
:103DC000C3E90422C3E90722C3E90B22C3E9005473
:103DD00001F0B2FD78B980210A4802F049FB402287
:103DE0000021084802F020FB80220121054802F052
:103DF0001BFB002038BD40F239110348FEF714FDCB
:103E0000E9E700BF0C7100200025010808B5D0F8D3
:103E1000980201F00DFE032802D8024B185C08BD81
:103E2000022008BDFC24010810B51C46D0F89802F9
:103E30001346224602F0B4F9032802D8024B185C5C
:103E400010BD022010BD00BFFC24010808B5D0F849
:103E5000980202F0DFF9032802D8024B185C08BD73
:103E6000022008BDFC24010808B5D0F8980202F031
:103E70005BFA032802D8024B185C08BD022008BD7B
:103E8000FC24010808B5D0F8980202F091FA032842
:103E900002D8024B185C08BD022008BDFC240108B2
:103EA0000A06D0F8983206D4C1EBC10103EB8101B8
:103EB00091F8FE01704701F07F01C1EBC10103EBF6
:103EC000810191F83E00704708B5D0F8980202F0E1
:103ED00053F9032802D8024B185C08BD022008BD24
:103EE000FC24010808B5D0F8980202F0F9F903287B
:103EF00002D8024B185C08BD022008BDFC24010852
:103F000008B5D0F8980202F0B9F9032802D8024B9C
:103F1000185C08BD022008BDFC24010808B5D0F8D3
:103F2000980202F0D3F908BD004870476C4A00209F
:103F3000704700BF122301480B8070477C000020AF
:103F4000042301480B8070479000002010B5044CFA
:103F50000A460448214604F009FF204610BD00BF70
:103F60000C7500204025010810B5044C0A46044891
:103F7000214604F0FBFE204610BD00BF0C7500205A
:103F80005425010810B5044C0A460448214604F0A3
:103F9000EDFE204610BD00BF0C7500206C25010809
:103FA00010B5044C0A460448214604F0DFFE2046C2
:103FB00010BD00BF0C7500202425010810B5044C6D
:103FC0000A460448214604F0D1FE204610BD00BF39
:103FD0000C75002030250108014B1878704700BF90
:103FE000744E0020024B187800F00200704700BFAA
:103FF000744E0020024B187800F00800704700BF94
:10400000744E0020024B187800F01000704700BF7B
:10401000744E0020012805D040288CBF00230123C6
:1040200023EA0000704700BF414B2DE9F0411A78A8
:1040300084B05AB100223F4901203F4D1A700870E8
:10404000013201202A8004B0BDE8F08139490B78A3
:10405000032B26D8DFE803F01B280C020023374C83
:10406000354A022023700B70138004B0BDE8F08144
:10407000334A4DF66C10138801339BB28342138090
:104080000BD9032301200B7004B0BDE8F0810020A0
:104090002B4B188004B0BDE8F081012004B0BDE8CE
:1040A000F0814FF0FF30CEE7234D2A88B2F5167F1E
:1040B00024D040F259239A4235D0642AC0D1214EEF
:1040C0000024DFF89080204F314643461F483A468F
:1040D000009408F0D7FD3178B8F8003028201C4E45
:1040E0003A780294CDE90006184809F0C5FF2B88FC
:1040F000012003442B8004B0BDE8F081124F01245D
:10410000104EDFF850803A4631461048434600943E
:1041100008F0AAFB3A7800273178B8F80030282058
:104120000B4E0297DEE7022301200B708BE700BFE6
:10413000754E0020704E0020764E0020744E0020F8
:10414000724E0020874F00208A4F00203C40012003
:1041500094000020884F00202E4B187810F00102A8
:104160000CD110F0020130B585B027D110F0080253
:1041700006D110F0100029D105B030BDFFF754BFB3
:10418000254A19701170FEF735F8FCF7DFFFFEF7CE
:1041900031F80446FEF75EF8204B029003F10C0262
:1041A00092E803008DE8030020460ECBFDF788FF60
:1041B0000120FEF791F8022005B030BD16491A70B3
:1041C0000A70FEF747F8FDF705F8E0E71449134CCD
:1041D0000D691148CDE90054CDE902221A70027030
:1041E0000FC90AF0ABF8FEF705F80546FEF732F8FE
:1041F00004F10C03029093E803008DE803002846C5
:1042000094E80E00FDF75CFF0120FEF765F8022040
:10421000B2E700BF744E0020754E0020F05300201E
:104220000454002038B51D4A1D4B1B8814889BB2CE
:10423000A4B2FCB94EF6EE629B1A18BF012342F2FB
:1042400024045A1C174D1C4405EB8235A403AC42D0
:1042500003D317E00434A54214D923680133F9D1FC
:1042600005460A4600232146012003F0EBF868B119
:1042700080B238BD43B94EF6EE63E31AB3FA83F366
:104280005B09DCE7802038BDAB2038BDA11C2A4685
:104290000023012003F0D6F8EAE700BF0040090838
:1042A00000000908FFFF080830B5022287B000248B
:1042B00001250E4B4FF6FF710D480392CDE90044E6
:1042C000CDE9045201E0834208D01A8804339142B8
:1042D000F9D0694601A803F075F928B90022002336
:1042E0000249012003F0AEF807B030BD0000090814
:1042F00000400908144B154A1B8812889BB210B461
:104300002BB192B2DAB9124B124C1A4602E0124BA0
:10431000124C1A461288904203D109E01A88904242
:1043200006D0043BA342F9D801205DF8044B704746
:1043300033F8023C00205DF8044B0B807047AB2043
:104340005DF8044B704700BF0000090800400908F1
:10435000FE7F090802400908FE3F0908020009081B
:1043600063490120634A2DE9F0410C884EF6EE675F
:10437000138886B0A4B2002602259BB2BC420096E8
:1043800001960395CDE9040578D04FF6FF7084427D
:104390004ED03CB1FFF788FF002845D080B206B070
:1043A000BDE8F081002BF5D083423DD0524D4FF057
:1043B000FF36524FDFF8488135F8023B3A885049C2
:1043C0001846934208BF26B2B44204F101040BD050
:1043D000FFF790FF012807D0B8F8001035F8020C5D
:1043E000FFF720FF0028DAD19A2CE5D10022002324
:1043F0004049012003F026F80028CFD102220124F1
:104400003B4B4FF6FF713B480392CDE9044201E07C
:10441000834209D01A8804339142F9D0694601A831
:1044200003F0D0F80028B9D1002006B0BDE8F08133
:10443000CBB1BB4202D0ADE7914209D00B88043129
:104440009C42F9D0694601A803F0BCF80028A5D128
:10445000002200232749012002F0F4FF0028E3D0C6
:104460009CE79142E0D00B8804319C42F9D0694628
:1044700001A803F0A7F8002890D1D5E753BB1C464C
:104480001D4D4FF0FF361F4FDFF8748035F8023BAB
:104490003A881B491846934208BF26B2B44204F139
:1044A00001040CD0FFF726FF012808D0B8F800104F
:1044B00035F8020CFFF7B6FE00287FF470AF9A2C97
:1044C000E4D1002200230A49012002F0BBFF0028AA
:1044D000AAD063E74FF6FF7293427FF45BAF0324E9
:1044E00000220023039402F0ADFF00289CD055E782
:1044F00000000908004009080C7700200640090860
:10450000784E0020060009082DE9F04786B00646DF
:104510000C46FFF787FE8028054603D0284606B0E4
:10452000BDE8F0872C4800252C4903880A889BB2F7
:10453000009592B27BB988464FF002094EF6EE62C2
:1045400000234146012002F07DFF48B185B2284694
:1045500006B0BDE8F08732BB80464FF00309EDE7B7
:1045600021463046FFF75EFE05460028D6D11C4C9A
:10457000DFF870A004F59A7701E0BC4215D034F85A
:10458000023B18499E421846F7D0FFF7B3FE0128B8
:10459000F3D0BAF8001034F8020CFFF743FE0028FD
:1045A000EBD00546BAE7AB25B8E700220124022389
:1045B000694601A8CDF80C900192CDE9044303F0BF
:1045C00001F80028C2D1414620460022002302F013
:1045D00039FF0028BAD1A1E7000009080040090806
:1045E0000C770020784E00202DE9F0470123154F6D
:1045F00084B00D4616463870EC18591C14F8014C5E
:10460000FC54CBB2B342F7D91FFA80F805244FF01F
:104610000A0ADFF83490CDF808A00123019642463B
:104620000095D021484603F059FA074630B10A20D8
:1046300000F09AFA631E13F0FF04ECD1384604B080
:10464000BDE8F08740780020B851002030B583B035
:10465000802301226B2002AC154604F8013D21465F
:10466000FFF7C2FF642000F07FFA21462A466B2044
:104670008DF80750FFF7B8FFC82000F075FA002347
:1046800021462A466C208DF80730FFF7ADFF0A203F
:1046900000F06AFA03B030BD30B583B00024FFF7F4
:1046A000D5FF192000F060FA094A0A4B02A91568E3
:1046B0001A2004221C8441F8045DC3E90444C3E9C0
:1046C0000644FFF791FF0A2000F04EFA03B030BD18
:1046D000A02401087014012000B50F2183B00A48FE
:1046E000012301913B220090D021084803F0D2FA27
:1046F000074B20B1FF221A7003B05DF804FB0322C0
:104700001A7003B05DF804FB04520020B851002079
:104710000D0E002070B4194B85B00022ADF10201DE
:1047200003F10E040292ADF80C20CDE900221878B6
:10473000023313F8012C9C4242EA002221F8022F96
:10474000F5D10F4A0F4BBDF90010BDF90260BDF95C
:104750000450BDF90840BDF90A001180D982BDF9A5
:104760000C1056801E8395805D83D4801C8210813E
:1047700058825181998205B070BC70470452002064
:10478000A47800207014012030B4044B044D054C73
:10479000287021701A7030BC704700BF814E002015
:1047A000834E0020824E0020F8B52E4C237883B132
:1047B0002D4F3A78002A44D12C4E2D4D327832BB01
:1047C0002A781AB12B4A12789A422ED902332370D2
:1047D000F8BD01224FF48041274800F083FB0122FD
:1047E0004FF40051244800F07DFB01224FF40041BA
:1047F000214800F077FB214B01221B4F19782378C9
:104800001A4E1B4D99423A7032702A701FD91C4AB9
:1048100012789A42D4D800224FF40051164800F082
:1048200061FB002223783270CAE700224FF4004176
:10483000114800F057FB2378002202332A702370BE
:10484000F8BD0E4A094E1278094D9A42B6D8002298
:104850004FF48041084800F045FB002223783A706D
:10486000ACE700BF7B4E00207F4E00207E4E002034
:104870007A4E0020814E002000100240834E00201E
:10488000824E0020014B1878704700BF804E0020F8
:10489000044BC0F1FA001B788342D4BF00200120F2
:1048A000704700BF804E00200C494FF47A700C4BCB
:1048B0000A88013292B2A3FB02C39B0900FB1323B7
:1048C0009BB2B3F5F97F0B8001D9C31A9BB205489F
:1048D0005908054A03801170704700BF844E0020BC
:1048E000D34D62107C4E0020804E002008B5064B50
:1048F000187810F0010000D108BD002202201A70C3
:10490000FDF7EAFC012008BD864E0020F0B51C4CE6
:1049100089B01C4E0022236B4FF4C051304615461F
:1049200043F0100301272363236B03F0100302936A
:10493000029B00F0D7FA4FF4C053304603A9CDE9EB
:104940000337CDE9055500F0AFF9236B2A46304611
:1049500043F010034FF460412363236B03F0100313
:104960000193019B00F0BEFA4FF4604303A9304667
:1049700006950393CDE9047500F096F909B0F0BDF2
:104980000038024000100240F8B5284E284F346825
:10499000632C04F101048CBF00250125C72C3D7058
:1049A00088BF002434601BBB224E3468CCBB01237B
:1049B000214E012A3370214B10D01A78012A0DD0D4
:1049C000012927D0012819D0DCB1FFF75BFF0022B5
:1049D00001461046BDE8F840FFF7D6BE6842012206
:1049E0000021C0B21A700022BDE8F840FFF7CCBE2B
:1049F000002340F2CF740F4E3460D9E7FF21084600
:104A0000F1E7FFF73FFF214602462046BDE8F840A8
:104A1000FFF7BABE0021FF200022BDE8F840FFF7F3
:104A2000B3BE013C0CBF01230023E5E7884E002004
:104A30008D4E0020980000208C4E00208E4E0020CD
:104A40000F4A104BD2F888000F4940F4700070B440
:104A5000C2F88800002418684FF000650B4E40F043
:104A6000010018609C601868014019605E60196858
:104A700021F480211960DC60956070BC704700BF34
:104A800000ED00E000380240FFFFF6FE1030002489
:104A9000DFF834D0002103E00C4B5B584350043165
:104AA0000B480C4B42189A42F6D30B4A02E0002303
:104AB00042F8043B094B9A42F9D3FFF7C1FF09F0D2
:104AC0009DFCFCF737FF7047FFFF0720CC2A010849
:104AD00000000020DC0D0020E00D0020344101200A
:104AE000FEE700000E4A4FF47A730E491278B3FBCA
:104AF000F2F310B504460868B0FBF3F003F0A6FE2D
:104B000008B90F2C01D9012010BD002221464FF019
:104B1000FF3003F059FE044B00201C6010BD00BFA5
:104B2000A00000209C000020A400002008B5032065
:104B300003F036FE0020FFF7D5FFFDF783FC0020D1
:104B400008BD00BF034A044B11681B780B44136077
:104B5000704700BFBC780020A0000020014B1868FF
:104B6000704700BFBC78002038B50446FFF7F6FF59
:104B70000546631C02D0044B1B781C44FFF7EEFF74
:104B8000401BA042FAD338BDA0000020014B18689A
:104B9000704700BF20F4F01F704700BF0268034653
:104BA00030B5556885B0916801F04104012C5FD0A3
:104BB000880707D52C0605D51A6D184605B0BDE83F
:104BC0003040104711F4B07F50D0A8064ED54C06A7
:104BD0000ED593F85D00032851D0186E002440F0E4
:104BE000040018660094D0680090906800900098C7
:104BF00088060CD5186E002440F001001866029457
:104C000090680290106820F0400010600298C9057A
:104C100008D5196E002041F00801196603909168CB
:104C200003910399196E09B31C465368012123F0BF
:104C3000E0035360AB0784F85D1014D05368A16D96
:104C400023F00303536021B1114B08460B6501F0BB
:104C50000FFD636D53B10E4A18461A6505B0BDE8E5
:104C6000304001F005BD2046FFF796FF05B030BD8E
:104C70006C069DD5C36C05B0BDE8304018470023D5
:104C80000193D368019393680193019BEEE700BF02
:104C9000954C000808B50022836BA3F846201846FF
:104CA000DA87FFF779FF08BD2DE9F04FDFF82CC256
:104CB00083B08E460025DFF82892D1F8008003E00B
:104CC0000135102D00F0B6800123AB4008EA030146
:104CD0008B42F5D1DEF8044024F01007022F40F09B
:104CE000AC80EF0805F0070A4FF00F0BDEF810203C
:104CF00000EB87074FEA8A0A3E6A0BFA0AFB02FAC0
:104D00000AF24FEA450A26EA0B064FF0030B32433C
:104D10000BFA0AFB04F003063A626FEA0B0207681B
:104D200006FA0AF617403E4306608668C4F3001789
:104D300006EA020BDEF80C60AF4006FA0AF646EA15
:104D40000B068660466826EA03031F434760C66871
:104D5000E700DEF8083002EA060203FA0AF343EA43
:104D60000203C360ACD5D9F8446025F0030705F011
:104D700003030F2246F4804607F180479B00C9F8E1
:104D8000446007F59C37D9F8446002FA03FA06F448
:104D900080460196484E019AB042BA6822EA0A0259
:104DA00020D006F58066B0425ED0444EB04260D05E
:104DB000434EB04262D0434EB04264D0424EB04205
:104DC0006BD0424EB0426DD0414EB04260D0414EA9
:104DD000B0426CD0404EB0420CBF09260A2606FAFB
:104DE00003F31A43BA60E603DCF800306FEA01020D
:104DF00005F1010554BF13400B43A703CCF8003065
:104E0000DCF8043054BF13400B43E602CCF8043006
:104E1000DCF8083054BF13400B43A402CCF8083030
:104E2000DCF80C3054BF13400B43102DCCF80C3081
:104E30007FF44AAF03B0BDE8F08F4FEA450A032282
:104E4000D0F800B0013F04EA020602FA0AF2012F8C
:104E50006FEA020206FA0AF602EA0B0B46EA0B06B2
:104E600006603FF674AF60E7012606FA03F31A43C3
:104E7000B8E7022606FA03F31A43B3E7032606FA55
:104E800003F31A43AEE7042606FA03F31A43A9E72D
:104E9000072606FA03F31A43A4E7052606FA03F3E6
:104EA0001A439FE7062606FA03F31A439AE70826F1
:104EB00006FA03F31A4395E7000002400008024097
:104EC000000C024000100240001402400018024092
:104ED000001C02400020024000240240003C01402F
:104EE0000038024002B9090481617047044A5169DF
:104EF000014200D1704708B55061FDF75FFA08BD67
:104F0000003C0140034602220020196810B401242D
:104F100083F83D200A6822430A6083F83D405DF82B
:104F2000044B7047F0B4324EB0F1804F314FA0EBDC
:104F300006060368A0EB0707B6FA86F6B7FA87F706
:104F40004FEA56164FEA571725D026BB2A4A9042F9
:104F50003ED002F5806290423AD002F580629042E3
:104F60003BD0002F39D1254A904218D002F58062FB
:104F7000904214D002F58062904210D0A2F598328F
:104F800090420CD002F58062904208D002F5806217
:104F9000904208D103E023F070034D682B4323F4C3
:104FA0004073CD682B434A6923F080038C68134318
:104FB0000A680360C462826226B91FB90123F0BC8B
:104FC000436170470B6903630123F0BC4361704781
:104FD00023F070034A681343E1E7094A23F07003A2
:104FE0004C68904243EA0403D9D0002FD7D1BAE7E6
:104FF0000000014000040140000400400040014066
:10500000000C0040B8B190F83D3010B503F0FF023D
:1050100004465BB102232068211D84F83D30FFF770
:1050200081FF0123002084F83D3010BD80F83C2032
:10503000FDF732FCEEE70120704700BF90F83C30EE
:10504000012B70B41FD00268114D5368AA429468B6
:1050500014D005F58065AA4210D00E680025896835
:1050600024F0800423F07003214333432E46536021
:10507000916080F83C50304670BC704723F4700358
:105080004D682B43E9E70226304670BC704700BFED
:1050900000000140F8B590F86940202C2ED179B37A
:1050A000B2FA82F56D095DBB90F86840012C25D0FD
:1050B0000446012613462120A4F85220A4F85020CB
:1050C00084F86860226E0F4EE566E16484F869003A
:1050D0001046D6630C4F0D4E15651764D6642268D2
:1050E000283201F07FFA2368402228461A629A6823
:1050F00084F8685042F080029A60F8BD0220F8BD42
:105100000120F8BD0152000831520008F952000890
:10511000F8B590F86A30202B35D1002935D0B2FA95
:1051200082F56D09002D30D190F86830012B2AD01E
:10513000044613460A462221666E0120E566144F96
:1051400084F86A1013496265A4F8583084F868003E
:1051500030463565C6E90F7121680F4F2431F76479
:1051600001F040FA236884F8685028461A6842F42F
:1051700080721A609A6842F001029A609A6842F05E
:1051800040029A60F8BD0220F8BD0120F8BD00BFC2
:105190003D520008E9520008F95200082DE9F84391
:1051A000089D80460F4616469946D8F8004001E013
:1051B0006B1C0AD1E06937EA00030CBF0120002014
:1051C000B042F5D00020BDE8F8833DB1FFF7C6FC42
:1051D000A0EB0900A842E8D3D8F8004023682022B9
:1051E0000021032023F4D0732360A36823F001037C
:1051F000A36088F8692088F8681088F86A20E2E7D8
:1052000008B50368806B1B6813F480730BD10268C8
:10521000A0F85230936823F080039360136843F042
:105220004003136008BDFEF78DFC08BD704700BF4A
:1052300008B5806BFFF7FAFF08BD00BF08B503682B
:10524000806B1B6813F4807311D102682021A0F8D1
:105250005A30136823F480731360936823F00103BA
:105260009360936823F04003936080F86A10FEF720
:1052700019FC08BD90F86A20222A38B5036814D1B9
:105280008468B0F85C10B4F5805F426D13D05B6A3F
:10529000541C0B4044651370B0F85A40013CA4B252
:1052A000A0F85A4084B1002038BD9A69022042F02B
:1052B00008029A6138BD0469002CE8D15B6A0B4092
:1052C00022F8023B4265E7E702682025116821F4D5
:1052D00090711160916821F00101916080F86A502D
:1052E000FEF7E0FB204638BD08B5806BFEF78AFB71
:1052F00008BD00BF704700BF08B50022836BA3F84C
:105300005A20A3F8522093F86920212A1BD093F841
:105310006A20222A07D0DA6E184642F01002DA66B6
:10532000FFF7E8FF08BD1A6891684906F3D51168D0
:10533000202021F490711160916821F001019160A9
:1053400083F86A00E7E71A6891680806DFD51168F4
:10535000202021F0C001116083F86900D7E700BF69
:105360000368DA6970B516071D680446996828D184
:10537000910602D5AE0600F18B80160604D45106C4
:1053800001D56A0679D470BD2806F8D594F869204D
:10539000212AF8D1B4F8522092B2002A00F091806C
:1053A000A168E26CB1F5805F00F09480511CE1646B
:1053B00012789A62B4F85230013B9BB2A4F8523092
:1053C00070BD11F0010102D115F4907FD5D0D00746
:1053D00007D5EE0505D501201862E06E40F001000A
:1053E000E066900738D4500701D500293ED1160752
:1053F00003D5A80650D400294ED1E16E0029C2D0B1
:10540000960601D5A80652D4E26E110703D49D6812
:1054100015F0400550D01A68202122F490721A60CD
:105420009A6822F001029A6084F86A109A6852061B
:1054300039D59A68616E22F040029A60002932D014
:105440002A4B08460B6501F013F900289BD0606ECB
:10545000BDE87040036D18470029C8D002205607E8
:105460001862E06E40F00400E066C0D504201862C7
:10547000E06E40F00200E066B9E71A68202120469D
:1054800022F040021A6084F86910FEF75BFB70BDE1
:10549000BDE87040FFF7EEBE08211962E16E41F0F1
:1054A0000801E166A9E72046FFF724FF70BD20460A
:1054B000FFF7E0FE2368A7E72046FFF71BFFE5663E
:1054C00070BD1A6822F080021A601A6842F0400229
:1054D0001A6070BD216900297FF468AF32F8021BA1
:1054E000C1F308019962E26464E700BFF154000867
:1054F00008B50022836BA3F85A201846A3F852205F
:10550000FFF7F8FE08BD00BFF8B504468368A2495E
:10551000E669E768A14DD0E904201A4323680243F5
:105520001868AB4201EA000142EA060242EA0102BF
:10553000A1691A605868226A20F4405042EA0102C8
:1055400040EA07005860996821F4306142EA01029C
:105550009A6043D0924A93421DD0924A934200F0FF
:105560009080914A934200F0B880904A934247D08D
:105570008F4A934200F09F808E4A934200F0E98068
:105580008D4A934200F0F680B6F5004F00F0D280CD
:1055900001221046F8BD02F5FA328849D2F890206F
:1055A00002F00C028A5CB6F5004F1FD0082AEFD833
:1055B00001A151F822F000BF775600082D560008CF
:1055C0001F57000891550008CF5600089155000854
:1055D0009155000891550008A5560008784A794968
:1055E000D2F8902002F003028A5CDCE7082A00F27D
:1055F000A180DFE802F04328809F6F9F9F9F8E006D
:1056000002F5F432D2F8902002F44072B2F5807FB5
:105610005AD02BD9B2F5007F6AD0B2F5407F3ED088
:10562000B2E7002AB0D1B6F5004F0CD001F0C0FBB4
:105630000022D4E9001300EB5300B0FBF3F080B27A
:10564000C8601046F8BD01F0B3FB0022D4E9003574
:10565000690801EB4000B0FBF5F0C0F3420120F017
:105660000F00014389B2D9601046F8BD002A8BD1E2
:10567000B6F5004F02D001F08BFBD9E701F088FBB3
:10568000E3E702F5F832D2F8902002F03002102A57
:105690001AD0EBD9202A2BD0302A7FF475AFB6F57B
:1056A000004F36D060680022410801F50041B1FB8F
:1056B000F0F189B2D7E702F59232D2F8902002F4E5
:1056C0004062B2F5806F38D1B6F5004F02D001F0DC
:1056D00087FAADE701F084FAB7E702F5F632D2F8BF
:1056E000902002F0C002402AEED0BFD9802A2DD1EE
:1056F000B6F5004F13D161680022334800EB51002A
:10570000B0FBF1F0C0F3420120F00F00014389B279
:10571000A9E761680022480800F58030F0E760687A
:1057200000222A4901EB5001B1FBF0F189B2104689
:10573000D960F8BD0021012295E77FF672AFB2F57E
:10574000006FD5D0B2F5406FA9D01DE7C02AA6D012
:105750001AE702F5E032D2F8902002F44052B2F596
:10576000805FB1D082D9B2F5005FC1D0B2F5405FA1
:1057700095D009E702F5DE32D2F8902002F44042DB
:10578000B2F5804FA0D07FF671AFB2F5004FAFD029
:10579000B2F5404F83D0F7E6F369FFEF0010014008
:1057A0000044004000480040004C004000500040D1
:1057B0000014014000780040007C0040982501085A
:1057C00000380240942501080048E8010024F40054
:1057D000436ADA0710B406D50168846A4A6822F47D
:1057E000003222434A609C0706D50168C46A4A68B1
:1057F00022F4803222434A60590706D50168046BBF
:105800004A6822F4802222434A601A0706D50168BA
:10581000446B4A6822F4004222434A60DC0606D503
:105820000168846B8A6822F4805222438A60990658
:1058300006D50168C46B8A6822F4005222438A604C
:105840005A060AD50168046C4A68B4F5801F22F430
:10585000801242EA04024A600BD01B0606D5026899
:10586000816C536823F400230B4353605DF8044BB1
:1058700070474A68446C22F4C00222434A60ECE755
:1058800070B50025044682B0C566FFF767F9226847
:10589000126813070AD400232022184684F86920CE
:1058A00084F8683084F86A2002B070BD6FF07E46DC
:1058B00003462A464FF4001100962046FFF76EFC7F
:1058C0000028E8D0032002B070BD00BF90B390F86C
:1058D000693010B503F0FF02044603B322682423A5
:1058E000204684F86930136823F001031360FFF742
:1058F0000BFE012818D0636AC3B9236820465A6892
:1059000022F490425A609A6822F02A029A601A6839
:1059100042F00102BDE810401A60FFF7B1BF80F805
:105920006820FDF7A7FBD9E7012010BD2046FFF74F
:105930004FFFE2E701207047002873D090F8BD3395
:10594000F0B503F0FF028BB00646002B65D00323B1
:10595000354630686C4686F8BD33371D03F0BCFD14
:1059600055F810EBAC46BCE80F000FC4BCE80F00C4
:105970000FC49CE8030084E803007046012497E804
:105980000E0003F063FD0021306803F0ADFD00213F
:1059900032463346084683F83C10A3F842100131E2
:1059A00083F83D400F2983F83F001865C3E91100D3
:1059B00003F11C03EFD100231C4682F8FC310133B4
:1059C00082F8FD411C320F2B82F8E341C2F8E84116
:1059D000C2F8EC41C2F8F441EFD10FCDEC46D6F855
:1059E00000E0ACE80F000FCDACE80F0095E8030035
:1059F0008CE80300704697E80E0003F08DFD01224D
:105A0000736A86F83840934286F8BD230CD030681C
:105A100004F00EF900200BB0F0BD80F8BC23FEF7B7
:105A20002BF994E701207047304600F025FDEEE7A2
:105A300090F8BC33012B0ED0012310B5044600684A
:105A400084F8BC3304F0E8F8206803F03DFD002042
:105A500084F8BC0310BD0220704700BF2DE9F04F51
:105A6000056887B0044628462F6C04F01FF910B172
:105A700007B0BDE8F08F0646206804F0E5F800287E
:105A8000F6D0206804F0E0F810F0020F206803D090
:105A9000436903F00203436104F0D6F810F4002BCD
:105AA000206840F0E18104F0CFF8470300F129813C
:105AB000D4F800A0504604F0C7F80028C0F29C803B
:105AC000206804F0C1F8000563D4206804F0BCF835
:105AD000020113D5226894F8F013536903F00063B0
