:400000000080002011000000F1640000F1640000034A08B51268034B1A6006F071FA00BFFA460040BC76004010B5054C237833B9044B13B10448AFF300800123237010BD65
:40004000D08BFF1F00000000D0A80000084B10B51BB108490848AFF300800848036803B910BD074B002BFBD0BDE81040184700BF00000000D48BFF1FD0A80000C880FF1FEE
:40008000000000002DE9F041334B84B01D78ADBB4FF4587404FB01F4DFF8CC8018F80430444483422AD002280F460646A4F81852A4F81A52A4F81C52A4F85852A4F85A5228
:4000C000A4F85C52A4F81051A4F81251A4F81451C4F82051C4F8085213D0042826D0A0F10605B5FA85F56D094FF4587101FB07F11A4A1B4B08F8016015701E7004B0BDE89F
:40010000F081084600F0ECF98646724601200021D317CDE90201CDE9000119467046C4F828E201F031FC0F4B1860DDE7084600F0D7F98646724601200021D317CDE9020105
:40014000CDE9000119467046C4F868E201F01CFC044B1860C8E700BFF78DFF1F948CFF1F7890FF1F60FCFF1FB890FF1F574B00221A709A60DA601A615A619A61C3F8F82003
:40018000C3F80021C3F80421A3F81822A3F81A22A3F81C22A3F81E22A3F82022A3F82222C3F82422C3F82822C3F83C22C3F84422C3F84822A3F85822A3F85A22A3F85C22BD
:4001C000A3F85E22A3F86022A3F86222C3F86422C3F86C22C3F86822C3F84823C3F85023C3F85423A3F81021A3F81221A3F81421A3F81621A3F81821A3F81A21C3F81C2175
:40020000C3F82021C3F80022C3F80822C3F80C2283F86023A3F86823A3F86A23A3F86C23A3F86E23A3F87023A3F87223C3F87423C3F87823C3F85824C3F86024C3F86424B6
:40024000A3F87825A3F87A25A3F87C25A3F87E25A3F88025A3F88225C3F88425C3F88825C3F89C25C3F8A425C3F8A825A3F8B825A3F8BA25A3F8BC25A3F8BE25A3F8C02550
:40028000A3F8C225C3F8C425C3F8CC25C3F8C825C3F8A826C3F8B026C3F8B426A3F87024A3F87224A3F87424A3F87624A3F87824A3F87A24C3F87C24C3F88024C3F86025E3
:4002C000C3F86825C3F86C25704700BFB890FF1F2DE9F041324D4FF4587E0EFB025EDEF83C72441AE31BDEF8486203EB43031E44DEF84432DFF8C8C02344CEF84072294F4E
:4003000046F39C066345CEF82412CEF82802CEF83C42CEF84862B960FC607860CEF8443232DD214B2149CEF844324FF4587808FB0258B8F81A32B8F818E2B8F81C0201FB10
:4003400003F104FB0EFE06FB00F0194D85FB0E3485FB016385FB00654FEAEE7EC917C1EB6313CEEB6414C017C0EB6515E6182E4430461146FC613B627D6200F025FA3E6104
:40038000D8F83C02BDE8F0810A498B4204DA0A4B0A49CEF84432C8E70A2193FBF1F1C4E7B890FF1F7890FF1F8096980040420F001F85EB51816967FF806967FFC0BDF0FF8C
:4003C0007F96980070B5224C4FF4587505FB0245D5F80832411A1F4E0B44B34284B0C5F800122ADD1C4BC5F808324FF4587505FB0244B4F81061B4F8125101FB06F103FB78
:4004000005F309125B130191144D0293019E144B0299D5F8B85183FB00E331442B2606FB0511A3EBE070084403900398114600F0CBF9D4F8000204B070BD0A4EB342B7BF31
:40044000094EC5F808323346C5F80862CDE700BFB890FF1FFF2C3101002D310190FCFF1F5655555501D3CEFE00D3CEFE0E4A4FF4587303FB0020D0F86C3230B4B0F85A22C9
:40048000D0F86842D0F864525B42B0F8581202FB03F3621B01FB02F230BC9B1103EB6223C0F82031704700BFB890FF1F07480378827D5B031203818A02F4805203F4C04344
:4004C0001343C1F30B021343438370477890FF1F024B00229A829A75704700BF7890FF1F70B40B4C0B490C4E25684FF4587303FB00604A6A656014688B6AC0F864421B68C9
:4005000070BCC0F86C321368C0F82432106870477897FF1F60550020B890FF1F014B01221A707047EC8BFF1F10B5054C30226069044902F013FF23790133237110BD00BF62
:400540004024002020FBFF1F08B506F0B7FA024B01221A7008BD00BF1D8CFF1FF0B5002683B08DF8076006F0E3FF2F4C8DF8070023782578002B36D006F0ECFF2B4AEDB2EE
:4005800022F8150023782A4FDBB232F81330DFF8B8E0C3F30D03274C184601223946AEF80030226002F04AFB234BD7F8C001234C596B40F3CF0000F0F3FF23784BBB637836
:4005C000132B21D80133DBB244F61F61628863708A421A4D05D843F2B0639A4220D80132628003B0F0BD06F0B5FF104BEDB223F81500237812490133DBB223700B88114ADF
:400600009BB2138003B0F0BD094802F03FFB0123DAE701F08FFF63782670132BD2D9F3E702F078F86A88DAE7628EFF1F008FFF1F90FCFF1FF88EFF1F60550020EC8BFF1FDD
:40064000608EFF1F48640040FC8EFF1F08B543F6FF7002F0CDF80A490A4B0A790132D2B2A3FB02031B0903EB8303A2EB8303DBB20B7103B108BDBDE8084001F0EBBB00BFC9
:40068000EC8BFF1FCDCCCCCC0A4A01210A4B11701A78FF2A0CD01A780849D2B28A5C52B27D2A05DC1A78D2B28B5C01335BB28B54704700BF2A8CFF1FF880FF1F208CFF1FF1
:4006C000024A13780133DBB213707047228FFF1F204D214EDFF884802DE9884803F032FC2F4602F01DFBB24600F04CF9C34603F093FB04F05DFE04F071FEDFF864902B7845
:400700000022012B0BD134783A7084F00104347044B101F0F5FD2B780022012BF3D001F01FFEECE798F80030DBB20AEB830289F8003053689847FF2389F8003098F800300A
:400740000133DBB2042B88F8003088BF8BF80040DFE700BF2A8CFF1FCC80FF1F2B8CFF1FF880FF1F40F2E631064A138801339BB28B4203D900231380012070471380002002
:40078000704700BFF88BFF1F064A538801339BB2622B03D9002353800120704753800020704700BFF88BFF1F08B501F0CBF8044A044BD2F8FC21A3F87800DA6708BD00BF68
:4007C000B890FF1F106000204CF250339842A8BF1846194B194A9842B8BF184610B5D2F8B83182B003EBC30103EB810303F5FA540022A0428DF8072004DCA3F5FA548442DD
:40080000B8BF04460DF1070000F0F8F89DF807302BB104EBC40304EB831494FBF0F3084A127822B1074B00245C6302B010BD1CB2044B5C6302B010BDB03CFFFF90FCFF1F6A
:40084000428CFF1F6055002070B54FF4804341F6FF720121022007F0A5F9064607F00AFC04462B4D00230246022107F01FFC291D46F64C0289B2204607F030FC21463046EF
:4008800007F0C8FB3046012107F066FB4FF4804341F6FF720121022007F0A4F9064607F0E9FB044600230246022107F0FFFBA91D46F6502289B2204607F010FC2146304623
:4008C00007F0A8FB3046012107F046FB4FF4804341F6FF720121022007F0A4F9064607F0C9FB044600230246022107F0DFFBA9B2204646F6542207F0F1FB2146304607F02E
:4009000089FB3046BDE87040012107F025BB00BF2E8CFF1F08B501F0D1FD06F0BFFE4FF4FA7006F0FBFE07F0A9F84FF4FA7007F0E7F807F0EBF84FF4FA7007F027F90B4BFE
:400940004FF4FA729A80DA801A805A80FFF77CFF07F08AF9012007F01FF9012007F05AFC01F008FDBDE8084000F0AAB92E8CFF1F10B4034CA080E1802280638010BC7047AD
:400980002E8CFF1F08B5052007F044FC002006F06DFE002006F076FE01F01AFFFFF7BAFFFFF7E4FB02F032FA00F028FF62B602F02FFA06F05BFA02230B4AFE21402001F010
:4009C00035FA00F08BFF3221084800F063F9084802F008F8074B012207481A7002F002F8BDE8084004F0CCBA648EFF1FA097FF1FA0FFFF1F368CFF1F90FCFF1F1C4B1D4A02
:400A0000F0B41C8813880646A34219D821461A4D00232C60536049F2880788B2A0F58443683B9BB2BB428CBF00230123B1F57A5F1480337010DC4FF47A502860F0BC704708
:400A400053680D4D01330A2B53600FDD29680023013953602960DEE74FF6FE739942EDDD4FF6FF7318462B60F0BC70472968D2E710600020388CFF1FFC80FF1F30B5334C52
:400A800083B094F9043000220133ADF80620032B4BD8DFE803F027380F022D4A138901339BB2B3F57A7F13814CD8B4F90600608103B030BD264D2B8901339BB2072B2B81FF
:400AC000F3D90DF1060005F099FD002834D194F908301E4A002B31D1BDF906000223D0801371E4E740F6C411194A138901339BB28B421381D9D9B4F90600002313812371F8
:400B0000608103B030BD124B00221A8105F05CFD0728CAD194F908300C4A0BB1013B137201232371B4F90600C1E7B4F9060000232371608103B030BD102803D02B89B3F505
:400B4000FA6FB2D900232371AFE700BFFC80FF1F388CFF1F014BB3F90A007047FC80FF1F104B9B7A542B07D84F2B15D80E4A00230370D3720B7070470B4AD37A0133DBB2A9
:400B8000192BD37207D910B40123002404700B70937210BC704770470122002302700B70704700BFFC80FF1F388CFF1F10B5044604F0B0FA054B022804BF01221A731CB106
:400BC00000221A73104610BD187B10BD388CFF1F012900D9704710B52D4CB4F89C3008280ED8DFE800F0171A232D37414B05100023F0800301299BB202D1D201D2B21343BE
:400C0000A4F89C3010BDDBB2012904BF43EA02218BB2F5E749428BB2F2E723F0030301299BB2EDD102F003021343E9E723F0040301299BB2E4D1920002F004021343DFE7A4
:400C400023F0080301299BB2DAD1D20002F008021343D5E723F0100301299BB2D0D1120102F010021343CBE723F0200301299BB2C6D1520102F020021343C1E723F04003F8
:400C800001299BB2BCD1920102F040021343B7E7106000200023416003608360704700BF0B684A6883420ABF8B6800230133934208608B60B4BF00200120704700000000D5
:400CC0002DE9F04FC04D002128469BB001F0BEFBAB46B5F8FC402B882A46BC4E05F1FA00BB4D00213480297002E090420B4608D032F8021FCB1A413B822BF6D9B44A01237A
:400D00001370BBF800A0B04BBAF1C30F07DCB3F8FA30A3F57C533C3B9BB2C32B02D9AC4A01231370AB4BAC4AA3FB04139B0803EB4303A4EB43039BB2194603F17D007C3105
:400D40000D9382FB004382FB0142BBF8FA40A3EBE07325460B941C46A2EBE1731A46BBF8F8304FF004091E461193BBF8023002EB42021F460C93C5F5804313930AF58043AA
:400D80005B1B0F93CAEB070312934B46D1469A46A1EB4201139A04EB44040132A0EB44001392AA1B0E90159114920324002318934C4523B20A9326DB0C9B9C42C0F25B8219
:400DC0000B9B9C4280F26B82119B9C4280F27C82824B83FB0423E217C2EBA3133BF81320944203F10100114606DA013B3BF81320581C94421146F8DB3BF810209442C0F2DF
:400E000013820346ECE70F9B0E9918930B9B189AC3F58043234402FB013319931898199D00EB4000400008F07FFF06460F46284608F07AFF62A3D3E9002308F0DBFF3246F9
:400E40003B4609F001F907F0BFFB0022644B08F0D1FF07F069FB09F07DFA189A199B01B203EB4200049108F05FFF55A3D3E9002308F0C0FF32463B4609F0E6F807F0A4FBC1
:400E80000022574B08F0B6FF07F04EFB09F062FA189A199B01B203EB8200059108F044FF47A3D3E9002308F0A5FF32463B4609F0CBF807F089FB0022494B08F09BFF07F0FE
:400EC00033FB09F047FA199B02B21846069208F02BFF3BA3D3E9002308F08CFF32463B4609F0B2F807F0D8FA00223D4B08F082FF07F01AFB09F02EFA189A199B01B203EB0E
:400F00004200079108F010FF2DA3D3E9002308F071FF32463B4609F097F807F0BDFA00222F4B08F067FF07F0FFFA09F013FA189A199B01B203EB8200089108F0F5FE20A3CA
:400F4000D3E9002308F056FF32463B4609F07CF807F0A2FA224B002208F04CFF07F0E4FA09F0F8F900231693CA4503B2099339DB0C9B9A45C0F289810B9B9A4580F2998128
:400F8000119B9A4580F2AA81144B83FB0A234FEAEA72C2EBA3133BF81320924503F10100114606DA013B3BF81320581C92451146F8DB3BF810209245C0F249810346ECE7B5
:400FC000A7E8482EFF211940C0D8FF1F0881FF1F588CFF1FABAAAAAAABAAAA2A7FE0077E000090400F9B139A1693169B0E99224401FB032317931698179D00EB4000400037
:4010000008F092FE06460F46284608F08DFEBAA3D3E9002308F0EEFE32463B4609F014F807F0D2FA0022B64B08F0E4FE07F07CFA09F090F9169A179B01B203EB42000191F2
:4010400008F072FEACA3D3E9002308F0D3FE32463B4608F0F9FF07F0B7FA0022A84B08F0C9FE07F061FA09F075F9169A179B00B2029003EB820008F057FE9FA3D3E900236F
:4010800008F0B8FE32463B4608F0DEFF07F09CFA00229B4B08F0AEFE07F046FA09F05AF9179B02B21846039208F03EFE92A3D3E9002308F09FFE32463B4608F0C5FF07F016
:4010C000EBF900228E4B08F095FE07F02DFA09F041F9169A179B0FFA80F803EB420008F023FE85A3D3E9002308F084FE32463B4608F0AAFF07F0D0F90022814B08F07AFED0
:4011000007F012FA09F026F9169A179B05B203EB8200109508F008FE77A3D3E9002308F069FE32463B4608F08FFF07F0B5F90022734B08F05FFE07F0F7F909F00BF9049E31
:401140000199039A06EB010C0699029B01EB020E059A00B2D718079A0A9B02EB0806099A0CEBDC7C1118089ADB102A44654D4FEA6C0C25F813C00EEBDE7E634D4FEA6E0E5E
:4011800025F813E007EBD777604D7F1025F8137006EBD6765E4D761025F8136001EBD1715C4D491025F8131002EBD2725A49521021F8132044F2030308349C420AF1080AB0
:4011C0007FF4F4AD00252C4621460A46019B049E63F30F05039B069F63F30F04109B68F31F4463F30F01134666F30F021E4660F31F41059867F30F0360F31F420798089F8D
:4012000060F31F43099867F30F06029F60F31F46424867F31F4545608460C1600261436186611BB0BDE8F08F0D98521A03443C48189280FB0350A0EBE370189D00EB4000AF
:40124000621AA3EB400305FB03221992E6E50D98521A03443248169280FB0350A0EBE370169D00EB4000C1EB0A02A3EB400305FB03221792BFE6129B0D991893189BC9EB21
:40128000040203FB01231993C8E5129B0D991693169BC9EB0A0201FB03231793ABE61A460F9B0E991893189BA21A03FB01231993B4E51A460F9B0E991693169BC2EB0A02ED
:4012C00001FB0323179396E61A46149B15991893189BA21A03FB012319939FE51A46149B15991693169BC2EB0A0201FB0323179381E600BFAFF30080A7E8482EFF2119401B
:4013000000009040B8A7FF1FBCC7FF1FB897FF1FC4E9FF1FC4D9FF1FB8B7FF1F588CFF1FABAAAA2AF8B5964CE3690133B3F5C87FE361236A03DB002201332362E261832B9B
:4013400015DC904A012182FB0302A2EBE37202EB4202A3EB42036162052B00F2FF80DFE813F07900CA00D400DE00E800F200636A012B00D0F8BD40F2DE32834D11461046DE
:401380000023FFF7F5FAAE687D2E00F3F5807F4F720007EB4601C2F1FC027D4809F062FAC6F17E037D2B4FF07E06AE6000F3E1809E465900DFF8D8C107EB46000239FE385D
:4013C0006144013330F8027F9A197E2BCEEB020221F8027FF5D1AA602A880123ACF8FC20ACF8FE30BCF80030DFF8A4C1002162460CF1FA00217002E082420B4607D032F817
:40140000021FCB1A413B822BF6D901232370BCF800305F4AC32B07DCB2F8FA30A3F57C533C3B9BB2C32B01D9012323700021584800F0A8FFFFF744FC0120FFF7B7FB43F68B
:40144000FF7100234FF0FF3269602362E3616362AA60F8BD40F203231A4619464FF4EB70E3622363A0620023FFF782FAE5694449C82D7FF77FAF40F28F16464B4A6BD3F8E0
:40148000C830886B03F500431344B54200F101024B638A637FF46EAF02EBD27003EB600393FBF2F3086A3C4E3C4980FB06674FEAE07EC219CEEBA2121940C2EB821200299B
:4014C000A0EB42024EDB304D304F6B688EB2B34227F812100BDD2B4B6E6083FB0013CEEB030303EB4303A0EB4300AA60288000236363A363F8BD40F203224FF4EB73194684
:40150000A362E36218462263ADE740F203234FF4EB711A46A36223631846E162A3E740F203204FF4EB731A46E36223631946A06299E740F203234FF4EB721946A362E3623A
:40154000184622638FE740F203254FF4EB731A4618462946A3622363E56284E7208DA18D228E80E701396FEA81416FEA91410131A9E7DFF81CC02FE70023044F18E700BF7C
:40158000588CFF1FABAAAA2A0881FF1FBCD7FF1FC0D8FF1F90FCFF1F83200882FF3F0080F8B5554D064695F83C300C463BB1534B00F500763340002BC0F288801EB2686A88
:4015C0004D4F00B1F8BDFFF7F1FA58B34C494D4A4FF4FA730B601360184619461A464A4E336089B2B2F5757F18DA142ADBBF15231A4692B233600023FFF7BAF94348FFF79F
:40160000FDF900FB04F4424AE31782FB0424414AC3EB6404A864C2F88040F8BD40F2D3323260E8E73C4B1B78002BCFD13B78002BCCD13A4B3A6C33F91600394902FB00F0E6
:40164000384B31F9161033F9163002FB01F104FB0300354B002833F91630B8BF00F2FF3004FB0311314B002933F91670304B02FB07F233F91630B8BF01F2FF3104FB032277
:40168000002AB8BF02F2FF32801200F5FA70DFF870E089121B4F92121B4E01F5FA7102F5FA72B0F5757FCEF800003960326014DB40F2D330CEF80000B1F5757F15DB40F246
:4016C000D331B2F5757F39608FDBA7E7013B6FEA43536FEA5353013370E71428D7BF152380B21846CEF80030E6E714293FF779AF152319463B6075E7588CFF1FFF070080F7
:40170000B8C7FF1FBCD8FF1FC0D9FF1F9C8CFF1F4329E30010600020428CFF1FC4E9FF1FC4D9FF1FB8A7FF1FBCC7FF1FB8B7FF1FB897FF1F38B51421184802F0BBFB184B67
:40174000D3F8F0211B78104400EBD070401003BB1C46144A1449D2F8B821144D02FB00F081FB0012C017C0EB6220114903FB00F3886C6A6B93FBF0F3002AB8BF5242921071
:401780009342CC640B6402DC5242934200DA0A6438BD40F2DF232324DBE700BFE091FF1FB890FF1F90FCFF1F01BA553260550020588CFF1F70B5044605F046FF012006F0BD
:4017C0004DFD20460B4B04F13002066845688468C168103090421E605D609C60D96003F11003F2D1BDE87040034B0121187806F0B3BB00BFBCFAFF1F1DFBFF1F70B5012078
:4018000006F068FA0121042005F0B0FA05F0E4FE05F0FEFE05F0A4FE0121084641F6FF734FF4804204F054FF1F4C204D207006F021FC062302463021287006F037FC1C4A43
:40184000287892B246F24C4106F048FC2978207806F0E0FB0121207806F07EFB04F05AFF012108464FF4804341F6FF7204F06CFF104C114D207006F0FDFB3523FE22302187
:40188000287006F013FC0D49287889B246F2414206F024FC2978207806F0BCFB20780121BDE8704006F058BB5AFAFF1F1CFBFF1F20FBFF1F1DFBFF1F80FBFF1FBCFAFF1F08
:4018C000C3782BB9034A044B11780122D9769A76704700BF2B8CFF1F4024002038B505F00DF806F08DFA41F6FF734FF480420121022004F0B1FE054606F0BCFB04460623EF
:4019000002460C2106F0D2FB0C4A44F6106192B2204606F0E3FB2146284606F07BFB0121284606F019FB04F0B9FE054B7D203221002218705970DA825A8338BD50FCFF1F1F
:4019400084FBFF1F014B1888704700BFB48CFF1F0A4910B48B88CA8808899BB292B2498980B21A44831888B2054C1844054BC0F38F006083188010BC704700BF50FCFF1FCF
:4019800084FBFF1FB48CFF1F2DE9F04FA04C8BB04FF000084FF000090025C4E90089DDE91689DDE91467B8F10B0FA560E56079F100051BDA022E77F10005C0F21F81B2EB23
:4019C000000863EB0109C4E906013046394618EB080849EB09090125C4E90A89C4E90823C4E90C67A5600BB0BDE8F08F002E77F10005C0F2C181824273EB0105CDE904676B
:401A0000C0F2F38042F210754FF0010A03954FF0000B0025804689464FEA870ECDE906234EEA9673B2005901500141EAD261821A61EB030392197B4199009000801841EAF8
:401A4000927159410B0143EA1073020110461946DDE90623B2EB080263EB0903CDE90023DDE91623C4E90EAB92469B46CDE90889C4E910ABC4E91289DDE9009AC4E91667ED
:401A8000C4E9149A08F0AEFC0A220023C4E9180108F0A8FC82468B4605FB06F8039B524603FB0785A6FB03015B462944C4E91AAB08F098FC89468046BAF1010F7BF10001B3
:401AC000534DC4E91C894FF00002C0F26A811046114616461746134612EB080243EB0903013647F1000780185941BB4508BFB245F2D10023474A08F075FC002871F1000343
:401B000006460F46C0F24081DDE90023B6197F41002AC4E91E01194673F10003B046B9461046C0F22D81B04271EB070502460B4674DBB2EB080863EB09094FEA89054FEA63
:401B4000880245EA98735901500141EAD261821A61EB030312EB080243EB090399009000801841EA927159410B0143EA1073020110461946DDE90423C4E9208908F032FC03
:401B80008D00860045EA90777B017201921B43EAD66363EB070380185941CB0043EA5073C2001046194642F21072002308F01AFC002871F10002164BC0F2D680C3E9220173
:401BC0001AEB00024BEB010312EB0A0043EB0B0100260027C4E92623C4E92801C4E924ABC4E92A670BB0BDE8F08F0B4D4FF0FF3A03954FF0FF3B4FF0FF350BE73046394676
:401C00000125C4E90423E5600BB0BDE8F08F00BFD08CFF1F80969800F0D8FFFF169B179D03FB01F1A3FB002300FB0512169DA5FB0001D11808F0B0F806F00EFD08F032FCAD
:401C4000DDE90623CDE90401DDE9080182428B41C0F29E8042F21075002303934FF001084FF00009DDE904AB5746B8005F46BF0047EA9A714B01420143EAD063101A63EBB8
:401C800001011AEB00024BEB0103104619469B0043EA92739200801859410B0143EA1073020156465F46C4E90E8910461946DDE9162390469946C4E91667C4E91089DDE9B8
:401CC0000889C4E91289DDE90089C4E9148908F089FB0A220023C4E9180108F083FBB846374682468B46039EA7FB050107FB06F605FB0865524629445B46C4E91AAB08F093
:401D000071FBBAF1010F4FF000027BF10005C4E91C01904654DB914616464746434612184B41013647F1000718EB020849EB0309BB4508BFB245F2D140464946244A002312
:401D400008F050FB80EAE078A8EBE0784FEAE87918EB080849EB0909009AA067002AB8BF5242D317E167E4E6002528462946C3F88850C3F88C5023E7764267EB47073AE600
:401D8000404261EB4101CEE6464261EB4107BBE64FF0FF334FF0FF384FF0FF390D4D039360E7DDE90001002871F10003AA67EA670ADB02460B464FF000084FF00009B8E6AC
:401DC000002091460146C7E7404261EB4101F0E780969800F0D8FFFF0C490D4A0B8800B501339BB2A2FB03E24FF47A70920900FB12339BB2B3F5F97F0B8084BFC31A9BB238
:401E00005A080A714B805DF804FB00BFA88DFF1FD34D6210044BC0F1FA001B798342D4BF00200120704700BFA88DFF1F182B01D90120704770B4064D0126002428706970EA
:401E400020466A60AB602E732E752C6170BC7047B08DFF1F014B01225A757047B08DFF1F664A1388002B35D170B5654C227B002A2FD0E28A022A4FD8237E032B2DD8236991
:401E80005F4D002B6AD16A7D012A22D16B752A610023E38205F0A6FA05F0CCFA05F0B2FA022301225749207805F0B4F90223236170BD554E002301224025FE2002216660DA
:401EC000E382236184F8383025706070A1602273227570BD013B1380704700230422226163762376637E012284F83820072BF0D801A252F823F000BF3F1F0000391F00004B
:401F0000391F0000391F0000391F0000391F0000331F0000B31E0000E382236105F062FA05F088FA05F06EFA237E0133DBB22376A3E704F09BFF637E0133637670BD05F0ED
:401F400051FA05F077FA05F05DFA04F0DFFF637E628F013301326376628770BD012B97D0022B07D1EB8A0133EB8205F021FA86070ED42B69032B08D1E38A214D0133E3822E
:401F800005F016FAC20713D42B69042BAAD0A0E7010628D405F026FA294601232A7A11F81C0B05F09DF900220323EA822B6170BD03061FD4AB6853B105F11B02002361681F
:401FC00012F8010FC854A16801339942F7D8237E0B4A0BB1013B1376636B013363630023E382236170BD2B7E002201332B76EA822A6170BD2B7E01332B76F0E71481FF1F80
:40200000B08DFF1FB18DFF1F648EFF1F014B586B704700BFB08DFF1F014B00221A757047B08DFF1F014B187D704700BFB08DFF1F38B5514CFEF7B8FB00F0FEFE23784F4DE3
:40204000002B40F08C802B780BB1012323704A4DFEF714FD691CA81CFEF782FD627801210220FEF7B5FDE3780BB10023EB70FFF7B3FE414BA2785B78002A59D0002B74D04D
:402080000C20FFF7C7FE04F07FFB3D4A3C4813785BB2002BC8BF13785178D8BF002349B29942C8BF43789178354849B29942C8BF8378D178324849B29942C8BFC37811798D
:4020C0002F4849B29942C8BF037951792C4849B29942C8BF43799179294849B29942C8BF8379D179264849B29942C8BFC379117A234849B29942C8BF037A527A204952B20B
:402100009A42C8BF4B7A0F2B20D822791D4C01210420FEF75DFD2378DB0711D5FFF702F9194B1B6803B92370BDE83840FEF71ABB002BA5D0C820FFF76DFE04F025FBA4E7B3
:4021400003F060F9BDE83840FEF70CBB642B02D901222271DAE700231A462371D6E700232B70237000F07AFE6DE76420FFF752FE04F00AFB89E700BFEC8DFF1F228FFF1F20
:40218000208CFF1FF78DFF1F7C8CFF1F38B5304BD3F8FC0102F018FFFEF7F6FA28BB2D4B01211A780520FEF713FDFFF73BFF60BB294CB4F900307BB9FFF734FF78BBB4F95C
:4021C00000308BB9FFF72EFF70B9BDE8384023496FF0010000F060BC013B1BB2B3F5FA6F238015D0002BE7D038BD02F011FF02F091FF012182B20846FEF7EAFC184B012129
:402200001A780320FEF7E4FCC9E700F00DFBCFE7FFF7FCFEF92813D9B4F90030E2E70F4B1049D3F8BC01FEF73BFD0F4D01216B791843C3B21A4606206B71FEF7C9FCBEE7B8
:40224000FFF7EAFE05496FF0010000F025FCE3E7B890FF1FE88DFF1F1681FF1FA0FFFF1F588CFF1FA097FF1FEC8DFF1F10B50020FEF736F93221194801F02EFE184B1A78CF
:402280004AB9184C217802291DD0042914D059B1154B1B7803B910BD002323701946BDE810401846FEF790BA0846FEF78DFA0E4B1B78002BEFD0EFE71046FEF7D7F821789F
:4022C0000029E5D1F0E7D4F82412D4F82802FDF7FFFF21780029DBD1E6E700BFE091FF1FF78DFF1FB890FF1F428CFF1FFFF722BA08B504F0DBFBBDE80840FFF729BB00BFE2
:4023000008B51448837983F00103837183B102F007FE114B1A78114B1AB919780339012910D90022C3F80822FFF77CFE30B908BD033000F03BFD00F055FDEAE7BDE8084075
:40234000FFF78EBDD3F8FC11D3F82001FEF73AF8EAE700BFEC8DFF1FF78DFF1FB890FF1F034AD37983F001031846D37104F072BDEC8DFF1F08B505F0F3F9BDE808400520E6
:4023800005F06CBF2DE9F04F002385B005460193009302930393002952D001294DD1142605F0FAF934463C27A21BD200511C05EB410335F8129035F81180B3F802C09988D6
:4023C000D888B3F808E05A894FEA192A9B898DF801908DF800A04FEA18294FEA1C2A4FEA112B8DF80710E1B201348DF803808DF802908DF805C04FEA10294FEA1E288DF87B
:4024000004A04FEA122C4FEA132A8DF80900A4B268468DF806B08DF808908DF80BE08DF80A808DF80D208DF80CC08DF80F308DF80EA005F0B7F9BC42B6D305B0BDE8F08FA3
:402440000E46132705F0A8F93446ADE72DE9F8438046E1B1012918D1A0273D464FF4F0796C00A4B2204605F083F90646601C80B205F07EF96A1CEB1B95B240EA06204D45C4
:4024800028F81300ECD3BDE8F883BDE8F8830F464FF098090D46E3E7014B1878704700BFF78DFF1F012807D0C30704D402288CBF0020012070470020704700BF70B505F0E5
:4024C00063FA05F039FA05F0B3F905F01DFD012005F0A0FE41F6FF734FF480420121022005F092FA104C114D207005F0C3FD062319460246287005F0D9FD0D4A287892B213
:4025000045F6A23105F0EAFD2978207805F082FD2078012105F020FD05F096FABDE87040012005F077BE00BF8EFCFF1F64FCFF1F68FCFF1F2DE9F04F6A496B4B6B4C1A78A5
:40254000D1F8B031002AA3EB0313694A4FEA830382FB0302D1F8BC010CBF4FF0000E4FF4805EDB17C3EBA21370440344614A03F58040B4F90050604BB4F90270B4F90460A5
:402580000240D1F8B041D1F8BC01D1F8B081D1F8BC1183B0DFF86CC100915968002AACF80050ACF80270ACF80460D3F800A00191D3F808B0DFF85091C0F28C80DFF84CC16A
:4025C00070448CFB041CE417A4EB6C142044494C00F580400440D210002C39F91220474871DB6FF06D0C0CFB08F80099DFF800C171448CFB08EC4FEAE878C8EBAC1888441B
:402600003C4908F5804808EA0101E410002930F91400DFF8FCE04FDB02F5F07C0024C910BCF5707F3EF91110DC601C61DFF8C8E03AD9CBEB0707BF0297FBF2F70124CEF897
:402640000C70CEF81040022200F5F07EBEF5707F08D9CAEB0606B60296FBF0F614463744DF601A6101F5F072B2F5707F1FD9019A0134AD1AAD0295FBF1F52F44DF601C616E
:40268000A7EB8707FF0097FBF4F4E517C3E9064521461B4B322203F59470C3F81C4103B0BDE8F04F01F0E0BB27460122CCE7002CE6D1D3E90645EBE701396FEA81416FEA89
:4026C00091410131A8E7013C6FEA84446FEA9444013486E7013A6FEA82426FEA924201326CE700BF90FCFF1F948CFF1F68FCFF1FD34D6210FF3F0080008EFF1FBCC7FF1F45
:40270000B890FF1F7CFCFF1FB8A7FF1F1F85EB51B897FF1F124B134AF0B4D86A196AB2F9025001310544B2F90470B2F900605C6A986A01EBD1723C4452103044AF18A6183C
:40274000024497FBF1F796FBF1F692FBF1F2DD629F605C621E6019625A609862F0BC7047008EFF1F7CFCFF1F2DE9F0410021804601F0A0FB0746084E1C24002521464046B4
:4027800001F098FB56F8043BC01B073C03FB0055F4D16800BDE8F081788AFF1F2DE9F0410021804601F086FB0746084E042400252146404601F07EFB56F8043BC01B013CA8
:4027C00003FB0055F4D12846BDE8F0818C8AFF1F08B504F047FE054B4FF4404208201A8004F0A0FEBDE8084004F0A0BF608EFF1F38B5044640F4804007F044FE68B9C4F322
:402800000E0444F48044064A064B2046002514809D7004F093FE284638BD44F44044F2E790FFFF1F608EFF1F2DE9F84F684C694D6379267903F03F0303EB8616D4E918238E
:402840001343654AD5F8BC310DD0F31A0121934284F8681080F2AC80D5F8C83103F1010CC5F8C8C109E0F31A934280F2908094F86830002BF0D1D5F8C8C1584BC5F8BC61E9
:402880001A469E46F2E80289C2E900891A467EE902011F46C3E9000118EB000849EB010972E90401CEE900019E4618EB000849EB010977E90601C2E900011A4618EB000853
:4028C00049EB01097EE90801C7E9000118EB000849EB010972E90A01CEE9000118EB000A18461F4649EB010B194677E90C898646C2E9008971E90E23C7E900231AEB080A39
:402900004BEB090B1AEB020A4BEB030B70E91023C1E900231AEB020A06EB8C364BEB030B2F497EE912231AEB02084BEB0309F71718EB060849EB0709C0E90023CEE90067E5
:4029400001F1080050220026C4E91C8907F095FF0B220023A6674046494607F043FDD4E90C23821A61EB0303002AC4E9040173F10004C5F8D80227DB920842EA8372C5F810
:40298000E022A5F8EC02A5F8EE22BDE8F88F41F2883293427FF76FAF94F86830002B3FF46AAFD5F8C83103F1FF3CC5F8C8C164E741F2883293427FF75EAFD5F8C83103F13B
:4029C000FF3CC5F8C8C158E7033243F10003D3E7608EFF1FA0FFFF1F78ECFFFFB8010020708EFF1F2DE9F0470446002501F028FA04F5E87904F1D8004FF0580A01F020FA2F
:402A00000026002704F51878294652464846C4F8B051C4F8B451C4F8B851C4F8BC51C4F8C051C4F8C451C4F8C85107F041FFC9E91667C9E91867C9E91A67C9E91C67524615
:402A40004046C4F84852C4F84C52C4F85052C4F85452C4F85852294607F02AFF42F21073C8E91667C8E91867C8E91A67C8E91C67C4F8D852C4F8DC52C4F8E052C4F8E45240
:402A8000C4F8E852C4F8F052C4F8F452C4F8F852C4F8FC32BDE8F0872DE9F84F644D0C46D5E9186756EA0703D1F8BC31614AA0EB03030BD00121934285F8681080F2A980D9
:402AC000D4F8C8310133C4F8C83108E0934280F2908095F86830002BF2D1D4F8C831A6462246C4F8BC0104F50871FEE98689C1E900892146F2E98467CEE90067A64618EB6F
:402B0000060849EB0709F1E98267C2E90067224618EB060849EB0709FEE98067C1E90067214618EB060849EB0709F2E97E67CEE90067A64618EB060849EB0709F1E97C673A
:402B4000C2E90067224618EB060849EB0709FEE97A67C1E90067214618EB060849EB0709F2E97867CEE90067A64618EB060849EB0709F1E97667C2E9006718EB060A00EB11
:402B8000833249EB070BFEE97489C1E900891AEB080629494FEAE2734BEB0907B6185F41CEE9002301F108005022C5E91C6707F064FE304600260B220023AE67394607F0F5
:402BC00011FCD5E90C23821A61EB0303002AC5E9040173F10005C4F8D80225DB920842EA8372A4F8EC02C4F8E022A4F8EE22BDE8F88F41F2883293427FF76FAF95F86830BB
:402C0000002B3FF46AAFD4F8C831013BC4F8C83165E741F2883293427FF75FAFD4F8C831013BC4F8C8315AE7033243F10003D5E7608EFF1F78ECFFFF708EFF1FD1F8B03182
:402C4000104A03EB43135B0000B582FB03E2DB17C3EBA21303440C4A03F580431A40002AC1F8BC0103DBC1F8C0215DF804FB013A6FEA82426FEA92420132C1F8C0215DF82A
:402C800004FB00BFD34D6210FF3F0080F8B5D0F8BCE1204D7646D5E9202304461E48BEEB02024FEAE67767EB03034FF0FF31824273EB010128DB41F288300021904271EBAF
:402CC0000303B7BFD4F8C831D4F8C81103F1FF31C4F8C81102220EEB81312046C5E9206701F0C2F82046FFF759FD0C4AC31782FB0020D4F8C820C3EBA010C4F8B001C4F866
:402D0000B801C4F8B421F8BDD4F8C831591CC4F8C811DFE7608EFF1F78ECFFFFD34D62102DE9F04FDFF874A0DFF87490DFF87480174F184EDFF870B0174D87B00024E3B202
:402D400019465046CDF8149019F8012B049300F037FD059B40461A7805F59C738DE840080295039301343B46049900F0F7F9032C0AF6185A06F196060BF5647B05F51C7581
:402D800007F1960708F13408D9D107B0BDE8F08FB82000207C22002068190020DC2400206C8FFF1F40240020B80E002038B50A4B5A7902B938BD00225A710446074800F08F
:402DC0000DFA074B0546187805F0E4F8022D04BF0123237038BD00BF40240020681900205AFAFF1F10B5074CA37E012B00D010BD054890F83E1100F23F10FEF7DBFC002384
:402E0000A37610BD402400206819002004F048BF10B5084C00232360E371C4F803302372637203F055FE2246BDE8104007210A2003F0ACBEA002002010B5FDF78BFE054B7A
:402E4000054CB3F89C302072E37102F05DF9607210BD00BF10600020A002002030B50F4C83B002A903236578A27821F8023D0C4B20461D705A7000F02DF8BDF80610094BD1
:402E80004A1C92B2655CA15C002218801D7299815A809A80DA8003B030BD00BFA0020020208FFF1F10600020704700BF137803700B7883704B78C370704700BF138810B4C6
:402EC000040ACC54138819444870138810BC0233138070470B88C2185278C05C023302EB00200B8080B27047138810B4040ECC541388040C0B445C701388040A0B449C70AA
:402F000013881944C870138810BC04331380704770B40C880519035DEA786E78A87802EB0363043403EB06430C8003EB002070BC704700BF2DE9F04116460D46044630224B
:402F40000846AA2107F0B4FC002E5CD04FF000082046474604EB060E02234FF0E90C0CE0E92A12D01C46EA54704542445FFA82F804F1010319D02F2B17D810F8012B5C1C3B
:402F800002F11301C9B20129EAD805F803C010F8011C70452955EA5C07F101074244114401F0FF0804F10103E5D103342F2C19D81A4CF319A279D9B201322F2B6670E7706E
:402FC000A271A17016D8C81C2B44C0B2ED26EE2284F8048069702E7083F80280DA706071BDE8F08128463022002107F061FC0020BDE8F08128463022002107F059FC00207A
:403000006071BDE8F081054C3346A279B04601326670E670A670A2713146D4E7248FFF1F2DE9F04F83B001910092054600F0C4FB071F0DD483464FF0FF34621C92B2ED218B
:40304000284600F0EDF9431C044601D0874203DA002003B0BDE8F08F1FFA80FA0AF1010189B2284600F0C2F9E31C03449B45804602DCA742E1DCEBE79EB23146284600F0AA
:40308000B5F9EE28F5D1731E1FFA83F90AF102014A4689B2284600F01DFA49460646284600F0A4F98642E4D108F104034444524628469BB20199043400F0EAFAB8F1000F96
:4030C00019D00198002208F1010811468044461C07E00099B0458B544FF0000102F1010209D016F8013FE92BF3D10029F1D1B0454FF00101F5D1A0B203B0BDE8F08F00BF55
:403100004378F0B5002B047803690CBF012202228C700A7103F13004CA1DD3F800E05F689E68DD681033A342C2F800E057609660D56002F11002F0D1C3689D3103F130023E
:403140001E685D689C68D868103393420E604D608C60C86001F11001F2D1F0BD2DE9F041044606980025E360DDF81C802170627029469622A570257165712061089F099E24
:4031800007F096FB96222946E06807F091FB404600F0D6F86378C4F8148025766576E76226632278C7F83441C6F8344153B1032302200121BA703871FB70F270B37031710A
:4031C000BDE8F081032301200221BA703871FB70F270B3703171BDE8F08100BFF0B5837890F89E6083B000248DF804308DF8054016B9012003B0F0BD054690F8A07001F0F1
:403200009DFE86420CD001F097FE864208D001F0A1FE86420DD001F091FE864209D310E095F89D2095F89E3003219A42E97034D350D8002003B0F0BD394601F091FE86426C
:4032400043D0002001F09AFEE7B2874204F101044FF00000F0D3044604E0294601F080FE8642C6D0012001F089FEE5B285424FF001000444F1D3002404E0294601F070FEB1
:403280008642B6D0022001F079FEE5B2854204F101044FF00200F0D3ABE795F8A03003F0010383F001031A467F0807EB47000D490D4C02440F7005F19D004B7054F822200D
:4032C00001A99047022003B0F0BD00242046EC7003B0F0BD95F8A030DB07AAD402221346E2E700BF348FFF1FA008002070B5144606460D461A462046002107F0D9FA2670B5
:40330000657070BD0346007900B9704770B51D46431E0E462B71EA6829696869FFF780FE60B10146686900F0EDF9044631462846FFF7E6FEE0B2B0FA80F0400970BD00BF6E
:403340004FF0FF320021C0F88423C0F88813C0F88C134FF4617207F0ABBA00BFB2F5617F3BD8F8B50446D0F8880315468318B3F5617F0E462DDDC0F56177BFB23A462044E0
:4033800007F070FAF119EA1B204607F06BFAD4F884331548002BBCBF0023C4F88433D4F888332B4483FB0001DA171944C2EB61224FF4617101FB1232D4F88C33C4F8882385
:4033C0001D448D420BDDC4F88C13C4F884230220F8BD204407F046FAD9E701207047C4F88C530020F8BD00BFC5B3A291D0F88C33994211DAD0F8843330B4084C194481FB36
:403400000445CB174A19C3EB62234FF4617202FB131130BC405C704700207047C5B3A2912DE9F043D0F88C53AA421BDAD0F884431444B4F5617F3EDA035D8B4216D0531CF8
:403440009D420FDD02F56176A71A321B0444934207EB030E0DD014F8016F8E4228D001339D42F4D14FF0FF30BDE8F0831046BDE8F083174E4FEAEE748EFB06670EEB07069C
:40348000C4EB66269D424FF4617404FB16E6E9DD835D8B42EAD0304403E010F8013F8B42E4D001329542F8DC4FF0FF30BDE8F0831846BDE8F083064EE31784FB068904EB6D
:4034C0000906C3EB66264FF4617303FB1646DFE7C5B3A291D0F88C33994280F2D1809342C0F2CE80531A002B40F3CA802DE9F047D0F884534B191544AB4280F2C580B3F59D
:40350000617F80F2C180591E0144002402E0B3F5617F07D011F8012F013314449D42E4B2F5D12B46594EDA1783FB068985FB0667E91705EB070C03EB0906C2EB6627C1EBEE
:403540006C2C4FF4617202FB173702FB1C5C674580F29380C3195B4203F00303C7EB0C02934228BF13460A2A98BF13463D46002B45D0C15D012B0C4407F10106E4B200F09F
:403580008180815D022B0C4407F10206E4B279D0815D032B0C4407F10306E4B272D0815D042B0C4407F10406E4B26BD0815D052B0C4407F10506E4B264D0815D062B0C44E1
:4035C00007F10606E4B25DD0815D072B0C4407F10706E4B256D0815D082B0C4407F10806E4B24FD0815D0A2B0C4407F10906E4B248D1815D0A370C44E4B29A423DD0C3EB12
:403600000208A8F1040E013A4FEA9E0ED21A0EF1010E022A4FEA8E0920D90026B2462B44C51855F8043B0AF07F3203F07F31013683EA0A0303F080330A44B64582EA030A69
:40364000EFD8CAF307235344234403EB1A4303EB1A63C8454F4403F0FF040ED0C35D7A1C1C449445E4B208DD835C02371C44BC45E4B202DDC35D1C44E4B22046BDE8F08784
:40368000002070473746B8E700244BE7C5B3A29128B321B370B5D0F88C43D518A5421CDC1D460B46D0F88413064615480A4482FB0001D4171144C4EB61244FF4617101FBD2
:4036C0001424A1B24A19B2F5617F0ADC2A463144184607F0C7F8002070BD012070BD01207047C4F56174A4B231442246184607F0B9F82A1B2044314607F0B4F8002070BD2C
:40370000C5B3A291B1F5617FF8B54CD90226D0F88433B1F5617F28BF4FF46171002B0D4620DB5A18B2F5617F04461DDC18440A46002107F0BDF8D4F88C335B1B002BC4F847
:403740008C3325DDD4F884131A480D4485FB0001EB176A18C3EB62234FF4617101FB1355C4F884533046F8BDC3F56177BFB218443A46002107F09CF8EA1B0021204607F0F7
:4037800097F8D4F88C335B1B002BC4F88C33D9DC00234FF0FF32C4F88423C4F88833C4F88C333046F8BDD0F88C63B142D4BF00260126ACE7C5B3A291D0F88C03704700BF76
:4037C00070B504460023017042708370C37003718360C0F8143D00F2A33500F2FB56962228460021154407F063F8B542F7D14FF41672002104F2FD5007F05AF80023A4F899
:40380000563804F65F0504F6B726962228460021154407F04DF8AE42F7D104F6B9204FF41672002107F044F80023A4F8123D04F10C00BDE87040FFF783BD00BF704700BF70
:4038400010B582B002A9012321F8023D0478FFF75FFB034B063443F8240002B010BD00BFB450002030B5044683B00D4601A80A462146FFF71BFB20466B7802A9012210F8D5
:40388000044F21F8062D8DF80530FFF741FB034B063443F8240003B030BD00BFB450002070B582B002AC002324F8023D21460646FFF72EFB0E4D214628603046FFF728FBE5
:4038C000214668603046FFF723FB2146A8603046FFF71EFB2146E8603046FFF719FB214628613046FFF714FB686102B070BD00BFB450002070B50E46044682B00A4601466A
:4039000001A802ADFFF7D2FA002225F8062D73780434294620468DF80530FFF7F9FA0E4E294630602046FFF7F3FA294670602046FFF7EEFA2946B0602046FFF7E9FA29460C
:40394000F0602046FFF7E4FA294630612046FFF7DFFA706102B070BDB4500020F0B5164683B002AC194D1F46DFF868E0002324F8023D4FF0170C164B8EF800C022464FF0BA
:40398000020E3146286883F800E0FFF7ADFA224631466868FFF7A8FA22463146A868FFF7A3FA22463146E868FFF79EFA224631462869FFF799FA224631466869FFF794FA45
:4039C000BDF806303B8003B0F0BD00BFB45000204C8FFF1F4D8FFF1F2DE9F0470F46804686B00A46014605A8FFF760FA06AC224D224E7B78002224F8062DDFF88890DFF8FE
:403A000088A04FF0170E2246294630688DF81530022389F800E08AF80030FFF765FA224629467068FFF760FA22462946B068FFF75BFA22462946F068FFF756FA22462946AF
:403A40003069FFF751FA224629467069FFF74CFABDF812300A4901240B8098F800609AF8002099F80010019728460096029400F099FA06B0BDE8F087605D0020B4500020BB
:403A80004A8FFF1F4D8FFF1F4C8FFF1FF0B40E4B0E480F490F4A104F104E114D114CC3F80801C3F8101110481049C3F81471C3F81C61C3F81851C2F81441C2F81C01C2F813
:403AC0001811F0BC704700BFA0080020AD3B00003D380000AC020020D9390000F5380000653800005D390000A1380000413800002DE9F041044682B002AD002625F8026DA0
:403B000098461620022308701370304621462A46FFF7D4F92A4621463046FFF7CFF92A4621463046FFF7CAF92A4621463046FFF7C5F91D4F2A4621463046FFF7BFF92A4658
:403B400021463046FFF7BAF92A462146B889FFF7B5F92A462146F889FFF7B0F92A462146388AFFF7ABF97B6A2A4618682146FFF7BBF92A462146386AFFF7B6F9BDF80620FA
:403B8000551C931CD01C111DADB29BB280B289B2571DA6546655E65426546654A8F8007002B0BDE8F08100BF605500202DE9F043814688460C4F0D4E0D4D0E4C85B03B46B1
:403BC000324629462046FFF793FF99F80000297801253B8832788DE801010295204600F0E1F905B0BDE8F0834A8FFF1F4C8FFF1F4D8FFF1F605D0020704700BF0279084B15
:403C0000DA7142791A7282795A72C2799A72027ADA72427A1A73827A5A73C27A9A737047644C0020F0B50B4B85B00B4C3D250B4F0B4E019102221D70002101233A702170DB
:403C400002913380007829460090204600F0AAF905B0F0BD4D8FFF1F605D00204C8FFF1F4A8FFF1FF0B5144B85B0144C93F807E01A7A5D7A9F7A0191DE7A197B6270A57071
:403C80005A7B0F4D9B7BE770267161710D4F43210D4E2970A271E3710222082301253A70338084F800E0029500780090204600F079F905B0F0BD00BF644C0020605D00207F
:403CC0004D8FFF1F4C8FFF1F4A8FFF1F704700BF30B4094B094D0A4C0A480B490B4AC3F8DC52C3F8E042C3F8E402C3F82413C3F82C2330BC704700BFA0080020253C000097
:403D0000CD3C0000F93B0000653C0000FD3B0000704700BFF0B50A4F85B00A4E0A4D019129240222002301213C70327002912B80007821460090054800F034F905B0F0BD06
:403D40004D8FFF1F4C8FFF1F4A8FFF1F605D00202DE9F04180460F4686B0114C06AA0020104D114E4FF02B0E22F8020D2146022385F800E03370FFF7B7F8BDF816300B49DA
:403D800032780B8098F8006029780125019720460096029500F006F906B0BDE8F08100BF605D00204D8FFF1F4C8FFF1F4A8FFF1F00B583B002A9042321F8023DFFF7A8F803
:403DC00003B05DF804FB00BF704700BF704700BF70B40A4B0A4E0B4D0B4C0C480C490D4AC3F8EC61C3F8F051C3F8F441C3F80402C3F80812C3F80C2270BC7047A008002073
:403E0000153D0000CD3D0000C93D0000513D0000B13D0000113D00000648074B074910B40022041D8C6248629A61DA611A625A6210BC704744FEFF1FB4500020605500207D
:403E400010B50446C822002106F032FD054A00233221C4F8CC30C4F8C830C4F8D030116010BD00BF388FFF1F70B4D0F8CC50104C013584FB0536EB17C3EB2613322606FB9E
:403E800013539A1A324484FB0245D417C4EB251406FB142270BCC0F8C81040F8231050F82220C0F8CC30891AC0F8D010704700BF1F85EB51D0F8CC30064A591A323182FB45
:403EC0000132CB17C3EB2213322202FB131150F8210070471F85EB512DE9F041144F002500297D603D721DDDD0F8CCC02B460124DFF840E0322600E01446C3EB0C03323342
:403F00008EFB0328DA17C2EB281206FB123350F823208C4204F101031544DAB22346EBDB7D603C7295FBF1F1C0F8D410BDE8F081388FFF1F1F85EB5100221A80704700BFA3
:403F4000704700BF134B144A1448154910B503F2F4541860586098600C33A34211605160916002F10C02F4D1FFF7B2FE00F070FA00F024FC00F0B6FE00F0ACFFFFF786FD66
:403F8000FFF726FF00F0FEFC00F004FEBDE8104001F0D8B9A0080020AC020020413F0000393F00002DE9F04317468BB0202B9DF8488028BF20230C461E4681469DF85050A0
:403FC00000F0BCFF0423414601AAFFF78FF901239F428DF8063075D0022F3ED1640032464946E4B202A88DF8074006F03BFC321DD2B24F4901A8FEF79DFF139B4D4E1A78D6
:404000004FF41C7303FB02F3494903F59C73F71DF0183B4401F13007D1F800C0D1F804E0C3F800C0D1F808C0C3F804E0D1F80CE01031B942C3F808C0C3F80CE003F110035B
:40404000EAD14FF41C7303FB026282F83D41A5B300F060FF0BB0BDE8F0834FF48060FEF723FF0022324901A8FEF764FF139B314E1A784FF41C7303FB02F32D4903F59C7306
:40408000F71DF0183B4401F13007D1F800C0D1F804E0C3F800C0D1F808C0C3F804E0D1F80CE01031B942C3F808C0C3F80CE003F11003EAD16400E4B2C3E700F029FF0BB007
:4040C000BDE8F0839C401C4332464946E4B202A88DF8074006F0C6FB321DD2B2144901A8FEF728FF139B134E1A784FF41C7303FB02F30F4903F59C73F71DF0183B4401F15C
:404100003007D1F800C0D1F804E0C3F800C0D1F808C0C3F804E0D1F80CE01031B942C3F808C0C3F80CE003F11003EAD189E700BF305D002068190020704700BF00790021FD
:40414000FBF7A0BFF0B50D4B0D4C1B78DFF83CE00C4F0D4E85B02370502501230222019133808EF800503A7002930078294600902046FFF717FF05B0F0BD00BFB890FF1F0D
:40418000605D00204C8FFF1F4A8FFF1F4D8FFF1F2DE9F04180460F4686B0124C124B06AA124D134E00214FF0550E22F8021DD86B2146022385F800E03370FEF795FEBDF86D
:4041C00016300C4932780B8098F80060297801250197204600960295FFF7E4FE06B0BDE8F08100BF605D0020605500204D8FFF1F4C8FFF1F4A8FFF1F30B5054683B002ACFD
:40420000042324F8023D2146FEF782FE21462846FEF77EFE034B1A78032A08BFC3F8200103B030BDB890FF1F30B5054683B002AC042324F8023D2146FEF76AFE21462846F8
:40424000FEF766FE03B030BD00B583B002A9042321F8023DFEF75CFE03B05DF804FB00BFF0B5054683B0042302AC24F8023D2146FEF74EFE21462846FEF74AFE214628463C
:40428000FEF746FE214606462846FEF741FE214607462846FEF73CFE094B1A78C3F83802022AC3F83062C3F8347205D0042A08BFC3F8686203B0F0BDC3F8286203B0F0BD16
:4042C000B890FF1F30B5054683B002AC042324F8023D2146FEF71CFE21462846FEF718FE21462846FEF714FE21462846FEF710FE21462846FEF70CFE03B030BD00B583B05F
:40430000042302A921F8023DFEF702FE064B1B78012B02D003B05DF804FB0021FCF754FA03B05DF804FB00BFB890FF1F2DE9F0478246894686B006AC164DDFF868800023D6
:4043400024F8023D144E154F4FF0560E022322462946D8F81C0186F800E03B70FEF7C4FD22462946D8F82001FEF7BEFDBDF816300B4901240B8031789AF800603A7828469F
:40438000CDF8049000960294FFF70CFE06B0BDE8F08700BF605D00204D8FFF1F4C8FFF1F4A8FFF1FB890FF1F2DE9F04F804689B0DFF898E008AC002324F8023D1F4DDEF8A3
:4043C0002C321F4E1F4FDEF824024FF0570CDEF830B205912246049329460223DEF834A2DEF8389286F800C03B70FEF77DFD224629460498FEF778FD224629465846FEF71A
:4044000073FD224629465046FEF76EFD224629464846FEF769FDBDF81E300B4905980B80317898F8006001243A780190009628460294FFF7B7FD09B0BDE8F08F605D002001
:404440004D8FFF1F4C8FFF1F4A8FFF1FB890FF1FF0B4134B134D144C14481549154A164F164EC3F8C053C3F8C443154D154CC3F8C803C3F8FC1314481449C3F80024144AAF
:40448000C3F80474C3F81464C3F81854C3F81C44C3F80804C3F80C14C3F81024F0BC7047A0080020454100003D4100003941000091410000FD42000049420000A943000092
:4044C00061420000C54200002D430000F941000029420000F0B583B002AC042324F8023D21460546FEF7F6FC214607462846FEF7F1FC214606462846FEF7ECFC054B0022E8
:40450000A3F81401A3F81071A3F81261C3F8082203B0F0BDB890FF1FF0B583B002AC042324F8023D21460546FEF7D4FC214607462846FEF7CFFC214606462846FEF7CAFCB9
:40454000054B0022A3F81C02A3F81872A3F81A62C3F8442203B0F0BDB890FF1FF0B583B002AC042324F8023D21460546FEF7B2FC214607462846FEF7ADFC214606462846AF
:40458000FEF7A8FC054B0022A3F85C02A3F85872A3F85A62C3F8502303B0F0BDB890FF1F30B5054683B002AC042324F8023D2146FEF790FC21462846FEF78CFC21462846A5
:4045C000FEF788FC03B030BD30B5054683B002AC042324F8023D2146FEF77CFC21462846FEF778FC21462846FEF774FC03B030BD30B5054683B002AC042324F8023D214629
:40460000FEF768FC21462846FEF764FC21462846FEF760FC03B030BD2DE9F04F8146884687B01B4B06AC1B4D0022B3F81AB224F8022D194E194F4FF0530C4FF0020EB3F845
:404640001CA2B3F818022246294686F800C087F800E0FEF733FC224629465846FEF72EFC224629465046FEF729FCBDF816300C4901240B80317899F800603A782846CDF885
:40468000048000960294FFF78DFC07B0BDE8F08FB890FF1F605D00204D8FFF1F4C8FFF1F4A8FFF1F2DE9F04F8146884687B01B4B06AC1B4D0022B3F85AB224F8022D194E97
:4046C000194F4FF0540C4FF0020EB3F85CA2B3F858022246294686F800C087F800E0FEF7EDFB224629465846FEF7E8FB224629465046FEF7E3FBBDF816300C4901240B80D8
:40470000317899F800603A782846CDF8048000960294FFF747FC07B0BDE8F08FB890FF1F605D00204D8FFF1F4C8FFF1F4A8FFF1F2DE9F04F8146884687B01B4B06AC1B4D68
:404740000022B3F812B124F8022D194E194F4FF0520C4FF0020EB3F814A1B3F810012246294686F800C087F800E0FEF7A7FB224629465846FEF7A2FB224629465046FEF713
:404780009DFBBDF816300C4901240B80317899F800603A782846CDF8048000960294FFF701FC07B0BDE8F08FB890FF1F605D00204D8FFF1F4C8FFF1F4A8FFF1FF0B40F4B39
:4047C0000F49104A104F114E114D124C1248C3F8D813C3F8DC231149114AC3F8E073C3F8E463C3F8E853C3F8EC43C3F8F003C3F8F413C3F8F823F0BC704700BFA0080020FE
:4048000031470000D5440000F14500001946000019450000C9450000A54600005D450000A1450000034B81785A68197001325A60704700BF508FFF1F034B41789A7A1972DB
:40484000521A5A72704700BF508FFF1F2DE9F84315461E468478DFF84C80302C28BF3024077890F80190C11C22460D4888F8004005F0F8FF002333802F7085F801901FB90E
:4048800002223280BDE8F88398F80040E81C2246AC70034905F0E6FFE21C3280BDE8F883845D0020508FFF1F10B5044682B00A4601A82146FEF7FAFA034BA1795A68197079
:4048C00001325A6002B010BD508FFF1F10B5044682B00A4601A82146FEF7E8FA034B61799A7A1972521A5A7202B010BD508FFF1F2DE9F043054687B00A4605A80E462946D1
:40490000FEF7D4FAAC79194B302C28BF30242246E91D17481C7095F8048095F80590154F05F0A0FF144B002283F8019083F800803A80B8F1000F10D102233B802C780F4A58
:404940000F4901201278097802908DE850000A48FFF728FB07B0BDE8F083D81C9C702246034905F07FFFE31CE7E700BF508FFF1F845D00204A8FFF1F605D00204C8FFF1FA4
:404980004D8FFF1FF0B4084A084B094F094E0A4D0A4C0B480B499761D66115629C61D8611962F0BC704700BFA0080020AC020020F1480000A9480000CD4800004D480000CE
:4049C0002548000039480000704700BF00B583B00A46014601A8FEF769FA03B05DF804FB70B504460678FDF757FD00B170BD05463046FDF757FD0028F8D0064A0649137896
:404A000001201E430870167029462078BDE87040FBF738BBF78DFF1FF88DFF1FF0B504460D4683B00A4601A82146FEF73FFA6B7826798DF80530FDF72FFD08B103B0F0BDF8
:404A400005463046FDF72EFD0028F7D0054A064F137829461E432079012316703B70FBF711FBEBE7F78DFF1FF88DFF1FF0B514460178174E174885B05B270225012211F027
:404A80006A0F37700570ADF80E20217001D1C90602D41A8005B0F0BD0F4D0DF10E02288821460193FEF70AFA0DF10E0221466868FEF71AFA0DF10E0221462889FEF7FEF91C
:404AC000BDF80E10A87A4A1C605492B2019BE0E74D8FFF1F4C8FFF1F945F00202DE9F04305460C4687B00A4605A82946FEF7DEF92879234E94F801E0DFF89080214F5B2153
:404B00000222012310F06A0F8DF815E0307088F800103A70ADF8123001D1C0060CD41A4E012033802D780290019400951448FFF739FA07B0BDE8F083DFF854900DF1120243
:404B4000B9F800003146FEF7B9F90DF112023146D9F80400FEF7C8F90DF112023146B9F80800FEF7ABF9BDF8120099F80AE0431C98F800103A7800F806E09BB2CFE700BFE4
:404B8000605D00204C8FFF1F4A8FFF1F4D8FFF1F945F0020F0B40B4A0B4B0C4F0C4E0D4D0D4C0E480E49C2F84474C2F84864C2F84C54C3F84444C3F84804C3F84C14F0BC74
:404BC000704700BFA0080020AC020020DD4A00001D4A0000CD4900006D4A0000E1490000C9490000704700BF10B582B002A9052321F8023D0479FEF78BF9034B03EB8403C1
:404C0000D86202B010BD00BF7890FF1F2DE9F04F83468A4687B006AD2C4C2D4E012725F8027DDFF8B880DFF8B89000234FF05A0E2A462146F06A2370022388F800E089F885
:404C40000030FEF751F92A4621467068FEF74CF92A462146B068FEF747F92A462146F068FEF742F92A462146308AFEF727F9FBF72FFCFBF71BFC2A462146708BFEF71EF9AF
:404C8000144B2A46B3F81C012146FEF717F92A462146F069FEF728F92A462146306AFEF723F9BDF816300C4999F800200B809BF8005098F80010CDF804A00297204600951D
:404CC000FFF770F907B0BDE8F08F00BF605D00207890FF1FB890FF1F4A8FFF1F4D8FFF1F4C8FFF1F054B06480649074AC3F83804C3F83C14C3F84024704700BFA0080020CB
:404D00000D4C0000E94B0000E54B0000F0B40278837882B08DF80720ABB19DF80730DBB2162B09D0A3F14302D2B21A2A4CD8284C24FA02F2D20747D5264B9A78002A31D002
:404D400002B0F0BC70472349234A887820B19DF807401568A54210D043F239061F4800234FF0FF350324968003800B8043808B701560147202B0F0BC70479DF80740FF2CC3
:404D8000EAD043F23907154C01384FF0FF36032588700B809780238063801660157202B0F0BC70470C4A9DF807404678C57814608C7896801C800E78047908490120167208
:404DC0000D804C809870BBE7643B1A2BB4D9B7E701008004648FFF1FB48AFF1FA85F0020704700BF704700BFF0B504460D4683B00A4601A82146FEF759F869782279A379E9
:404E00008DF805108DF80320A3B19DF80330DBB2162B09D0A3F14302D2B21A2A4DD8294921FA02F2D20748D5274B9A78002A2ED003B0F0BD2449254A887820B19DF803409F
:404E40001568A5420FD043F23906214800234FF0FF350324968003800B8043808B701560147203B0F0BD9DF80340FF2CEBD043F23907174C01384FF0FF36032588700B802A
:404E80009780238063801660157203B0F0BD0F4A9DF8030094F805E0E679257A0C499DF804709DF8064010600120A2F804E017720E804D801C809870BAE7643B1A2BB3D9B7
:404EC000B6E700BF01008004648FFF1FB48AFF1FA85F002030B4084B084D094C09480A4A0A49C3F85054C3F85444C3F85804C2F8541430BC704700BFA0080020E54D00001D
:404F0000E94D0000E14D0000AC0200200D4D0000704700BFC37803B17047FCF7D1BC00BF10B5034C03492046FEF7ECF9607110BD402400206819002001207047014B187873
:404F4000704700BFBD8AFF1F014B1870704700BFBD8AFF1F014B5878704700BFBD8AFF1F28B1012806BF034B585C00207047024B585C7047AC5F0020AC5F0020002070472B
:404F800070B443F279560D4D87B04FF49C708721072201230A4C0295ADF80460ADF80C008DF80E108DF80F208DF8103001AD0FCD0FC4044B236007B070BC704734F8060036
:404FC000AC5F00205C93050010B40D4C0D4B2268013283FB0231D317C3EB610303EB4303A2EB830323604BB9074A1378072B03F1010111709CBF054A22F8130010BC704706
:40500000C08AFF1FABAAAA2A708FFF1FC05F00202DE9F043384C394DB4F90290B4F90000B4F90480B9F1000FB4F906C0B8BFC9F100090028B4F90820B8BF4042B8F1000FFF
:40504000B4F90A70B8BFC8F100084844BCF1000FB4F90C30B8BFCCF1000C82EAE27E08EB0001B4F90E40002F6144AEEBE27EB8BF7F4283EAE3760EEB0102002C3A44A6EBA3
:40508000E376B8BF6442B31823441D49EC7A2A7BDB1000202341087012B12A8993421CDC40F28A229342A8BF134616484A6850F823302888134483422A698CBF1B1A00238D
:4050C00093424B600D480E4911D3426893420AD302230B721846BDE8F0839A1A02EB820203EB4203DCE701200872BDE8F08300200872BDE8F08300BFC05F0020AC5F002083
:40510000708FFF1F04A90000014B587A704700BF708FFF1F014B187A704700BF708FFF1F2DE9F0411B2284B004460D460430144900F0C2F900BB134E02233046124FDFF803
:40514000508000F8013B4FF07E0E0D4A1B2188F8003087F800E000F083F90C4A013083B2138039782778012498F800203046019500970294FEF716FF04B0BDE8F08100BF12
:405180007C8FFF1F605D00204D8FFF1F4A8FFF1F4C8FFF1F2DE9F04F89B00490034600790591012853D000200223024681461946DFF86081524E534CDFF864C17E25DFF819
:4051C00064A188F80000337025700CF11B0B1CF8013F072B38D84C4850F823E0BEF1010FB8BF4FF0010E1AF8013FB3B1474B0EEB020709EB03000C46C2EB090600E00C4655
:40520000B3183B2B01F1010507DC10F8013B0132BA42A9B208F80430F1D1DC45F144D6D13B480B4688F80120018002227E210498047801200094059C029001943548FEF7E1
:40524000B1FE09B0BDE8F08F4FF0010ECBE75B79FF2B43D01A2B3AD8012B079032D0022B02D1079A520007922B4ADFF8A8802B49D25C51F8234088F801302249012388F867
:40528000022088F800301E4A7E230B7020460223137005F015FB85B288F8030075B3234604222C4413F8010B511C9C4208F802008AB2F7D12A1D92B2154913460A8002224C
:4052C0007E21B4E7079A02EB42020792CCE70D490B4A0F4B097812781B88A8E7094A084B7E210C4C11700222094D1A701B23207063703C200323A0702B8098E70422DBE7AD
:405300004C8FFF1F4D8FFF1FE0A80000D05F00204A8FFF1F605D002030B30000C48AFF1F2FB300007B8FFF1F034B0449044AC3F8E815C3F8EC257047A008002095510000A4
:4053400021510000F8B51048104B1149114AC3F8AC05C3F8B415104F104E114D114C12481249C3F8A075C3F8A865C3F89455C3F89C45C2F8AC05C2F8B415FFF7D5FFBDE854
:40538000F84000F02DBC00BFE1550000A0080020BD580000AC020020BD590000115A0000E55A0000C15B000071570000E95800000749084A084B10B4901C0C1DC3F8884046
:4053C000C3F88410C3F88C20C3F8900010BC704744FEFF1F8C0200201060002008B52820FFF7B2FD064A0023194618461370FBF7EBF900F085FABDE8084000F0EDBB00BFA5
:40540000B890FF1F70B5114D114CD5F8843021681B68104A591A936A61600F4E1B6830460A22A360FEF720FD3046FDF79DF90B4AC31782FB0020C3EB6020E060C5F89800E8
:4054400000F060FABDE8704000F0C8BB10600020988FFF1F605500207070002025083D3232B311F0070318BF012313EBD10C017020D0F0B500273D464FEACC0EFC1DBC4234
:405480000DDB7E1E6B00A142DBB205DD155D002D0CBF1D4643F00105013CB442F2D10837BE4500F8015FE9D10CF1010398B2F0BD104670470120704790F800C094452ED15E
:4054C0001CF0070318BF012303EBDC032DE9F0414FEAC308002545451ED005F1080E754510F8016F15DA654513DA4C1901EB0E07C5EB0C05002201E095420AD0D3B246FA82
:4055000003F303F0010304F8013BA74202F10102F2D175464545E0D10020BDE8F0814FF0FF307047F0B5054683B01F4679269DF820300E700220284E10702B7002ACD6F89A
:405540008430012224F8022D186822462946FDF7CBFCD6F88830224618682946FDF7C4FCD6F88C30224618882946FDF7A7FCD6F89030224618882946FDF7A0FC2246294662
:40558000F06FFDF7B1FC22462946D6F89800FDF7ABFCD6F8800022462946C0F3CF00FDF78DFC0E4B2246D3F820012946C0F3CF00FDF784FC22462946B6F87800FDF77EFC72
:4055C00022462946B6F89C00FDF778FCBDF806303B8003B0F0BD00BF10600020B890FF1F2DE9F04F06460F468BB00A46014609A8FDF75CFC0AAC022224F8062D7B78351D34
:40560000214628468DF8253096F804B096F805A0FDF77EFCBDF82220214602F1010E8046284615F80290ADF822E0FDF753FC214605902846FDF74EFC214606902846FDF7B4
:4056400049FC214607902846FDF744FCBDF82220BBF1630F02F10102ADF822201DD8BBF1010F1FD9DFF804813C4D3D4C43462A462146CDF800B03B48FFF754FF2178347856
:405680000120B8F800302A7802908DE890003548FEF788FC0BB0BDE8F08FABF164035FFA83FBDFE7594604465046FAF7EBFC4FF4587202FB0BF22C48815C024403291ED02C
:4056C000012946D002292BD00429CBD1B9F1010FC2F86882C6D1BDF814300021A2F85832BDF81830A2F81241A2F85A32BDF81C30C2F80812A2F81031C2F85013B2E7B9F128
:40570000010FC2F82081ADD1BDF814300021A2F81031BDF81830C2F80812A2F81231A1E7B9F1010FC2F828820BD1BDF81430A2F81832BDF81830A2F81A32BDF81C30A2F800
:405740001C324FF4587202FB0B000022C0F8442288E740465946FBF737F883E74C8FFF1F4D8FFF1F605D0020B890FF1F4A8FFF1F2DE9F04F89B008AD022125F8021D294629
:40578000044616469B46077890F801A0FDF7C0FBBDF81EE029460EF1010C80462046ADF81EC014F80E90FDF795FB294603902046FDF790FB294604902046FDF78BFB2946C7
:4057C00005902046FDF786FBBDF81E10632F01F10101ADF81E100BD8012F0DD900975B463046334A3349FFF79DFE09B0BDE8F08FA7F16402D7B2F1E7394604465046FAF740
:4058000041FC4FF4587101FB07F12B4D685C294403281ED0012846D002282BD00428DDD1B9F1010FC1F86882D8D1BDF80C300020A1F85832BDF81030A1F81241A1F85A32EB
:40584000BDF81430C1F80802A1F81031C1F85003C4E7B9F1010FC1F82081BFD1BDF80C300020A1F81031BDF81030C1F80802A1F81231B3E7B9F1010FC1F828820BD1BDF870
:405880000C30A1F81832BDF81030A1F81A32BDF81430A1F81C324FF4587101FB07550021C5F844129AE740463946FAF78DFF95E74C8FFF1F4D8FFF1FB890FF1F00B583B0B7
:4058C0000A46014601A8FDF7F1FA0549054B01200022087083F8302403B05DF804FB00BFA88FFF1F106000200349044B01200022087083F830247047A88FFF1F10600020F5
:40590000704700BF704700BFF0B5054683B01F4678269DF820300E700220274E10702B7002ACD6F88430012224F8022D186822462946FDF7D9FAD6F88830224618682946A7
:40594000FDF7D2FAD6F88C30224618882946FDF7B5FAD6F89030224618882946FDF7AEFA22462946F06FFDF7BFFA22462946D6F89800FDF7B9FAD6F8800022462946C0F383
:40598000CF00FDF79BFAD6F8C00122462946C0F3CF00FDF793FA22462946B6F87800FDF78DFA22462946B6F89C00FDF787FABDF806303B8003B0F0BD106000202DE9F04339
:4059C000054689460379DFF844800D4F0D4E0E4C85B000933A46434631462046FFF794FF287801253A78B8F800308DE80102317820460295FEF7D6FA05B0BDE8F08300BF67
:405A00004C8FFF1F4D8FFF1F605D00204A8FFF1F0349044B01200022087083F830247047AC8FFF1F10600020F0B5064683B09DF820001F462A4B4FF4667404FB003477233D
:405A40000B7002231370307002ADD4F88430012225F8022D18682A463146FDF745FAD4F888302A4618683146FDF73EFAD4F88C302A4618883146FDF721FAD4F890302A46FA
:405A800018883146FDF71AFA2A463146E06FFDF72BFA2A463146D4F89800FDF725FAD4F880002A463146C0F3CF00FDF707FAD4F8C0012A463146C0F3CF00FDF7FFF92A461E
:405AC0003146B4F87800FDF7F9F92A463146B4F89C00FDF7F3F9BDF806303B8003B0F0BDA06800202DE9F04305460F4687B006AC062324F8023D21460679FDF709FABDF800
:405B00001630214601332846ADF81630FDF7E2F921462846FDF7DEF921462846FDF7DAF921462846FDF7D6F9BDF81630214601332846ADF81630FDF7EBF9BDF8163021465F
:405B400001332846ADF81630FDF7C4F921462846FDF7C0F921462846FDF7BCF921462846FDF7B8F9632EBDF8163088BF643EDFF84890DFF848800E4C88BFF6B20133ADF888
:405B8000163042464B46214600960A48FFF74CFF21782C7801200290B9F8003098F800208DE890000348FEF7FDF907B0BDE8F0834D8FFF1F605D00204A8FFF1F4C8FFF1FA4
:405BC0000349044B01200022087083F8C8277047D88FFF1FA0680020704700BF704700BF044B0549054AC3F8F814C3F8002500F02FB900BFA0080020415F0000796000002A
:405C00002DE9F041037982B00522012B0446ADF8042023D0FBB9224F224DBA6801A9013285FB0235D317C3EBA50505EB8505A2EB4505BD60FDF74EF91B4E01A906EB450593
:405C4000A8802046BC68FDF745F906EB44040123208386F82C3002B0BDE8F081104A02AE002192E8880005349D1E03F10A0826F8021D31462046FDF72DF925F8020F45458B
:405C8000F7D1BD1E0A3731462046FDF723F925F8020FBD42F7D1044B01221A70DBE700BF308BFF1F676666660890FF1F2DE9F047074686B02B4A06AC884692E8080200210F
:405CC0009D1E03F10A0A061D24F8021D21463046FDF700F925F8020F5545F7D1A9F1020509F10A0921463046FDF7F4F825F8020FA945F7D1DFF880906823DFF880A01A4A0D
:405D00001A4D89F8003002238AF8003001231370ADF8163005F10C0635F8020B22461249FDF7CCF8AE42F7D1114D05F10C0635F8020B22460C49FDF7C1F8B542F7D1BDF8EF
:405D400016300C4901200B803C789AF8002099F8001002908DE810010348FEF723F906B0BDE8F087308BFF1F605D00203890FF1F4490FF1F4A8FFF1F4D8FFF1F4C8FFF1F17
:405D80002DE9F047037986B0012B064689462ED006ACDFF8ACA0012324F8023D0025264FDFF8A8802246514628464FF0680E02238AF8005087F800E088F80030FDF77EF820
:405DC000224651462846FDF779F8BDF816301B4A012013803478397898F8002002908DE810021748FEF7DEF806B0BDE8F087124F6821DFF85880124A124C06AD39700221C9
:405E000025F8023D88F80010137004F10C0A34F8020B2A460A49FDF751F8A245F7D10A4C04F10C0A34F8020B2A460549FDF746F8A245F7D1C9E700BF4D8FFF1F4A8FFF1F67
:405E4000605D00203890FF1F4490FF1F4C8FFF1F054B06480649074AC3F8E004C3F8E414C3F8E824704700BFA0080020815D0000AD5C0000015C0000F0B5054683B09DF8E3
:405E800020006A260E7002272B4E1770287002ACD6F88420012124F8021D1068294622461F46FDF721F8D6F88830224618682946FDF71AF8D6F88C30224618882946FCF7DE
:405EC000FDFFD6F89030224618882946FCF7F6FF22462946F06FFDF707F822462946D6F89800FDF701F8D6F8800022460028B8BF07302946C0F3CF00FCF7E0FF0F4B224655
:405F0000D3F8200129460028B8BF0730C0F3CF00FCF7D4FF22462946B6F87800FCF7CEFF22462946B6F89C00FCF7C8FFBDF806303B8003B0F0BD00BF10600020B890FF1F95
:405F40002DE9F04F8BB00DF12809062229F8022D0D464946044690F804B04679FCF7D8FFBDF826E049460EF1010C07462046ADF826C014F80E80FCF7ADFF4946824620466F
:405F8000FCF7A8FF494605902046FCF7A3FF494606902046FCF79EFFBBF1630F1ED9ABF164025FFA82FBDFF8CC802E4F2E4E43463A463146CDF800B02C48FFF75DFF2478AD
:405FC0000120B8F800303A78317802908DE830002648FDF7E7FF0BB0BDE8F08F079000213046FAF74FF82248079B0178032917D0012931D002291FD00429D4D1B8F1010F19
:40600000C0F86872CFD1BDF81420A0F858A2A0F85A22BDF81820A0F81231A0F81021C2E7B8F1010FC0F82071BDD1BDF81430A0F810A1A0F81231B6E7B8F1010FC0F8287210
:40604000B1D1BDF81430A0F818A2A0F81A32BDF81830A0F81C32A6E738460021FAF7B4FBA1E700BF4C8FFF1F4D8FFF1F605D0020B890FF1F4A8FFF1F704700BF012809D8CC
:40608000054B03EB8002526B1844117890F83C300B431370704700BF2CB4000001280AD8054B03EB8002526B184490F83C10137823EA0103137070472CB400002DE9F041AE
:4060C00072B6894D0024A5F1400604EB440306EB4303AA88186C0134002104F0E9FB0A2C05F10605F1D1814D002404EB840306EB43032A890134D3F88010D86F04F0B2FB8E
:40610000052C05F10A05F0D1794E7A4F002556F8043F13F0FF0E23F0FF0413D005F110530EF1FF3E03F159005FFA8EFE7044583340005B001A785978023383421155F9D1EB
:4061400001357544BE42E2D16B486C4B6C490A24022204701A700B786A4A43F002030B701378A1F5863143F00203137063390B78A2F5863243F040030B70513A1378624D6D
:4061800062496348634C2E6800680F68624D634943F0100324681370614B02F549522E60163208605F4E60481C6017600024A2F514525E4B3460163A45F8304C45F20E56EF
:4061C0000460A5F512558C6203CB103D1060516093E8070003C52A80D868554A197C10601171143303CBC5F82A00C5F82E1003CBA83D42F8B90C42F8B51C93E8070003C5B8
:406200004C4F2A803A780C3342F00802DFF858C103CB3A70C5F80E10474A6121C5F80A00DFF848E18CF8001044484F211180012518228EF8002042490580A7F52777414DD0
:406240003A700C270F802A70032505813E4F1F2088713E4D3E483C80502704242F7004803C4C8A7393E8070084E807003A4F05F5BF75052306228EF87E223E802B702B7873
:4062800043F2C82403E002F0F7F8013C2BD02B784FF4F0701B06F6D442F251212F4D304A304B4FF4A5664FF0402001242E80047011801C784FF4F0701D4604F0010402F02F
:4062C000DBF8182601E0032C52D02B784FF4F07003F0010343EA440402F0CEF8013E04F00304F0D1FEE7FEE76CB40000A8B40000FCFFFF47AC00004883580040075B0040BE
:4063000003500140135001404C130048581300485013004854130048507600400876004010760040007600402876004000130048CB510040224300408040004084400040F3
:40634000884000408A400040904000409240004094400040004100401242004022420040204200402542004000480040824000404D484E4C4CF20F024FF4807652254C4B84
:40638000068025701B784B4EDBB23370DFF848E107260670A4F5FC74474F002340F20221DFF838C1454D48268EF8003026704FF0020E042603708CF8003087F800E02E70F3
:4063C00094F89A333E4E43F03F0384F89A3390F89D330CF5C75C43F0070380F89D3394F89833384843F0800384F8983303783648DBB2357803F0070E97F8F88680F800E085
:40640000DFF8DCE0EDB21B098EF800305FFA88F845F0030E86F800E048F0030E87F8F8E6A0F26270294B4FF0080E80F800E0DFF8B4E01A800CF11A0C4023254A8EF80030F8
:406440008CF8003080F8FD378EF80A304FF0010E82F800E0DFF890E0202280F888298EF800204FF0800E80F8F4E98CF8202280F81C3A184B04F566741A70A0F8361A83F823
:406480002DE00A2001F0EAFE94E80F00DFF85CE087F8F8861034442735708EF8007007C42380BDE8F08100BF04400040004200400F010049A1460040014000400B40004012
:4064C000F8460040CF0100496E5800403C510040235A00402B5B004006400040094000406F58004001590040985A00407658004008B504F08BF903680C2B00D0FEE7FEE74E
:4065000080B5134FF7B1134E002556F80C0C56F8084C56F8102C03463CB1043A52F8041F43F8041B191AA142F8D156F8040C1A4620B142F8045BD11A8842FAD1013F06F10B
:406540001006E2D104F068F9FAF7C2F8FEE700BF0100000058B7000008B5114A114B12491A600B68114A43F4007311480B600023032B94BF50F823100E490133302B42F8DA
:40658000041FF5D10C4B0D4918780D4A0D4B08701A60FFF793FDBDE8084001F0C5BC00BF0004FA050CED00E014ED00E0FC7FFF1F00000000F1640000BC760040C080FF1FF5
:4065C0000080FF1F08ED00E000B583B001F066FE01F002FF18B1042003B05DF804FB012001F0DEFE072814BF4FF0FF300720019001F014FF019803B05DF804FB70B5144BC7
:406600001A78940704D5102401F008FF204670BD1A78920802D00724204670BD1A78D107F9D50C4A054616781A78F6B2D20706D41C46012001F012FE2378DB07F9D5054B66
:40664000012E1B78DBB200D05B422B800024DBE722470040204700402DE9F0411746984682B00C4C0A2500262B460A460196014600962846257001F0D9FC4246394620787F
:4066800001F0B0FC2078022101F09AFC207802B0BDE8F081448BFF1FF9F756BF70B4074B074E1C68074D08490823084AE0203360E564087070BC1360704700BF08ED00E0FA
:4066C00080E100E09966000003E400E000E100E02DE9F0411746984682B00C4C012500262B460A460196014600962846257001F09DFC42463946207801F074FC20780221FD
:4067000001F05EFC207802B0BDE8F081458BFF1FF9F70ABF70B4074B074E1C68074D08491023084AE02033602565087070BC1360704700BF08ED00E080E100E01167000056
:4067400004E400E000E100E02DE9F0411746984682B00C4C022500262B460A460196014600962846257001F061FC42463946207801F038FC2946207801F022FC207802B08D
:40678000BDE8F081468BFF1F044A8000137800F0040003F0FB03184310707047C05100402DE9F843424D434C34262E70424804262670424ADFF83CE1062404704049002437
:4067C000404B414F1470414E8EF800404FF03F0E81F800E01C703C70AC7201253570502680F8816ADFF810E10A2682F8816A2C2681F8806A8EF800404FF0440E83F882EA76
:406800004FF002084FF0480E314E87F882EA80F8895A122782F88A8A2820EB22377081F88A0A83F8892A01F02FFE8146294FA6F58C563B78163E43F003033B703378264AD7
:40684000522143F0030333700320117001F006FD3B78484603F0FC033B70337807F58C5703F0FC03337001F013FE1C4B1C491D4A1D4858261E701D3705263C70067081F874
:406880000080204614705C7201F02AFA43F23332164B294613201A6001F034FA29464F2001F0B6FABDE8F84311491D2001F0DEBC004E0040024E0040034E0040044E004093
:4068C000064E0040084E0040094E0040144E00408F580040F846004092580040945800409B5800409C5800409A58004048710020CD6A0000054E004087580040F8B5584C8E
:40690000637A002B5DD1A37A564D03F0FF06002B59D00123637201F0B7FD534A2B781178524B41F0010111701178514D41F0100111701A784F4C42F001021A701A784E495E
:4069400042F010021A702B78064643F002032B702378032043F0020323700B7803430B7001F07CFC2B78454903F0FD032B702378434803F0FD0323700B78424A7A2443F006
:4069800006030B7004701378A1F5A65143F00403137006390B783C4D43F004030B7053783A4C43F0100353704B784FF0005243F010034B7030462A602260BDE8F84001F00B
:4069C00067BD284DA7E7012310202B70267001F00DFA102001F08EFA07211D2001F054FC48F6F0512A4A2B482B4B0427177006701E7092F87132294F43F0180382F8713202
:406A00006FF4417E264B00F8046C3E7082F8F36277440A221A7000F8166C224A3E705B271F725E271770A3F67F23142200F80A6C1A702B780F22A27104EB83039A781A4B7E
:406A4000A1801A702A7834F8222023F8022C2B782672012B7FF45DAFFFF7A2FE59E700BF5090FF1F478BFF1FAA430040BA430040F8460040F946004091580040775800400A
:406A800082580040A143004080E200E000E100E096580040975800409E580040885B004080580040895800400E4E0040024A137843F0010313707047004E0040024A13785D
:406AC00003F0FE0313707047004E0040704700BFF8B51E4D2C782CBB1D4B1E4E41271F701D4AC12737701D4B1D491E48332717700C264FF400420E70047007211A600F2071
:406B000001F0C2FB18490F2001F0B0FB174F18481849194A194B01263C702E7004700C7014701C8001F0B0FC1549164A0B7843F004030B70137843F00403137001F0A8FC9C
:406B4000114B4FF400421A60F8BD00BF6090FF1FD6490040C8490040CA49004080E100E0DB490040DC490040D96B0000567100205071002058710020577100205471002069
:406B8000A5430040B543004000E100E00B4B30B44FF400441C602AB1094D0A4C0A4B288022601980094C0A4800230A4A23704FF40041037030BC1160704700BF80E100E01C
:406BC000527100204C71002054710020587100205771002000E100E030B459490B78DBB203F00802002A31D0564B1A78D40741D55548564C02782468D2B2A25C1424D2B2F9
:406C00001A700C700378524ADBB21370137851490133DBB213700B784F4A43F0110308200B701070464B1B789B060CD549494A480B784A4A03F0EF0300240B7004701378D4
:406C400003F0EF03137030BCF9F73ABDD807E9D5414C02F0FF002278D2B2042A1AD0082A44D0012A2ED0384A394B2070107018700870D7E7102337480B700378364943F0EB
:406C80001203364A012403700C70137843F010031370C7E72E4A324B14781B889BB29C42E6D2284B2F481C78102304700B70274C137800782168DBB2C85413780133DBB28E
:406CC0001370AFE71F4B284A1B781288DBB2254D92B293422B70CBD210230B702B781A481B49042203700B7022709BE79A0715D4174A1D4B10781B889BB2984219D21348F8
:406D000013780068DBB2C35C0E4CDBB204202370087013780133DBB2137083E7094B0D4AFF251D700870137803F0EF031370207078E7044AFF20042310700B7072E700BF08
:406D4000D7490040D8490040587100204C710020577100205071002056710020D6490040547100206190FF1F52710020F0B4324D324E2A7833889BB298420BD002F00704A7
:406D80002F4A1278D2B24CB933B930802B7803F0BF032B70F0BC7047002845D002F0200202F0FF0512B3274F274A284E00243C7020271770347012F8084C04F07F0402F8DB
:406DC000084C96F8822016072BD41E4A204F144607263B80167023781A4A13F00103FAD1174E347804F0DF0434701370144B1C78A4060FD56FF4687213441A460029144C76
:406E000014BF03210121208019701378DB07FCD4F0BC7047094A10801A782A431A70F0BC70470028E2D1D0E72B7843F040032B703080F0BC704700BF96400040944000405F
:406E4000A243004001400040104000401440004002400040044A4001137800F0200003F0DF03184310707047F0510040F8B51A4D2C7844BB194A1A4B012614701E7001F00B
:406E800003FB184A0F27137843F01003137001F0FFFA154A154B164917700820042208701A600521022001F0EFF91249022001F0DDF911481149124A124B102707702E70FC
:406EC0000C7014701C70054A0F491378042043F0020313700860F8BD6290FF1F7664004086640040966400402264004080E100E032640040556F0000597100205E710020D0
:406F0000607100205C71002000E100E030B40B4B0B4804221A6003780A4C03F0FD030A49037023780B78094D0948102403F0DF030B702A60047030BC704700BF80E100E011
:406F400076640040666400408664004080E200E0597100209F4BA0491B780A78520646D5DBB2D807F0B42DD50A78453A052A29D8DFE802F003682828034303F00A02082A0E
:406F800003F0DF0300F09B800A2A1BD19348944C027842F0A0020270227802F0020202F0FF04002A00F0DC800A78057812F0080F0CBF0A2209228B4C2A43602604250270BC
:406FC0000E7025609A0610D50B78844813F0080F04780CBF02230123834A234303701378102003F0DF0313700870F0BC70470B78DB06FBD410230B7070477C487C4C7D4D8E
:40700000027824782D68D2B2E4B2AC5402787A4C0132D2B2027000782278904245D3704A127802F0020202F0FF00002A57D06B486C4C0278602642F00902042502700E70E9
:407040002560BFE703F0020202F0FF00D2B96B4A6B4C15782478A54262D26A4D14782D68E4B22C5D624F684EE4B23C70674D684C06273770FF262E70207010780130C0B268
:4070800010709FE7564A127802F0020202F0FF00002A32D05148534C0278602642F09A02042502700E7025608CE7574E574C584A0227FF25002037702570107082E70A7878
:4070C0004548452A5AD0504A0225504E504C1570FF2700254A2237702570027072E7424C494F2278494E42F02002494D22701224FF223C703270287064E73B4C424F22781F
:40710000424E42F020022270414D52243C70FF22324C32702870227842F09002227051E72F4A127802F0020202F0FF0052B12B482C4C0278602642F00A02042502700E70F9
:4071400025603FE7284C304F2278304E42F020022F4D22705224FF223C703270287031E72148294F0278294E42F02002284D02705220FF22387032702C7023E7204A1278DE
:40718000A2B1204A1A4C12681F4F12781F4DD2B2227006223A701E4EFF22184C2A700027012546223770257002700BE70C4A127802F0020202F0FF04002AD1D0074C094DC7
:4071C0002278602742F00A020426227007702E60F8E600BF66640040597100205E7100205D71002080E100E0866400406071002007650040687100206C7100205C71002016
:407200005F7100206471002076640040176500405765004051B1F0B4244C2578102D07D02578602D0AD0F0BC02207047022070471F4D2D78ED062DD41E4D07E01E4E1D4D41
