:4000000000400020110000002D1C00002D1C000008B5044B1A6803F53F5302331A6001F00DFE00BFFA46004010B5054C237833B9044B13B10448AFF300800123237010BD19
:40004000A8C1FF1F00000000B0380000084B10B51BB108490848AFF300800848036803B910BD074B002BFBD0BDE81040184700BF00000000ACC1FF1FB0380000C8C0FF1FB2
:400080000000000000F00CBF0A4910B50B680C24013393FBF4F204FB12330B604BB9064A1378072B03F1010111709CBF034A22F8130010BDCCC0FF1FC4C1FF1F24C3FF1FF7
:4000C00000231A4610B51D4830F9121001320029B8BF4942082A0B44F6D1194800220270184ADB10D17A0B41117B31B111898B42C2BF591A0A2404FB013340F28A218B42B5
:40010000A8BF0B46104C0E4954F823404368234414881269A3428CBF1B1B00234B604168074B8A4201D9002005E0064A5268914234BF01200220187210BD00BF24C3FF1F74
:40014000C4C1FF1F10C3FF1FB4380000012923D011D3022931D143F279530380184B012143604FF49C730381872383720723C3720173144B1EE040F66953038043F6594336
:400180004360892303818723837201210723C372017343F247030DE041F2D97303800A4B0173436089230381872383720723C3724EF66C630361084670470020704700BFBE
:4001C00034F806005C930500072A010084B02DE9F0438DB014AC84E80F009DF85A50199C05F00F052B1F042B9DF86C2004D8BDF85010159B994204D39DF8681014A8FFF709
:40020000A5FF9DF85A30DDF854E0DB098DF85C3005214FEA8E03B3FBF1F38DF85B50189302BB274694F80B9002AE0FCF4D450FC614AF07AE88460FCFB4F800C00FC61BD109
:40024000C64519D1BDF85030634515D18DF81350049B8DF8275023F07F42099B23F07F439A4209D114AD0FCD0FC42B6823600DB0BDE8F04304B07047189B009314AB0FCBDB
:4002800000F04AFEEEE7000008B500F029FC62B60E4D0F4C0F4E2B78012B14D100232B70237856F82330984723780133DBB2237022780A23B2FBF3F101FB1323DBB223700E
:4002C00000F00BFCE7E700F00AFCE4E7D3C1FF1FD4C1FF1FD0C0FF1F10B5040E0C70010C1170020A1A70029B187010BD030A0B701070704740F2E631054A002013880133B6
:400300009BB28B428ABF108013800120704700BFCEC1FF1F054A0020538801339BB2622B8ABF508053800120704700BFCEC1FF1F10B50B88C45C18444278023302EB042097
:400340000B8080B210BD30B50C880319055DDA78587802EB056202EB0042987804340C8002EB002030BD000008B50D4BB3F9040003F0D0F902F036FE07A3D3E9002302F067
:4003800085FE03F0BDF803F03FFA064B80B2588008BD00BFAFF300809A9999999999054036C3FF1F9EC4FF1F054BB3F90C004FF4800393FBF0F0034B80B29880704700BF28
:4003C00036C3FF1F9EC4FF1F38B51B4B1B4CB3F90800A0F5CD7002F0F3FD15A3D3E9002302F054FE03F08CF803F0E8F9237845B233B910222946124803F052FA01232370AF
:4004000063780F49013303F00F036370CD5400231A46C8560133102B0244FAD192FBF3F3084C237400F09AFE94F9100038BD00BF08AC1C5A643BBF3F36C3FF1FD8C1FF1F6F
:4004400044C3FF1F9EC4FF1F154B70B55A681F2A12DC2AB103EB4201013208815A601CE0114616460E4C04F1080525F8116001312029F7D1A164EDE703F1080103F14605E6
:40048000002231F8024FA94221F8024C2244F8D1A3F846001044C0F34F10024BD88070BDD8C1FF1F9EC4FF1F0F4B10B5B3F9000003F030F902F096FD09A3D3E9002302F0E6
:4004C000E5FD03F01DF803F09FF9084C80B22080FFF7BAFFE080208810BD00BFAFF30080CFF753E3A59B2D4036C3FF1F9EC4FF1F164B70B5DA6C1F2A14DC32B103EB4201A3
:400500000132A1F85000DA641DE0114616460F4C04F1500525F8116001312029F7D1C4F89010EBE703F1500103F18E05002231F9024FA94221F8024C2244F8D1A3F88E00FA
:40054000104440F34F10024BD88170BDD8C1FF1F9EC4FF1F00000000154A164BB2F90000B3F90230144A1B1AB2F9940010B5184402F026FD0CA3D3E9002302F087FD02F044
:4005800097FF46F2A813984205DC0C4B9842B8BF184600B200E01846094CA081FFF7A8FFE081B4F90C0010BDEC51B81E856B2840F8C0FF1F36C3FF1FD8C1FF1F589EFFFF04
:4005C0009EC4FF1F0220704710F10E0F03DB0F28A8BF0F2001E06FF00E00024BA3F89400704700BFD8C1FF1FF0B57E4B8BB01B78002B00F0F58040F6B7317B4A138815463D
:400600008B4202D801331380EAE093780A210133DBB2B3FBF1F201FB1233DBB2AB70002B40F0B580714B1A78552A12D1704A03F10C0153F8040B8B4242F8040BF9D11B8839
:400640000021138069480E2203F02AF9694B01221A70EB78644F012B09D8EB780E220133EB7062490023222001F00AFEB2E001F03FF80028F1D1604B604C1B780DF10F067F
:40068000002B38D15E4D8DF80F308DF81030237004AA33233146E8886370FFF727FE9DF80F3004AAA3709DF8103031466888E370FFF71CFE9DF80F3004AA23719DF8103047
:4006C0003146A8886371FFF711FE9DF80F3004AAA3719DF810303146E889E371FFF706FE9DF80F3023729DF8103063722B7CA372AB7CE3723EE03B798DF80C00082B08BF31
:4007000038712B790027A3F156028DF80D0001338DF80E008DF80F00374904A82B716270277001F0C7F80DF10D0203A9BDF81200FFF7DCFD9DF80C300DF10D02E3709DF876
:400740000D3003A9237106980DF10E030096FFF7C3FD9DF80C30A77263719DF80D30E772A3719DF80E30E3719DF80F3023729DF82030637200230C222049222001F02AFDA8
:40078000204B1A78022A25D100221A7022E0052B26D11B4E1C4C00250AAA012302F8185D0DF10F01308823708DF80F506570A570FFF79CFD9DF80F300722E3709DF810302D
:4007C00021462371337C33206371B37CA3712B4601F000FD022803D101F08CFB01F076FB0BB0F0BDA6C2FF1F70C2FF1F54C3FF1F9DC3FF1F78C3FF1FA3C2FF1F83C3FF1F7D
:400800009EC4FF1FA0C2FF1F79C3FF1F70B5314D8AB02A780023ADF81030002A58D01A462D48195C01330A440D2BD2B22A4EF8D1737B93424AD101230AAC24F8163D21462E
:400840003046FFF775FD0AAB23F8180D184600F055FE224BBDF810001B88834201D000F037FA21461C48FFF763FD2146ADF814001948FFF768FD214606901748FFF758FDD4
:40088000BDF81230ADF81C005A1CF35CADF812208DF81E30002303930293114B0193099B009305AB0FCBFFF791FCBDF81230F4565A1C2046ADF81220FFF786FE094B93F941
:4008C0000030A34202D0204600F012FA00232B700AB070BD78C3FF1F9DC3FF1F84C2FF1F10C3FF1F86C2FF1F08B501F00FFA01F0A3FA024B01221A7008BD00BFD3C1FF1F03
:40090000F8B5094C00232646084F23702578062D08D8284601F0A0FE337827F8150001333370F3E7F8BD00BF75C2FF1F36C3FF1F014B01221A70704734C3FF1F08B5064B4C
:400940001B783BB902F040F8012308B9034A00E0034A137008BD00BFAFC2FF1FA9C2FF1FA8C2FF1F024B187059709A70704700BF76C2FF1F38B5204CE078A8B923781BB1D3
:4009800001F018FA0123237163782BB1002001F0F9F9194B01225A71A3782BB1002001F015FA154B01229A712379134D43B1EA782B789A4204D3012001F0FCF900232B715D
:4009C00063790D4D43B1EA786B789A4204D3012001F0D8F900236B71A379074D43B1EA78AB789A4204D3012001F0F0F90023AB71E3780233E37038BD76C2FF1F014BD87952
:400A0000704700BF76C2FF1F044B0022DA701A715A719A711A815A81DA71704776C2FF1F0A494FF47A704B8901339BB2B3FBF0F200FB12339BB2B3F5F97F4B8188BFC31AFE
:400A40000B810B895B08CB71704700BF76C2FF1F08B5FFF729FDFFF787FCBDE80840FFF77BBD08B5FFF7A0FCBDE80840FFF7ACBCFFF7BABD08B5064BB3F90C00FFF704FBBC
:400A8000FFF748FC18B1FFF71BFB024B187008BD9EC4FF1F6EC2FF1F08B500F07FFBBDE8084000F00DBB00F0EDBBFFF7B9BFFFF7ADBE08B500F094FDBDE8084000F0F8BDBC
:400AC00008B500F06FFEFFF715FC28B1FFF77AFDBDE8084000F0B8B808BDFFF74BBF704708B500F049FD01F03FF91F4801F092F901F09CFD1D4801F08FFE01F0ABFD01F0D0
:400B0000D1FE01F0E3F900F03BF800F0CBF800F007F9174800F0F2FC164B93F90000FFF753FD00F0A9FEFFF7ADFA962001F0E0FE114801F0CBFE012001F03CF9012001F0BE
:400B400021F9012001F042F9002210461146FFF709FF002001F060FF084801F049FFBDE80840002001F038BFE90800000109000084C2FF1F86C2FF1F310900003D0900000E
:400B80002DE9FF4701F0C1FE002319462A4A2B482B4C13702A4F195404EB03150022A9540132102AFBD10133072BF3D1234DDFF894804FF0CC09002410220021684602F0D1
:400BC0006FFE1FFA84FA00260AEB060080B201F09EFE0DF806000136102EF5D19DF80F304B4515D16E463A190DF1100E334603CB7345106051601E4602F10802F6D12B7873
:400C000008EB040201332B703B1903F1100102E000232B7005E053F8040B8B4242F8040BF9D11034702C05F1010509F10109C3D104B0BDE8F08700BF82C2FF1F27C4FF1F66
:400C4000B7C3FF1F2EC4FF1F2DE9F843134C237813B3134E00254FF00108237808FA05F73B425FFA85F90BD001F065FEF27B05F1CC039A420BD14946304601F061FE30B1B1
:400C80000135072D06F11006E7D1BDE8F883237823EA07032370F3E7BDE8F88382C2FF1F2EC4FF1F074B1A78074B2AB1074908784A7842EA002201E044F250621A80188840
:400CC000704700BF27C4FF1F84C2FF1FB7C3FF1F054B020A1A70CC22DA73044A5870137843F00103137070472EC4FF1F82C2FF1F10F10E0F03DB0F28A8BF0F2001E06FF0CB
:400D00000E00054BCC22DA73044A9870137843F001031370704700BF2EC4FF1F82C2FF1F094B0A4A1B785BB1094B93F9023013F10E0F03DB0F2BA8BF0F2301E06FF00E031B
:400D4000937092F90200704727C4FF1F84C2FF1FB7C3FF1F064B074ADB7833B1064B93F8303013B1072B28BF0723D370D078704727C4FF1F84C2FF1FB7C3FF1F38B50D4684
:400D800018220021044602F08BFD6B08104915F0010F03F103030CBF0022072201EB031313441A79D978120402EB0162997958780A44597902EB0122D9799B78A26003EB19
:400DC000002363800023E3602174204638BD00BFB7C3FF1F84B02DE9F04385B00CAC84E80F009DF83120002312F0010F08BF1C4604AFDFF8A88007F8013D4FEA520688F817
:400E000030200DF10E013A46BDF8320006F1030518BF07248DF80C308DF80D308DF80E3008EB0519FFF762FA9DF80E304C4463709DF80F300DF10D02A37003A90DF10E035F
:400E400000970E98FFF748FA9DF80C30E3709DF80D3023719DF80E3063719DF80F30A3719DF84030E371CF2388F83F3026B1313E89F80F60EBB200E00323074801220178E6
:400E800002FA03F341F008010B43037005B0BDE8F04304B0704700BF82C2FF1F2EC4FF1F70B51A4B8AB05D78194E05ACFDB1194B1A7C597C8DF81E209A7C02EB0122ADF860
:400EC00014201A7DD97C120402EB0162997D0A44597D02EB01220692DA7D1B7E03EB0223ADF81C30012303930023029305E029462046FFF72BF903950295099B0196009353
:400F000094E80F00FFF762F90AB070BD27C4FF1F10C3FF1FB7C3FF1F84B01FB506AC84E80F000023254C8DF80C308DF80D308DF80E308DF80F309DF822300DF10E020DF196
:400F40000F01BDF818002374FFF7D0F99DF80F300DF10E0263749DF80E300DF10F01A37403AB009307980DF10D03FFF7B5F99DF80F300DF10E02E3749DF80E300DF10F01E1
:400F800023759DF80D30BDF8200063759DF80C30A375FFF7ABF99DF80F30094AE3759DF80E302376CD23E377137843F00203137004B0BDE8104004B0704700BF2EC4FF1F39
:400FC00082C2FF1F30B4104B104C00EB40001A181B5C206851789278451C5B42494252427C2DDBB2C9B2D2B2256006D97C387C284FF0000002D9206000E0FF20024001409B
:4010000030BC1840FFF7AEBCFAC0FF1F88C2FF1F38B50024084D02232246214620462B712C606C71FFF79EFCEC8000F055FBBDE8384000F079BB00BF88C2FF1F0A4B0B4AB9
:40104000B3F90630B3F5FA7F094BD5BF0120002010721072D5BF9A7C9A7C62F07F0202F07F029A74704700BF36C3FF1F88C2FF1F9EC4FF1F0346104870B5104A9C000519DD
:4010800032F813606D8AAE42054698BF08782C449CBF0130087032F81350A48A94BF00200120A54228BF0878134422BF013008700220D87470BD00BFFAC0FF1F9EC4FF1FE6
:4010C00073B5002002AD05F8010D2946FFF7D2FF204C0128A37C294614BF43F0020323F002030120A374FFF7C5FF294606460220FFF7C0FF0128A37C01D1012E02D043F0A0
:40110000040301E023F00403A374134B1A78A37C012A03D143F00803A3740EE003F0F703022AA37409D19DF8072043F0100301328DF80720074A937403E0A37C23F01003DA
:40114000A3749DF80730002B0CBF0120022002B070BD00BF9EC4FF1F6EC2FF1F0D4B0E4893F9101090F91F208A421A4605DD90F91E00884207DB002000E00220937C43F000
:401180000103937470479A7C012022F001029A74704700BF9EC4FF1FFAC0FF1F304B10B5597A304A012913D002D302291DD052E0002159819981517D01294CD1D17C0129EB
:4011C00011D041F26F71D088884244D8022143E0D17C002939D141F288305989013189B28142598137D8012136E0507D58B999895881013189B2B1F57A7F998194BF022164
:401200000021597229E0D17C012903D100205881988121E081B941F27070D48884420BD941F288345889013080B2A04201D85881CCE7598199810FE0002159819989002965
:40124000C4D0074801398181C0E759890029CAD001395981C7E700215972587AD07510BD88C2FF1F9EC4FF1FC306054B58BF00F00100DB7D48BF0120002B08BF012070471E
:401280009EC4FF1FF8B59A4CA37B1BB1FF23E373052323712379052B00F20D81DFE813F0060029005100C000E500F500FFF7C6FE0246D8B123688E4A0133B3F57A7F23BF28
:4012C000002313600123136028BF1371894BDB7D022B0BBF22682168C2F38702002207BF11460020C1F387011046E7E020600146E4E0FFF7A3FED8B17E4BDA7D1D46012AD1
:4013000008D1FFF7DDFE0128064603D1FFF75AFE2674F8BDEB7D022B04D10320FFF752FE012303E00020FFF74DFE00232374F8BD237C1BB1BDE8F840FFF76ABE0423237152
:40134000F8BD012000F02AFD00F028F9637C13B1674B96225A82658A664E2DB1644B013D5D82FF22002106E0634B1F782FB1FFF745FB2A46014610460BE0F37D022B40F0F1
:40138000A180FFF73BFB0546FFF738FB294602463846FFF7E7FAFFF751FEE38810B10133E38003E013B1524A013BD380227D504B42B960B15A7D002A40F09580012159750A
:4013C000DA8290E018B15B7D002B40F08C80637D474A0BB9002309E00028FBD1D38A50754C3B9BB2C62BF5D8012313766374E3883F49B3F5AF7F20750CD3002203230A60BD
:40140000CA800B7110461146FFF7ACFA00F06AF900F0A0F9B07CFFF727FF00288ED1F8BDFFF70CFEE38810B10133E38003E013B12F4A013BD3802368E288A3EBD3039A4296
:4014400001D2FFF7E5FD2368294A0133B3F57A7F25BF0023136013600423206828BF137100221146C0F3870028E0002210461146FFF778FA002000F091FC00F07DF8FFF7FD
:40148000DDFD0028FBD12071F8BD002210461146FFF768FA002000F081FC00F06DF80023A373E37B1BB1124A013BD373F8BDBDE8F84001F00DB800210846FF22BDE8F84019
:4014C000FFF750BA012B05D1FFF798FA3946024638465EE7FFF792FA0546FFF78FFA3A460146284655E7E38A0133E3826FE700BF88C2FF1F9EC4FF1FD2C1FF1F44F26723A7
:4015000002889A4205D94AF6C873934228BF134601E044F26823024A53820380704700BFFAC0FF1F5528034B0CBF012200229A73704700BF88C2FF1F014B01221A707047CD
:40154000A2C2FF1F014B01225A707047A2C2FF1F07B50023ADF8063000F01EF9ADF80600BDF806309BB2042B02D95520FFF7DAFF03B05DF804FB000038B50020002400F05D
:4015800031FC054D002000F039FC20466C8001F097F92C7138BD00BFA2C2FF1F40F6C31210B50E4C6388934209D8012000F01AFC012000F023FC63880133638010BD40F69A
:4015C000C412934209D1012001F07AF9FFF71CFA6388013363800123237110BDA2C2FF1F314B59791A4601290FD002D302293DD07047D97A00229A711A72DA715A729A7222
:40160000002950D01A7301224CE0DB7A03B95371117B254B02290ED1597A0131C9B21E2959720AD9987A214908700021012099721873597101E00021597292791A4B002A38
:4016400031D05A7A00210D3A042A9A7A997195BF013201329A729A724FF001021A73D97192BF59725972197202221BE0DB7A03B95371107A0C4B411C1172D17959B10C3837
:40168000002104289971D97105D8597219720221197301215971127A034B1E2A03D902221A7300225A717047A2C2FF1FB6C4FF1F074A002113781170023BDBB2022B8EBF8C
:4016C0000B46044850F8233003B11847704700BFB6C4FF1FE0420000014B0122DA727047A2C2FF1F014B0022DA727047A2C2FF1F034B187810B100221A700120704700BFA6
:40170000A2C2FF1F074B0022002000215A809A61DA611A625A629A62C3E90201DA621A63704700BFB0C2FF1F08B5FFF7EBFF074B074A1B781370013303F007035370002353
:401740001374012382F8343008BD00BF87C2FF1FB0C2FF1F13B50F4C4FF46162A368B3FBF2F32363032323746388782B04D8002384F8343002B010BD04F1100393E80300E9
:401780008DE8030094E80F00FFF724FBFFF75CFAEDE700BFB0C2FF1F014B5888704700BFB0C2FF1F73B5324A92F83410134609B9D1865BE001221A74DA8E2E48013292B24B
:4017C000B2F57A7F22BF0022DA865A88B0F90E102ABF0132DA865A80C28898694FF47A760244D869224C0144188F9A61013080B2B0FBF6F506FB150080B2D961188700284B
:4018000034D192FBF6F291FBF6F161625143226291FBF6F2A061E061D4E90201801841EBE2710028A26271F10002BCBF00200021C4E9020199684FF46160B1FBF0F1D9628A
:401840005B8F0B4A01339BB23B2B01D853870DE0002353875388782B08D902F1100393E803008DE803000FCAFFF7B4FA02B070BDB0C2FF1F9EC4FF1F2DE9F0410C4F86B006
:4018800000264FF018086D4608FB0674F1B26846FFF774FA0FCD0FC40136082E95E8030084E80300EFD106B0BDE8F041FFF752BAB8C4FF1F70B50B780646012B1F4806D16D
:4018C0001F4B1A781AB1002280F83C201A70447890F83C2008341B4BA41A2340002BB8BF03F1FF3302F10102B8BF63F00703D2B2B8BF0133082ADBB280F83C2004D1104ABB
:401900000124147000220A7042789A4208D134460A4D0FCD0FC495E8030084E803000AE03546094A182404FB03240FCC0FC594E8030085E80300304670BD00BFB0C2FF1FDA
:401940001AC1FF1F07000080B8C4FF1F2DE9F04172B6904D0024062606FB045300219A881868013401F09CFF072CF5D18A4C8B4B8B4D0FCB84E80F008A48002450F8041FA2
:4019800004F1105303F1500221F0FF065133C9B20B4452005B0002329A4206D012F8027C12F801EC07F806E0F5E7A8420C44E5D17D4B00221A607D4B7D4C1A687D4B7E4D58
:4019C0001A607E4B43F2C8261A687D4B1A607D4A137843F002031370137C43F0020313742378A2F5863243F040032370413A137843F010031370744B03CBC2F8400DC2F852
:401A0000441D93E8070003C5704B2A80704A07CA03C31A806F4A704B03CB1060516003CB1061516103CB51626C4910620A783D2042F008020A706A4A612111700821A2F5A3
:401A4000F0621180674918220A70488042200A71C8804FF4A7700A7248810A731A68624B1A60062283F8002245F20E52A3F81221052283F8102193F8102103F588731D465E
:401A80002B781B0606D54FF4F07000F0CDFF013EF6D1FEE740F64332544B554F1A8001224FF040231A7041F251221926A3F8202200253B784FF4F07003F0010343EA4505BB
:401AC00000F0B2FF013E05F0030562D0032DF0D1484A4FF480731380474B52211970474B47491B78A1F29B61DBB281F89B3607231370482000230B70887013705371414B64
:401B000002221A7091F89C333F4F43F00F0381F89C33334B012119703C4BDFF80C811B783D783B4998F80060DBB2EDB203F007001B090870F6B24B7045F003033B7046F073
:401B4000030388F80030334BE92119708021197483F83020304A4023137093702F4BF8221A702022DA7040F209121A84282283F838200A2000F0B4FC294B88F8006044220C
:401B80003D70284D1A7094E80F0007C52B80BDE8F081FEE7EC42000000500140F40B00489C000048FCFFFF4700760040400C0048A043004008760040C0510040440C00483D
:401BC0001076004003500140040C0048F0510040180C004812510040240C004822430040004800408240004000410040224200402542004004400040004200400F010049D1
:401C0000A146004001400040F8460040CF0100496E5800400D51004001590040205B004076580040B0430040F946004008B501F00BFE03680C2B00D1FEE7FEE780B511482A
:401C4000114B0025C0B1A3F1100192C922460439161BB74204D051F8046F42F8046BF7E7114653F8046C8C1AA64202D041F8045BF9E701381033E5E701F0ECFDFEF704FB8C
:401C8000FEE700BF0100000058430000124A134B10B51A60124A134C1368134843F4007313600023032B98BF54F823204FEA830188BF0E4A0133302B4250F3D10C4B1A78DC
:401CC0000C4B1A700C4B084A1A60FFF73FFEBDE8104000F02DBB00BF0004FA050CED00E014ED00E00000000000C0FF1F2D1C0000BC760040C0C0FF1F08ED00E0024A137881
:401D000043F080031370704770640040014B1878704700BF60640040034A044913781B0701D50B78FAE7704760640040406400400A4A08B56323137002F8203C00F07CFE4F
:401D4000074A137843F01003137000F079FEFFF7E3FF044B01221A7008BD00BF20640040906400408064004010B5054C23781BB9FFF7DEFF01232370BDE81040FFF7BEBF6C
:401D8000EDC2FF1F044A137803F07F0343EAC010C0B21070704700BF30510040044A00F00100137803F0FE0318431070704700BF30510040044A8001137800F0400003F095
:401DC000BF0303431370704730510040044A00F00100137803F0FE0318431070704700BFC0510040044A8000137800F0040003F0FB03034313707047F0510040044A0001F2
:401E0000137800F0100003F0EF0303431370704720510040064A0823136002F688321268E021D064034A1170A2F203321360704780E100E003E400E0014B08221A60704742
:401E400080E200E0114B022210B51A70812203F80E2C082203F80C2C00240B225A719C710B4B4FF400421A6007210F2000F04EFB08490F2000F03CFB074B10221A70074B07
:401E80001C70074B1C70074B1C7010BDD649004080E100E0A91F000078C5FF1F7EC5FF1F80C5FF1F7CC5FF1F08B500F0C5FD064A137843F004031370137C43F004031374D0
:401EC000BDE8084000F0BCBDA543004010B5074C23781BB9FFF7B6FF01232370FFF7E4FF034B4FF400421A6010BD00BFEEC2FF1F00E100E02DE9F843224BDFF8A8804FF43A
:401F00000049C3F8009098F800301F4C1F4FE3703B781F4E237133781E4D637130783B782A7843EA002002F0FE0201302A7080B200F07AFD00F080FD174A137803F0FB0399
:401F40001370137C03F0FB03137400F079FD2B78102243F002032B70E37888F80030E37888F8003023793B70637933702B7803F0EF032B70094BC3F80090094B1A70BDE8A8
:401F8000F88300BF80E100E01BC1FF1FDB490040DC490040D6490040A543004080E200E078C5FF1FCA49004070B57C487C4A13780178DBB211F0400F014600F0E880D8075E
:401FC00040F1D18008784538052800F2CC80DFE810F006005800CA00CA0006009A0003F0DF0003F00A03082B24D10C786B4B452C1BD16C4C247864B16B4C6C4D246824780C
:40200000E4B22C7004241470694A0124147046220EE0684C2478A60728D5674C227842F00A02227060221A701BE0002414704A221A7097E00A2B40F095805F4B1C7844F0F1
:40204000A0041C705B4C2478A5070FD50A781C7812F0080F14BF09220A2222431A7060230B70564B4FF400421A607BE0544C237843F010032370534B10241C700423137000
:4020800070E09C0726D44A48464C05782478A5420DD2454D04782D68E4B22C5D434DE4B22C700424147002780132D2B229E041480078800704D54048027842F00A0242E003
:4020C0003F4C207840F0100020703E481024047004202BE03748007810F0020F364803D0027842F09A022EE0354D2C7844F010042C70344C1025257004241470027842F035
:40210000900202702FE0304D304C2E68274D20782D78C0B2EDB2355420780130C0B220702B4824780078844202D2102010701AE02048007800F0020000F0FF0558B11E48E7
:40214000027842F00902027060220A701B4A4FF40040106007E01A4C207840F010002070157000E003469A0616D50B78124A13F0080F107814BF0123022303431370104A34
:40218000137803F0EF03137010230B7070BD0378DB065CBF1023037070BD00BF78C5FF1FD74900407FC5FF1F84C5FF1FD84900407CC5FF1F7DC5FF1F7EC5FF1F80E100E002
:4021C000D6490040D949004088C5FF1F80C5FF1F8CC5FF1F70B5B1B11E4C2578102D05D11D4D2D782D0710D5012070BD2578602D09D11A4D4FF400462E60194E357805F03F
:40220000F705357001E0022070BD45252570154C00252570144C40002270144AC0B21160134A0F4913700A7813F0010F02F0FD020A70104A084B107004D012221A70042223
:402240000D4B00E001221A700C4B4FF400421A60002070BD78C5FF1FD949004080E200E07EC5FF1F7CC5FF1F7FC5FF1F84C5FF1F7DC5FF1FD8490040D749004000E100E06C
:4022800070B5B1B11F4C2578102D05D11E4D2D782D0710D5012070BD2578602D09D11B4D4FF400462E601A4E357805F0F705357001E0022070BD49252570164C0025257088
:4022C000154C40002270154A40F001001160144A0F4913700A78C0B202F0FE020A70114A13F0010F1070084B04D012221A7004220D4B00E001221A700C4B4FF400421A60DD
:40230000002070BD78C5FF1FD949004080E200E07EC5FF1F80C5FF1F8CC5FF1F88C5FF1F7DC5FF1FD8490040D749004000E100E0074A7F23802113705170064A013BDBB2E0
:4023400002F80839002BF9D1034A1370704700BF24C1FF1FF87B00400078004017280FD8084B0001C25C11B142F0200201E002F0DF02C254C25C42F00102C25400207047C1
:40238000012070471070004017280DD8074900010B4603441A7942F004021A71435C43F00103435400207047012070471070004017280BD8064A0001835C490003F0F103C4
:4023C00001F00E011943815400207047012070471070004041F6FF73994208BF4FF400519A4208BF4FF4005217289FBFC00000F1804000F5EC4081809ABFC280002001201A
:402400007047000017289FBF034B00011954002088BF0120704700BF19700040172810B51AD8C00001F07F0100F1804441EAC21204F5EC44D2B222709DF8082003F00F03E9
:4024400043EA0213DBB263709DF80C30002003F00F03A370E07010BD012010BD10B500F0EBFA0A4A5378182B0AD91478013B5370E30003F1804303F5F0431B78137000E081
:40248000FF2400F0DDFA204610BD00BF24C1FF1F30B504060CD411F4704509D1C40004F1804404F5F0442180A270E370284630BD012030BD03065FBFC00000F1804000F534
:4024C000F04081805ABFC2800020012070470000024A137843F0010313707047F6460040024B1B7A584300F09FBA00BF2CC1FF1F054A00F01F00126800F1100352F82300BB
:4025000042F82310704700BF08ED00E000F01F0000F16040490100F56440C9B20170704710B541F6FF734FF480420121022000F039F941F6FF73084C1A46207001210E20A7
:4025400000F04EF96070054800F078F9BDE81040002000F079B900BFF0C2FF1F7526000070B52B4D2B4C2878FFF70EFF6878FFF70BFF23782E46FF2B02D1FFF76FFF2070AE
:402580002278254D06230E211046ADB2FFF780FF2A4645F6A0312078FFF78CFF21783078FFF730FF6378FF2B03D1FFF757FF194B5870627807230E211046FFF769FF174AF9
:4025C000294692B26078FFF775FF61787078FFF719FF01213078FFF7C1FE01217078FFF7BDFE00F029FA0E4A137843F02003137000F026FA0B4B1A7842F001021A701A78C5
:4026000042F002021A70084B01221A6070BD00BFF0C2FF1F3CC1FF1FF2C2FF1F8EC5FF1F936400407464004080E200E010B5074C23691BB9FFF774FF0123236100F09CF832
:40264000FFF78EFF024B1B7810BD00BFF0C2FF1F6264004000F09EB8044A054BC0F106001B8832F81000C01A00B270478EC5FF1FA4C5FF1F7047000010B500F0DDF91A4A3C
:40268000044613780A2043F001031370137C43F00103137402F5AA521832137843F003031370124B04221A7013F8012C42F0400203F8012C13F8012C02F0FC0203F8012C5F
:4026C000C82203F8062CA3F597530222123B1A70074A137843F008031370FFF701FF2046BDE8104000F0ACB9AB43004006590040275B0040082804D00A280CBF8423C423E5
:4027000000E0442308380E4AC0B20428137098BF0C4B4FF0000298BF33F910100A4B88BF11461A8042F210734B4341F2883103F6C41393FBF1F305490B60054B1A807047AD
:4027400002590040164300009CC5FF1FA0C5FF1FA4C5FF1F08B5064A0C20137843F006031370FFF7C7FF034B00221A8008BD00BF015900409EC5FF1F10B5054C23781BB96F
:40278000FFF7E8FF01232370BDE81040FFF774BF04C3FF1F024A137843F001031370704700590040F7B516461F460C4C02250023019300930A462B46014628462570FFF76A
:4027C0002DFE3A4631462078FFF704FE29462078FFF7EEFD207803B0F0BD00BF3EC1FF1F73B515461E460B4C01230022019200920A46014618462370FFF710FE324629464F
:402800002078FFF7E7FD02212078FFF7D1FD207802B070BD3FC1FF1F064A0123136002F688321268E0211064034A1170A2F540721360704780E100E000E400E0014B1B6875
:402840001864704708ED00E04001024BC0B21870704700BF00E400E0084A137843F060031370A2F5A652133A137843F001031370137C43F001031374704700BF77580040A5
:40288000054B00F003001A7802F0FC021A701A7810431870704700BF585800400120FFF7EFBF000008B5054B1A781AB901221A70FFF7F4FFBDE80840FFF7CEBF05C3FF1FD3
:4028C000014B1870704700BF7F640040064A1023136002F688321268E0211065034A1170A2F541721360704780E100E004E400E0014B1870704700BF7C64004008B500F071
:40290000C7F8BDE8084000F0F1B8FFF7F7BF38B5044600F091F8054600F010F904F1804303F500431C7800F015F9E4B2284600F087F8204638BD08B500F0AAF8C0B208BDD9
:4029400038B50D46044600F00DF92B0632D400F097F9002830D110222146402000F032F9072808D1164A1378154C13F0020FFAD02378980702D44FF0FF3418E023789B08F9
:40298000F9D1104A294653784020127800F03EF90728F0D122780A4B9107FBD51A789207E9D51B789B0814BF4FF0FF34002400F087F902E0012400E00424204638BD00BF40
:4029C00022470040A6C5FF1F024B1878C0F38010704700BF21510040044A137803F07F0343EAC010C0B21070704700BF20510040074A0223136002F688321268E02150642F
:402A0000044A11706FF440710A441360704700BF80E100E001E400E0014B1870704700BF78640040000000000230800803D000BF01380046FCD17047EFF3108072B6704770
:402A400080F31088704700BF38B500F08BF800F017F9C0B900F04EF90728044610D10B4D2A780A4B910703D40120FFF739FDF7E71A78920704D51B789B0814BF0724002426
:402A800000F01EF900E00424204638BD2247004070B5FFF7D9FF044610BB00F063F800F0EFF8E0B9012000F0D1F807280AD10D4D02210D4800F068F802280A4E05D02B7840
:402AC0009B07F5D54FF0FF3406E033789A0703D40120FFF705FDF8E700F0F2F800E00424204670BD22470040A6C5FF1F08B5FFF7A3FF0F4A137843F008031370137C43F094
:402B0000080313740B4BC8221A700B4A137843F010031370137C43F01003137402F5557213789B06FCD5BDE80840FFF789BF00BFA043004001470040AC430040044B1A78D4
:402B400042F001021A701A789207FCD5704700BF02470040024A137803F0FE03137070470247004008B5FFF767FF064A137843F008031370137C43F008031374BDE8084017
:402B8000FFF75EBFA04300402DE9F0410E464B1E0A4FDFF82C80451EC418A5420BD03B78DB0703D40120FFF79BFCF8E798F8003005F8013FF1E73046BDE8F08122470040FB
:402BC0002047004030B50F4C23789D0715D50E4BB6251D70D5251D7002251D702478A4070DD40C461870601A80B2824203D914F8010B1870F7E7072030BD042030BD0920AF
:402C000030BD00BF224700402047004070B50D4D2C78A60712D50C4CB6262670D8262670052626702D78AD070AD42070080AC9B22070217022702370072070BD042070BD83
:402C4000092070BD22470040204700400A4A137899070CD5094BB6211970E12119700E2119701278920704D4187007207047042070470920704700BF22470040204700402C
:402C800038B5FFF7D9FE0C4A147874B901250B4915700B682B400AD00B6823F001030B6000BF00BF00BF556002E0042400E01C46FFF7C6FE204638BD08C3FF1F0400084017
:402CC00010B5FFF7B9FE094B00215A681970012A08D1074C226842F00102226000BF00BF00BF5960BDE81040FFF7AABE08C3FF1F04000840074B1B789B0708D5064BB622FF
:402D00001A70E0221A700D221A70072070470420704700BF224700402047004081F0004102E000BF83F0004330B54FEA41044FEA430594EA050F08BF90EA020F1FBF54EA0F
:402D4000000C55EA020C7FEA645C7FEA655C00F0E2804FEA5454D4EB5555B8BF6D420CDD2C4480EA020281EA030382EA000083EA010180EA020281EA0303362D88BF30BD5C
:402D800011F0004F4FEA01314FF4801C4CEA113102D0404261EB410113F0004F4FEA03334CEA133302D0524263EB430394EA050F00F0A780A4F10104D5F1200E0DDB02FACD
:402DC0000EFC22FA05F2801841F1000103FA0EF2801843FA05F359410EE0A5F120050EF1200E012A03FA0EFC28BF4CF0020C43FA05F3C01851EBE37101F0004507D54FF060
:402E0000000EDCF1000C7EEB00006EEB0101B1F5801F1BD3B1F5001F0CD349085FEA30004FEA3C0C04F101044FEA445212F5800F80F09A80BCF1004F08BF5FEA500C50F133
:402E4000000041EB045141EA050130BD5FEA4C0C404141EB010111F4801FA4F10104E9D191F0000F04BF01460020B1FA81F308BF2033A3F10B03B3F120020CDA0C3208DD07
:402E800002F1140CC2F10C0201FA0CF021FA02F10CE002F11402D8BFC2F1200C01FA02F120FA0CFCDCBF41EA0C019040E41AA2BF01EB0451294330BD6FEA04041F3C1CDA70
:402EC0000C340EDC04F11404C4F1200220FA04F001FA02F340EA030021FA04F345EA030130BDC4F10C04C4F1200220FA02F001FA04F340EA0300294630BD21FA04F02946C6
:402F000030BD94F0000F83F4801306BF81F480110134013D4EE77FEA645C18BF7FEA655C29D094EA050F08BF90EA020F05D054EA000C04BF1946104630BD91EA030F1EBF9F
:402F40000021002030BD5FEA545C05D14000494128BF41F0004130BD14F580043CBF01F5801130BD01F0004545F0FE4141F470014FF0000030BD7FEA645C1ABF1946104615
:402F80007FEA655C1CBF0B46024650EA013406BF52EA033591EA030F41F4002130BD00BF90F0000F04BF0021704730B54FF4806404F132044FF000054FF0000150E700BF61
:402FC00090F0000F04BF0021704730B54FF4806404F1320410F0004548BF40424FF000013EE700BF42004FEAE2014FEA31014FEA02701FBF12F07F4393F07F4F81F06051F5
:40300000704792F0000F14BF93F07F4F704730B54FF4607401F0004521F0004120E700BF50EA010208BF704730B54FF000050AE050EA010208BF704730B511F0004502D598
:40304000404261EB41014FF4806404F132045FEA915C3FF4DCAE4FF003025FEADC0C18BF03325FEADC0C18BF033202EBDC02C2F1200300FA03FC20FA02F001FA03FE40EA71
:403080000E0021FA02F11444C1E600BF70B54FF0FF0C4CF4E06C1CEA11541DBF1CEA135594EA0C0F95EA0C0F00F0DEF82C4481EA030621EA4C5123EA4C5350EA013518BF0E
:4030C00052EA033541F4801143F4801338D0A0FB02CE4FF00005E1FB02E506F00042E0FB03E54FF00006E1FB03569CF0000F18BF4EF0010EA4F1FF04B6F5007F64F540744F
:4031000004D25FEA4E0E6D4146EB060642EAC62141EA55514FEAC52040EA5E504FEACE2EB4F1FD0C88BFBCF5E06F1ED8BEF1004F08BF5FEA500E50F1000041EB045170BDD4
:4031400006F0004646EA010140EA020081EA0301B4EB5C04C2BFD4EB0C0541EA045170BD41F480114FF0000E013C00F3AB8014F1360FDEBF002001F0004170BDC4F10004BC
:40318000203C35DA0C341BDC04F11404C4F1200500FA05F320FA04F001FA05F240EA020001F0004221F0004110EBD37021FA04F642EB06015EEA430E08BF20EAD37070BD82
:4031C000C4F10C04C4F1200500FA04F320FA05F001FA04F240EA020001F0004110EBD37041F100015EEA430E08BF20EAD37070BDC4F1200500FA05F24EEA020E20FA04F372
:4032000001FA05F243EA020321FA04F001F0004121FA04F220EA020000EBD3705EEA430E08BF20EAD37070BD94F0000F0FD101F00046400041EB010111F4801F08BF013C44
:40324000F7D041EA060195F0000F18BF704703F00046520043EB030313F4801F08BF013DF7D043EA0603704794EA0C0F0CEA135518BF95EA0C0F0CD050EA410618BF52EA3D
:403280004306D1D181EA030101F000414FF0000070BD50EA410606BF1046194652EA430619D094EA0C0F02D150EA013613D195EA0C0F05D152EA03361CBF104619460AD19C
:4032C00081EA030101F0004141F0FE4141F470014FF0000070BD41F0FE4141F4780170BD70B54FF0FF0C4CF4E06C1CEA11541DBF1CEA135594EA0C0F95EA0C0F00F0A7F8EE
:40330000A4EB050481EA030E52EA03354FEA013100F088804FEA03334FF0805545EA131343EA12634FEA022245EA111545EA10654FEA00260EF000419D4208BF964244F181
:40334000FD0404F5407402D25B084FEA3202B61A65EB03055B084FEA32024FF480104FF4002CB6EB020E75EB030E22BFB61A754640EA0C005B084FEA3202B6EB020E75EB1C
:40338000030E22BFB61A754640EA5C005B084FEA3202B6EB020E75EB030E22BFB61A754640EA9C005B084FEA3202B6EB020E75EB030E22BFB61A754640EADC0055EA060E2F
:4033C00018D04FEA051545EA16754FEA06164FEAC30343EA52734FEAC2025FEA1C1CC0D111F4801F0BD141EA00014FF000004FF0004CB6E711F4801F04BF01430020B4F100
:40340000FD0C88BFBCF5E06F3FF6AFAEB5EB030C04BFB6EB020C5FEA500C50F1000041EB045170BD0EF0004E4EEA113114EB5C04C2BFD4EB0C0541EA045170BD41F480110C
:403440004FF0000E013C90E645EA060E8DE60CEA135594EA0C0F08BF95EA0C0F3FF43BAF94EA0C0F0AD150EA01347FF434AF95EA0C0F7FF425AF104619462CE795EA0C0FA5
:4034800006D152EA03353FF4FDAE1046194622E750EA410618BF52EA43067FF4C5AE50EA41047FF40DAF52EA43057FF4EBAE12E74FEA410212F5001215D211D56FF478737B
:4034C000B3EB625212D94FEAC12343F0004343EA505311F0004F23FA02F018BF404270474FF00000704750EA013005D111F0004008BF6FF0004070474FF00000704700BF73
:403500004FEA4102B2F1E04324BFB3F5001CDCF1FE5C0DD901F0004C4FEAC0024CEA5070B2F1004F40EB830008BF20F00100704711F0804F21D113F13872BCBF01F000401C
:40354000704741F480114FEA5252C2F11802C2F1200C10FA0CF320FA02F018BF40F001004FEAC1234FEAD32303FA0CFC40EA0C0023FA02F34FEA4303CCE77FEA625307D167
:4035800050EA01331EBF4FF0FE4040F44000704701F0004040F0FE4040F40000704700BF80F0004002E000BF81F0004142001FBF5FEA410392EA030F7FEA226C7FEA236CA2
:4035C0006AD04FEA1262D2EB1363C1BFD218414048404140B8BF5B42192B88BF704710F0004F40F4000020F07F4018BF404211F0004F41F4000121F07F4118BF494292EA87
:40360000030F3FD0A2F1010241FA03FC10EB0C00C3F1200301FA03F100F0004302D5494260EB4000B0F5000F13D3B0F1807F06D340084FEA310102F10102FE2A51D2B1F103
:40364000004F40EBC25008BF20F0010040EA03007047490040EB000010F4000FA2F10102EDD1B0FA80FCACF1080CB2EB0C0200FA0CF0AABF00EBC25052421843BCBFD040CF
:403680001843704792F0000F81F4000106BF80F400000132013BB5E74FEA41037FEA226C18BF7FEA236C21D092EA030F04D092F0000F08BF0846704790EA010F1CBF002035
:4036C000704712F07F4F04D1400028BF40F00040704712F100723CBF00F50000704700F0004343F0FE4040F4000070477FEA226216BF08467FEA23630146420206BF5FEADD
:40370000412390EA010F40F4800070474FF0000304E000BF10F0004348BF40425FEA000C08BF704743F0964301464FF000001CE050EA010208BF70474FF000030AE000BF78
:4037400050EA010208BF704711F0004302D5404261EB41015FEA010C02BF84460146002043F0B64308BFA3F18053A3F50003BCFA8CF2083AA3EBC25310DB01FA02FC634482
:4037800000FA02FCC2F12002BCF1004F20FA02F243EB020008BF20F00100704702F1200201FA02FCC2F1200250EA4C0021FA02F243EB020008BF20EADC7070474FEA40027C
:4037C000B2F1FE4F0FD34FF09E03B3EB12620DD94FEA002343F0004310F0004F23FA02F018BF404270474FF00000704712F1610F01D1420205D110F0004008BF6FF00040E4
:4038000070474FF00000704742000ED2B2F1FE4F0BD34FF09E03B3EB126209D44FEA002343F0004323FA02F070474FF00000704712F1610F01D1420202D14FF0FF3070470D
:403840004FF00000704700BF014B1868704700BFA0C1FF1F0E4B70B51E460E4C0025E41AA410A54204D056F8253098470135F8E700F058FD084B094C1E46E41AA410002545
:40388000A54204D056F8253098470135F8E770BD3043000030430000304300003843000003460244934202D003F8011BFAE7704700000000000000000100000004000000CB
:4038C00009000000100000001900000024000000310000004000000051000000640000007900000090000000A9000000C4000000E10000000001000021010000440100008D
:403900006901000090010000B9010000E4010000110200004002000071020000A4020000D9020000100300004903000084030000C103000000040000410400008404000029
:40394000C90400001005000059050000A4050000F10500004006000091060000E40600003907000090070000E907000044080000A10800000009000061090000C4090000A5
:40398000290A0000900A0000F90A0000640B0000D10B0000400C0000B10C0000240D0000990D0000100E0000890E0000040F0000810F0000001000008110000004110000FE
:4039C00089110000101200009912000024130000B113000040140000D114000064150000F91500009016000029170000C41700006118000000190000A1190000441A00003A
:403A0000E91A0000901B0000391C0000E41C0000911D0000401E0000F11E0000A41F00005920000010210000C9210000842200004123000000240000C12400008425000055
:403A40004926000010270000D9270000A428000071290000402A0000112B0000E42B0000B92C0000902D0000692E0000442F00002130000000310000E1310000C43200004F
:403A8000A9330000903400007935000064360000513700004038000031390000243A0000193B0000103C0000093D0000043E0000013F000000400000014100000442000026
:403AC00009430000104400001945000024460000314700004048000051490000644A0000794B0000904C0000A94D0000C44E0000E14F0000005100002152000044530000E3
:403B00006954000090550000B9560000E457000011590000405A0000715B0000A45C0000D95D0000105F00004960000084610000C16200000064000041650000846600007F
:403B4000C967000010690000596A0000A46B0000F16C0000406E0000916F0000E47000003972000090730000E974000044760000A177000000790000617A0000C47B0000FB
:403B8000297D0000907E0000F97F000064810000D182000040840000B18500002487000099880000108A0000898B0000048D0000818E000000900000819100000493000054
:403BC00089940000109600009997000024990000B19A0000409C0000D19D0000649F0000F9A0000090A2000029A40000C4A5000061A7000000A90000A1AA000044AC000090
:403C0000E9AD000090AF000039B10000E4B2000091B4000040B60000F1B70000A4B9000059BB000010BD0000C9BE000084C0000041C2000000C40000C1C5000084C70000AB
:403C400049C9000010CB0000D9CC0000A4CE000071D0000040D2000011D40000E4D50000B9D7000090D9000069DB000044DD000021DF000000E10000E1E20000C4E40000A5
:403C8000A9E6000090E8000079EA000064EC000051EE000040F0000031F2000024F4000019F6000010F8000009FA000004FC000001FE000000000100010201000404010079
:403CC0000906010010080100190A0100240C0100310E01004010010051120100641401007916010090180100A91A0100C41C0100E11E010000210100212301004425010029
:403D00006927010090290100B92B0100E42D0100113001004032010071340100A4360100D9380100103B0100493D0100843F0100C1410100004401004146010084480100C5
:403D4000C94A0100104D0100594F0100A4510100F15301004056010091580100E45A0100395D0100905F0100E961010044640100A166010000690100616B0100C46D010041
:403D80002970010090720100F974010064770100D1790100407C0100B17E010024810100998301001086010089880100048B0100818D01000090010081920100049501009A
:403DC00089970100109A0100999C0100249F0100B1A1010040A40100D1A6010064A90100F9AB010090AE010029B10100C4B3010061B6010000B90100A1BB010044BE0100D6
:403E0000E9C0010090C3010039C60100E4C8010091CB010040CE0100F1D00100A4D3010059D6010010D90100C9DB010084DE010041E1010000E40100C1E6010084E90100F1
:403E400049EC010010EF0100D9F10100A4F4010071F7010040FA010011FD0100E4FF0100B90202009005020069080200440B0200210E020000110200E1130200C4160200E3
:403E8000A9190200901C0200791F0200642202005125020040280200312B0200242E0200193102001034020009370200043A0200013D0200004002000143020004460200B2
:403EC00009490200104C0200194F0200245202003155020040580200515B0200645E02007961020090640200A9670200C46A0200E16D02000071020021740200447702006F
:403F0000697A0200907D0200B9800200E483020011870200408A0200718D0200A4900200D993020010970200499A0200849D0200C1A0020000A4020041A7020084AA02000B
:403F4000C9AD020010B1020059B40200A4B70200F1BA020040BE020091C10200E4C4020039C8020090CB0200E9CE020044D20200A1D5020000D9020061DC0200C4DF020087
:403F800029E3020090E60200F9E9020064ED0200D1F0020040F40200B1F7020024FB020099FE0200100203008905030004090300810C0300001003008113030004170300D9
:403FC000891A0300101E03009921030024250300B1280300402C0300D12F030064330300F9360300903A0300293E0300C44103006145030000490300A14C0300445003000C
:40400000E953030090570300395B0300E45E03009162030040660300F1690300A46D03005971030010750300C9780300847C03004180030000840300C1870300848B030027
:40404000498F030010930300D9960300A49A0300719E030040A2030011A60300E4A90300B9AD030090B1030069B5030044B9030021BD030000C10300E1C40300C4C8030021
:40408000A9CC030090D0030079D4030064D8030051DC030040E0030031E4030024E8030019EC030010F0030009F4030004F8030001FC0300000004000104040004080400F5
:4040C000090C0400101004001914040024180400311C0400402004005124040064280400792C040090300400A9340400C4380400E13C0400004104002145040044490400A5
:40410000694D040090510400B9550400E4590400115E04004062040071660400A46A0400D96E04001073040049770400847B0400C17F04000084040041880400848C040041
:40414000C99004001095040059990400A49D0400F1A1040040A6040091AA0400E4AE040039B3040090B70400E9BB040044C00400A1C4040000C9040061CD0400C4D10400BD
:4041800029D6040090DA0400F9DE040064E30400D1E7040040EC0400B1F0040024F5040099F9040010FE04008902050004070500810B050000100500811405000419050010
:4041C000891D05001022050099260500242B0500B12F050040340500D1380500643D0500F941050090460500294B0500C44F05006154050000590500A15D05004462050042
:40420000E9660500906B050039700500E474050091790500407E0500F1820500A4870500598C050010910500C9950500849A0500419F050000A40500C1A8050084AD05005D
:4042400049B2050010B70500D9BB0500A4C0050071C5050040CA050011CF0500E4D30500B9D8050090DD050069E2050044E7050021EC050000F10500E1F50500C4FA050057
:40428000A9FF05009004060079090600640E06005113060040180600311D06002422060019270600102C06000931060004360600013B06000040060001450600044A06001F
:4042C000094F06001054060019590600245E06003163060040680600516D060064720600391500005115000045150000C84900401900405100403000000001400010001430
:404300000140000800400140000A004C014000021050014010000001000000040000001043000000F8B500BFF8BC08BC9E4670474D0000008D1C0000F8B500BFF8BC08BCB8
:404340009E4670472900000058430000C8C0FF1FE0000000000400000000000001000000510A0000630A0000710A0000750A0000990A0000A70A0000AB0A0000AF0A0000CF
:40438000B30A0000C10A00000008010000000100000001000101010100010001504620CB3421EC2C9A107C15004601008102080B000000007F800000070000000000DC82FA
:4043C000B805010043000000C056FE03FFFFFFFF00000000000000000000000000000000000000000000000000000000000000002043000000000000000000000000000046
:4044000000000000000000000000000000000000000000000000000000000000000000000000000000000000000000000000000040C1FF1F0000000000000000000000005D
:40444000000000000000000000000000000000000000000000000000000000000000000000000000000000000000000000000000000000000000000000000000000000003C
:4044800000000000000000000000000000000000000000000000000000000000000000000000000000000000000000000000000000000000000000000000000000000000FC
:4044C00000000000000000000000000000000000000000000000000000000000000000000000000000000000000000000000000000000000000000000000000000000000BC
:40450000000000000000000000000000000000000000000000000000000000000000000000000000000000000000000000000000000000000000000000000000000000007B
:020000040001F9
:0200000480007A
:4000000009520040015B004004640040016500403C0001403C010140360201404E030140370401404E0501404B0601404C0701404208014049090140460A0140480B0140BC
:400040001A0C01404D0D01401A0E0140320F014030140140511501403F1601404F1701400B190140091B014012400140144101400B420140074301400A44014010450140F9
:400080000B460140054701400B480140064901400F4C0140094D0140045001400451014000C8014109801108180260206130782079202784800D830685728638860F050483
:4000C0000B01130219042201230126022E023002310132013304350239083B203E013F04405245EC4620480B49FF4AFF4BFF4F015018528054015604580459045A045B04FA
:400100005C215D225F016040624064406540668068806A806C806E80870389038D039D019F02A102A301A503A903B501B702D804D904DC11DF010010018004100580064061
:4001400008560C100F2010201121120313801504168018101A40210A2308240426402A012C542D202F8031023210358038203B043C103D043E803F08412049054A02503042
:40018000512059055A40604073808004841087048D308E808F14C0D3C26FC43FCAE1CC15CE76D004D208D60BD801E20AE60200030701080309011402160118031F012003B4
:4001C00023012501260329012C032D013001340237015401580459045B0F5C115D105F01830F8455873389668A788F809280940F957898339955A180A655AB55AE66B080B4
:40020000B27FB37FB580BE04BF04D602D739D80FD90FDB0FDC11DD10DF0103280410064009040B480C100F201002122013081480150416801780190A1C801F10200C231090
:400240002701280829022C102D202E802F80322033083580378038603A013B083C103F085A205E40610869916A0871507A807EC0801284048540870189118D1090109104BA
:4002800095019620981099209D809EC0A108A314A780AE40AF08B002B104B450C056C26EC4B5CAF5CC16CE6FD614D802DE81E204E408E808EA4005010F012B023103520307
:4002C0005302580459045B045C915D105F018060811084068723880289188C048D3C8F029076910492019477953F987199089A06A016A261A420A527A718AA61AB04AC4018
:40030000AD1CAE08AF21B007B208B466B538B610B71FBA22BB88BE40D602D713D804D904DB04DF0101040240038005210601071008840D080E48109213801402161817016D
:400340001D201E491F1820402340240825482608270128082E402F1834023520360838443D803E2A3F045E016AA06C016D106F2075207623771079087B207D0C8108820215
:400380008B04900491849310944096A09748981099089C809E409F80A780A80CAA40AB28AE04B040B318B504B601C0FCC275C4FDCA74CCE0CEFAD680E608EA20EC08EE25E7
:4003C0000020030E04100502060C080C0A110B010D0E1203130E1414181C190E1A021C091D041E102420270128202B062C102D06301F322033013508370639203F0440235E
:4004000041054206440146E0470C481849FF4AFF4BFF4C624DA04EF04F41500C54185604580459045A045B045F016640670269106A306B106D106E106F1280148209840A0E
:4004400086118C018E06A41FA81FB007B418D804D904DC10DF010044028004020504070809050A600E8A0F201114151C1601184419011B021D081E801F0424212510288007
:400480002A402B082F26308631023210368037213C043D223F40452847604C044E024F40560457205C016004621065026620670286408A40900A911892409310970498409B
:4004C00099089B019C8E9D019E50A124A202A482B040B540C07DC2F0C4E6CA7DCCBFCEF0D070D230D680D8B0E402E604E8200201030405400608078008200B080D100E101A
:400500000F20100512021302140315041604184019081C301D022120220223102438270129802A042B402D013040320733FF34383BF03E113F04580459045B045C385F3154
:400540008A019001911893039505960197289A019D289F05A001A106A330A401AC01AF40B140B338B507B601BF14D804D90BDC31DF010110040405800640070408010A04FB
:400580000B100C100E600F02102011821408150816801A011C101D011F202044210426602710280229022C282D402E022F10310432423421368137083C203D8A3E043F10DC
:4005C0006E607A407F8083208410881091509280932094509640982A99069AC29B0C9F10A018A145A283A670B080B408B720C0F2C2FEC47DCAF9CCFBCEF0DE81E680E820CE
:40060000EA80EC10020903550435060A075508100A250B850C400E800F09108012401302160117551A011B6522022305282029552A152BAA3003310332C033C03430353033
:40064000360C370C3A823BAA3E04580B590B5C335F01800282018778880D89808A72900B92549355940795D596389933A040A10FA204A820AA08AB66B27FB380B57FBE049B
:40068000BF10D608D804D90ADB04DC30DD90DF010040012803800410064008020A280E601040120814081680180619291A101B841F04214022562310260827042840290147
:4006C0002B042F88321A352036083701380639803B103E145C8066807A407E2087048A049150920493209620982A99069A429B099D019F30A010A145A281A308A920AA1021
:40070000AC20AF80B101B340B501C05FC23EC45ACAA5CCE7CE6FD610D810DE41E280EEC001040908110217041B101F02230825012F01331F39083F045608580459045B046D
:400740005C115D905F01D608D804D904DB04DC11DD90DF0100200410068008010B300E0A0F10119A12011608170426042B102D502F903011310833043401358036813718A1
:400780003A093B203C303D8A3E803F20588059105F40600A66406D016E046F0974807526781079107A0480808110868088808A028B0C8D408F04932097089A089C219D80F5
:4007C0009F20A010A14DA201A604A704AD01B212B501B608B708C052C2ECC46FCAF2CCF7CEF7D61CD81CE0C0E480E604E8105608580459045B045C115D905F018E029301A8
:400800009A049B02A301A601AB04B201B302B404B501B602B704BF10D804D904DB04DC11DF01002003200414058008010B200C040E020F08118A1420160A17021C241D1046
:400840001E221F102411254C270A2A022C012D012F143005311034043604372138113A083C103D803E0A58105A406F01871088108C108E448F20C0E6C2ECC4FDCAF1CCE70B
:40088000CEF7D60CE25A5608580459045B045C115D905F01850189048A018D019101940195069B019D019E01A201A302A401A701A906AF01B001B106B301B902BE01BF0114
:4008C000C001C740C9FFCA07CBFFCC40CD20CEF0CF05D008D804D904DA04DC11DF01E040E1A8E240E32001200311041006C0071109060A200B200C020D020E100F06110448
:4009000012401501160417881E402608274029212A402C022D012E102F1430043106321034803601379939043A043C103D043E8047404D01560157025850600A62807D03EB
:40094000808081208A088D048E0190109104930C95019640985099019A409B189C8E9E01A106A301A501A680A702AD02B110B301C0F7C2FCC4FCCAFDCCF7CE72D010D60C67
:40098000D80CE681EA03EC2000400303068007400813091C0A040B030C030E040F20131C14131501160C170E180A19011A141B161E081F40202022052A802F0830803160D8
:4009C000320F330F3440351A363038803A083B283E113F014024410345E046B047C0482A49FF4AFF4BFF4EF04F44500C5401580459045A045B045F0166C06A406B02D804D7
:400A0000D904DC11DF01024003080408050206020708088409220B080E2A108011081304150116041D041E261F0524102604274828802A402F0230843102322036913708CB
:400A40003B043C543D02452147084D02560257115D125E4479047A208080810183108410904C970298409A449C8E9D049E019F48A104A220A308A480A502A685A710A902ED
:400A8000AD08AE20AF1CB108B410B620C0FAC2EDC45CCA19CCFFCEF2D0E0D6F0E204E404E808EE02810483809201A145A201A780AD80AF10B301B501E88082018D01A1013E
:400AC000A201AD40B201E210EA01EC20120413021502322033013508361038403A043D403E016B0383088601C470CCF0CEF0E2305202570858015F086410862291029440D7
:400B000095409B08A308A630AF08B508D4C0D6C0D880E240E640EE4000083E108610910294409540A610B011C010CE20E61080409102944095409610B004E620110113027A
:400B40001504162087828B028E20C40CE204E602040208800F405B1080018B4091059B109F80A702B710C004C206D401E204EC0201021B02278091059F80A702B080C0088E
:400B8000C608C801EA0444019105B102D004EA0120802B048304850191029610A940C840CA10E460EE2056208A20AA10B040D440EA801040132014806120740279017D04E0
:400BC00091059C01A002B402C40ED802DE07EC0278407C8098C0AB20B001B120DC01DE04EC05100311011A031B0100FF010303C0102A00000F01000000000000060003016A
:400C00000A0102010000000000E9FB0030000C0D31003000000000002000102024002000000000000013130000808000E3CB18000800000000F9F90000020200060014017F
:400C40000001000000020000000000000000000000000000000000000000000000000000000000000000000000000000000000000000000000000000000000000000000071
:400C80000000000000000000000000000000000000000000000000000000000000000000000000000000000000000000000000000000000000000000000000000000000034
:400CC00000000000000000000000000000000000000000000000000000000000000000000000000000000000000000000000000000000000000000000000000000000000F4
:400D000000000000000000000000000000000000000000000000000000000000000000000000000000000000000000000000000000000000000000000000000000000000B3
:400D40000000000000000000000000000000000000000000000000000000000000000000000000000000000000000000000000000000000000000000000000000000000073
:0200000490006A
:0400000000004005B7
:0200000490105A
:04000000BC90ACAF55
:0200000490303A
:020000006FF798
:0200000490402A
:4000000000000000000000000000000000000000000000000000000000000000000000000000000000000000000000000000000000000000000000000000000000000000C0
:400040000000000000000000000000000000000000000000000000000000000000000000000000000000000000000000000000000000000000000000000000000000000080
:0200000490501A
:0C00000000012E10306900012E2CA060C1
:00000001FF