:400000000080002011000000354700003547000008B5044B1A6803F53F5302331A6004F091FB00BFFA46004010B5054C237833B9044B13B10448AFF300800123237010BDEF
:40004000B08BFF1F0000000014850000084B10B51BB108490848AFF300800848036803B910BD074B002BFBD0BDE81040184700BF00000000B48BFF1F14850000C880FF1FEC
:400080000000000070B50B4D0B4E002300210A46DC00601835F81000013180B208290244F7D1C2F3CF0226F813200133062BEDD170BD00BF4690FF1F3890FF1F05289DBF59
:4000C000024B33F8100000B2002070473890FF1F38B54FF4804241F6FF730121022005F025FA0E4C0E4D207005F02EFE062302461021287005F042FE0A4A45F6A03192B29D
:40010000287805F04DFE2978207805F0F1FD20780121BDE8384005F097BD00BF1891FF1F4490FF1F0691FF1F08B504F0DFFB04F00FFE05F01DF9FFF7CBFFBDE8084004F03E
:4001400017BE00002DE9FF41294B05461B780F46002B4AD14FF458724A43264EB418B25C824242D00228A4F81832A4F81A32A4F81C32A4F85832A4F85A32A4F85C32A4F8B3
:400180001031A4F81231A4F81431C4F82031C4F80832DFF86C8005D1084600F07FF9C4F8280206E0042813D1084600F077F9C4F868020246C31700210120CDE90201CDE969
:4001C00000011946104601F035F80B4B186001E0062801D0002300E0012388F800304FF458735F43054BF5551D7004B0BDE8F0812E8EFF1F6091FF1F28FCFF1F2091FF1F0B
:40020000288CFF1F2F4B002118460A46425401F55871B1F5D86F1A815A819A81DA811A825A825A619A61C3F8F820C3F80021C3F80421A3F81822A3F81A22A3F81C22A3F898
:400240001E22A3F82022A3F82222C3F82422C3F82822C3F83C22C3F84422C3F84822A3F85822A3F85A22A3F85C22A3F85E22A3F86022A3F86222C3F86422C3F86C22C3F83C
:400280006822C3F84823C3F85023C3F85423A3F81021A3F81221A3F81421A3F81621A3F81821A3F81A21C3F81C21C3F82021C3F80022C3F80822C3F80C2203F55873A5D170
:4002C000704700BF6091FF1F2DE9F0412E4C4FF4587303FB02472D4ED7F83C52C7F82412C7F82802B1607060401AD7F84412C7F8405200EB010E451B06214D43D7F84812C2
:4003000003FB024305EB41052149C7F844E28E45C4BF0131C7F84412ED101E49C7F83C02C7F848524FF45878D3F8447208FB02488F42BCBF01F1FF31C3F84412D8F84432F8
:400340000A2793FBF7F7B8F81842B8F81AE2B8F81C32F0600EFB07F760435D43642497FBF4F790FBF4F095FBF4F3F0613844C418204611463762736200F0C0F93461D8F8B5
:400380003C02BDE8F08100BF6091FF1F2091FF1F7F969800816967FFF0B5214C4FF4587303FB0245D5F80862411A1E4F0E4403FB0243BE42C8BF1C4EC5F80012C5F808626F
:4003C000D3F80862194D85B0AE42BCBF05F1FF35C3F808524FF4587303FB0244B4F81031594309120191D4F80832B4F812114B435B1302930E49019D029BD1F8B8112B4402
:40040000252505FB01330A2190FBF1F0184403900398114600F072F9D4F8000205B0F0BD6091FF1FFF2C3101002D310101D3CEFE68FCFF1F0B4A4FF4587303FB0020D0F805
:400440006422D0F86832B0F85A129B1AB0F858225A43D0F86C324B43C3EB2213C0F82031704700BF6091FF1F07490B785B0303F4C0428B7D1B0303F4805313438A8AC2F36E
:400480000B0213434B8370472091FF1F024B00229A829A75704700BF2091FF1F0B4B30B51A680B490B4D5A604FF4587303FB00504A6A8B6A1468C0F864421B68C0F86C32CB
:4004C0001368C0F82432106830BD00BF2098FF1F503600206091FF1F10B40B490B4C00235A1C34F81200072A21F813001346F7D1064B0020DA89044BDA81054B01221A7085
:4005000010BC04F001BA00BF4690FF1F0691FF1FD68BFF1F014B01221A707047CC8BFF1F10B5054C30220549606901F0BDFF23790133237110BD00BFA02A0020C5FBFF1F50
:4005400070477047F7B500278DF8077004F03EFF284C8DF8070023782678274DF6B26BB904F046FF2378254A0133DBB22370244B25F816001B889BB2138039E004F038FF94
:40058000237825F8160035F813001E4BC0F30D001D4C18801D4B012221461A6001F016FCD4F8C0011A4B1B4C596B40F3CF0000F03DFC237813B101F0C9F927706378132B8A
:4005C00005D9114801F020FC124B00225A7044F61F626378013363706388934208D843F2B062934201D901F087FA63880133638003B0F0BD928EFF1F2E8FFF1F4C6400405E
:40060000908EFF1F2C8FFF1F68FCFF1F288FFF1F50360020CC8BFF1F43F6FF7001F0DCBA014B01221A707047D78BFF1F024A137801331370704700BF4C8FFF1F08B502F028
:4006400005FB01F025FC00F02DF902F091FA03F0E1FA03F0F3FA0F4D0F4C104E2B78012B14D100232B70237856F82330984723780133DBB2237022780A23B2FBF3F101FB42
:400680001323DBB2237001F023F8E7E701F042F8E4E700BFD78BFF1FD88BFF1FCC80FF1F40F2E631054A0020138801339BB28B428ABF108013800120704700BFD08BFF1FCD
:4006C000054A0020538801339BB2622B8ABF508053800120704700BFD08BFF1F08B500F017FD044A044BD2F8FC21A3F87800DA6708BD00BF6091FF1FC840002013B5002367
:40070000044602A800F8013D00F0F0F89DF80730C3B14CF25033A342A8BF23460F4A9342B8BF134640F2AA42534393FBF0F3B3F5806F05DAA2F6AA029342B8BF134601E09E
:400740004FF48063064A5843536340F2AA4390FBF3F0044BC3F8800002B010BDB03CFFFF50360020C840002070B54FF4804341F6FF720121022005F0ABF9064605F0E4FA95
:4007800004462B4D00230246022105F0F7FA291D46F6482289B2204605F002FB2146304605F0A6FA0121304605F04EFA4FF4804341F6FF720121022005F0A6F9064605F076
:4007C000C3FA044600230246022105F0D7FAA91D46F6500289B2204605F0E2FA2146304605F086FA0121304605F02EFA4FF4804341F6FF720121022005F0A2F9064605F00E
:40080000A3FA044600230246022105F0B7FAA9B246F65422204605F0C3FA2146304605F067FA3046BDE87040012105F00DBA00BFDA8BFF1F08B501F073F804F0BDFE40F260
:40084000EF1004F0C7FE05F0E7F840F2EF1005F0F1F805F023F940F2EF1005F02DF940F2EF120A4B9A80DA801A805A80FFF77CFF05F084F9012005F025F9012005F024FBC4
:4008800000F052FFBDE8084000F076B9DA8BFF1F10B5034CA080E1802280638010BD00BFDA8BFF1F08B501F087F9FFF7C3FFFFF7A9FC01F097FB00F0B9FBFFF735FC62B658
:4008C00001F092FB00F0A4FD054801F0C2F9054B01221A700448BDE8084001F0BAB900BF78FFFF1FE28BFF1F68FCFF1F194B10B51C88194B1A88A242184A01D8146007E0A8
:40090000596801310A29596004DD116801391160002159601C8049F288041168A1F58443683B9BB2A34201D8012300E00023B1F57A5F0370DCBF4FF47A5313604FF6FE7325
:400940001168994203DD4FF6FF71044B1960108810BD00BFC8400020E48BFF1FF480FF1F002303700B707047054B1B78022B054B04BF01221A7208B100221A72187A704711
:400980002D8EFF1FE48BFF1F38B514461D460AA3D3E9002307F06AF822462B4607F090F905F04EFC06A3D3E9002307F05FF805F0F7FB07F00BFB38BDA7E8482EFF2119407D
:4009C0000000000000F07E4038B514461D460AA3D3E9002307F04AF822462B4607F070F905F096FB0022064B07F040F805F0D8FB07F0ECFA38BD00BFA7E8482EFF211940A2
:400A000000009040F7B500230093594B0C461A880621B2FBF1F3574E01FB132332889BB28242374612DDB6F8FA5002F58042521B7D33009293FBF1F201FB1233009E00F581
:400A40008040401B06FB0301019148E07588A84206DAAD1A00950099801A01FB030020E0B6F8FA50A8420DDB02F58042521B7D33009293FBF1F201FB1231009E401B06FB6B
:400A800001000EE0B6F8F860B0420CDB7C3393FBF1F2AD1B01FB12310095009D801B05FB010001901BE0822290FBF2F2BE4637F81250A84201DA561E57E0561C3EF8161001
:400AC000884252DA1344491B0622009193FBF2F102FB1132009E401B06FB02030193009B0620584306F05CFF06460F46019D284606F056FF32463B46FFF746FF2080009837
:400B0000019B03EB400006F04BFF32463B46FFF73BFF60800098019B03EB800006F040FF32463B46FFF730FFA080019806F038FF32463B46FFF748FFE0800098019B03EB0F
:400B4000400006F02DFF32463B46FFF73DFF20810098019B03EB800006F022FF32463B46FFF732FF608103B0F0BD32469FE700BFF880FF1F68D9FF1F70B52C4C0021204657
:400B800000F00BFEB4F8FC20294B2A4C2A4E1A80032528462749FFF735FF681C2749FFF731FFB4F90C20B4F9001045F3CC031144022291FBF2F1B4F9040026F81310B4F90A
:400BC00010100835014491FBF2F11D4820F81310B4F90200B4F90E10014491FBF2F1194820F81310B4F90600B4F91210014491FBF2F1154820F81310B4F90A00B4F9161022
:400C0000014491FBF2F1114820F81310B4F90800B4F91410014491FBF2F20D4921F8132044F203039D42B4D170BD00BF68D9FF1FF880FF1FF08BFF1F60A8FF1FFC8BFF1FAA
:400C400064C8FF1F6098FF1F6CEAFF1F6CDAFF1F60B8FF1FF8B56F4C6E4AA3690133B3F5C87FA3BF0023A361E369A361A4BF0133E361E369832B7BDC01211162062193FB68
:400C8000F1F201FB1233052B2CD8DFE803F0030910161D2440F2D11363624FF4FF7311E040F2D1136362A3624FF4FF7319E04FF4FF73636240F2D11212E04FF4FF736362A5
:400CC00040F2D113A3620CE04FF4FF736362A36240F2D11305E040F2D1134FF4FF726362A262E362A08C0023A28D218DFFF7D0FDA069484DC82840F38B80474BD3F8C8308B
:400D000003F500422B6B13446A6B2B63511C40F28F12904269637BD1E8697E2290FBF2F502FB1505022291FBF2F2134493FBF1F23A4B1340002BBEBF03F1FF336FEA834364
:400D40006FEA9343364AB8BF013322F81530354A9BB25168994207DD0621536090FBF1F301FB130095601080002323636363F8BD136A012B4CD140F2DE322A4D1146104649
:400D80000023FFF785FDAF68DFF89CE03A46DFF890C00026D11B7D2A0B46234806DC3CF8123001262EF811300132F3E706B1AA60AA68DFF86CE0561A76000027521A7D2B08
:400DC00002EB030109DC06EB4301714431F8FC1C012720F813100133F1E707B1A9602B880126A0F8FC300021A0F8FE600E4800F0A3FC3046FFF7B8FDFFF7BEFE43F6FF72AB
:400E000000236A604FF0FF32E361A361AA602362F8BD00BFF08BFF1F68FCFF1FFF3F008064D8FF1FF880FF1F68D9FF1FF8B54B4B044693F838200D466AB1494C00F5007208
:400E40001440002CBFBF04F1FF346FEA44546FEA5454013424B2186A00287DD1FFF784FD404E414FDFF81CE120B140F2EF1333603B603AE0394BDB6BEA18B2F5806F02DD60
:400E8000C3F5806105E012F5806FAEBF29463749C91A374A32F91400364A32F914205A4301FB00224FF4806092FBF0F202F2EF123260314A32F914C0304A32F914205A431C
:400EC00001FB0C2292FBF0F202F2EF123A60DFF8BCC02B4A32F914203CF91440634301FB023393FBF0F303F2EF1340F2DD313268CEF800308A421B4B01DD196003E0002A75
:400F0000DCBF01221A6040F2DD313A68164B8A4201DD196003E0002ADCBF01221A6040F2DD31DEF80020174B8A4201DD196003E0002ADCBF01221A600023BEF80020398814
:400F40003088FFF7A5FC104B1A88554340F2AA4295FBF2F5C3F88050F8BD00BFF08BFF1FFF07008060C8FF1F64D9FF1F00FCFFFF60A8FF1F6CEAFF1F64C8FF1F6CDAFF1FF7
:400F80006098FF1F68DAFF1FC840002060B8FF1F37B5154D154C00231422D5F81C1104F140008DF8073001F001FE022104F1400001F024FE2B7803B12D230DF10700C4F8A7
:400FC0001831FFF793FC0A4BD3F8B821D4F818315A43D4F81431534393FBF0F3952093FBF0F3E36303B030BD6091FF1FF08BFF1F68FCFF1F10B5044604F086FA012004F092
:4010000079FF2046074B04F1300250F8041B904243F8041BF9D1BDE81040034B0121187804F012BE63FBFF1FC4FBFF1F38B5002004F0D4FD0121042003F0B0FD04F02CFA18
:4010400004F03CFA04F052FA012141F6FF734FF48042084603F0D6FB204C214D207004F073FE062302463021287004F087FE1D4A46F2434192B2287804F092FE29782078BE
:4010800004F036FE0121207804F0DEFD03F0D8FB01214FF4804341F6FF72084603F0E6FB114C124D207004F04FFE3523FE223021287004F063FE0E4946F24E4289B228788A
:4010C00004F06EFE2978207804F012FE2078012104F0BAFDBDE8384003F0E6BB02FBFF1FC3FBFF1FC5FBFF1FC4FBFF1F25FCFF1F63FBFF1FC3782BB9034B01229A76034AE3
:401100001278DA76704700BFA02A0020D88BFF1F014B1888704700BF108DFF1F2DE9F84FDDE90CAB42F21079824273EB0104DDF82880334CB9BF4FF0FF364FF0FF37012695
:401140000027121A63EB0103C4E90401A8FB09010B9DC4E90067C4E902ABC4E9062309FB051152465B46C4F82080656206F076FF0A220023C4E90A0106F070FF064694E86A
:4011800009000F46A0FB090109FB0311454308FB0155A0FB0801324629443B46C4E90C6706F05CFF82468B460020054602460346014680468146C4E90EAB20646064B042AF
:4011C00071EB070E0CDA18EB0A0849EB0B0912EB080243EB0903013041F100010125EEE70DB1C4E91023D4E91001064A002306F035FFC4E9100100200021BDE8F88F00BFA8
:40120000288DFF1F8096980030B50D4604460849C1E91C23121A63EB050392185B41C1E91823DDE90323C1E91A45C1E9162330BD288DFF1F2DE9F04FDFF888818BB0002498
:40124000DDE916AB0025BAF10B0FC8E91245DDE91467C8F85040C8F878407BF10004CDE90801CDE90423444613DA022E77F100044FF0010404DAC8E92023C8F8784005E05A
:40128000CDE90067FFF7C0FFC8F850403046394694E0002E77F1000302DA764267EB4707DDE90423CDE902ABDDE9080100960197FFF734FFD4E90689B8F1000F79F10003EF
:4012C0003D4603DAD8F1000869EB4909D4E91023002A73F10001CDE9068902DA524263EB4303901843EB0301804579EB010125DA0AFB09F3AAFB080108FB0B33194406F008
:4013000087FB04F0E5FF06F009FFDDE904230090019106460D46DDE90801CDE902ABFFF7FDFEA269002AB8BF52421046D117226CCDE90601002AB8BF5242D31742F2107EDA
:40134000DDE9060192185B41801A61EB03010B460246A0FB0E01C4E932230EFB031132462B4606F07BFE4FF47A73A0FB038903FB019942F2107200234046494606F06EFE77
:40138000002871F100030F4F02DBC7E9340103E000220023C7E93423D4E90C67D4E9340180197941C4E92E018019794100220023C4E92C67C4E93001C4E922230BB0BDE8F8
:4013C000F08F00BF288DFF1F0A494FF47A700B8801339BB2B3FBF0F200FB12339BB2B3F5F97F0B8088BFC31A4B804B885B080B71704700BF088EFF1F044BC0F1FA001B7927
:401400008342D4BF00200120704700BF088EFF1F024B04221A6003F011BD00BF00E100E070B5164D0E462B785C0725D5144B06221870002483F86F20FF221A7483F85040E8
:401440002B78D90706D50134A64203D3012004F051FDF5E70B4B46221A702A78D207FCD5064A60211278197002F0020202F0FF0002B970BD032070BD022070BD66640040EC
:401480000764004081540020F8B50C46054615481E460023591CDBB2B34203D2C75CD7540B46F7E70021284603F084FE0746B8B920464FF4FA71FFF7B3FF044640B10A4B07
:4014C0000220FF22187003F85F2C03F81F7CF8BD0123F2B20349284603F00CFE2046F8BD0120F8BD4898FF1F7664004038B5094CFFF7F4F800F092FD2378074D23B100233F
:401500002B70237000F09AFD2B780BB10123237038BD00BF108EFF1F4C8FFF1F00F03CBC08B50B4BD3F8FC0100F05CF9FFF7C8F860B100F073F9074B074AC0B21870B2F805
:401540009C3003F0FC031843A2F89C0008BD00BF6091FF1F2D8EFF1FC840002000F01CBC38B5FFF731FF0C4C0C20FFF745FF03F0B1F96388084DB3F57A7F98BF013305F1F0
:40158000040105F1050098BF6380FFF7E9F9A3790BB10023AB7138BD108EFF1F0020FEF77DBF000010B50D4B1A78B2B90C4C2378022B06D1D4F82412D4F82802FEF784FE80
:4015C00004E0042B02D11046FEF734FF217821B9BDE810400846FFF791B810BD2E8EFF1F6091FF1F70B51E4BC0B01A78002A34D01C4C012A18BFE1681B4E18BF0131A368EE
:4016000018BFE160318801339942A36007DD012A23D07388E2689A421FDB012500E000254FF480720021684606F063FF0F4B104933F8153004EB85048DF800300D4B29440E
:4016400053F825200C2353430B4A6846D3589847A36836F815209B1AA36040B070BD00BF8C8FFF1F108EFF1FB08AFF1F8E8FFF1FB48AFF1FA88AFF1F8402002010B5074C14
:401680003221074801F0BAFAFFF782FC23781BB1FEF7F8FC0023237010BD00BFD68BFF1F8892FF1F10B5084C2378DB0706D5FFF7D1FA064B1B681BB9237001E002F0C0FA2C
:4016C000BDE81040FEF7ECBF2E8EFF1F108CFF1F08B502F043F90C4800F032FC00F06EFC0A4B1A780A4B5AB919780339012907D8D3F8FC11D3F82001BDE80840FEF74CBE35
:401700000022C3F8082208BD168EFF1F2E8EFF1F6091FF1F034B187C80F00100187403F03DBB00BF108EFF1F08B503F07AFFBDE80840052004F0DEBBF0B50C4685B00646AD
:4017400010220021684606F0D4FE24B1012C22D13C25142701E02746132503F078FF3C46AC4218D2E21B06EB0212002332F8130004A901EB430101334FEA102E082B01F8AF
:4017800010EC01F80F0CF1D1E1B26846013403F063FFA4B2E4E705B0F0BD2DE9F843804629B101291BD14FF4F079A02502E00D464FF098092C464C4511D26600B6B2304652
:4017C00003F031FF0746701C80B203F02CFF631B40EA0720013428F81300A4B2EBE7BDE8F88300000A4910B50B680C24013393FBF4F204FB12330B604BB9064A1378072BFB
:4018000003F1010111709CBF034A22F8130010BD0481FF1F248EFF1F2CFCFF1F00221346184830F9131001330029B8BF4942082B0A44F6D19212144BFF2A1448A8BFFF22F8
:4018400030F812005A680021024444F60410824285BFA2F59242043A59605A605A681970642151430A48B1FBF0F11972094B9A4205D90138824294BF01200220704700204D
:40188000704700BF2CFCFF1F248EFF1F2085000020A61B007F1E1600014B187A704700BF248EFF1F014B1878704700BF2E8EFF1F012807D0C30704D402288CBF00200120BB
:4018C000704700207047000038B54FF4804241F6FF730121022004F03DF80E4C0E4D207004F032FA062319460246287004F046FA0A4A45F6A23192B2287804F051FA29782B
:40190000207804F0F5F920780121BDE8384004F09BB900BF62FCFF1F3CFCFF1F3EFCFF1F08B504F005F803F0ABFF03F073FF04F065F9012004F0C8FAFFF7C6FF04F028F87D
:40194000BDE80840012004F0BFBA00002DE9F0435F4A6FF03B0EB2F90010B2F90240B2F904005C4A6FF0630912785B4B002A5B4A18BF4FF4805CD2F8B081D2F8BC210EFBEA
:4019800008FE08BF4FF0000C94444FF47A729EFBF2FE534AE6440EF5804E0EEA0202002ABEBF02F1FF326FEA82426FEA924298FBF9F9B8BF0132DFF834E1D2103EF912E0B0
:4019C000E144474A09F5804909EA0202002ABEBF02F1FF326FEA82426FEA9242DFF81091B8BF0132D21039F912906FF06D0202FB08F84FF47A7298FBF2F8394AC4440CF583
:401A0000804C0CEA0202002ABEBF02F1FF326FEA82426FEA9242DFF8DCC0B8BF013219805C809880D2102F4B3CF912C00022DA601A610EF1F002B2F5F07F1E685D689F688E
:401A4000DFF8A0800AD940F2EF12E41B544394FBFEF40122C8F80C40C8F8102009F1F002B2F5F07F0BD940F2EF12801B504390FBF9F9DA684A44DA601A6901321A610CF127
:401A8000F002B2F5F07F0BD940F2EF12491B514391FBFCF1DD681A6929440132D9601A611969104C002908DDE0686FF01702504390FBF1F0C117C4E90601BDE8F0430A4819
:401AC00099693222C0F81C1100F5947001F06EB83EFCFF1F288CFF1F50FCFF1F68FCFF1FFF3F0080308EFF1F6091FF1F60A8FF1F64C8FF1F6098FF1F124B70B5124C596AB3
:401B0000B4F904001A6A0844B4F90060D96AB4F90240551C9A6A0C440221164495FBF1F25862DC6210441444324494FBF5F490FBF5F092FBF5F21D629E629C6018605A600D
:401B400070BD00BF308EFF1F50FCFF1F2DE9F0410021804601F045F80746084E1C2400252146404601F03DF856F8043FC01B073C03FB0055F4D16800BDE8F081648AFF1F6B
:401B80002DE9F0410021804601F02BF8002407462546084EC4F10401404601F022F856F824300134C01B042C03FB0055F2D12846BDE8F0817C8AFF1F08B503F05FFC054B6B
:401BC0004FF4404208201A8003F0FAFBBDE8084003F008BD908EFF1F10B5044640F4804006F08CFA10B144F4404003E0C4F30E0444F48040044B00241880044B9C7003F0A0
:401C0000EBFB204610BD00BF68FFFF1F908EFF1FD0B5A0F1080100F1500400260027E1E90267A1424FF000024FF00003F7D1C0E91623C0E91823C0E91A23C0E91C23002342
:401C40008367C367C0F88030C0F88430C0F88830D0BD38B50446002500F094FF04F1D80000F090FF04F5E870C4F8B051C4F8B451C4F8B851C4F8BC51C4F8C051C4F8C45159
:401C8000C4F8C851FFF7C4FF04F51870FFF7C0FF42F21073C4F8F052C4F8FC32C4F8F452C4F8F85238BD0000F8B5384C0D46D4E91623134318BF0123D1F8BC2118BF84F800
:401CC0006030334B821A9A42D1F8C83104DA94F860205AB1013307E041F288318A4205DD94F8602012B1013BC5F8C831D5F8C82100270A23C5F8BC01236700EB82309E46A2
:401D00003E463A463B46C117A766E76605F5087CBEF1000F09D07CE902679219CCE902677B410EF1FF3E0126F2E70EB1C4E91A2305F5E873C3E90001D4E91A238018594171
:401D4000C4E91A01134A0A23013B72E90267C2E90267F9D123670B22002306F07FF9D4E90A23821A61EB0303C4E90201D90F521843F100035B104FEA3202C5F8D802C5F8AE
:401D8000E022A5F8EC02A5F8EE22F8BD908EFF1F78ECFFFFE88EFF1F10B50A4C022304F17402FE214020FFF76FFB94F8753094F8740003F03F03044903EB8010BDE8104052
:401DC000FFF772BF908EFF1F78FFFF1FD1F8B021422353434FF47A7293FBF2F3C1F8BC011844084B00F580400340002BBFBF03F1FF336FEA83436FEA93430133C1F8C0319C
:401E0000704700BFFF3F00802DE9F8430446D0F8BC51DFF878E01C4ADEE92001EF17281A67EB01014FF0FF33904271EB03032E46D4F8C83101DA013308E041F288384FF0DE
:401E40000009804579EB010202DA013BC4F8C831D4F8C811022205EB81312046CEE9206700F0A4FE2046FFF78BFE4FF47A7390FBF3F0D4F8C830C4F8B001C4F8B431C4F8AE
:401E8000B801BDE8F88300BF78ECFFFF908EFF1F30B51D4C87B0A4F59C7303931B4B1C4D02931C4B002201931B4B04940093114628461A4B00F00DFA04F59C63049304F56E
:401EC0006A730393164B05F168000293154B00220193154B02210093144B00F0FAF904F51C630493124B04F688040293114B03940193114B002200930421104B05F1D00048
:401F000000F0E7F907B030BD3811002034090020A02A002094240020A22C0020E40C00205C0F00204828002010210020140B0020200E0020B2270020F02500209C080020BC
:401F400070B5194D06466C795CB100236B71174800F006FA831E5C425C41154B187803F089FE95F86D305BB10F4B002283F86D20104800F0F5F9022814BF2046601CC4B2BF
:401F800095F8D5305BB1084B002283F8D5200A4800F0E6F9022814BF2046601CC4B20CB10123337070BD00BFA02A00200010002002FBFF1FE0140020C019002010B5074C5E
:401FC000A37E012B08D1064890F83E1100F23F10FFF710F80023A37610BD00BFA02A00200010002003F0E4BD38B5002421460A4AA1540134072C084D4FF00003F8D1EB71FC
:402000002B726B7202F0DAFC2A462146BDE838400A2002F0E1BC00BF7802002010B5054C19232372044BB3F89C30E371FFF734FC607210BD78020020C840002013B50E4CAE
:402040000E4B627802A91A70032221F8022DA27820465A7000F022F8094B00225A809A80DA80BDF806201880A15C013292B2A25C19729A8102B010BD780200204A8FFF1FD8
:40208000C84000207047138810B5040ACC5413881944487013880233138010BD10B50B88C45C18444278023302EB04200B8080B210BD138810B5040ECC541388040C0B44E9
:4020C0005C701388040A0B449C7013881944C87013880433138010BD30B50C880319055DDA78587802EB056202EB0042987804340C8002EB002030BDF8B50B460746AA212E
:4021000018461546302206F0F4F903463846022200214FF0E90EC41BA54211D910F8014B04F11306F6B2012E01D9E92C05D103F802E010F8014C013101329C540132EAE736
:40214000154C4A19E170A179D0B201312F2A6570A070A171264604D8541C5D1C1C44002107E030220021184606F0C3F900206071F8BDA54204D015F8017F3944C9B2F8E74B
:402180003171ED24587003301C70C0B21344EE229970DA707071F8BD508FFF1F2DE9F74F06460F46924600F08FFA8146A0F1040B4FF0FF34A3454EDD621C92B2ED213046A6
:4021C00000F0BBF9431C044645D08345F2DB1FFA80F808F1010189B2304600F09EF9E31C034499450546E5DD9BB219463046009300F093F9EE28009BDCD1013B9BB208F1E2
:4022000002011A4689B23046019300F0BCF9019B00901946304600F080F9009A8242C9D12B1D39462C449BB242463046013500F0DBF90434791C00232F440022B9420BD018
:4022400011F8010FE92800D11AB10AF803000133F3E70122F2E70024A0B203B0BDE8F08F037830B58B7043780BB9012300E002230B710369CA1D03F1300453F8045BA342B3
:4022800042F8045BF9D1C3689D3103F1300253F8040B934241F8040BF9D130BD10B54478C16202630378C1F83401C2F8340134B90120087107208B70C870022105E0022002
:4022C000087107208B70C870012111719070D37010BD2DE9F8430446A360089B0025962709A890E84103E3602170627029463A46A57025716571206106F0FBF83A46294658
:40230000E06806F0F6F8304600F0BEF86661257665764A4641462046BDE8F843FFF7BEBF70B5144606460D461A460021204606F0E0F82670657070BD027843789A4205D2F5
:40234000C07800F0010080F00100704706D9C37813F0010F14BF03200220704703207047F7B58378002490F89E7005468DF805408DF8043090F8A06001F0FCFA874248D0B7
:4023800001F004FB874238D001F0F4FA87423BD3002001F00FFBE6B286420AD23146002001F0FAFA874204F10104F1D10020E87048E00024012001F0FDFAE6B2864209D246
:4023C0003146012001F0E8FA874204F10104F1D101231BE00024022001F0ECFAE6B2864209D23146022001F0D7FA874204F10104F1D105230AE0002000E0062006380128F7
:4024000094BF002001201DE00720F7E7EB70002018E0072305F19D07EB703846FFF78CFF02280ED8084A73081370507003EB4303064A034452F82330384601A998470220C4
:4024400000E0204603B0F0BD608FFF1F8402002070B5054600790E46A8B101382871EA6829696869FFF79AFE60B10146686900F0E6F8044631462846FFF7F2FEE0B2B0FA10
:4024800080F04009C0B270BD4FF0FF33C0F898300023C0F89C30C0F8A030421E953002F8013F8242FBD17047962AF8B504460F46164630D8D0F89C50AB18962B284408DD05
:4024C000C5F19605ADB22A4606F008F82046721B791906F003F8D4F898309621002BBCBF0023C4F89830D4F89C30F21892FBF1F301FB1323D4F8A020C4F89C3016448E4235
:40250000D9BF0020C4F8A060C4F8A010C4F89830C8BF0220F8BD0120F8BDD0F8A0309942BFBFD0F898309622C91891FBF2F3BABF02FB1311405C0020704770B5D0F8A0508E
:40254000AA421BDCD0F898400619AA4204EB020307D1962693FBF6F406FB14339B1A18440AE0952BF5DCB35C8B420AD00132ECE7835C8B4205D00132AA42F9DB4FF0FF305B
:4025800070BD104670BDD0F8A03030B5994229DA934227DB531A002B24DDD0F8983019441A444418002391420ADB962592FBF5F405FB142291FBF5F405FB1411014407E0F1
:4025C0009529F2DC14F8015B01312B44DBB2EAE70C1AA24204DD11F8014B2344DBB2F7E7184630BD002030BDF8B50E461F46054618B311B3D0F8A010D3188B421DDCD0F84D
:40260000983096241A4492FBF4F104FB1124A1B2CB19962B01440ADDC4F19604A4B22246304605F05BFF3A1B2946301901E03A46304605F053FF0020F8BD0120F8BD962989
:40264000F8B5044606D8D0F8A070B942D4BF0027012700E00227D4F89820962928BF9621002A0D462EDB5318962B04EB02000ADDC2F1960296B23246002105F03AFFAA1B3D
:402680000021204601E00A46002105F032FFD4F8A0305B1B002BC4F8A03009DC4FF0FF33C4F898300023C4F89C30C4F8A03009E0D4F898100D44962195FBF1F301FB135504
:4026C000C4F898503846F8BDD0F8A0007047704713B5052302A921F8023D0479FFF7FCFC024B043443F8240002B010BDC431002073B5042302AC24F8023D21460646FFF756
:40270000EBFC094D214628603046FFF7E5FC214668603046FFF7E0FC2146A8603046FFF7DBFCE86002B070BDC4310020084B094AC3F80821084AC3F81021084AC3F81421B1
:40274000074AC3F81C21074AC3F81821704700BF8402002031280000CF260000D1280000F1260000D1260000F7B50446002502AE1F46162326F8025D0B700223137001460A
:4027800032462846FFF77FFC324621462846FFF77AFC324621462846FFF775FC324621462846FFF770FC324621462846FFF76BFC324621462846FFF766FCFEF7A9FC324645
:4027C0002146FFF760FC2846FDF778FC3246214680B2FFF758FC0120FDF770FC3246214680B2FFF750FC104B32465B6A21461868FFF75FFC0D4B32462146D3F81C01FFF736
:4028000058FCBDF80620531C9BB2A554D11CE554931C9BB289B2E5546554111D89B2053265543A8003B0F0BD503600206091FF1F2DE9F043804689460D4F0E4E0E4D0F4CF1
:4028400085B03B46324629462046FFF78DFF01203B88029098F80000327800902978CDF80490204600F05CFA05B0BDE8F08300BF748FFF1F768FFF1F778FFF1F503E00204B
:40288000F7B5064602AC1F46002324F8023D17230B700E4D02231370014622462868FFF708FC224631466868FFF703FC22463146A868FFF7FEFB22463146E868FFF7F9FB03
:4028C000BDF806303B8003B0F0BD00BFC43100202DE9F043804689460E4F0F4E0F4D104C85B00023009332463B4629462046FFF7C7FF01203B88029098F8000032780090F9
:402900002978CDF80490204600F00AFA05B0BDE8F08300BF748FFF1F768FFF1F778FFF1F503E0020704700000279084BDA7142791A7282795A72C2799A72027ADA72427AF8
:402940001A73827A5A73C27A9A737047742D0020F0B50B4B3D251D700A4B02220A4C0B4F1A7085B0002601233B80267002960191017820460091294600F0D2F905B0F0BDAD
:40298000778FFF1F768FFF1F503E0020748FFF1F70470000084B094AC3F8DC22084AC3F8E022084AC3F8E422074AC3F82423074AC3F82C23704700BF840200205129000085
:4029C0009129000025290000092A00002929000010B543240C70022111700A4AD1790170117A4170517A8170917AC170D17A0171117B4171517B8171927BC27108221A80FE
:402A000010BD00BF742D00202DE9F043804689460D4F0E4E0E4D0F4C85B03B46324629462046FFF7D5FF01203B88029098F80000327800902978CDF80490204600F070F937
:402A400005B0BDE8F08300BF748FFF1F768FFF1F778FFF1F503E00207047000030B50A4B29241C70094B0222094D1A7000232B8085B0012502950191017806480091214681
:402A800000F04EF905B030BD778FFF1F768FFF1F748FFF1F503E002007B5042302A921F8023DFFF719FB03B05DF804FB70477047094B0A4AC3F8EC21094AC3F8F021094AE0
:402AC000C3F8F421084AC3F80422084AC3F80822074AC3F80C227047840200205D2A0000AF2A0000AD2A00001D2B0000992A0000592A000037B51D4602AC002324F8023DC5
:402B00002B230B7002231370014622460698FFF7D0FABDF806302B8003B030BD2DE9F043804689460E4F0F4E0F4D104C85B00023009332463B4629462046FFF7DBFF0120E7
:402B40003B88029098F80000327800902978CDF80490204600F0E4F805B0BDE8F08300BF748FFF1F768FFF1F778FFF1F503E0020024A034B53620433936270475036002090
:402B80001CFEFF1F0023194640F823100133322B4FF00002F8D10449C0F8CC200B60C0F8C820C0F8D0207047648FFF1FD0F8CC3030B50133322593FBF5F405FB14339A1A43
:402BC0002A44C0F8C81040F82310C0F8CC3092FBF5F305FB132250F82230C91AC0F8D01030BDD0F8CC303222591A323191FBF2F302FB131150F82100704700000023F0B5A4
:402C00001E461C460F4A3227536013725D1C8B42EDB20DDAD0F8CC40E31A323393FBF7F407FB143350F8233001241E442B46EDE70CB113725660536893FBF1F1C0F8D410FA
:402C4000F0BD00BF648FFF1F7047000010B540F2F4541048104A002319181A500C33A3424A608A60F8D1FFF795FE00F055F900F007FB00F03BFD00F057FEFFF757FDFFF78A
:402C800017FF00F045FC00F0CFFCBDE8104000F09DBF00BF84020020492C00002DE9F0419046079E0D461C46074600F063FE042332469DF81810FFF733FB01239845B3703E
:402CC00002D19D401D4303E0B8F1020F0DD16D00202C28BF2024F57022463946301D05F0FDFB201D80B2BDE8F0814FF48060FFF7C9F90020BDE8F08130B58DB09DF8405002
:402D000003AC01940095FFF7C9FF1399C2B22046FFF7F2F9129B30221A800DB030BD00002DE9F0470D46914686B006AC4FF0000E24F802ED0F9FDFF8648002949DF838408F
:402D400001970094CDF80C809DF84060FFF7D4FF3F784FF41C747C43DFF844A004F59C7454444146BDF81620E01D05F0B7FB4FF41C7303FB07A76900B9F1010F08BF41F084
:402D80000101C9B287F83D11204616B900F0E0FD01E000F0DEFD06B0BDE8F087203E002000100020704700210079FDF7CBB900007FB50B4A50250B4C0B4B157002222270EC
:402DC0001B780A4C0A4E237001233380029301910178204600912946FFF7A2FF04B070BD778FFF1F768FFF1F6091FF1F503E0020748FFF1F37B5054602AC042324F8023D1E
:402E00002146FFF769F921462846FFF765F9044B1A78032A08BFC3F8200103B030BD00BF6091FF1F37B5054602AC042324F8023D2146FFF751F921462846FFF74DF903B0B9
:402E400030BD07B5042302A921F8023DFFF744F903B05DF804FB0000F7B50546042302AC24F8023D2146FFF737F921462846FFF733F921462846FFF72FF921460646284686
:402E8000FFF72AF9214607462846FFF725F9094B1A78C3F83062022AC3F83472C3F8380202D1C3F8286203E0042A08BFC3F8686203B0F0BD6091FF1F37B5054602AC04231E
:402EC00024F8023D2146FFF707F921462846FFF703F921462846FFF7FFF821462846FFF7FBF821462846FFF7F7F803B030BD000007B5042302A921F8023DFFF7EDF8054B68
:402F00001B78012B02D10021FDF7F8FB03B05DF804FB00BF6091FF1F124B134AC3F8C023124AC3F8C423124AC3F8C823114AC3F8FC23114AC3F80024104AC3F80424104AC4
:402F4000C3F814240F4AC3F818240F4AC3F81C240E4AC3F808240E4AC3F80C240D4AC3F81024704784020020B12D0000A72D0000A52D000065300000F12E0000432E0000EC
:402F800011310000592E0000B92E0000D92F0000F52D0000252E0000F7B5064602AC1F46002324F8023D56230B700A4D0223137001462246D5F81C01FFF77BF82246314687
:402FC000D5F82001FFF775F8BDF806303B8003B0F0BD00BF6091FF1F2DE9F043804689460F4B104F104E114D114CD3F8583185B0009332463B4629462046FFF7CDFF01202F
:403000003B88029098F80000327800902978CDF804902046FFF784FE05B0BDE8F08300BF50360020748FFF1F768FFF1F778FFF1F503E002037B51D4602AC002324F8023DD6
:4030400055230B7002231370054B01462246D86BFFF72FF8BDF806302B8003B030BD00BF503600202DE9F043804689460E4B0F4F0F4E104D104CDB6B85B0009332463B4609
:4030800029462046FFF7D6FF01203B88029098F80000327800902978CDF804902046FFF73FFE05B0BDE8F08350360020748FFF1F768FFF1F778FFF1F503E002073B50546A1
:4030C00002AC1E46002324F8023D57230B7002231370014622460698FEF7EBFF224629460798FEF7E6FF224629460898FEF7E1FF224629460998FEF7DCFF224629460A981A
:40310000FEF7D7FFBDF80630338002B070BD00002DE9F04380468946154B87B0D3F83822144F0492D3F83422134E0392D3F83022124D0292D3F82C22114C0192D3F8243263
:403140003246009329463B462046FFF7B7FF01203B88029098F80000327800902978CDF804902046FFF7DCFD07B0BDE8F08300BF6091FF1F748FFF1F768FFF1F778FFF1FCE
:40318000503E0020F7B5042302AC24F8023D21460546FEF783FF214607462846FEF77EFF214606462846FEF779FF064B0022A3F81071A3F81261A3F81401C3F8082203B055
:4031C000F0BD00BF6091FF1FF7B5042302AC24F8023D21460546FEF761FF214607462846FEF75CFF214606462846FEF757FF064B0022A3F81872A3F81A62A3F81C02C3F870
:40320000442203B0F0BD00BF6091FF1FF7B5042302AC24F8023D21460546FEF73FFF214607462846FEF73AFF214606462846FEF735FF064B0022A3F85872A3F85A62A3F8D5
:403240005C02C3F8502303B0F0BD00BF6091FF1F37B5054602AC042324F8023D2146FEF71DFF21462846FEF719FF21462846FEF715FF03B030BDFFF7EBBFFFF7E9BF000017
:403280000E4B0F4AC3F8D8230E4AC3F8DC230E4AC3F8E0230D4AC3F8E4230D4AC3F8E8230C4AC3F8EC230C4AC3F8F0230B4AC3F8F4230B4AC3F8F823704700BF8402002096
:4032C00029330000853100007B320000D5330000C931000077320000813400000D3200005132000073B5054602AC1E46002324F8023D52230B700223137001462246BDF8EE
:403300001800FEF7C0FE22462946BDF81C00FEF7BAFE22462946BDF82000FEF7B4FEBDF80630338002B070BD2DE9F04380468946124B85B0B3F91421114F0292B3F9122179
:40334000104E0192104D114CB3F910313246009329463B462046FFF7C5FF01203B88029098F80000327800902978CDF804902046FFF7D6FC05B0BDE8F08300BF6091FF1F97
:40338000748FFF1F768FFF1F778FFF1F503E002073B5054602AC1E46002324F8023D53230B700223137001462246BDF81800FEF76AFE22462946BDF81C00FEF764FE22461B
:4033C0002946BDF82000FEF75EFEBDF80630338002B070BD2DE9F04380468946124B85B0B3F91C22114F0292B3F91A22104E0192104D114CB3F918323246009329463B46E9
:403400002046FFF7C5FF01203B88029098F80000327800902978CDF804902046FFF780FC05B0BDE8F08300BF6091FF1F748FFF1F768FFF1F778FFF1F503E002073B5054636
:4034400002AC1E46002324F8023D54230B700223137001462246BDF81800FEF714FE22462946BDF81C00FEF70EFE22462946BDF82000FEF708FEBDF80630338002B070BDD2
:403480002DE9F04380468946124B85B0B3F95C22114F0292B3F95A22104E0192104D114CB3F958323246009329463B462046FFF7C5FF01203B88029098F80000327800901A
:4034C0002978CDF804902046FFF72AFC05B0BDE8F08300BF6091FF1F748FFF1F768FFF1F778FFF1F503E0020034B82791A705A6801325A60704700BF788FFF1F034B41797A
:403500009A7A1972521A5A72704700BF788FFF1F034B044A9A61044ADA61044A1A627047840200209D350000E9340000FD34000070B502240C701D4614709DF810309DF89A
:4035400018209DF81C6003704270F3B1104A46B11478104984702246033004F0BFFF033413E09DF814400A26202C28BF202484700948147001780334013191FBF6F306FBE7
:403580001311D36801700133D3602C8070BD00BF788FFF1F743E0020A48AFF1F2DE9F04F04468A4682791949302A28BF3022437987B090F804B00A70C11D1548059304F02A
:4035C0008DFF059BDFF85490DFF85480114F124D012602930023019342464B46394628460396CDF800B0FFF7A3FF20783978B9F80030009098F800200296CDF804A0284682
:40360000FFF78EFB07B0BDE8F08F00BF788FFF1F743E0020778FFF1F503E0020748FFF1F768FFF1F70470000054B064AC3F84424054AC3F84824054AC3F84C24704700BF84
:403640008402002081360000C536000025360000F8B505460779FEF725F9084C064650B93846FEF725F930B120783146384320702879FCF767FD2078F8BD00BF2E8EFF1FF9
:403680007FB50E460546FFF7E3FF0A4B5B210A4C19700A4B2070022209481A700123038028780293009001962046FFF739FB04B070BD00BF778FFF1F503E0020768FFF1FA3
:4036C000748FFF1FFFF7C4BF7047000013B5052302A921F8023D0479FEF7FEFC024B03EB8403D86202B010BD2091FF1F054B064AC3F83824054AC3F83C24054AC3F8402441
:40370000704700BF84020020B1370000CD360000C9360000F7B505461F465A23224E0B709DF82000022302AC1370012324F8023D287006EB800022462946C06AFEF7B9FC81
:40374000224629467068FEF7B4FC22462946B068FEF7AFFC22462946F068FEF7AAFC22462946308AFEF78FFCFCF790FEFCF77CFE22462946708BFEF786FC0C4B2246B3F8EA
:403780001C012946FEF77FFC22462946F069FEF790FC22462946306AFEF78BFCBDF806303B8003B0F0BD00BF2091FF1F6091FF1F2DE9F043804689460E4F0F4E0F4D104C7C
:4037C00085B00023009332463B4629462046FFF7A1FF01203B88029098F80000327800902978CDF804902046FFF79AFA05B0BDE8F08300BF748FFF1F768FFF1F778FFF1F5C
:40380000503E002070477047162809D05A2807D0432805D064381A288CBF00200120704701207047F7B5037982798DF8073005463A4C3B4B22B19DF80700FFF7E5FF10B97B
:403840002078002125E02278012AF9D89DF8070095F805C0EF7943F82200500003EB000EAEF808C02E7A2D78204445800978134419732C4B23F8227003EB820301325E8005
:40388000227048E09DF8072053F82150954202D001318142F6DB8142224A13D143F2390500214FF0FF3607201E601D8161801873118051805E605D81A18058739180D18051
:4038C000217028E09DF80750FF2DE7D000290CDC5968196059891981A1886180597B197391881180D1885180012143F239074FF0FF3543F821504D005E193781254400269A
:4039000022F821606E800B44072502EB810201381D735680207003B0F0BD00BF8C8FFF1FA88AFF1F84400020054B064AC3F85024054AC3F85424054AC3F85824704700BF0B
:40394000840200200738000025380000053800007047C3780BB9FDF7CDBB704710B5034C03492046FEF774FD607110BDA02A002000100020014B1878704700BFB68AFF1F4B
:40398000014B1870704700BFB68AFF1F014B5878704700BFB68AFF1F08B9044B02E0012802D1034B585C7047002070478C4000208C4000200020704710B51C467E230B70FF
:4039C0000221117000F8011B034A1B2100F03AF90130208010BD00BF948FFF1F2DE9FF41044688461B220E49043000F053F9A0B90C4F0D4E0D4D3B46324629460C48FFF738
:403A0000DBFF01203B8802902078327800902978CDF804800648FFF783F904B0BDE8F081948FFF1F748FFF1F768FFF1F778FFF1F503E00202DE9F74F7E240C70022111707B
:403A40000022164614461B4FDFF8708001930270E55D072D06D807EB8505ED69012DB8BF012500E00125144B13F804E0BEF1000F16D08C46C2EB060E05EB020A0EEB080BB3
:403A80000EEB0209B9F13B0F0ADC1BF8029001320131924589B200F80C9001D08C46EFE701341B2C2E44D3D1019B4270198003B0BDE8F08F20870000948FFF1F8C400020DB
:403AC000F8B59DF8185004461A2D1F461CD87E230B7002231370012303700C4B0C4E5B5D4570837056F8250004F00BFD0022E07080B2111D824289B205DA56F825309B5C0D
:403B000001326354F5E73980F8BD00BF20870000B88AFF1F2DE9F041027986B0012A044688461F4D1F4E204F25D14379FF2B0CD17E232B70022333701C4B1A701B225A7053
:403B40003C229A7003233B801BE01A2B19D8012B059203D1059A02EB420203E0022B02D1059A5200059200930E4A0F4B0C490F48FFF7A6FF05E03B46324629460B48FFF7D7
:403B800059FF01203B8802902078327800902978CDF804800548FFF7C3F806B0BDE8F081778FFF1F768FFF1F748FFF1F503E0020034B044AC3F8E825034AC3F8EC25704767
:403BC00084020020153B0000DD3900000A4B0B4AC3F8AC250A4AC3F8B4250A4AC3F8A025094AC3F8A825094AC3F89425084AC3F89C25FFF7DDBF00BF84020020613E0000C1
:403C00009D3D000059400000AD40000081410000D1420000064B074AC3F884200432C3F88820054AC3F88C200232C3F890207047C84000201CFEFF1F6402002000F07CB99E
:403C400000F0AEB9F0B51AB3002507462C4611F0070318BF012303EBD10301703E1AB34213DDEE1DAE420CDB8E4208DA640012F806E0E4B2BEF1000F18BF44F00104013E96
:403C8000F0E707F8014F0835E8E7013398B2F0BD1046F0BDF0B50678964220D10024274616F0070318BF012303EBD605A54214DD3A46013410F801EF4FEAC40CD31B624530
:403CC000DBB208DAB24206DA4EFA03F303F001038B540132F2E70837E8E70020F0BD4FF0FF30F0BDF7B505461F4679230B70022302AC1370012324F8023D9DF82030254ECB
:403D00000370D6F88430224601461868FEF7D1F9D6F88830224629461868FEF7CAF9D6F88C30224629461888FEF7ADF9D6F89030224618882946FEF7A6F922462946F06FA0
:403D4000FEF7B7F922462946D6F89800FEF7B1F9D6F8800022462946C0F3CF00FEF793F90D4B2246D3F820012946C0F3CF00FEF78AF922462946B6F87800FEF784F92246AE
:403D80002946B6F89C00FEF77EF9BDF806303B8003B0F0BDC84000206091FF1F034B01221A70034B002283F818247047AF8FFF1FC84000202DE9F0479DF830800C464146D9
:403DC0001E461746BDF92050BDF92490BDF928A0FCF7B8F94FF4587000FB08F01F4B1918185C03280CD1012FC1F8204134D10023A1F81061A1F81251C1F80832BDE8F087B4
:403E0000012805D141462046BDE8F047FCF776BC02280ED1012FC1F828421DD10023A1F81862A1F81A52A1F81C92C1F84432BDE8F087042810D1012FC1F868420CD10023DE
:403E4000A1F85862A1F85A52A1F81091A1F812A1C1F80832C1F85033BDE8F0876091FF1F2DE9F04F8BB00AAE062326F8023D069131460446057990F80590FEF72DF9BDF839
:403E8000263031465A1C82462046ADF8262014F803B0FEF703F9314680462046FEF7FEF8314607462046FEF7F9F8314607902046FEF7F4F8BDF82610632D01F10106ADF8EA
:403EC000266013D8012D079A12D8615C00B212B23FB2039102900192049500970FFA88F35A4651464846FFF765FF01E0643DEDB2DFF840900C4F0D4E4B463A46314600954D
:403F00000B48FFF7EFFE0120B9F800303A783178029006980190207800900548FEF700FF0BB0BDE8F08F00BF768FFF1F778FFF1F503E0020748FFF1F08B52820FFF720FDF8
:403F4000034B002119700846BDE80840FCF7D6BB6091FF1F70B50E4D0E4CD5F8843021681B680D4E591A0D4B61609B6A0A221B683046A360FEF71AFE3046FDF7E7FD40F66F
:403F8000312390FBF3F0E060C5F8980070BD00BFC8400020B48FFF1F9C53002050360020FFF7D8BFF7B505461F4678230B70022302AC1370012324F8023D9DF82030254E54
:403FC0000370D6F88430224601461868FEF771F8D6F88830224629461868FEF76AF8D6F88C30224629461888FEF74DF8D6F89030224618882946FEF746F822462946F06F62
:40400000FEF757F822462946D6F89800FEF751F8D6F8800022462946C0F3CF00FEF733F8D6F8C00122462946C0F3CF00FEF72BF822462946B6F87800FEF725F82246294614
:40404000B6F89C00FEF71FF8BDF806303B8003B0F0BD00BFC84000202DE9F043054689460379DFF844800D4F0D4E0E4C85B000933A46434631462046FFF794FF01203A7868
:4040800002902878B8F8003000903178CDF804902046FEF745FE05B0BDE8F083768FFF1F778FFF1F503E0020748FFF1F034B01221A70034B002283F818247047C48FFF1F91
:4040C000C8400020F7B506461F4677230B70022302AD1370012325F8023D9DF82000274B4FF4627404FB00343070D4F884302A4631461868FDF7DDFFD4F888302A4631461A
:404100001868FDF7D6FFD4F88C302A4631461888FDF7B9FFD4F890302A4618883146FDF7B2FF2A463146E06FFDF7C3FF2A463146D4F89800FDF7BDFFD4F880002A463146A9
:40414000C0F3CF00FDF79FFFD4F8C0012A463146C0F3CF00FDF797FF2A463146B4F87800FDF791FF2A463146B4F89C00FDF78BFFBDF806303B8003B0F0BD00BF2849002019
:404180002DE9F04F93B012AD062325F8023D437904460B91294606790693FDF79DFFBDF8463029465A1CADF84620E25C079020460F92FDF773FF29460C902046FDF76EFF3B
:4041C000294681462046FDF769FF294682462046FDF764FFBDF846100E90635C481CADF84600294620460893FDF776FFBDF846100990635C481CADF84600294620460A931F
:40420000FDF74CFF29460D902046FDF747FF294607462046FDF742FF294680462046FDF73DFFBDF846100546632E01F10100ADF846000E9B0F9A25D81BB214F801B002933E
:404240000FFA8AF3019300210FFA89F3049100930799BDF930300698CDF80CB0FFF7AAFD012304932DB20FFA88F33FB20193CDF80CB00295009708A8BDF9343007C8FFF703
:4042800099FD01E0643EF6B2DFF840800C4F0D4D43463A46294600960B48FFF713FF0120B8F800303A78297802900B980190207800900548FEF734FD13B0BDE8F08F00BF2D
:4042C000768FFF1F778FFF1F503E0020748FFF1F034B01221A70034B002283F8A0277047F08FFF1F28490020042830B521D8114B012181401C78C9B221421A4619D12143AD
:4043000019700D4951F8204008442578037D2B432370437ED018407840B901EB8304246A1944257891F82C102943217013440130587030BD1E90FF1F04880000042830B5CE
:4043400023D8124B012282401978D2B20A421CD00F4C21EA020254F8201020441A70057D0A7822EA05020A70417E5A185378013BDBB253704BB904EB81031A6A21441378DB
:4043800091F82C1023EA0103137030BD1E90FF1F048800002DE9F04172B6B84E0024062707FB04630021DA8FD3F83A00013404F0A0F80C2CB14DF3D100240A2606FB04523B
:4043C000134653F8820FB2F88A205968013404F085F8092CF2D1AA48AA4D002450F8041F04F1105303F1560221F0FF065733C9B20B4452005B000232934206D012F8027C3B
:4044000012F801EC07F806E0F5E7A8420C44E5D19D4B0A2601279D4A1E7083F88472002313609B4A9B4C11689B4A9C4D116042F8483C42F8403C9A4ABE351168994A11607C
:40444000994A1168994A1160994A1168994A1160994A1168994A116099499360136193610A7842F002020A700A7C42F002020A742278A1F5863142F04002227041390A789A
:4044800042F010020A708F4A03CA45F8BE0C45F8BA1C07CA03C58C492A8008688B4A28351060097911718A4A07CA03C52A80894AD83D03CA45F80E0C45F80A1C07CA03C531
:4044C0002A80854A03CAC5F80A008448C5F80E1001780C2541F0080101708149612008704F20A1F5F06108807E481821017047800171C5800325017245811F250573C381C3
:40450000794B50201870042058801971DE80197292E803006E33062283F8002245F20E52A3F81221052283F8102183E8030093F8102103F5887343F2C8261D462B781B06CE
:4045400006D54FF4F07001F0D3FD013EF6D1FEE7664B4FF4A5621A8001224FF040231A7042F25122624FA3F82022192600253B784FF4F07003F0010343EA450501F0B8FD2A
:40458000013E05F0030578D0032DF0D1594A4FF480731380584B52211970584B58491B78A1F29B61DBB281F89B3607231370482000230B70887013705371524B02221A7001
:4045C00004229A72504A514F1378DFF8648143F07F03137012F8013C4D4843F0030302F8013C237802F5A65243F080032370494B0C321B783D78DBB298F80060EDB203F088
:4046000007011B091170F6B2537045F003033B7046F0030388F800303F4B08221A704CF20F021A863D4A40230121137093701372937282F822113A4920220A700A7180213F
:40464000017080F8232080F82830364B0A201A7040F20222A3F8172083F82D1001F04AFC314B88F8006044223D70304D1A7094E80F0007C52B80BDE8F081FEE704880000F3
:40468000FCFFFF47A8000048835800400076004000140048A04300405076004002510040041400481876004008140048207600400C140048287600401014004830760040E0
:4046C00003500140B4130048C8130048CB510040D0130048DC130048F013004822430040004800408240004092400040224200402542004004400040004200400F01004900
:40470000A146004001400040A2430040F8460040005B0040CF0100490C51004001590040945A00402B5B004076580040B0430040F946004008B503F0A5FE03680C2B00D1C9
:40474000FEE7FEE780B51148114B0025C0B1A3F1100192C922460439161BB74204D051F8046F42F8046BF7E7114653F8046C8C1AA64202D041F8045BF9E701381033E5E7D7
:4047800003F086FEFBF75AFFFEE700BF01000000808B0000124A134B10B51A60124A134C1368134843F4007313600023032B98BF54F823204FEA830188BF0E4A0133302BBE
:4047C0004250F3D10C4B1A780C4B1A700C4B084A1A60FFF7DFFDBDE8104001F01FBA00BF0004FA050CED00E014ED00E0000000000080FF1F35470000BC760040C080FF1F7F
:4048000008ED00E073B515461E460B4C04230022019200920A4601461846237001F074FA32462946207801F04BFA0221207801F035FA207802B070BD248BFF1FFBF770BE1C
:40484000074A8023136002F6883212680549D165054AE0211170A2F207321360704700BF80E100E03D48000007E400E073B515461E460B4C05230022019200920A460146C5
:404880001846237001F040FA32462946207801F017FA0221207801F001FA207802B070BD258BFF1FFBF74CBE074A4FF48073136002F68832126805491166054AE0211170B7
:4048C000A2F542721360704780E100E0A548000008E400E0044A8000137800F0040003F0FB03034313707047C051004010B50024E0B20134FFF722FD052CF9D1014BFF220D
:404900001A7010BD268BFF1F10B50446FFF7EEFF2046FFF7E9FC014B1C7010BD268BFF1F124B412210B51A70C12203F80E2C332203F80C2C00240C225A719C710C4B4FF437
:4049400000421A6007210F2001F0EAFA09490F2001F0D8FA084B1C70084B1C70084B1C70084B1C70084B1C8010BD00BFD649004080E100E0214A00007E540020785400202B
:40498000805400207F5400207C54002008B501F0B7FB084A137843F004031370137C43F00403137401F0B0FB034B4FF400421A6008BD00BFA543004000E100E010B5054C6A
:4049C00023781BB9FFF7ACFF01232370BDE81040FFF7DCBF2290FF1F0A4B10B54FF400441C602AB1084B1A60084B1880084B1980084A00231370084A1370084B4FF4004259
:404A00001A6010BD80E100E0745400207A5400207C540020805400207F54002000E100E070B4534B1978C9B201F0080000F0FF0258B3504D50492A78504C12F0010F17D050
:404A40004F48504E02783668D2B2B25CD2B22A7014221A7002784C48D2B2027002780132D2B202700A7842F011020A70082229E010221A700A7842F012020A7001224349B1
:404A800022700A7842F0100249E0C8075CD53B4C2078C0B2042817D0082829D001284DD134493B4809780088C9B23A4D80B28142297048D210221A702A7831490A703249E1
:404AC0000A70042222703FE02F4933480C78008880B2844237D2274A2E481278294C027010221A700A7824680078D2B2A05413E011F0020F1F4818D12349254A0C78128805
:404B000092B294420DD21F4C0A782468D2B2A25CD2B2027004221A700A780132D2B20A7012E0FF22027004220DE0FF21017012481A70017801F0EF010170C3E710492270BB
:404B40000A7011490A701A701B789B060CD50A4A137803F0EF031370084B00221A700B4A137803F0EF03137070BCFBF75FBD00BFD7490040D8490040785400207E54002022
:404B800080540020745400207F540020D64900407A5400202390FF1F7C540020F0B52C4D2C4E2F78348807F00707A4B2A0424DD0294B1A78D2B26FB934B158B92B7843F045
:404BC00040032B703080F0BD30802B7803F0BF032B70F0BD02F0200202F0FF060AB31F4F1F4A00254FF0200E157087F800E03D7117F8085C05F07F0507F8085C144D2D7812
:404C00002D0700D568B9174D2C8007241470147814F00104FBD11A7802F0DF021A70104A14701B780C4A9C060BD50E4B0029188014BF03220122013B1A701A78D207FCD4BC
:404C4000F0BD044B1880137833431370F0BD00BF9640004094400040A2430040104000400140004002400040084A137843F004031370137C43F00403137402F5A6520E32B5
:404C8000137843F080031370704700BFA9430040044A00F00300137803F0FC0318431070704700BF0958004010B586B06C460246174B082A5968186803C4197A53F8090F57
:404CC0002170596803AC03C41B7A23701ED8114C06A92378881803F08003DBB2237010F80C1C237810F8182C890001F00C0113430B43094A2370137803F0F3031370137847
:404D000010F80C1C43F00C030B43137006B010BDE08800000A5800400958004008B5094B0C221A70084A0020137843F020031370064B80221A70FFF7B7FFBDE8084001202C
:404D4000FFF7A6BF08580040095800400A58004010B5054C23781BB9FFF7E0FF01232370BDE81040FFF780BF2490FF1FFBF7B4BB074A4FF48063136002F688321268054923
:404D80009166054AC0211170A2F20A321360704780E100E06D4D00000AE400E0044A4001137800F0200003F0DF03034313707047F0510040144B10B5012200241C701A7403
:404DC00001F09EF9114A137843F01003137001F09BF90F4B0F221A7008221A740D4B04221A600521022001F09BF80B49022001F089F80A4B10221A70094B1C70094B1C70AD
:404E0000094B1C7010BD00BF76640040966400402564004080E100E0614E000081540020865400208854002084540020024A137843F00203137070477664004010B5064C9C
:404E400023781BB9FFF7B6FF01232370FFF7EEFF024B04221A6010BD2590FF1F00E100E030B59649964B1B780A78DBB212F0400F0A4600F01C81D80740F105810978453926
:404E8000052900F20081DFE811F006006E00FE00FE000600C10003F0DF0103F00A03082B35D113788548452B25D1864B1B789BB1854B864C1B681B78DBB22370844B062407
:404EC0001C70FF2403F85F4C002403F81F4C814B01241C70462318E07F4B1B7803F0020303F0FF048BB37D4C237843F00A0323706023037025E0764B02241C70FF2403F8A9
:404F00005F4C002403F81F4C4A230370BAE00A2B40F0B880714B187840F0A00018706E48007800F0020000F0FF0470B110781C7810F0080F14BF09200A2020431870602386
:404F40001370674B042018609CE06648037843F0200303705E4B52201870FF2003F85F0C03F81F4C8EE003F0020101F0FF0400292DD158485349057809788D4214D2524D57
:404F800001782D68C9B2695C504DC9B22970504906250D70FF2501F85F5C01F81F4C01780131C9B201706EE04B49097801F0020101F0FF0421B14948017841F00A014CE04F
:404FC0004848017841F020010170522052E042490878424900F0020000F0FF0520B1087840F09A00087039E03E4C207840F020002070374852240470FF2400F85F4C00F8F0
:405000001F5C087840F0900008703CE0364C374825682E4C01782478C9B2E4B26C5401780131C9B20170324900780978884209D2274902200870FF2001F85F0C002001F8DD
:405040001F0C20E02449097801F0020101F0FF0451B12248017841F009010170602111701F49042008600EE01E48017841F020010170122016490870FF2001F85F0C01F893
:405080001F4C00E00B46990616D51378134913F0080F087814BF0123022303430B7011490B7803F0DF030B701023137030BD0B78DB065CBF10230B7030BD00BF81540020CE
:4050C00066640040875400208C540020076400407664004084540020855400208654002080E100E08664004090540020885400209454002070B5A9B1224C2578102D05D1EB
:40510000214D2D78ED060FD5012070BD2578602D08D11E4D04262E601D4E357805F0F705357001E0022070BD49252570194D00242C70194D40002A70184A40F001001160C6
:40514000174A134913700A78C0B202F0FE020A70144A13F001031070134902F16F02134805D032231370FF230B70047004E082241470FF220A7003700D4B04221A6000209D
:4051800070BD00BF815400206664004080E200E0865400208854002094540020905400208554002007640040176400405764004000E100E030B51B4B1A78102A2CD11A4A2D
:4051C000147814F0100F144628D1184A042540001560C0B219B140F00100492200E045221A70134A8221107082F86F10FF211032117010490020087011780029FCD122785E
:40520000D207FCD5084A127802F00A020A2A07D110221A70032030BD022030BD012030BD002030BD815400206664004080E100E0076400405764004010B500F061FF214A82
:40524000044613780A2043F001031370137C43F00103137412F80A3C43F0010302F80A3C937943F00103937102F5AA521832137843F003031370144B04221A7013F8012C4F
:4052800002F0BF0203F8012C13F8012C42F0030203F8012C0E2203F8062CA3F597530222123B1A70094A137843F00803137000F021FE074B01222046BDE810401A6000F0BA
:4052C00023BF00BFAB43004006590040275B004080E200E0082804D00A280CBF8423C42300E0442308380E4AC0B20428137098BF0C4B4FF0000298BF33F910100A4B88BF7F
:4053000011461A8042F210734B4341F2883103F6C41393FBF1F305490B60054B1A80704702590040F2880000985400209C5400209A54002008B5102000F056FC07210020F9
:4053400000F0EEFD0749002000F0DCFD064A0C20137843F006031370FFF7BCFF034B00221A8008BD8D53000001590040A054002010B5054C23781BB9FFF7DCFF0123237038
:40538000BDE81040FFF758BF2690FF1FFBF7D9B808B500F0B5FE094A137843F02003137092F8003143F0100382F80031537843F010035370BDE8084000F0A6BE9B6400407D
:4053C000014B1870704700BF8B650040014B1878704700BF6B650040034A13785B07FCD5024B1880704700BF6B6500404C640040014B188880B270475C64004008B50F4A80
:405400000F4913789B0601D50B88FAE700F078FE0C4B1A7842F001021A701A7802F0FE021A705A7842F001025A705A7802F0FE025A70BDE8084000F067BE00BF6C64004052
:405440005C6400409C64004008B5084B1F221A70FFF7D4FF064B08221B78064B1B78064B1A70002203F8FF2C08BD00BF8B6400406B6500406C6400408B65004010B5054C1A
:4054800023781BB9FFF7E0FF01232370BDE81040FFF77EBF2790FF1F074B72221A70202203F8012C062203F85A2C472203F84A2C02229A72704700BF8464004008B500F01C
:4054C0001FFE094A137843F02003137012F8013C43F0100302F8013C937A43F010039372BDE8084000F010BE9464004008B505490B781BB9FFF7D0FF01230B70BDE8084026
:40550000FFF7DCBF2890FF1F08B500F0F9FD064B1A7842F001021A701A7802F0FE021A70BDE8084000F0F0BD9E64004073B515461E460B4C06230022019200920A460146A0
:405540001846237000F0E0FB32462946207800F0B7FB0221207800F0A1FB207802B070BD278BFF1F0E4A137803F0C00343F00B031370537F43F001035377937F43F0010347
:4055800093774FF47A73A2F89134A2F8F13440F2DE32044B1A801322A3F222531A70704777650040486A0040024A137843F08003137070477765004008B505490B781BB995
:4055C000FFF7D0FF01230B70BDE80840FFF7ECBF2A90FF1F014B1880704700BF486A0040FAF7B0BF084A4FF40053136002F68832126806495167064A602111706FF443713E
:405600000A441360704700BF80E100E0E15500000DE400E008B500F0D1FBBDE8084000F017BCFFF7F7BF38B5044600F069FD054600F036FC04F1804303F500431C7800F0A5
:405640003BFCE4B2284600F05FFD204638BD08B500F0B4FBC0B208BD38B50D46044600F069FC2B0632D400F0F3FC002830D110222146402000F08EFC072808D1164A137831
:40568000154C13F0020FFAD02378980702D44FF0FF3418E023789B08F9D1104A294653784020127800F09AFC0728F0D122780A4B9107FBD51A789207E9D51B789B0814BFEC
:4056C0004FF0FF34002400F0E3FC02E0012400E00424204638BD00BF22470040AE54002038B500F00DFD204A04461378022543F002031370137C0A2043F00203137412F8C7
:40570000093C43F0400302F8093CD37943F04003D37102F5AB52137843F003031370134B04221A7013F8012C42F0400203F8012C13F8012C02F0FC0203F8012C0E2203F8D1
:40574000062CA3F597530A4A183B1D70137843F00803137000F0CEFB064B20461D60BDE8384000F0D1BC00BFAB4300400E5900402F5B004080E200E0082804D00A280CBFCD
:405780008423C42300E0442308380E4AC0B20428137098BF0C4B4FF0000298BF33F910100A4B88BF11461A8042F210734B4341F2883103F6C41393FBF1F305490B60054BC0
:4057C0001A8070470A590040FC880000AC540020A4540020A854002008B5102000F014FA0721012000F09CFB0749012000F08AFB064A0C20137843F006031370FFF7BCFFC5
:40580000034B00221A8008BD3158000009590040AA54002010B5054C23781BB9FFF7DCFF01232370BDE81040FFF75ABF2B90FF1F70470000084A137843F060031370A2F522
:40584000A652133A137843F002031370137C43F002031374704700BF77580040054B00F003001A7802F0FC021A701A7810431870704700BF5A5800400320FFF7EFBF0000DF
:4058800008B5054B1A781AB901221A70FFF7F4FFBDE80840FFF7CEBF2C90FF1F044A137843F008031370137C43F0080313747047A8430040054B00F002001A7802F0FD0201
:4058C0001A701A7810431870704700BF2C580040064B074A1B78C3F3810303F19243063393F83831DBB21370704700BF2C5800400B460040054B00F00C001A7802F0F30272
:405900001A701A7810431870FFF7E2BF2C58004008B5064B0021197008465970FFF7EAFFBDE808400846FFF7C5BF00BF2C58004010B5064C23781BB9FFF7EAFF0123237013
:40594000FFF7ACFF024B1C221A7010BD2D90FF1F835B004073B515461E460B4C03230022019200920A4601461846237000F0CCF932462946207800F0A3F90221207800F00D
:405980008DF9207802B070BD288BFF1FFAF7C2BD074A4FF40063136002F6883212680549D166054AE0211170A2F20B321360704780E100E08D5900000BE400E0104A1378E7
:4059C00003F0C00343F00B03137092F8213043F0010382F8213092F8223043F0010382F822304FF47A73A2F89933A2F8F93340F2DE32044B1A801322A3F227331A70704785
:405A00007764004050680040024A137843F08003137070477764004008B505490B781BB9FFF7CCFF01230B70BDE80840FFF7ECBF2E90FF1F014B1880704700BF50680040F3
:405A4000104A137803F0C00343F00B03137092F8213043F0010382F8213092F8223043F0010382F822304FF47A73A2F89B34A2F8FB3440F2DE32044B1A801322A3F22C5335
:405A80001A70704779650040546A0040024A137843F08003137070477965004008B505490B781BB9FFF7CCFF01230B70BDE80840FFF7ECBF2F90FF1F014B1880704700BF1D
:405AC000546A0040014B1870704700BF74650040F7B516461F460B4C00230725019300930A4601462846257000F00EF93A463146207800F0E5F80221207800F0CFF8207814
:405B000003B0F0BD298BFF1FF7B516461F460B4C00230825019300930A4601462846257000F0F2F83A463146207800F0C9F80221207800F0B3F8207803B0F0BD2A8BFF1F23
:405B4000F7B516461F460B4C00230925019300930A4601462846257000F0D6F83A463146207800F0ADF80221207800F097F8207803B0F0BD2B8BFF1FFAF74EBD084A4FF4D6
:405B80000073136002F68832126806495166064A802111706FF442710A441360704700BF80E100E0795B000009E400E0FAF738BD074A4FF48043136002F688321268054902
:405BC0009167054AC0211170A2F20E321360704780E100E0AD5B00000EE400E0014B1870704700BF7D640040034A00F0F800137803431370704700BF02410040014B022286
:405C00001A60704700E100E0034A00F0F800137803431370704700BF9A400040074A7F23802113705170064A013BDBB202F80839002BF9D1034A1370704700BF2C8BFF1F1D
:405C4000F87B00400078004017280FD8084B0001C25C11B142F0200201E002F0DF02C254C25C42F00102C25400207047012070471070004017280DD8074900010B4603445C
:405C80001A7942F004021A71435C43F00103435400207047012070471070004017280BD8064A0001835C490003F0F10301F00E011943815400207047012070471070004090
:405CC00041F6FF73994208BF4FF400519A4208BF4FF4005217289FBFC00000F1804000F5EC4081809ABFC280002001207047000017289FBF034B00011954002088BF0120E9
:405D0000704700BF19700040172810B51AD8C00001F07F0100F1804441EAC21204F5EC44D2B222709DF8082003F00F0343EA0213DBB263709DF80C30002003F00F03A3709D
:405D4000E07010BD012010BD10B500F0D9F90A4A5378182B0AD91478013B5370E30003F1804303F5F0431B78137000E0FF2400F0CBF9204610BD00BF2C8BFF1F30B5040679
:405D80000CD411F4704509D1C40004F1804404F5F0442180A270E370284630BD012030BD03065FBFC00000F1804000F5F04081805ABFC280002001207047000070B500F030
:405DC000B9F800F045F908B104243AE000F07AF90728044610D11C4D2A781B4B900703D4012000F087F8F7E71A78910704D51B789B0814BF0724002400F04AF90CBB00F07A
:405E000099F800F025F90028DED1012000F006F907280AD10C4D02210C4800F09DF80228094E05D02B789B07F5D54FF0FF3406E033789A0703D4012000F05CF8F8E700F069
:405E400027F9204670BD00BF22470040AE54002008B500F055F90F4A137843F008031370137C43F0080313740B4BC8221A700B4A137843F010031370137C43F01003137422
:405E800002F5557213789B06FCD5BDE8084000F03BB900BFA043004001470040AC430040044B1A7842F001021A701A789207FCD5704700BF02470040024A137803F0FE0357
:405EC000137070470247004038B50446084DB4F5004F05D9286800F00BF9A4F50044F6E7034B58686043BDE8384000F001B900BF348BFF1F024B1B7A584300F0F9B800BF4E
:405F0000348BFF1F054A00F01F00126800F1100352F8230042F82310704700BF08ED00E000F01F0000F16040490100F56440C9B20170704708B500F0E3F8064A137843F0C7
:405F400008031370137C43F008031374BDE8084000F0DAB8A04300402DE9F0410E464B1E0A4FDFF82C80451EC418A5420BD03B78DB0703D40120FFF7BDFFF8E798F80030EE
:405F800005F8013FF1E73046BDE8F081224700402047004030B50F4C23789D0715D50E4BB6251D70D5251D7002251D702478A4070DD40C461870601A80B2824203D914F831
:405FC000010B1870F7E7072030BD042030BD092030BD00BF224700402047004070B50D4D2C78A60712D50C4CB6262670D8262670052626702D78AD070AD42070080AC9B2BB
:406000002070217022702370072070BD042070BD092070BD22470040204700400A4A137899070CD5094BB6211970E12119700E2119701278920704D41870072070470420F3
:4060400070470920704700BF224700402047004038B500F055F80C4A147874B901250B4915700B682B400AD00B6823F001030B6000BF00BF00BF556002E0042400E01C4657
:4060800000F042F8204638BD3090FF1F0400084010B500F035F8094B00215A681970012A08D1074C226842F00102226000BF00BF00BF5960BDE8104000F026B83090FF1F60
:4060C00004000840074B1B789B0708D5064BB6221A70E0221A700D221A70072070470420704700BF2247004020470040000000000230800803D000BF01380046FCD17047E1
:40610000EFF3108072B6704780F31088704700BF30B5214A21F00043934287B01BDD1F4A934205DD02460B4601F0ECFA07B030BD02AA00F029F900F0030001281AD00228C3
:406140000FD008B3DDE9020101230093DDE9042301F012F9EAE70022002300F0F1FB07B030BDDDE90423DDE9020100F0E9FB01F10041DBE70090DDE90423DDE9020101F0D0
:40618000FBF801F10041D1E7DDE90423DDE9020100F0D6FBCAE700BFFB21E93FFFFFEF7FF8B5C1F30A56A6F2FF35132D0A460B460446864611DC002D2EDB0F461F4929419C
:4061C0000A4225D04FF400232B413B4423EA01030026194634462046F8BD332D05DDB5F5806F1FD011462046F8BDA6F213464FF0FF3121FA06F63042F4D00122C5F13305E8
:4062000002FA05F52D1828BF9B1825EA0606E0E70028D7D11146E6E7013501F0004307D00026D6E702460B4601F06EFA0446D2E743F07F5343F440130026CAE7FFFF0F0027
:4062400030B5214A21F00043934287B01BDD1F4A934205DD02460B4601F054FA07B030BD02AA00F091F800F0030001281ED0022811D0DDE9042300B3DDE9020100F060FBEC
:4062800001F10041EAE7002300930022002301F073F807B030BD01230093DDE90201DDE9042301F069F801F10041D7E7DDE90423DDE9020100F044FBD0E70124DDE90201A5
:4062C000009401F059F8C9E7FB21E93FFFFFEF7F2DE9F04F8BB004460D4600F06BFA284B064693F900A00F46BAF1FF3F12D022462B462046294601F053FE834650B94FF0DA
:4063000000084FF000092046294642464B4601F01FFE20B9304639460BB0BDE8F08F194A0123CDF820B0CDE90445CDE9024501920093BAF1000F15D042464B464046494659
:4063400001F0BEFCBAF1020FCDE906010CD102F099F821230360089B63B9DDE906010BB0BDE8F08FCDE90689684601F049F90028F1D1ECE702F086F8089B0360EDE700BF9B
:40638000448BFF1F088900002DE9F04F944C21F00047A7428FB040F381801446914A0E46974226DC84A3D3E90023002940F3A08101F0A8F98C4B80469F42894600F08380BD
:4063C0007FA3D3E9002301F09DF902460B464046C4E90023494601F095F979A3D3E9002301F090F90125C4E9020128460FB0BDE8F08F7E4A974240F383807D4A974258DCD1
:406400003D15A5F21645A7EB05518B46824601F0DDFD01F0C5FA8046894642464B4650465946CDE9088901F06DF90022714B01F01DFB8B46824601F0C9FD01F0B1FA804602
:40644000894642464B4650465946CDE90A8901F059F90022674B01F009FB00220023CDE90C0101F06BFD002800F06A81002340464946002201F062FD002814BF0123022358
:406480005D480221019000912A46214608A800F07BFB002EC0F24A81054606E0C2E9000100250024C2E90245002528460FB0BDE8F08F02460B4601F025F90025C4E902014F
:4064C000C4E90001F1E740A3D3E9002301F01AF93FA3D3E9002306460F4601F013F902460B463046C4E90023394601F00BF938A3D3E9002301F006F90125C4E90201D4E763
:4065000000F0F0FF34A3D3E900238046894601F0ADFA0022394B01F0F7F801F057FD054601F03EFA24A3D3E90023CDE9040101F09DFA02460B464046494601F0E3F820A334
:40654000D3E9002382468B46DDE9040101F08EFA1F2DCDE9020155DC294B6A1E53F822309F424FD002460B465046594601F0CAF802460B4681468846C4E900234A464346F8
:406580005046594601F0BEF8DDE9022301F0BAF802460B46002EC4E9022386DA4A4608F1004301F1004184E80C00E160A0606D427BE700BFAFF3008000004054FB21F93FE6
:4065C0003163621A61B4D03D0000601A61B4D03D7370032E8A19A33B83C8C96D305FE43FFB21E93F7BD90240FB21F93FFB213941FFFFEF7F00007041908900000000E03FEC
:4066000010890000DDE902235046594601F07AF83F15C1F30A53FB1A102B81468846C4E90001ABDD58A3D3E90023DDE9040101F01DFA8046894602460B465046594601F0BD
:4066400061F8CDE9060102460B465046594601F059F842464B4601F055F84DA3D3E9002380468946DDE9040101F000FA42464B4601F048F802460B46CDE90201DDE906011A
:4066800001F040F80B4602468846C1F30A517F1A312F8146C4E9002372DD3FA3D3E90023DDE9040101F0E2F98046894602460B46DDE9060101F026F802460B4682468B46C8
:4066C000DDE9060101F01EF842464B4601F01AF833A3D3E9002380468946DDE9040101F0C5F942464B4601F00DF8CDE9020139E701F00AF82E4B80469F42894622D02AA35D
:40670000D3E9002301F000F802460B464046C4E90023494600F0F6FF23A3D3E9002300F0F3FF4FF0FF35C4E90201BEE66268E36802F1004203F1004345426260E360B4E639
:4067400003239DE610A3D3E9002300F0DDFF10A3D3E9002306460F4600F0D6FF02460B463046C4E90023394600F0CCFF08A3D3E9002300F0C9FF4FF0FF35C4E9020194E622
:40678000DDE906ABFAE600BF0000601A61B4D03D7370032E8A19A33B0000002E8A19A33BC14920259A837B393163621A61B4D03DFB21F93F2DE9F0415F4E0C46B6460E40AD
:4067C0007645054600F0988000290B46024674DD5FEA215E7FD0AEF2FF3EC3F313031EF0010F43F4801363D100273E4603EBD2710B444FEA6E0E520016204FF40011741854
:406800009C424FEAD2754FEA420202DC1B1B66180F44013805EB43034FEA5101EFD1844620244FF0004109E020D003EBD275013C4FEA51012B444FEA420220D09E4201EBD2
:406840000C05F1DA002D05EB010C09DBB0469542A3EB060300D9013B4646521B0844E4E7BCF1000FF2DB06F10108F0E7954217D8002D05EB010C49DB98460023ECE7134307
:4068800010D140087B1003F17F5303F50013FA0703EB0E57394648BF40F00040BDE8F0813346C2E7411C35D000F001031844E8E75B0003EBD273520096E721F00046064353
:4068C000ECD079BB8E46D30AAEF1150E5205002BF9D0DD0221D4002100E001465B00DC0201F10100F9D5C0F1200422FA04F42343C1EB0E0E82406EE702460B4601F0B6F86E
:406900002A46234600F000FFBDE8F081BCF1000FA9DAB1E701372046B4E720244FF0FF310020E2E702460B4600F0ECFE02460B4601F0C6F9B2E700BF0000F07F000000004A
:406940002DE9F04F21F00046B6F1795F85B00C4692469B4605466BDA01F038FB002800F0E7802A4623462846214601F07FF874A3D3E900238046894601F078F872A3D3E9A6
:40698000002300F0C1FE42464B4601F06FF870A3D3E9002300F0B6FE42464B4601F066F86DA3D3E9002300F0AFFE42464B4601F05DF86BA3D3E9002300F0A4FE42464B4613
:4069C00001F054F868A3D3E9002300F09DFE42464B4601F04BF8CDE900010022644B4046494601F043F8DDE9002306460F464046494601F03BF85246804689465B462846D0
:406A0000214601F033F802460B464046494600F079FE02460B463046394600F073FE02460B460020534900F06DFE05B0BDE8F08F02460B4601F01AF841A3D3E90023804621
:406A4000894601F013F840A3D3E9002300F05CFE42464B4601F00AF83DA3D3E9002300F051FE42464B4601F001F83BA3D3E9002300F04AFE42464B4600F0F8FF38A3D3E9A6
:406A8000002300F03FFE42464B4600F0EFFF36A3D3E9002300F038FE4B46424600F0E6FF354BCDE900019E4297DD344B00229E4238DCA6F5001300202E4916461F4600F0AD
:406AC00021FECDE902010022294B4046494600F0CDFF32463B4600F015FEDDE9002306460F464046494600F0C1FF5246804689465B462846214600F0B9FF02460B464046A2
:406B0000494600F0FFFD02460B463046394600F0F9FD02460B46DDE9020100F0F3FD05B0BDE8F08F164B0026CDE90223154FCAE71049002005B0BDE8F08F00BFAFF30080A1
:406B4000D43888BEE9FAA8BDC4B1B4BD9EEE213EAD529C804F7E923E9015CB19A001FA3E7751C1166CC1563F4C5555555555A53F0000E03F0000F03F3233D33F0000E93F69
:406B80000000E73F0000D23F2DE9F04F794CADF51D7D1F460B93D31E84FB0354DB17C3EBA403A69E744C23EAE37554F826406B1C26460994A3EB83037C1E0D95029402EBB9
:406BC000C3032D1B341904900A91089316D42C44013422AEA79F08E057F8250000F0E0FE0135A542E6E9020108D0002DF4DA013500200021A542E6E90201F6D1099B002B19
:406C00002FDB099B74AADDF8089002EBC30B0DF5E47A029B002BC0F295810B9B0026C3EB090824AB03EBC808049B0027A3F1080524AB03EBC904F5E9022374E8020100F015
:406C400015FF02460B463046394600F05DFD444506460F46EFD1EAE90267DA4509F10109D7D1099B10A91D4603F18043023B9B001A1D0A440B440F920E939CAB03EBC503D5
:406C8000002D53E928672BDD9CAB03EBC504A83C0DF13C0A0DF5E47B0022384B3046394600F0E4FE01F092F900F07AFE0022344B8046894600F0DAFE02460B463046394671
:406CC00000F020FD01F082F974E802234AF8040F4946404600F018FD5C4506460F46DBD1089C30463946224600F08EFC00224FF07F5306460F4600F0B9FE00F0F9FB002241
:406D0000204B00F0B3FE02460B463046394600F0F9FC0F46064601F059F9814600F040FE02460B463046394600F0ECFC002C06460F4640F3EE80681E10AB53F82030C4F196
:406D4000180243FA02F101FA02F29B1AC4F1170810AA42F82030894443FA08F8B8F1000F3DDD002D09F1010940F3D382002214460FA911E0ABAAAA2A988A00000000703E5A
:406D80000000704100002040C3F180700BB108600124013295420DDD51F8043F002CF3D0C3F1FF13013203F57F4395420B604FF00104F1DC089B002B0DDD012B00F0B1805B
:406DC000022B08D16A1E10AB53F8223010A9C3F3150341F82230B8F1020F00F08180002200233046394601F0A9F8002800F05B82099B05F1FF3B5B4510DC05F1804310AA5C
:406E0000013B0F9802EB8303002253F80419834242EA0102F9D1002A40F0B180099B10AA013B52F82330002B40F071820E9A012352F8041901330029FAD0E9186A1C8A42F7
:406E40000C914BDC0D990B985118DB0001F180410593A79B05440139E80003EB810A24ABD20003EB000B74AB13440193A2F10803069007934FF000095AF8040F00F090FDB4
:406E8000029BEBE80201002B4FF000064FF000071BDB069B03EB0904079B09EB030824AB1C449844049BA3F10805F5E9022374E8020100F0DBFD02460B463046394600F083
:406EC00023FC444506460F46EFD1019B09F10809E3E802670193059B9945CDD10C9DCCE632463B460020B04900F00CFC06460F46002C3FF474AF089A0020AB4900F084FB51
:406F000002460B463046394600F0FCFB06460F4665E710D16B1E10AA52F823304FEAE3581CE76A1E10AB53F8223010A9C3F3160341F822304FE700229C4B01F01DF858B96E
:406F400080464CE700260027EAE90267DA4509F101097FF45EAE84E6002D09F10109C8BF4FF002083FF702AF32463B4600208E4900F0C8FB4FF0020806460F462FE7089A56
:406F800010AB53F82B30183ACDF81490CDF8048008926BB90BF18043013B10A901EB830353F804190BF1FF3B183A0029F8D00892089A00207C4900F027FBBBF1000F04466F
:406FC0000D46C0F2B6814FEACB030DF5E87810AA02EB8B0608EB03090493043609F1080756F8040D00F0DCFC22462B4600F03EFD002267E902016E4B2046294600F036FD8A
:40700000B84504460D46EBD14B46CDF818B09B460DF5987ACDF808A0DDF824A04FF00009BAF1000FC0F226815DA3D3E90023DFF884815D4600260027002403E0A14510DB03
:40704000F8E90223F5E8020100F010FD02460B463046394600F058FB0134A24506460F46ECDA029BABF1080B03EBC903C3E9006772AB5B4509F10109D2D1A69BDDF818B07E
:40708000DDF808A0032B00F28380DFE813F0D100950095000400BBF1000F40F35481049BCDF808B053449846D3E90067D34658E9029A32463B464846514600F025FB044682
:4070C0000D4602460B464846514600F01BFB32463B4600F019FBC8E9000168E90245C34526462F46E3D1DA46DDF808B0BBF1010F40F32981049B0DF59C7B53449846D3E966
:407100000067994659E902343046CDE902341A463946234600F0F8FA04460D4602460B46DDE9020100F0EEFA32463B4600F0ECFAC9E9000169E90245CB4526462F46E1D170
:4071400000231D4608F1080850AC184678E90223294600F0D9FA444503460D46F5D1019A002A00F0D880DAF80440DAF80C200A9FDAF80010DAF8080005F1004504F1004489
:4071800002F100427D613B617C60FA603960B860059B03F007000DF51D7DBDE8F08F00BF00000040FB21F93F0000F03F0000E03F0000703EA88A000000242146049D0835F5
:4071C000554475E90223204600F09EFA55450446F7D1019B002B50D00A9F01F100450B46DAE9000187E83000224600F08BFABBF1000F03460D460DDD01241846FAE90223B5
:40720000294600F081FA0134A34503460D46F4DA019A0AB105F10045184629460A9BC3E90201059B03F007000DF51D7DBDE8F08F00231C46049A0832924418467AE90223C8
