:4000000000400020110000005D0E00005D0E000008B5044B1A6803F53F5302331A6000F025FF00BFFA46004010B5054C237833B9044B13B10448AFF300800123237010BDBD
:40004000A8C1FF1F0000000034270000084B10B51BB108490848AFF300800848036803B910BD074B002BFBD0BDE81040184700BF00000000ACC1FF1F34270000C8C0FF1FCC
:400080000000000008B500F055FD62B60E4D0F4C0F4E2B78012B14D100232B70237856F82330984723780133DBB2237022780A23B2FBF3F101FB1323DBB2237000F037FDCC
:4000C000E7E700F036FDE4E7CCC1FF1FCDC1FF1FCCC0FF1F030A0B701070704740F2E631054A0020138801339BB28B428ABF108013800120704700BFC4C1FF1F054A0020CE
:40010000538801339BB2622B8ABF508053800120704700BFC4C1FF1F38B50020002400F079FF054D002000F081FF2046AC8001F07DFCAC7138BD00BFC4C1FF1F40F6C312BA
:4001400010B50E4CA388934209D8012000F062FF012000F06BFFA3880133A38010BD40F6C412934209D1012001F060FC00F082FCA3880133A3800123A37110BDC4C1FF1F82
:4001800008B50D4BB3F9040002F006FA01F0E4FD07A3D3E9002301F033FE02F0F3F802F075FA064B80B2588008BD00BFAFF300809A9999999999054070C2FF1FA0C2FF1F20
:4001C000054BB3F90A004FF4800393FBF0F0034B80B29880704700BF70C2FF1FA0C2FF1F144B70B51A681F2A11DC2AB103EB4201013288801A601AE0114616460D4C251DA2
:4002000025F8116001312029F8D16164EEE7191D03F14205002231F8024FA94221F8024C2244F8D1A3F842001044C0F34F10024BD88070BDD0C1FF1FA0C2FF1F0000000080
:400240000F4B10B5B3F9000002F0A6F901F084FD09A3D3E9002301F0D3FD02F093F802F015FA084C80B22080FFF7BAFFE080208810BD00BFAFF30080CFF753E3A59B2D40B2
:4002800070C2FF1FA0C2FF1F08B5114BB3F90200104BB3F90030C01A01F04CFD0AA3D3E9002301F0ADFD02F045F846F2A813984205DC094B9842B8BF184600B200E0184665
:4002C000064B988108BD00BFEC51B81E856B284070C2FF1FF4C0FF1F589EFFFFA0C2FF1F0D4B10B5B3F908000C4CA0F5CD7001F021FD07A3D3E9002301F082FD02F042F8E0
:4003000002F09EF9A07300F08DF994F90E0010BD08AC1C5A643BBF3F70C2FF1FA0C2FF1FF7B52A4D002702AE294C06F8017D32460DF106012888277067708DF80670FFF735
:40034000C9FE9DF806303246A3709DF807300DF106016888E370FFF7BDFE9DF80630324623719DF807300DF10601A8886371FFF7B1FE9DF806303246A3719DF807300DF129
:400380000601A889E371FFF7A5FE9DF80630324623729DF807300DF106016372AB7B2888A3722B7CE3720B4C012323706770A770FFF790FE9DF80630E3709DF807302371B5
:4003C000AB7B63712B7CA37103B0F0BDA0C2FF1F90C2FF1F86C2FF1F08B5164B1B783BB341F2873214490B88934202D801330B8008BD8B780A200133DBB2B3FBF0F200FB6B
:400400001233DBB28B701BB90C220C49222005E0052B0DD10A4900230722332000F0F2FF022805D100F07EFEBDE8084000F066BE08BD00BFCAC1FF1F2AC2FF1F90C2FF1F7C
:4004400086C2FF1F08B500F079FD00F00DFE024B01221A7008BD00BFCCC1FF1FF8B5094C00232646084F23702578052D08D8284601F0AAF9337827F8150001333370F3E713
:40048000F8BD00BF2DC2FF1F70C2FF1F014B01221A7070476EC2FF1F30B4104B104C00EB40001A181B5C206851789278451C5B42494252427C2DDBB2C9B2D2B2256006D9ED
:4004C0007C387C284FF0000002D9206000E0FF200240014030BC184000F07ABAF6C0FF1F30C2FF1F38B50024054D02232246214620462C602B716C7100F06AFAEC8038BDC5
:4005000030C2FF1F0A4B0B4AB3F90630B3F5FA7F094BD5BF0120002010721072D5BF1A7C1A7C62F07F0202F07F021A74704700BF70C2FF1F30C2FF1FA0C2FF1F0346104846
:4005400070B5104A9C00051932F813606D8AAE42054698BF08782C449CBF0130087032F81350A48A94BF00200120A54228BF0878134422BF013008700220587470BD00BFD0
:40058000F6C0FF1FA0C2FF1F73B5002002AD05F8010D2946FFF7D2FF204C0128237C294614BF43F0020323F0020301202374FFF7C5FF294606460220FFF7C0FF0128237C1D
:4005C00001D1012E02D043F0040301E023F004032374134B1A78237C012A03D143F0080323740EE003F0F703022A237409D19DF8072043F0100301328DF80720074A1374C8
:4006000003E0237C23F0100323749DF80730002B0CBF0120022002B070BD00BFA0C2FF1F28C2FF1F0D4B0E4893F90E1090F91F208A421A4605DD90F91E00884207DB0020AF
:4006400000E00220137C43F00103137470471A7C012022F001021A74704700BFA0C2FF1FF6C0FF1F304B10B5597A304A012913D002D302291DD052E0002159819981D17C35
:4006800001294CD1517C012911D041F26F71D088884244D8022143E0517C002939D141F288305989013189B28142598137D8012136E0D07C58B999895881013189B2B1F5FB
:4006C0007A7F998194BF02210021597229E0517C012903D100205881988121E081B941F27070D48884420BD941F288345889013080B2A04201D85881CCE7598199810FE0EE
:400700000021598199890029C4D0074801398181C0E759890029CAD001395981C7E700215972587A507510BD30C2FF1FA0C2FF1FC306054B58BF00F001005B7D48BF012045
:40074000002B08BF01207047A0C2FF1FF8B56E4C2379042B00F2D080DFE803F003264E99BE00FFF7CFFE0246D8B12368664A0133B3F57A7F23BF002313600123136028BF99
:400780001371624B5B7D022B0BBF22682168C2F38702002207BF11460020C1F387011046ADE020600146AAE0FFF7ACFED8B1574B5A7D1D46012A08D1FFF7E6FE01280646C1
:4007C00003D1FFF769FEA673F8BD6B7D022B04D10320FFF761FE012303E00020FFF75CFE0023A373F8BDA37B1BB1BDE8F840FFF779BE04232371F8BD012000F0E7FBFFF7E6
:400800009DFC434B414E1D782DB100F02DF90022014610461BE0737D022B08D100F024F9074600F021F93946024628460FE0012B05D100F019F929460246284607E000F041
:4008400013F9074600F010F92A460146384600F0BFF8FFF757FEE38810B10133E38003E013B1294A013BD380E288274B4A2A08D9002203211971104611461A60DA8000F021
:40088000A7F8307CFFF754FF0028B2D1F8BDFFF739FEE38810B10133E38003E013B11A4A013BD3802368E288A3EBD3039A4201D2FFF718FE2368144A0133B3F57A7F25BF04
:4008C0000023136013600423206828BF137100221146C0F3870012E000221046114600F077F8002000F072FBFFF716FCFFF70AFE0028FBD12071F8BD00210846FF22BDE810
:40090000F84000F065B800BF30C2FF1FA0C2FF1FCBC1FF1F0A4910B50B680C24013393FBF4F204FB12330B604BB9064A1378072B03F1010111709CBF034A22F8130010BD3D
:4009400018C1FF1F40C2FF1FB6C2FF1F0000000000231A4610B51A4830F9121001320029B8BF4942082A0B44F6D19B12154AFF2B1548A8BFFF2330F81300536800210344B5
:4009800041F2D870834283BFA3F5BE53183B5360516054681170204601F0BCF906A3D3E9002301F09FFC28B90848844294BF0120022010BD002010BD6766666666CDED40B8
:4009C000B6C2FF1F40C2FF1F38270000052A0100024B187059709A70704700BF48C2FF1F38B5204CE078A8B923781BB100F0FAFA0123237163782BB1002000F0DBFA194B57
:400A000001225A71A3782BB1002000F0F7FA154B01229A712379134D43B1EA782B789A4204D3012000F0DEFA00232B7163790D4D43B1EA786B789A4204D3012000F0BAFA0B
:400A400000236B71A379074D43B1EA78AB789A4204D3012000F0D2FA0023AB71E3780233E37038BD48C2FF1F014BD879704700BF48C2FF1F044B0022DA701A715A719A7168
:400A80001A815A81DA71704748C2FF1F0A494FF47A704B8901339BB2B3FBF0F200FB12339BB2B3F5F97F4B8188BFC31A0B810B895B08CB71704700BF48C2FF1F08B5FFF784
:400AC000BFFBFFF75DFBBDE80840FFF7DDBB08B5FFF776FBBDE80840FFF702BC08B5FFF71FFCBDE80840FFF777BC000008B5064BB3F90C00FFF70EFFFFF700FB18B1FFF751
:400B000027FF024B187008BDA0C2FF1F28C2FF1F08B5FFF7A7FDBDE80840FFF735BDFFF715BEFFF7B3BF70477047FFF7D7BAFFF757BF704708B5FFF7EFFA00F02DFA12484B
:400B400000F080FA00F02AFE104800F01BFF00F039FE00F05DFF00F0D1FA962000F080FF0B4800F069FF012000F03CFA012000F021FA012000F042FABDE80840002211466D
:400B80001046FFF725BF00BF450400005D0400008D0400002DE9F04172B68C4D0024062606FB045300219A881868013401F0BAFD072CF5D18648874D002450F8041F04F15C
:400BC000105303F14C0221F0FF064D33C9B20B4452005B0002329A4206D012F8027C12F801EC07F806E0F5E7A8420C44E5D17A4A0023136013619360784B794C1A68794B9E
:400C0000794D1A60794B43F2C8261A68784B1A60784A137843F002031370137C43F0020313742378A2F5863243F040032370413A137843F0100313706F4B03CBC2F8400D27
:400C4000C2F8441D93E8070003C56C4B2A806C4A07CA03C31A806B4A6B4B03CB1060516003CB1061516103CB5162684910620A78422042F008020A70654A012111703D218E
:400C8000A2F5F0621180634918220A7048804FF4A7700A71C8800A721A685F4B1A60062283F8002245F20E52A3F81221052283F8102193F8102103F588731D462B781B0680
:400CC00006D54FF4F07000F0D3FE013EF6D1FEE740F64332514B524F1A8001224FF040231A7041F251221926A3F8202200253B784FF4F07003F0010343EA450500F0B8FEA8
:400D0000013E05F0030560D0032DF0D1454A4FF480731380444B52211970444B44491B78A1F29B61DBB281F89B3607231370482000230B708870137053713E4B02221A7035
:400D400091F89C333C4F43F0070381F89C333B4BDFF804811B783D7801F5C35198F80060DBB2EDB203F0070008311B090870F6B24B7045F003033B7046F0030388F80030B7
:400D80002F4BE921197040F2091183F830202D4A4023137093702C4BF0221A702B4A202313700A20A2F81D1082F8353000F050FC274B88F8006044223D70264D1A7094E877
:400DC0000F0007C52B80BDE8F081FEE738290000FCFFFF479400004800760040A8070048A043004018760040C0510040AC07004820760040035001406C070048F051004064
:400E000080070048125100408C07004822430040004800408240004000410040224200402542004004400040004200400F010049A146004001400040F8460040CF010049CC
:400E40000D51004001590040205B0040235B004076580040B0430040F946004008B501F035FC03680C2B00D1FEE7FEE780B51148114B0025C0B1A3F1100192C922460439C0
:400E8000161BB74204D051F8046F42F8046BF7E7114653F8046C8C1AA64202D041F8045BF9E701381033E5E701F016FCFFF7EAF8FEE700BF01000000A4290000124A134BB8
:400EC00010B51A60124A134C1368134843F4007313600023032B98BF54F823204FEA830188BF0E4A0133302B4250F3D10C4B1A780C4B1A700C4B084A1A60FFF74BFEBDE8BC
:400F0000104000F0D5BA00BF0004FA050CED00E014ED00E00000000000C0FF1F5D0E0000BC760040C0C0FF1F08ED00E0024A137843F080031370704777640040014B18787A
:400F4000704700BF67640040034A044913781B0701D50B78FAE7704767640040476400400A4A08B56323137002F8203C00F088FD074A137843F01003137000F085FDFFF7D0
:400F8000E3FF044B01221A7008BD00BF27640040976400408764004010B5054C23781BB9FFF7DEFF01232370BDE81040FFF7BEBF54C2FF1F044A137803F07F0343EAC010A8
:400FC000C0B21070704700BF30510040044A00F00100137803F0FE0318431070704700BF30510040044A8001137800F0400003F0BF0303431370704730510040044A00F03A
:401000000100137803F0FE0318431070704700BFC0510040044A8000137800F0040003F0FB03034313707047F0510040044A0001137800F0100003F0EF0303431370704710
:4010400020510040064A1023136002F688321268E0211065034A1170A2F541721360704780E100E004E400E0014B10221A60704780E200E0114B022210B51A70812203F87E
:401080000E2C082203F80C2C00240B225A719C710B4B4FF400421A6007210F2000F0EEFA08490F2000F0DCFA074B10221A70074B1C70074B1C70074B1C7010BDD6490040D2
:4010C00080E100E0D9110000C6C2FF1FCAC2FF1FCCC2FF1FC8C2FF1F08B500F0D1FC064A137843F004031370137C43F004031374BDE8084000F0C8BCA543004010B5074C1E
:4011000023781BB9FFF7B6FF01232370FFF7E4FF034B4FF400421A6010BD00BF55C2FF1F00E100E02DE9F843224BDFF8A8804FF40049C3F8009098F800301F4C1F4FE370B6
:401140003B781F4E237133781E4D637130783B782A7843EA002002F0FE0201302A7080B200F086FC00F08CFC174A137803F0FB031370137C03F0FB03137400F085FC2B7833
:40118000102243F002032B70E37888F80030E37888F8003023793B70637933702B7803F0EF032B70094BC3F80090094B1A70BDE8F88300BF80E100E01CC1FF1FDB4900402F
:4011C000DC490040D6490040A543004080E200E0C6C2FF1FCA49004070B57C487C4A13780178DBB211F0400F014600F0E880D80740F1D18008784538052800F2CC80DFE809
:4012000010F006005800CA00CA0006009A0003F0DF0003F00A03082B24D10C786B4B452C1BD16C4C247864B16B4C6C4D24682478E4B22C7004241470694A012414704622E8
:401240000EE0684C2478A60728D5674C227842F00A02227060221A701BE0002414704A221A7097E00A2B40F095805F4B1C7844F0A0041C705B4C2478A5070FD50A781C7848
:4012800012F0080F14BF09220A2222431A7060230B70564B4FF400421A607BE0544C237843F010032370534B10241C700423137070E09C0726D44A48464C05782478A542D6
:4012C0000DD2454D04782D68E4B22C5D434DE4B22C700424147002780132D2B229E041480078800704D54048027842F00A0242E03F4C207840F0100020703E4810240470C1
:4013000004202BE03748007810F0020F364803D0027842F09A022EE0354D2C7844F010042C70344C1025257004241470027842F0900202702FE0304D304C2E68274D207875
:401340002D78C0B2EDB2355420780130C0B220702B4824780078844202D2102010701AE02048007800F0020000F0FF0558B11E48027842F00902027060220A701B4A4FF496
:401380000040106007E01A4C207840F010002070157000E003469A0616D50B78124A13F0080F107814BF0123022303431370104A137803F0EF03137010230B7070BD037886
:4013C000DB065CBF1023037070BD00BFC6C2FF1FD7490040CBC2FF1FD0C2FF1FD8490040C8C2FF1FC9C2FF1FCAC2FF1F80E100E0D6490040D9490040D4C2FF1FCCC2FF1F40
:40140000D8C2FF1F70B5B1B11E4C2578102D05D11D4D2D782D0710D5012070BD2578602D09D11A4D4FF400462E60194E357805F0F705357001E0022070BD45252570154C21
:4014400000252570144C40002270144AC0B21160134A0F4913700A7813F0010F02F0FD020A70104A084B107004D012221A7004220D4B00E001221A700C4B4FF400421A60E7
:40148000002070BDC6C2FF1FD949004080E200E0CAC2FF1FC8C2FF1FCBC2FF1FD0C2FF1FC9C2FF1FD8490040D749004000E100E0074A7F23802113705170064A013BDBB2CC
:4014C00002F80839002BF9D1034A1370704700BF24C1FF1FF87B00400078004017280FD8084B0001C25C11B142F0200201E002F0DF02C254C25C42F00102C2540020704750
:40150000012070471070004017280DD8074900010B4603441A7942F004021A71435C43F00103435400207047012070471070004017280BD8064A0001835C490003F0F10352
:4015400001F00E011943815400207047012070471070004041F6FF73994208BF4FF400519A4208BF4FF4005217289FBFC00000F1804000F5EC4081809ABFC28000200120A8
:401580007047000017289FBF034B00011954002088BF0120704700BF19700040172810B51AD8C00001F07F0100F1804441EAC21204F5EC44D2B222709DF8082003F00F0378
:4015C00043EA0213DBB263709DF80C30002003F00F03A370E07010BD012010BD10B500F04FFA0A4A5378182B0AD91478013B5370E30003F1804303F5F0431B78137000E0AC
:40160000FF2400F041FA204610BD00BF24C1FF1F30B504060CD411F4704509D1C40004F1804404F5F0442180A270E370284630BD012030BD03065FBFC00000F1804000F55E
:40164000F04081805ABFC2800020012070470000024B1B7A584300F00BBA00BF2CC1FF1F054A00F01F00126800F1100352F8230042F82310704700BF08ED00E000F01F00DA
:4016800000F16040490100F56440C9B20170704710B541F6FF734FF480420121022000F039F941F6FF73084C1A46207001210C2000F04CF96070054800F076F9BDE8104059
:4016C000002000F077B900BF58C2FF1FE517000070B52B4D2B4C2878FFF716FF6878FFF713FF23782E46FF2B02D1FFF777FF20702278254D06230C211046ADB2FFF788FF74
:401700002A4645F6A0312078FFF794FF21783078FFF738FF6378FF2B03D1FFF75FFF194B5870627807230C211046FFF771FF174A294692B26078FFF77DFF61787078FFF743
:4017400021FF01213078FFF7C9FE01217078FFF7C5FE00F095F90E4A137843F02003137000F092F90B4B1A7842F001021A701A7842F002021A70084B01221A6070BD00BF75
:4017800058C2FF1F3CC1FF1F5AC2FF1FDAC2FF1F966500407064004080E200E010B5074C23691BB9FFF774FF01232361FFF790FF00F09AF8024B1B7810BD00BF58C2FF1F1D
:4017C0006164004000F09EB8044A054BC0F105001B8832F81000C01A00B27047DAC2FF1FF0C2FF1F7047000010B500F049F91A4A044613780A2043F001031370137C43F013
:401800000103137402F5AA521832137843F003031370124B04221A7013F8012C42F0400203F8012C13F8012C02F0FC0203F8012CC82203F8062CA3F597530222123B1A70D4
:40184000074A137843F008031370FFF701FF2046BDE8104000F018B9AB43004006590040275B0040082804D00A280CBF8423C42300E0442308380E4AC0B20428137098BF44
:401880000C4B4FF0000298BF33F910100A4B88BF11461A8042F210734B4341F2883103F6C41393FBF1F305490B60054B1A8070470259004062290000E8C2FF1FECC2FF1FD9
:4018C000F0C2FF1F08B5064A0C20137843F006031370FFF7C7FF034B00221A8008BD00BF01590040EAC2FF1F10B5054C23781BB9FFF7E8FF01232370BDE81040FFF774BFB0
:401900006CC2FF1F024A137843F00103137070470059004073B515461E460B4C04230022019200920A46014618462370FFF736FE324629462078FFF70DFE02212078FFF7EB
:40194000F7FD207802B070BD3EC1FF1F73B515461E460B4C03230022019200920A46014618462370FFF71AFE324629462078FFF7F1FD02212078FFF7DBFD207802B070BD3B
:401980003FC1FF1F064A0123136002F688321268E0211064034A1170A2F540721360704780E100E000E400E0014B1B681864704708ED00E04001024BC0B21870704700BF66
:4019C00000E400E0084A137843F060031370A2F5A652133A137843F001031370137C43F001031374704700BF77580040054B00F003001A7802F0FC021A701A78104318707E
:401A0000704700BF585800400120FFF7EFBF000008B5054B1A781AB901221A70FFF7F4FFBDE80840FFF7CEBF6DC2FF1F014B1870704700BF78640040074A2023136002F651
:401A400088321268E0215065044A11706FF441710A441360704700BF80E100E005E400E0014B1870704700BF73640040000000000230800803D000BF01380046FCD17047A7
:401A8000EFF3108072B6704780F31088704700BF81F0004102E000BF83F0004330B54FEA41044FEA430594EA050F08BF90EA020F1FBF54EA000C55EA020C7FEA645C7FEA7C
:401AC000655C00F0E2804FEA5454D4EB5555B8BF6D420CDD2C4480EA020281EA030382EA000083EA010180EA020281EA0303362D88BF30BD11F0004F4FEA01314FF4801C40
:401B00004CEA113102D0404261EB410113F0004F4FEA03334CEA133302D0524263EB430394EA050F00F0A780A4F10104D5F1200E0DDB02FA0EFC22FA05F2801841F1000111
:401B400003FA0EF2801843FA05F359410EE0A5F120050EF1200E012A03FA0EFC28BF4CF0020C43FA05F3C01851EBE37101F0004507D54FF0000EDCF1000C7EEB00006EEB31
:401B80000101B1F5801F1BD3B1F5001F0CD349085FEA30004FEA3C0C04F101044FEA445212F5800F80F09A80BCF1004F08BF5FEA500C50F1000041EB045141EA050130BDD0
:401BC0005FEA4C0C404141EB010111F4801FA4F10104E9D191F0000F04BF01460020B1FA81F308BF2033A3F10B03B3F120020CDA0C3208DD02F1140CC2F10C0201FA0CF06E
:401C000021FA02F10CE002F11402D8BFC2F1200C01FA02F120FA0CFCDCBF41EA0C019040E41AA2BF01EB0451294330BD6FEA04041F3C1CDA0C340EDC04F11404C4F12002BF
:401C400020FA04F001FA02F340EA030021FA04F345EA030130BDC4F10C04C4F1200220FA02F001FA04F340EA0300294630BD21FA04F0294630BD94F0000F83F4801306BF17
:401C800081F480110134013D4EE77FEA645C18BF7FEA655C29D094EA050F08BF90EA020F05D054EA000C04BF1946104630BD91EA030F1EBF0021002030BD5FEA545C05D184
:401CC0004000494128BF41F0004130BD14F580043CBF01F5801130BD01F0004545F0FE4141F470014FF0000030BD7FEA645C1ABF194610467FEA655C1CBF0B46024650EACD
:401D0000013406BF52EA033591EA030F41F4002130BD00BF90F0000F04BF0021704730B54FF4806404F132044FF000054FF0000150E700BF90F0000F04BF0021704730B5BC
:401D40004FF4806404F1320410F0004548BF40424FF000013EE700BF42004FEAE2014FEA31014FEA02701FBF12F07F4393F07F4F81F06051704792F0000F14BF93F07F4F2A
:401D8000704730B54FF4607401F0004521F0004120E700BF50EA010208BF704730B54FF000050AE050EA010208BF704730B511F0004502D5404261EB41014FF4806404F16B
:401DC00032045FEA915C3FF4DCAE4FF003025FEADC0C18BF03325FEADC0C18BF033202EBDC02C2F1200300FA03FC20FA02F001FA03FE40EA0E0021FA02F11444C1E600BF56
:401E000070B54FF0FF0C4CF4E06C1CEA11541DBF1CEA135594EA0C0F95EA0C0F00F0DEF82C4481EA030621EA4C5123EA4C5350EA013518BF52EA033541F4801143F4801376
:401E400038D0A0FB02CE4FF00005E1FB02E506F00042E0FB03E54FF00006E1FB03569CF0000F18BF4EF0010EA4F1FF04B6F5007F64F5407404D25FEA4E0E6D4146EB06067F
:401E800042EAC62141EA55514FEAC52040EA5E504FEACE2EB4F1FD0C88BFBCF5E06F1ED8BEF1004F08BF5FEA500E50F1000041EB045170BD06F0004646EA010140EA020033
:401EC00081EA0301B4EB5C04C2BFD4EB0C0541EA045170BD41F480114FF0000E013C00F3AB8014F1360FDEBF002001F0004170BDC4F10004203C35DA0C341BDC04F114043A
:401F0000C4F1200500FA05F320FA04F001FA05F240EA020001F0004221F0004110EBD37021FA04F642EB06015EEA430E08BF20EAD37070BDC4F10C04C4F1200500FA04F333
:401F400020FA05F001FA04F240EA020001F0004110EBD37041F100015EEA430E08BF20EAD37070BDC4F1200500FA05F24EEA020E20FA04F301FA05F243EA020321FA04F061
:401F800001F0004121FA04F220EA020000EBD3705EEA430E08BF20EAD37070BD94F0000F0FD101F00046400041EB010111F4801F08BF013CF7D041EA060195F0000F18BFA6
:401FC000704703F00046520043EB030313F4801F08BF013DF7D043EA0603704794EA0C0F0CEA135518BF95EA0C0F0CD050EA410618BF52EA4306D1D181EA030101F00041A8
:402000004FF0000070BD50EA410606BF1046194652EA430619D094EA0C0F02D150EA013613D195EA0C0F05D152EA03361CBF104619460AD181EA030101F0004141F0FE41A9
:4020400041F470014FF0000070BD41F0FE4141F4780170BD70B54FF0FF0C4CF4E06C1CEA11541DBF1CEA135594EA0C0F95EA0C0F00F0A7F8A4EB050481EA030E52EA033509
:402080004FEA013100F088804FEA03334FF0805545EA131343EA12634FEA022245EA111545EA10654FEA00260EF000419D4208BF964244F1FD0404F5407402D25B084FEA7E
:4020C0003202B61A65EB03055B084FEA32024FF480104FF4002CB6EB020E75EB030E22BFB61A754640EA0C005B084FEA3202B6EB020E75EB030E22BFB61A754640EA5C00CA
:402100005B084FEA3202B6EB020E75EB030E22BFB61A754640EA9C005B084FEA3202B6EB020E75EB030E22BFB61A754640EADC0055EA060E18D04FEA051545EA16754FEA96
:4021400006164FEAC30343EA52734FEAC2025FEA1C1CC0D111F4801F0BD141EA00014FF000004FF0004CB6E711F4801F04BF01430020B4F1FD0C88BFBCF5E06F3FF6AFAEDE
:40218000B5EB030C04BFB6EB020C5FEA500C50F1000041EB045170BD0EF0004E4EEA113114EB5C04C2BFD4EB0C0541EA045170BD41F480114FF0000E013C90E645EA060E3E
:4021C0008DE60CEA135594EA0C0F08BF95EA0C0F3FF43BAF94EA0C0F0AD150EA01347FF434AF95EA0C0F7FF425AF104619462CE795EA0C0F06D152EA03353FF4FDAE1046FC
:40220000194622E750EA410618BF52EA43067FF4C5AE50EA41047FF40DAF52EA43057FF4EBAE12E74FF0FF3C06E000BF4FF0010C02E000BF4FF0010C4DF804CD4FEA410C48
:402240007FEA6C5C4FEA430C18BF7FEA6C5C1BD001B050EA410C0CBF52EA430C91EA030F02BF90EA020F0020704710F1000F91EA030F58BF994208BF90422CBFD8176FEA19
:40228000E37040F0010070474FEA410C7FEA6C5C02D150EA013C07D14FEA430C7FEA6C5CD6D152EA033CD3D05DF8040B704700BF8446104662468C461946634600E000BF71
:4022C00001B5FFF7B7FF002848BF10F1000F01BD4DF808EDFFF7F4FF0CBF012000205DF808FB00BF4DF808EDFFF7EAFF34BF012000205DF808FB00BF4DF808EDFFF7E0FFC6
:4023000094BF012000205DF808FB00BF4DF808EDFFF7CEFF94BF012000205DF808FB00BF4DF808EDFFF7C4FF34BF012000205DF808FB00BF4FEA410212F5001215D211D5AA
:402340006FF47873B3EB625212D94FEAC12343F0004343EA505311F0004F23FA02F018BF404270474FF00000704750EA013005D111F0004008BF6FF0004070474FF000002C
:40238000704700BF4FEA4102B2F1E04324BFB3F5001CDCF1FE5C0DD901F0004C4FEAC0024CEA5070B2F1004F40EB830008BF20F00100704711F0804F21D113F13872BCBF69
:4023C00001F00040704741F480114FEA5252C2F11802C2F1200C10FA0CF320FA02F018BF40F001004FEAC1234FEAD32303FA0CFC40EA0C0023FA02F34FEA4303CCE77FEA55
:40240000625307D150EA01331EBF4FF0FE4040F44000704701F0004040F0FE4040F40000704700BF80F0004002E000BF81F0004142001FBF5FEA410392EA030F7FEA226C9E
:402440007FEA236C6AD04FEA1262D2EB1363C1BFD218414048404140B8BF5B42192B88BF704710F0004F40F4000020F07F4018BF404211F0004F41F4000121F07F4118BF27
:40248000494292EA030F3FD0A2F1010241FA03FC10EB0C00C3F1200301FA03F100F0004302D5494260EB4000B0F5000F13D3B0F1807F06D340084FEA310102F10102FE2A53
:4024C00051D2B1F1004F40EBC25008BF20F0010040EA03007047490040EB000010F4000FA2F10102EDD1B0FA80FCACF1080CB2EB0C0200FA0CF0AABF00EBC2505242184327
:40250000BCBFD0401843704792F0000F81F4000106BF80F400000132013BB5E74FEA41037FEA226C18BF7FEA236C21D092EA030F04D092F0000F08BF0846704790EA010F36
:402540001CBF0020704712F07F4F04D1400028BF40F00040704712F100723CBF00F50000704700F0004343F0FE4040F4000070477FEA226216BF08467FEA23630146420281
:4025800006BF5FEA412390EA010F40F4800070474FF0000304E000BF10F0004348BF40425FEA000C08BF704743F0964301464FF000001CE050EA010208BF70474FF00003A5
:4025C0000AE000BF50EA010208BF704711F0004302D5404261EB41015FEA010C02BF84460146002043F0B64308BFA3F18053A3F50003BCFA8CF2083AA3EBC25310DB01FA10
:4026000002FC634400FA02FCC2F12002BCF1004F20FA02F243EB020008BF20F00100704702F1200201FA02FCC2F1200250EA4C0021FA02F243EB020008BF20EADC707047E3
:402640004FEA4002B2F1FE4F0FD34FF09E03B3EB12620DD94FEA002343F0004310F0004F23FA02F018BF404270474FF00000704712F1610F01D1420205D110F0004008BF99
:402680006FF0004070474FF00000704742000ED2B2F1FE4F0BD34FF09E03B3EB126209D44FEA002343F0004323FA02F070474FF00000704712F1610F01D1420202D14FF0E6
:4026C000FF3070474FF00000704700BF014B1868704700BFA0C1FF1F0E4B70B51E460E4C0025E41AA410A54204D056F8253098470135F8E700F03CF9084B094C1E46E41AEA
:40270000A4100025A54204D056F8253098470135F8E770BD7C2900007C2900007C2900008429000003460244934202D003F8011BFAE77047000000000000010004000900B2
:40274000100019002400310040005100640079009000A900C400E10000012101440169019001B901E401110240027102A402D902100349038403C103000441048404C904FC
:4027800010055905A405F10540069106E40639079007E9074408A10800096109C409290A900AF90A640BD10B400CB10C240D990D100E890E040F810F0010811004118911A1
:4027C000101299122413B1134014D1146415F91590162917C41761180019A119441AE91A901B391CE41C911D401EF11EA41F59201021C921842241230024C1248425492646
:402800001027D927A4287129402A112BE42BB92C902D692E442F21300031E131C432A933903479356436513740383139243A193B103C093D043E013F0040014104420943E4
:40284000104419452446314740485149644A794B904CA94DC44EE14F00512152445369549055B956E4571159405A715BA45CD95D105F49608461C162006441658466C9678B
:402880001069596AA46BF16C406E916FE47039729073E9744476A1770079617AC47B297D907EF97F6481D1824084B18524879988108A898B048D818E009081910493899430
:4028C000109699972499B19A409CD19D649FF9A090A229A4C4A561A700A9A1AA44ACE9AD90AF39B1E4B291B440B6F1B7A4B959BB10BDC9BE84C041C200C4C1C584C749C9D5
:4029000010CBD9CCA4CE71D040D211D4E4D5B9D790D969DB44DD21DF00E1E1E2C4E4A9E690E879EA64EC51EE40F031F224F419F610F809FA04FC01FEC84900401900405192
:402940000040300000000140001000140140000800400140000A004C014000020050014020000001000000040000001043000000F8B500BFF8BC08BC9E4670474D0000004A
:40298000BD0E0000F8B500BFF8BC08BC9E46704729000000A8290000C8C0FF1FE0000000500100000000000000000000BD0A0000CF0A0000DD0A0000ED0A0000110B000062
:4029C0001F0B0000230B0000270B0000290B00002B0B00000008010000000100000001000101010100010001307520CB3421EC2C9A107C15004600000100000000810208C8
:402A00000B0000007F8000001F0000000000DC82B805010043000000C056FE03FFFFFFFF0000000000000000000000000000000000000000000000000000000000000000FB
:402A40006C290000000000000000000000000000000000000000000000000000000000000000000000000000000000000000000000000000000000000000000000000000C1
:402A800040C1FF1F000000000000000000000000000000000000000000000000000000000000000000000000000000000000000000000000000000000000000000000000F7
:402AC00000000000000000000000000000000000000000000000000000000000000000000000000000000000000000000000000000000000000000000000000000000000D6
:402B00000000000000000000000000000000000000000000000000000000000000000000000000000000000000000000000000000000000000000000000000000000000095
:402B40000000000000000000000000000000000000000000000000000000000000000000000000000000000000000000000000000000000000000000000000000000000055
:402B80000000000000000000000000000000000000000000000000000000000000000000000000000000000000000000000000000000000000000000000000000000000015
:020000040001F9
:0200000480007A
:400000000145004007520040015B00400164004001650040360001403601014031020140490301403E0401403F0501402A060140450701400E08014031090140030B0140A3
:40004000020D0140010F01401C140140341501401F1601404217014006190140021B01401240014019410140094201400743014005440140094501400C4601400D47014090
:4000800005480140064901400C4C0140084D014009500140055101407E0200C8014011081802602061307C402784870D86050006030604040A010D050E4012021428150880
:4000C00018071C401D03203026282A802B052E182F18323833103407350736C037083E143F10520353025804590C5B045C095F01840185018C019101950196019901A00145
:40010000A101A401AA01AB01AD01AE01B101B601D401D804D904DB0CDF0101820318040C0701088009AA0E20102111011204140415081682174419801A041B081C0221A0AD
:400140002204260229802A202C042E822F013140320436103705380239813C045C8064016540696079407D4081808202844088018A04C0AFC22FC4FFCABCCCEACE49D610F0
:40018000DE18E280E62805010601080109010C011101140117011B012001210128012D012E0131013401580459045F018166845589788E8091559280970F9B559C33A266D4
:4001C000A333A678A80FAB80AE55B07FB17FB280B380B480BB08BE11BF01D608D804D904DB04DC11DD90DF010211032004100508070108800B400E20102012021391168846
:40020000174019021A081B041E0820202102250128802B042E822F01320A3320340435083610370138283A083B053C103F044010410458605B04600462046A146B82703130
:40024000710872207301810187049160940A9588970298409A029C049D429E249F51A50AA610B420B540C0E5C229C4DFCA95CCE7CE65D60ED806E202EA0802480308040170
:400280000580065607400A400B060D400E800F8013251715185719151AA81B2A224023052664271528022A552B052E54300C313032303303340335C036C0370C3A8A3B8A7B
:4002C0003F10580959095C225F018001877888018B668D0F935594019580A001A533A601A9D5AA01AC01B201B37FB580BF04D804D909DC20DF010182020803200688092012
:400300000E2010081212130114041508174119C21B241F0420802160220B23192714288029022A102B242C082F203008312032013304370A38443B113C803E147B087F08BD
:400340008440860490049160921C94089588975A9A889B029C849D409E119F51A010A618AA04AB04B020C05FC222C4FFCA67CCC7CE7FDE2423022F01350137025804590406
:400380005F01870289019101B102B701B980BF40C054C5ECC720C823C9FFCAFFCBFFCF01D018D280D401D604D804D909DA04DB04DC20DD11DF01E040E240E440E540E680B4
:4003C000E880EA80EC80EE800104021003540620074009800B0A0C080D8410081280171520402301269027052C082D012E40320236203705380439203B103D043EA0410120
:4004000049094B405101520158405909608073407B088480850487018E208F459004916094489508974298409A809C049E019F41A610A708AC10C03EC2A3C47ACAB0CCE1C2
:40044000CE76D001D208D60BD801DE04E00AE808EE0403012F0137013F40580459045B045F01D608D804D904DB04DD90DF010010014204100502088009180C800D081080B7
:4004800014801606240229222A042C202D222F0230203180320836083A023C103D013E803F0858406F0284E0850886088C808D708E868F0491019402AD01C05BC2A7C4D8AF
:4004C000CAF7CC4ECEF1D608E050E410E608EE048001E404EA80E202EA08E608580459045F018011860188058C09920296019A209E04A208A302A601A701AA10AC03AF0455
:40050000B001B101B23EB502B704B808BE04D804D904DF0103450504074909080B080C810D080E080F10128013081501160217141D051F04240A252026A027482C812D046E
:400540002F04312033453620374538023A023B1A3E023F108D0191059408970A98019B159E029F40A080A108A204C0FBC2F6C4FCCAF0CCFFCEA7E640E810EA010208060273
:4005800008400A800B010C04108012401410162018011C022204240828202A102E01330134FF3A0C3E1056025731580459045B0C5C025F01D804D904DF01034504880506A6
:4005C0000650074409040B0A0CA00D0C0E4012101514160217011E081F08250C280429042A402C042D022E202F05330535043610370139083A023D185F1067016C406D15C2
:400600006E406F1074A07D40842191409311940895099640970A9B059C049E309F40A210A708AA02B304B404C0FBC2F7C4F4CABECCE3CE63D620D810DE10EA01EE02B1029A
:40064000B410B580E890EA01EE02E810EA0117201A20324236483B40411069206A20824488208A80C480C610CCF0CE10D010E280E68030203C405280572059045D086604F4
:4006800081048602872097409A049B20A020A280A642AE08CC10CE20D460D6C0D880E240E690EA103E1094409740A640A908AB20CE20E880EE20874096109740A640A84087
:4006C000E640EE201040110114208440C40C0E2053018408910196019820AE01C204D4011B04278083019101960197029820A408B210C608C801EA010A010B400C084402FF
:4007000084209101960198209B80A408AB04C20ED00424089610AE40C820EE4056208E20AA10B404D440EA8010401320148079017C20910198209C02AB80AF40C40EDE034E
:4007400078407C8098C0AB20B402DC01DE04E80800070101080309010A070C010D0110051A0500AB010F03C0108011020000000000E9FB0030000001310030000000000028
:400780004000000004000000C00000000003030000000000200818000800000000F9F9000002020006001401000300000004000000000000000000000000000000000000CF
:4007C00000000000000000000000000000000000000000000000000000000000000000000000000000000000000000000000000000000000000000000000000000000000F9
:4008000000000000000000000000000000000000000000000000000000000000000000000000000000000000000000000000000000000000000000000000000000000000B8
:400840000000000000000000000000000000000000000000000000000000000000000000000000000000000000000000000000000000000000000000000000000000000078
:400880000000000000000000000000000000000000000000000000000000000000000000000000000000000000000000000000000000000000000000000000000000000038
:0200000490006A
:0400000000004005B7
:0200000490105A
:04000000BC90ACAF55
:0200000490303A
:02000000BFCA75
:0200000490402A
:4000000000000000000000000000000000000000000000000000000000000000000000000000000000000000000000000000000000000000000000000000000000000000C0
:400040000000000000000000000000000000000000000000000000000000000000000000000000000000000000000000000000000000000000000000000000000000000080
:0200000490501A
:0C00000000012E10306900012E22F033A8
:00000001FF